{
  "contractName": "AccessWhitelist",
  "abi": [
    {
      "inputs": [],
      "payable": false,
      "stateMutability": "nonpayable",
      "type": "constructor"
    },
    {
      "anonymous": false,
      "inputs": [
        {
          "indexed": true,
          "internalType": "address",
          "name": "account",
          "type": "address"
        }
      ],
      "name": "WhitelistAdminAdded",
      "type": "event"
    },
    {
      "anonymous": false,
      "inputs": [
        {
          "indexed": true,
          "internalType": "address",
          "name": "account",
          "type": "address"
        }
      ],
      "name": "WhitelistAdminRemoved",
      "type": "event"
    },
    {
      "anonymous": false,
      "inputs": [
        {
          "indexed": true,
          "internalType": "address",
          "name": "account",
          "type": "address"
        }
      ],
      "name": "WhitelistedAdded",
      "type": "event"
    },
    {
      "anonymous": false,
      "inputs": [
        {
          "indexed": true,
          "internalType": "address",
          "name": "account",
          "type": "address"
        }
      ],
      "name": "WhitelistedRemoved",
      "type": "event"
    },
    {
      "constant": false,
      "inputs": [
        {
          "internalType": "address",
          "name": "account",
          "type": "address"
        }
      ],
      "name": "addWhitelistAdmin",
      "outputs": [],
      "payable": false,
      "stateMutability": "nonpayable",
      "type": "function"
    },
    {
      "constant": false,
      "inputs": [
        {
          "internalType": "address",
          "name": "account",
          "type": "address"
        }
      ],
      "name": "addWhitelisted",
      "outputs": [],
      "payable": false,
      "stateMutability": "nonpayable",
      "type": "function"
    },
    {
      "constant": true,
      "inputs": [
        {
          "internalType": "address",
          "name": "account",
          "type": "address"
        }
      ],
      "name": "isWhitelistAdmin",
      "outputs": [
        {
          "internalType": "bool",
          "name": "",
          "type": "bool"
        }
      ],
      "payable": false,
      "stateMutability": "view",
      "type": "function"
    },
    {
      "constant": true,
      "inputs": [
        {
          "internalType": "address",
          "name": "account",
          "type": "address"
        }
      ],
      "name": "isWhitelisted",
      "outputs": [
        {
          "internalType": "bool",
          "name": "",
          "type": "bool"
        }
      ],
      "payable": false,
      "stateMutability": "view",
      "type": "function"
    },
    {
      "constant": false,
      "inputs": [
        {
          "internalType": "address",
          "name": "account",
          "type": "address"
        }
      ],
      "name": "removeWhitelisted",
      "outputs": [],
      "payable": false,
      "stateMutability": "nonpayable",
      "type": "function"
    },
    {
      "constant": false,
      "inputs": [],
      "name": "renounceWhitelistAdmin",
      "outputs": [],
      "payable": false,
      "stateMutability": "nonpayable",
      "type": "function"
    },
    {
      "constant": false,
      "inputs": [],
      "name": "renounceWhitelisted",
      "outputs": [],
      "payable": false,
      "stateMutability": "nonpayable",
      "type": "function"
    }
  ],
  "bytecode": "0x608060405234801561001057600080fd5b506100336100256001600160e01b0361004b16565b6001600160e01b0361004f16565b6100463361009e60201b6101661760201c565b610270565b3390565b61006781600061011060201b6104331790919060201c565b6040516001600160a01b038216907f22380c05984257a1cb900161c713dd71d39e74820f1aea43bd3f1bdd2096129990600090a250565b6100c06100b26001600160e01b0361004b16565b6001600160e01b0361019a16565b6100fb5760405162461bcd60e51b81526004018080602001828103825260408152602001806108746040913960400191505060405180910390fd5b61010d816001600160e01b036101ba16565b50565b61012382826001600160e01b0361020916565b15610175576040805162461bcd60e51b815260206004820152601f60248201527f526f6c65733a206163636f756e7420616c72656164792068617320726f6c6500604482015290519081900360640190fd5b6001600160a01b0316600090815260209190915260409020805460ff19166001179055565b60006101b482600061020960201b61033c1790919060201c565b92915050565b6101d281600161011060201b6104331790919060201c565b6040516001600160a01b038216907fee1504a83b6d4a361f4c1dc78ab59bfa30d6a3b6612c403e86bb01ef2984295f90600090a250565b60006001600160a01b0382166102505760405162461bcd60e51b81526004018080602001828103825260228152602001806108526022913960400191505060405180910390fd5b506001600160a01b03166000908152602091909152604090205460ff1690565b6105d38061027f6000396000f3fe608060405234801561001057600080fd5b506004361061007d5760003560e01c80634c5a628c1161005b5780634c5a628c1461010a5780637362d9c814610112578063bb5f747b14610138578063d6cd94731461015e5761007d565b806310154bad14610082578063291d9549146100aa5780633af32abf146100d0575b600080fd5b6100a86004803603602081101561009857600080fd5b50356001600160a01b0316610166565b005b6100a8600480360360208110156100c057600080fd5b50356001600160a01b03166101bd565b6100f6600480360360208110156100e657600080fd5b50356001600160a01b031661020c565b604080519115158252519081900360200190f35b6100a8610225565b6100a86004803603602081101561012857600080fd5b50356001600160a01b0316610237565b6100f66004803603602081101561014e57600080fd5b50356001600160a01b0316610286565b6100a8610298565b6101766101716102a8565b610286565b6101b15760405162461bcd60e51b815260040180806020018281038252604081526020018061055f6040913960400191505060405180910390fd5b6101ba816102ac565b50565b6101c86101716102a8565b6102035760405162461bcd60e51b815260040180806020018281038252604081526020018061055f6040913960400191505060405180910390fd5b6101ba816102f4565b600061021f60018363ffffffff61033c16565b92915050565b6102356102306102a8565b6103a3565b565b6102426101716102a8565b61027d5760405162461bcd60e51b815260040180806020018281038252604081526020018061055f6040913960400191505060405180910390fd5b6101ba816103eb565b600061021f818363ffffffff61033c16565b6102356102a36102a8565b6102f4565b3390565b6102bd60018263ffffffff61043316565b6040516001600160a01b038216907fee1504a83b6d4a361f4c1dc78ab59bfa30d6a3b6612c403e86bb01ef2984295f90600090a250565b61030560018263ffffffff6104b416565b6040516001600160a01b038216907f270d9b30cf5b0793bbfd54c9d5b94aeb49462b8148399000265144a8722da6b690600090a250565b60006001600160a01b0382166103835760405162461bcd60e51b815260040180806020018281038252602281526020018061053d6022913960400191505060405180910390fd5b506001600160a01b03166000908152602091909152604090205460ff1690565b6103b460008263ffffffff6104b416565b6040516001600160a01b038216907f0a8eb35e5ca14b3d6f28e4abf2f128dbab231a58b56e89beb5d636115001e16590600090a250565b6103fc60008263ffffffff61043316565b6040516001600160a01b038216907f22380c05984257a1cb900161c713dd71d39e74820f1aea43bd3f1bdd2096129990600090a250565b61043d828261033c565b1561048f576040805162461bcd60e51b815260206004820152601f60248201527f526f6c65733a206163636f756e7420616c72656164792068617320726f6c6500604482015290519081900360640190fd5b6001600160a01b0316600090815260209190915260409020805460ff19166001179055565b6104be828261033c565b6104f95760405162461bcd60e51b815260040180806020018281038252602181526020018061051c6021913960400191505060405180910390fd5b6001600160a01b0316600090815260209190915260409020805460ff1916905556fe526f6c65733a206163636f756e7420646f6573206e6f74206861766520726f6c65526f6c65733a206163636f756e7420697320746865207a65726f206164647265737357686974656c69737441646d696e526f6c653a2063616c6c657220646f6573206e6f742068617665207468652057686974656c69737441646d696e20726f6c65a265627a7a723158209cd4309b46126c537a9784cf392381bd4c5d316ac3f0afc81b0729c178b2d82e64736f6c634300050e0032526f6c65733a206163636f756e7420697320746865207a65726f206164647265737357686974656c69737441646d696e526f6c653a2063616c6c657220646f6573206e6f742068617665207468652057686974656c69737441646d696e20726f6c65",
  "source": "pragma solidity ^0.5.12;\n\nimport \"@openzeppelin/contracts/access/roles/WhitelistedRole.sol\";\n\ncontract AccessWhitelist is WhitelistedRole {\n    constructor() public {\n        super.addWhitelisted(msg.sender);\n    }\n}",
  "sourcePath": "/Users/Natalie/Projects/erc20-airdropper/airdropper-contracts/contracts/AccessWhitelist.sol",
  "compiler": {
    "name": "solc",
    "version": "0.5.14+commit.01f1aaa4.Emscripten.clang"
  },
  "schemaVersion": "3.0.22",
  "updatedAt": "2020-02-03T14:26:41.703Z",
  "networkType": "ethereum",
  "devdoc": {
    "methods": {}
  },
  "userdoc": {
    "methods": {}
  }
}