{
  "contractName": "ERC20Airdropper",
  "abi": [
    {
      "inputs": [
        {
          "internalType": "contract AccessWhitelist",
          "name": "_accessWhitelist",
          "type": "address"
        },
        {
          "internalType": "contract CommissionSplitter",
          "name": "_splitter",
          "type": "address"
        }
      ],
      "payable": false,
      "stateMutability": "nonpayable",
      "type": "constructor"
    },
    {
      "anonymous": false,
      "inputs": [
        {
          "indexed": true,
          "internalType": "address",
          "name": "_caller",
          "type": "address"
        },
        {
          "indexed": true,
          "internalType": "address",
          "name": "_to",
          "type": "address"
        },
        {
          "indexed": false,
          "internalType": "uint256",
          "name": "_amount",
          "type": "uint256"
        }
      ],
      "name": "CreditsAdded",
      "type": "event"
    },
    {
      "anonymous": false,
      "inputs": [
        {
          "indexed": true,
          "internalType": "address",
          "name": "_caller",
          "type": "address"
        },
        {
          "indexed": true,
          "internalType": "address",
          "name": "_to",
          "type": "address"
        },
        {
          "indexed": false,
          "internalType": "uint256",
          "name": "_amount",
          "type": "uint256"
        }
      ],
      "name": "CreditsRemoved",
      "type": "event"
    },
    {
      "anonymous": false,
      "inputs": [
        {
          "indexed": true,
          "internalType": "address",
          "name": "_caller",
          "type": "address"
        },
        {
          "indexed": true,
          "internalType": "address",
          "name": "_to",
          "type": "address"
        },
        {
          "indexed": false,
          "internalType": "uint256",
          "name": "_amount",
          "type": "uint256"
        }
      ],
      "name": "EtherMoved",
      "type": "event"
    },
    {
      "anonymous": false,
      "inputs": [
        {
          "indexed": true,
          "internalType": "address",
          "name": "_caller",
          "type": "address"
        },
        {
          "indexed": false,
          "internalType": "uint256",
          "name": "_oldPrice",
          "type": "uint256"
        },
        {
          "indexed": false,
          "internalType": "uint256",
          "name": "_newPrice",
          "type": "uint256"
        }
      ],
      "name": "PricePerTxChanged",
      "type": "event"
    },
    {
      "anonymous": false,
      "inputs": [
        {
          "indexed": true,
          "internalType": "address",
          "name": "_caller",
          "type": "address"
        },
        {
          "indexed": true,
          "internalType": "address",
          "name": "_to",
          "type": "address"
        },
        {
          "indexed": false,
          "internalType": "uint256",
          "name": "_amount",
          "type": "uint256"
        }
      ],
      "name": "TokensMoved",
      "type": "event"
    },
    {
      "anonymous": false,
      "inputs": [
        {
          "indexed": true,
          "internalType": "address",
          "name": "_token",
          "type": "address"
        },
        {
          "indexed": true,
          "internalType": "address",
          "name": "_caller",
          "type": "address"
        },
        {
          "indexed": false,
          "internalType": "uint256",
          "name": "_recipientCount",
          "type": "uint256"
        },
        {
          "indexed": false,
          "internalType": "uint256",
          "name": "_totalTokensSent",
          "type": "uint256"
        }
      ],
      "name": "Transfer",
      "type": "event"
    },
    {
      "payable": true,
      "stateMutability": "payable",
      "type": "fallback"
    },
    {
      "constant": true,
      "inputs": [],
      "name": "accessWhitelist",
      "outputs": [
        {
          "internalType": "contract AccessWhitelist",
          "name": "",
          "type": "address"
        }
      ],
      "payable": false,
      "stateMutability": "view",
      "type": "function"
    },
    {
      "constant": true,
      "inputs": [
        {
          "internalType": "address",
          "name": "",
          "type": "address"
        }
      ],
      "name": "credits",
      "outputs": [
        {
          "internalType": "uint256",
          "name": "",
          "type": "uint256"
        }
      ],
      "payable": false,
      "stateMutability": "view",
      "type": "function"
    },
    {
      "constant": true,
      "inputs": [],
      "name": "pricePerTx",
      "outputs": [
        {
          "internalType": "uint256",
          "name": "",
          "type": "uint256"
        }
      ],
      "payable": false,
      "stateMutability": "view",
      "type": "function"
    },
    {
      "constant": true,
      "inputs": [],
      "name": "splitter",
      "outputs": [
        {
          "internalType": "contract CommissionSplitter",
          "name": "",
          "type": "address"
        }
      ],
      "payable": false,
      "stateMutability": "view",
      "type": "function"
    },
    {
      "constant": false,
      "inputs": [
        {
          "internalType": "contract AccessWhitelist",
          "name": "_accessWhitelist",
          "type": "address"
        }
      ],
      "name": "updateAccessWhitelist",
      "outputs": [],
      "payable": false,
      "stateMutability": "nonpayable",
      "type": "function"
    },
    {
      "constant": false,
      "inputs": [
        {
          "internalType": "address",
          "name": "_token",
          "type": "address"
        },
        {
          "internalType": "address[]",
          "name": "_addresses",
          "type": "address[]"
        },
        {
          "internalType": "uint256[]",
          "name": "_values",
          "type": "uint256[]"
        }
      ],
      "name": "transfer",
      "outputs": [
        {
          "internalType": "bool",
          "name": "",
          "type": "bool"
        }
      ],
      "payable": true,
      "stateMutability": "payable",
      "type": "function"
    },
    {
      "constant": false,
      "inputs": [
        {
          "internalType": "address payable",
          "name": "_account",
          "type": "address"
        }
      ],
      "name": "moveEther",
      "outputs": [
        {
          "internalType": "bool",
          "name": "",
          "type": "bool"
        }
      ],
      "payable": false,
      "stateMutability": "nonpayable",
      "type": "function"
    },
    {
      "constant": false,
      "inputs": [
        {
          "internalType": "address",
          "name": "_token",
          "type": "address"
        },
        {
          "internalType": "address",
          "name": "_account",
          "type": "address"
        }
      ],
      "name": "moveTokens",
      "outputs": [
        {
          "internalType": "bool",
          "name": "",
          "type": "bool"
        }
      ],
      "payable": false,
      "stateMutability": "nonpayable",
      "type": "function"
    },
    {
      "constant": false,
      "inputs": [
        {
          "internalType": "address",
          "name": "_to",
          "type": "address"
        },
        {
          "internalType": "uint256",
          "name": "_amount",
          "type": "uint256"
        }
      ],
      "name": "addCredit",
      "outputs": [
        {
          "internalType": "bool",
          "name": "",
          "type": "bool"
        }
      ],
      "payable": false,
      "stateMutability": "nonpayable",
      "type": "function"
    },
    {
      "constant": false,
      "inputs": [
        {
          "internalType": "address",
          "name": "_to",
          "type": "address"
        },
        {
          "internalType": "uint256",
          "name": "_amount",
          "type": "uint256"
        }
      ],
      "name": "reduceCredit",
      "outputs": [
        {
          "internalType": "bool",
          "name": "",
          "type": "bool"
        }
      ],
      "payable": false,
      "stateMutability": "nonpayable",
      "type": "function"
    },
    {
      "constant": false,
      "inputs": [
        {
          "internalType": "uint256",
          "name": "_pricePerTx",
          "type": "uint256"
        }
      ],
      "name": "setPricePerTx",
      "outputs": [
        {
          "internalType": "bool",
          "name": "",
          "type": "bool"
        }
      ],
      "payable": false,
      "stateMutability": "nonpayable",
      "type": "function"
    },
    {
      "constant": true,
      "inputs": [
        {
          "internalType": "address",
          "name": "_owner",
          "type": "address"
        }
      ],
      "name": "creditsOfOwner",
      "outputs": [
        {
          "internalType": "uint256",
          "name": "",
          "type": "uint256"
        }
      ],
      "payable": false,
      "stateMutability": "view",
      "type": "function"
    },
    {
      "constant": false,
      "inputs": [
        {
          "internalType": "contract CommissionSplitter",
          "name": "_splitter",
          "type": "address"
        }
      ],
      "name": "updateCommissionSplitter",
      "outputs": [],
      "payable": false,
      "stateMutability": "nonpayable",
      "type": "function"
    }
  ],
  "bytecode": "0x6080604052662386f26fc1000060025534801561001b57600080fd5b506040516113133803806113138339818101604052604081101561003e57600080fd5b508051602090910151600080546001600160a01b039384166001600160a01b0319918216179091556003805493909216921691909117905561128e806100856000396000f3fe6080604052600436106100c25760003560e01c8063798eeba41161007f57806396baa9541161005957806396baa95414610337578063b4b142421461034c578063f89176e414610387578063fe5ff468146103ba576100c2565b8063798eeba4146102a15780637d27d66c146102d45780638f7a05a31461030d576100c2565b8063018b6e00146100c45780631e8d0026146101095780633cd8045e1461013c57806343691f331461016d57806346e5f5d31461018257806372a503be146101cf575b005b3480156100d057600080fd5b506100f7600480360360208110156100e757600080fd5b50356001600160a01b03166103ed565b60408051918252519081900360200190f35b34801561011557600080fd5b506100c26004803603602081101561012c57600080fd5b50356001600160a01b0316610408565b34801561014857600080fd5b506101516104ef565b604080516001600160a01b039092168252519081900360200190f35b34801561017957600080fd5b506100f76104fe565b34801561018e57600080fd5b506101bb600480360360408110156101a557600080fd5b506001600160a01b038135169060200135610504565b604080519115158252519081900360200190f35b6101bb600480360360608110156101e557600080fd5b6001600160a01b03823516919081019060408101602082013564010000000081111561021057600080fd5b82018360208201111561022257600080fd5b8035906020019184602083028401116401000000008311171561024457600080fd5b91939092909160208101903564010000000081111561026257600080fd5b82018360208201111561027457600080fd5b8035906020019184602083028401116401000000008311171561029657600080fd5b50909250905061064d565b3480156102ad57600080fd5b506100c2600480360360208110156102c457600080fd5b50356001600160a01b0316610a11565b3480156102e057600080fd5b506101bb600480360360408110156102f757600080fd5b506001600160a01b038135169060200135610af8565b34801561031957600080fd5b506101bb6004803603602081101561033057600080fd5b5035610c41565b34801561034357600080fd5b50610151610d4e565b34801561035857600080fd5b506101bb6004803603604081101561036f57600080fd5b506001600160a01b0381358116916020013516610d5d565b34801561039357600080fd5b506101bb600480360360208110156103aa57600080fd5b50356001600160a01b0316610f65565b3480156103c657600080fd5b506100f7600480360360208110156103dd57600080fd5b50356001600160a01b03166110ae565b6001600160a01b031660009081526001602052604090205490565b6000546040805163bb5f747b60e01b815233600482015290516001600160a01b039092169163bb5f747b91602480820192602092909190829003018186803b15801561045357600080fd5b505afa158015610467573d6000803e3d6000fd5b505050506040513d602081101561047d57600080fd5b50516104cd576040805162461bcd60e51b815260206004820152601a60248201527921b0b63632b9103737ba103bb434ba32b634b9ba1030b236b4b760311b604482015290519081900360640190fd5b600380546001600160a01b0319166001600160a01b0392909216919091179055565b6003546001600160a01b031681565b60025481565b6000805460408051633af32abf60e01b815233600482015290516001600160a01b0390921691633af32abf91602480820192602092909190829003018186803b15801561055057600080fd5b505afa158015610564573d6000803e3d6000fd5b505050506040513d602081101561057a57600080fd5b50516105c6576040805162461bcd60e51b815260206004820152601660248201527510d85b1b195c881b9bdd081dda1a5d195b1a5cdd195960521b604482015290519081900360640190fd5b6001600160a01b0383166000908152600160205260409020546105ef908363ffffffff6110c016565b6001600160a01b0384166000818152600160209081526040918290209390935580518581529051919233927ff7ebf0014b4725401b379cb3087a1ecd733c73860838c3877395e4831b3551be9281900390910190a350600192915050565b600083821461068d5760405162461bcd60e51b81526004018080602001828103825260328152602001806112286032913960400191505060405180910390fd5b336000908152600160205260409020541515806106ac57506002543410155b6106fd576040805162461bcd60e51b815260206004820152601d60248201527f4d757374206861766520637265646974206f72206d696e2076616c7565000000604482015290519081900360640190fd5b6000805b858110156108cf57600087878381811061071757fe5b905060200201356001600160a01b03166001600160a01b03161415610775576040805162461bcd60e51b815260206004820152600f60248201526e1059191c995cdcc81a5b9d985b1a59608a1b604482015290519081900360640190fd5b600085858381811061078357fe5b90506020020135116107cc576040805162461bcd60e51b815260206004820152600d60248201526c15985b1d59481a5b9d985b1a59609a1b604482015290519081900360640190fd5b876001600160a01b03166323b872dd338989858181106107e857fe5b905060200201356001600160a01b031688888681811061080457fe5b905060200201356040518463ffffffff1660e01b815260040180846001600160a01b03166001600160a01b03168152602001836001600160a01b03166001600160a01b031681526020018281526020019350505050602060405180830381600087803b15801561087357600080fd5b505af1158015610887573d6000803e3d6000fd5b505050506040513d602081101561089d57600080fd5b506108c590508585838181106108af57fe5b905060200201358361110990919063ffffffff16565b9150600101610701565b50341580156108ec57503360009081526001602052604090205415155b1561092857336000908152600160208190526040909120546109139163ffffffff6110c016565b336000908152600160205260409020556109bc565b6003546040516000916001600160a01b03169034908381818185875af1925050503d8060008114610975576040519150601f19603f3d011682016040523d82523d6000602084013e61097a565b606091505b50509050806109ba5760405162461bcd60e51b815260040180806020018281038252602d8152602001806111fb602d913960400191505060405180910390fd5b505b6040805186815260208101839052815133926001600160a01b038b16927f9ed053bb818ff08b8353cd46f78db1f0799f31c9e4458fdb425c10eccd2efc44929081900390910190a35060019695505050505050565b6000546040805163bb5f747b60e01b815233600482015290516001600160a01b039092169163bb5f747b91602480820192602092909190829003018186803b158015610a5c57600080fd5b505afa158015610a70573d6000803e3d6000fd5b505050506040513d6020811015610a8657600080fd5b5051610ad6576040805162461bcd60e51b815260206004820152601a60248201527921b0b63632b9103737ba103bb434ba32b634b9ba1030b236b4b760311b604482015290519081900360640190fd5b600080546001600160a01b0319166001600160a01b0392909216919091179055565b6000805460408051633af32abf60e01b815233600482015290516001600160a01b0390921691633af32abf91602480820192602092909190829003018186803b158015610b4457600080fd5b505afa158015610b58573d6000803e3d6000fd5b505050506040513d6020811015610b6e57600080fd5b5051610bba576040805162461bcd60e51b815260206004820152601660248201527510d85b1b195c881b9bdd081dda1a5d195b1a5cdd195960521b604482015290519081900360640190fd5b6001600160a01b038316600090815260016020526040902054610be3908363ffffffff61110916565b6001600160a01b0384166000818152600160209081526040918290209390935580518581529051919233927f5524dff60097040dad6116cb71fcb27c1523ad388be81fd213fc02ac9a0820f39281900390910190a350600192915050565b6000805460408051633af32abf60e01b815233600482015290516001600160a01b0390921691633af32abf91602480820192602092909190829003018186803b158015610c8d57600080fd5b505afa158015610ca1573d6000803e3d6000fd5b505050506040513d6020811015610cb757600080fd5b5051610d03576040805162461bcd60e51b815260206004820152601660248201527510d85b1b195c881b9bdd081dda1a5d195b1a5cdd195960521b604482015290519081900360640190fd5b60028054908390556040805182815260208101859052815133927f63efe9b820f666309b2fbd7c52714c58bfffd8694cd73da7707fe874a9e999d8928290030190a250600192915050565b6000546001600160a01b031681565b600080546040805163bb5f747b60e01b815233600482015290516001600160a01b039092169163bb5f747b91602480820192602092909190829003018186803b158015610da957600080fd5b505afa158015610dbd573d6000803e3d6000fd5b505050506040513d6020811015610dd357600080fd5b5051610e23576040805162461bcd60e51b815260206004820152601a60248201527921b0b63632b9103737ba103bb434ba32b634b9ba1030b236b4b760311b604482015290519081900360640190fd5b604080516370a0823160e01b815230600482015290516000916001600160a01b038616916370a0823191602480820192602092909190829003018186803b158015610e6d57600080fd5b505afa158015610e81573d6000803e3d6000fd5b505050506040513d6020811015610e9757600080fd5b50516040805163a9059cbb60e01b81526001600160a01b0386811660048301526024820184905291519293509086169163a9059cbb916044808201926020929091908290030181600087803b158015610eef57600080fd5b505af1158015610f03573d6000803e3d6000fd5b505050506040513d6020811015610f1957600080fd5b50506040805182815290516001600160a01b0385169133917f0a86a6587b13da493bef24b5cf0671c2d651ce3fd842e19019b28bbfc1a1a3a69181900360200190a35060019392505050565b600080546040805163bb5f747b60e01b815233600482015290516001600160a01b039092169163bb5f747b91602480820192602092909190829003018186803b158015610fb157600080fd5b505afa158015610fc5573d6000803e3d6000fd5b505050506040513d6020811015610fdb57600080fd5b505161102b576040805162461bcd60e51b815260206004820152601a60248201527921b0b63632b9103737ba103bb434ba32b634b9ba1030b236b4b760311b604482015290519081900360640190fd5b6040513031906001600160a01b0384169082156108fc029083906000818181858888f19350505050158015611064573d6000803e3d6000fd5b506040805182815290516001600160a01b0385169133917fdfee161da8973ced61607503356dacceba8ff3d50417e41028a3a0204a749e099181900360200190a350600192915050565b60016020526000908152604090205481565b600061110283836040518060400160405280601e81526020017f536166654d6174683a207375627472616374696f6e206f766572666c6f770000815250611163565b9392505050565b600082820183811015611102576040805162461bcd60e51b815260206004820152601b60248201527f536166654d6174683a206164646974696f6e206f766572666c6f770000000000604482015290519081900360640190fd5b600081848411156111f25760405162461bcd60e51b81526004018080602001828103825283818151815260200191508051906020019080838360005b838110156111b757818101518382015260200161119f565b50505050905090810190601f1680156111e45780820380516001836020036101000a031916815260200191505b509250505060405180910390fd5b50505090039056fe4661696c656420746f207472616e7366657220746f2074686520636f6d6d697373696f6e2073706c69747465724164647265737320617272617920616e642076616c756573206172726179206d7573742062652073616d65206c656e677468a265627a7a72315820ac98c511967bfac774abed937585c0e8b09edd17aeb80539d65114b87c59826364736f6c634300050c0032",
  "source": "pragma solidity ^0.5.5;\n\nimport \"@openzeppelin/contracts/token/ERC20/IERC20.sol\";\nimport \"@openzeppelin/contracts/math/SafeMath.sol\";\nimport \"./AccessControls.sol\";\nimport \"./CommissionSplitter.sol\";\n\ncontract ERC20Airdropper is AccessControls {\n    using SafeMath for uint256;\n\n    event Transfer(\n        address indexed _token,\n        address indexed _caller,\n        uint256 _recipientCount,\n        uint256 _totalTokensSent\n    );\n\n    event PricePerTxChanged(\n        address indexed _caller,\n        uint256 _oldPrice,\n        uint256 _newPrice\n    );\n\n    event EtherMoved(\n        address indexed _caller,\n        address indexed _to,\n        uint256 _amount\n    );\n\n    event TokensMoved(\n        address indexed _caller,\n        address indexed _to,\n        uint256 _amount\n    );\n\n    event CreditsAdded(\n        address indexed _caller,\n        address indexed _to,\n        uint256 _amount\n    );\n\n    event CreditsRemoved(\n        address indexed _caller,\n        address indexed _to,\n        uint256 _amount\n    );\n\n    mapping(address => uint256) public credits;\n\n    uint256 public pricePerTx = 0.01 ether;\n\n    CommissionSplitter public splitter;\n\n    constructor(AccessWhitelist _accessWhitelist, CommissionSplitter _splitter)\n        AccessControls(_accessWhitelist) public {\n        splitter = _splitter;\n    }\n\n    // @notice will receive any eth sent to the contract\n    function () external payable {}\n\n    function transfer(address _token, address[] calldata _addresses, uint256[] calldata _values) payable external returns (bool) {\n        require(_addresses.length == _values.length, \"Address array and values array must be same length\");\n\n        require(credits[msg.sender] > 0 || msg.value >= pricePerTx, \"Must have credit or min value\");\n\n        uint256 totalTokensSent;\n        for (uint i = 0; i < _addresses.length; i += 1) {\n            require(_addresses[i] != address(0), \"Address invalid\");\n            require(_values[i] > 0, \"Value invalid\");\n\n            IERC20(_token).transferFrom(msg.sender, _addresses[i], _values[i]);\n            totalTokensSent = totalTokensSent.add(_values[i]);\n        }\n\n        if (msg.value == 0 && credits[msg.sender] > 0) {\n            credits[msg.sender] = credits[msg.sender].sub(1);\n        } else {\n            (bool splitterSuccess,) = address(splitter).call.value(msg.value)(\"\");\n            require(splitterSuccess, \"Failed to transfer to the commission splitter\");\n        }\n\n        emit Transfer(_token, msg.sender, _addresses.length, totalTokensSent);\n\n        return true;\n    }\n\n    function moveEther(address payable _account) onlyWhitelistAdmin external returns (bool)  {\n        uint256 contractBalance = address(this).balance;\n        _account.transfer(contractBalance);\n        emit EtherMoved(msg.sender, _account, contractBalance);\n        return true;\n    }\n\n    function moveTokens(address _token, address _account) external onlyWhitelistAdmin returns (bool) {\n        uint256 contractTokenBalance = IERC20(_token).balanceOf(address(this));\n        IERC20(_token).transfer(_account, contractTokenBalance);\n        emit TokensMoved(msg.sender, _account, contractTokenBalance);\n        return true;\n    }\n\n    function addCredit(address _to, uint256 _amount) external onlyWhitelisted returns (bool) {\n        credits[_to] = credits[_to].add(_amount);\n        emit CreditsAdded(msg.sender, _to, _amount);\n        return true;\n    }\n\n    function reduceCredit(address _to, uint256 _amount) external onlyWhitelisted returns (bool) {\n        credits[_to] = credits[_to].sub(_amount);\n        emit CreditsRemoved(msg.sender, _to, _amount);\n        return true;\n    }\n\n    function setPricePerTx(uint256 _pricePerTx) external onlyWhitelisted returns (bool) {\n        uint256 oldPrice = pricePerTx;\n        pricePerTx = _pricePerTx;\n        emit PricePerTxChanged(msg.sender, oldPrice, pricePerTx);\n        return true;\n    }\n\n    function creditsOfOwner(address _owner) external view returns (uint256) {\n        return credits[_owner];\n    }\n\n    function updateCommissionSplitter(CommissionSplitter _splitter) external onlyWhitelistAdmin {\n        splitter = _splitter;\n    }\n}\n",
  "sourcePath": "/Users/Natalie/Projects/erc20-airdropper/airdropper-contracts/contracts/ERC20Airdropper.sol",
  "compiler": {
    "name": "solc",
    "version": "0.5.12+commit.7709ece9.Emscripten.clang"
  },
  "schemaVersion": "3.0.22",
  "updatedAt": "2020-02-03T14:26:41.813Z",
  "networkType": "ethereum",
  "devdoc": {
    "methods": {}
  },
  "userdoc": {
    "methods": {}
  }
}