{
  "contractName": "LoanShark",
  "abi": [
    {
      "inputs": [
        {
          "internalType": "contract IERC721Full",
          "name": "_tokenContract",
          "type": "address"
        },
        {
          "internalType": "contract IERC20",
          "name": "_paymentToken",
          "type": "address"
        },
        {
          "internalType": "contract IERC1620",
          "name": "_stream",
          "type": "address"
        }
      ],
      "payable": false,
      "stateMutability": "nonpayable",
      "type": "constructor"
    },
    {
      "anonymous": false,
      "inputs": [
        {
          "indexed": true,
          "internalType": "address",
          "name": "owner",
          "type": "address"
        },
        {
          "indexed": true,
          "internalType": "address",
          "name": "approved",
          "type": "address"
        },
        {
          "indexed": true,
          "internalType": "uint256",
          "name": "tokenId",
          "type": "uint256"
        }
      ],
      "name": "Approval",
      "type": "event"
    },
    {
      "anonymous": false,
      "inputs": [
        {
          "indexed": true,
          "internalType": "address",
          "name": "owner",
          "type": "address"
        },
        {
          "indexed": true,
          "internalType": "address",
          "name": "operator",
          "type": "address"
        },
        {
          "indexed": false,
          "internalType": "bool",
          "name": "approved",
          "type": "bool"
        }
      ],
      "name": "ApprovalForAll",
      "type": "event"
    },
    {
      "anonymous": false,
      "inputs": [
        {
          "indexed": true,
          "internalType": "address",
          "name": "from",
          "type": "address"
        },
        {
          "indexed": true,
          "internalType": "address",
          "name": "to",
          "type": "address"
        },
        {
          "indexed": true,
          "internalType": "uint256",
          "name": "tokenId",
          "type": "uint256"
        }
      ],
      "name": "Transfer",
      "type": "event"
    },
    {
      "anonymous": false,
      "inputs": [
        {
          "indexed": true,
          "internalType": "address",
          "name": "account",
          "type": "address"
        }
      ],
      "name": "WhitelistAdminAdded",
      "type": "event"
    },
    {
      "anonymous": false,
      "inputs": [
        {
          "indexed": true,
          "internalType": "address",
          "name": "account",
          "type": "address"
        }
      ],
      "name": "WhitelistAdminRemoved",
      "type": "event"
    },
    {
      "anonymous": false,
      "inputs": [
        {
          "indexed": true,
          "internalType": "address",
          "name": "account",
          "type": "address"
        }
      ],
      "name": "WhitelistedAdded",
      "type": "event"
    },
    {
      "anonymous": false,
      "inputs": [
        {
          "indexed": true,
          "internalType": "address",
          "name": "account",
          "type": "address"
        }
      ],
      "name": "WhitelistedRemoved",
      "type": "event"
    },
    {
      "constant": false,
      "inputs": [
        {
          "internalType": "address",
          "name": "account",
          "type": "address"
        }
      ],
      "name": "addWhitelistAdmin",
      "outputs": [],
      "payable": false,
      "stateMutability": "nonpayable",
      "type": "function"
    },
    {
      "constant": false,
      "inputs": [
        {
          "internalType": "address",
          "name": "account",
          "type": "address"
        }
      ],
      "name": "addWhitelisted",
      "outputs": [],
      "payable": false,
      "stateMutability": "nonpayable",
      "type": "function"
    },
    {
      "constant": false,
      "inputs": [
        {
          "internalType": "address",
          "name": "to",
          "type": "address"
        },
        {
          "internalType": "uint256",
          "name": "tokenId",
          "type": "uint256"
        }
      ],
      "name": "approve",
      "outputs": [],
      "payable": false,
      "stateMutability": "nonpayable",
      "type": "function"
    },
    {
      "constant": true,
      "inputs": [],
      "name": "baseURI",
      "outputs": [
        {
          "internalType": "string",
          "name": "",
          "type": "string"
        }
      ],
      "payable": false,
      "stateMutability": "view",
      "type": "function"
    },
    {
      "constant": true,
      "inputs": [
        {
          "internalType": "uint256",
          "name": "tokenId",
          "type": "uint256"
        }
      ],
      "name": "getApproved",
      "outputs": [
        {
          "internalType": "address",
          "name": "",
          "type": "address"
        }
      ],
      "payable": false,
      "stateMutability": "view",
      "type": "function"
    },
    {
      "constant": true,
      "inputs": [
        {
          "internalType": "uint256",
          "name": "",
          "type": "uint256"
        }
      ],
      "name": "indexToTokenId",
      "outputs": [
        {
          "internalType": "uint256",
          "name": "",
          "type": "uint256"
        }
      ],
      "payable": false,
      "stateMutability": "view",
      "type": "function"
    },
    {
      "constant": true,
      "inputs": [
        {
          "internalType": "address",
          "name": "owner",
          "type": "address"
        },
        {
          "internalType": "address",
          "name": "operator",
          "type": "address"
        }
      ],
      "name": "isApprovedForAll",
      "outputs": [
        {
          "internalType": "bool",
          "name": "",
          "type": "bool"
        }
      ],
      "payable": false,
      "stateMutability": "view",
      "type": "function"
    },
    {
      "constant": true,
      "inputs": [
        {
          "internalType": "address",
          "name": "account",
          "type": "address"
        }
      ],
      "name": "isWhitelistAdmin",
      "outputs": [
        {
          "internalType": "bool",
          "name": "",
          "type": "bool"
        }
      ],
      "payable": false,
      "stateMutability": "view",
      "type": "function"
    },
    {
      "constant": true,
      "inputs": [
        {
          "internalType": "address",
          "name": "account",
          "type": "address"
        }
      ],
      "name": "isWhitelisted",
      "outputs": [
        {
          "internalType": "bool",
          "name": "",
          "type": "bool"
        }
      ],
      "payable": false,
      "stateMutability": "view",
      "type": "function"
    },
    {
      "constant": true,
      "inputs": [
        {
          "internalType": "address",
          "name": "",
          "type": "address"
        },
        {
          "internalType": "uint256",
          "name": "",
          "type": "uint256"
        }
      ],
      "name": "lenderToTokenId",
      "outputs": [
        {
          "internalType": "uint256",
          "name": "",
          "type": "uint256"
        }
      ],
      "payable": false,
      "stateMutability": "view",
      "type": "function"
    },
    {
      "constant": true,
      "inputs": [],
      "name": "paymentToken",
      "outputs": [
        {
          "internalType": "contract IERC20",
          "name": "",
          "type": "address"
        }
      ],
      "payable": false,
      "stateMutability": "view",
      "type": "function"
    },
    {
      "constant": false,
      "inputs": [
        {
          "internalType": "address",
          "name": "account",
          "type": "address"
        }
      ],
      "name": "removeWhitelisted",
      "outputs": [],
      "payable": false,
      "stateMutability": "nonpayable",
      "type": "function"
    },
    {
      "constant": false,
      "inputs": [],
      "name": "renounceWhitelistAdmin",
      "outputs": [],
      "payable": false,
      "stateMutability": "nonpayable",
      "type": "function"
    },
    {
      "constant": false,
      "inputs": [],
      "name": "renounceWhitelisted",
      "outputs": [],
      "payable": false,
      "stateMutability": "nonpayable",
      "type": "function"
    },
    {
      "constant": false,
      "inputs": [
        {
          "internalType": "address",
          "name": "to",
          "type": "address"
        },
        {
          "internalType": "bool",
          "name": "approved",
          "type": "bool"
        }
      ],
      "name": "setApprovalForAll",
      "outputs": [],
      "payable": false,
      "stateMutability": "nonpayable",
      "type": "function"
    },
    {
      "constant": true,
      "inputs": [
        {
          "internalType": "bytes4",
          "name": "interfaceId",
          "type": "bytes4"
        }
      ],
      "name": "supportsInterface",
      "outputs": [
        {
          "internalType": "bool",
          "name": "",
          "type": "bool"
        }
      ],
      "payable": false,
      "stateMutability": "view",
      "type": "function"
    },
    {
      "constant": true,
      "inputs": [
        {
          "internalType": "uint256",
          "name": "index",
          "type": "uint256"
        }
      ],
      "name": "tokenByIndex",
      "outputs": [
        {
          "internalType": "uint256",
          "name": "",
          "type": "uint256"
        }
      ],
      "payable": false,
      "stateMutability": "view",
      "type": "function"
    },
    {
      "constant": true,
      "inputs": [],
      "name": "tokenContract",
      "outputs": [
        {
          "internalType": "contract IERC721Full",
          "name": "",
          "type": "address"
        }
      ],
      "payable": false,
      "stateMutability": "view",
      "type": "function"
    },
    {
      "constant": true,
      "inputs": [
        {
          "internalType": "uint256",
          "name": "",
          "type": "uint256"
        }
      ],
      "name": "tokenIdToStreamId",
      "outputs": [
        {
          "internalType": "uint256",
          "name": "",
          "type": "uint256"
        }
      ],
      "payable": false,
      "stateMutability": "view",
      "type": "function"
    },
    {
      "constant": true,
      "inputs": [
        {
          "internalType": "address",
          "name": "owner",
          "type": "address"
        },
        {
          "internalType": "uint256",
          "name": "index",
          "type": "uint256"
        }
      ],
      "name": "tokenOfOwnerByIndex",
      "outputs": [
        {
          "internalType": "uint256",
          "name": "",
          "type": "uint256"
        }
      ],
      "payable": false,
      "stateMutability": "view",
      "type": "function"
    },
    {
      "constant": true,
      "inputs": [
        {
          "internalType": "uint256",
          "name": "",
          "type": "uint256"
        }
      ],
      "name": "tokensAvailableToLoan",
      "outputs": [
        {
          "internalType": "address",
          "name": "lender",
          "type": "address"
        },
        {
          "internalType": "uint256",
          "name": "tokenId",
          "type": "uint256"
        },
        {
          "internalType": "address",
          "name": "borrower",
          "type": "address"
        },
        {
          "internalType": "bool",
          "name": "isEscrowed",
          "type": "bool"
        },
        {
          "internalType": "bool",
          "name": "isBorrowed",
          "type": "bool"
        },
        {
          "internalType": "uint256",
          "name": "start",
          "type": "uint256"
        },
        {
          "internalType": "uint256",
          "name": "end",
          "type": "uint256"
        },
        {
          "internalType": "uint256",
          "name": "periodInSecs",
          "type": "uint256"
        },
        {
          "internalType": "uint256",
          "name": "depositInWei",
          "type": "uint256"
        }
      ],
      "payable": false,
      "stateMutability": "view",
      "type": "function"
    },
    {
      "constant": true,
      "inputs": [],
      "name": "totalSupply",
      "outputs": [
        {
          "internalType": "uint256",
          "name": "",
          "type": "uint256"
        }
      ],
      "payable": false,
      "stateMutability": "view",
      "type": "function"
    },
    {
      "constant": true,
      "inputs": [],
      "name": "totalTokens",
      "outputs": [
        {
          "internalType": "uint256",
          "name": "",
          "type": "uint256"
        }
      ],
      "payable": false,
      "stateMutability": "view",
      "type": "function"
    },
    {
      "constant": false,
      "inputs": [
        {
          "internalType": "uint256",
          "name": "_tokenId",
          "type": "uint256"
        },
        {
          "internalType": "uint256",
          "name": "_periodInSecs",
          "type": "uint256"
        },
        {
          "internalType": "uint256",
          "name": "_depositInWei",
          "type": "uint256"
        }
      ],
      "name": "enableTokenForLending",
      "outputs": [
        {
          "internalType": "bool",
          "name": "",
          "type": "bool"
        }
      ],
      "payable": false,
      "stateMutability": "nonpayable",
      "type": "function"
    },
    {
      "constant": false,
      "inputs": [
        {
          "internalType": "uint256",
          "name": "_tokenId",
          "type": "uint256"
        }
      ],
      "name": "cancelLoan",
      "outputs": [
        {
          "internalType": "bool",
          "name": "",
          "type": "bool"
        }
      ],
      "payable": false,
      "stateMutability": "nonpayable",
      "type": "function"
    },
    {
      "constant": false,
      "inputs": [
        {
          "internalType": "uint256",
          "name": "_tokenId",
          "type": "uint256"
        }
      ],
      "name": "borrowToken",
      "outputs": [
        {
          "internalType": "bool",
          "name": "",
          "type": "bool"
        }
      ],
      "payable": false,
      "stateMutability": "nonpayable",
      "type": "function"
    },
    {
      "constant": false,
      "inputs": [
        {
          "internalType": "uint256",
          "name": "_tokenId",
          "type": "uint256"
        }
      ],
      "name": "returnBorrowedNft",
      "outputs": [
        {
          "internalType": "bool",
          "name": "",
          "type": "bool"
        }
      ],
      "payable": false,
      "stateMutability": "nonpayable",
      "type": "function"
    },
    {
      "constant": false,
      "inputs": [
        {
          "internalType": "uint256",
          "name": "_tokenId",
          "type": "uint256"
        }
      ],
      "name": "clawBackNft",
      "outputs": [],
      "payable": false,
      "stateMutability": "nonpayable",
      "type": "function"
    },
    {
      "constant": true,
      "inputs": [
        {
          "internalType": "uint256",
          "name": "_tokenId",
          "type": "uint256"
        }
      ],
      "name": "getLoanDetails",
      "outputs": [
        {
          "internalType": "address",
          "name": "lender",
          "type": "address"
        },
        {
          "internalType": "address",
          "name": "borrower",
          "type": "address"
        },
        {
          "internalType": "bool",
          "name": "isEscrowed",
          "type": "bool"
        },
        {
          "internalType": "bool",
          "name": "isBorrowed",
          "type": "bool"
        },
        {
          "internalType": "uint256",
          "name": "start",
          "type": "uint256"
        },
        {
          "internalType": "uint256",
          "name": "end",
          "type": "uint256"
        },
        {
          "internalType": "uint256",
          "name": "depositInWei",
          "type": "uint256"
        }
      ],
      "payable": false,
      "stateMutability": "view",
      "type": "function"
    },
    {
      "constant": false,
      "inputs": [
        {
          "internalType": "uint256",
          "name": "_tokenId",
          "type": "uint256"
        }
      ],
      "name": "cancel",
      "outputs": [
        {
          "internalType": "bool",
          "name": "",
          "type": "bool"
        }
      ],
      "payable": false,
      "stateMutability": "nonpayable",
      "type": "function"
    },
    {
      "constant": false,
      "inputs": [
        {
          "internalType": "uint256",
          "name": "_tokenId",
          "type": "uint256"
        }
      ],
      "name": "getRemainingTimeLeftForLoan",
      "outputs": [
        {
          "internalType": "uint256",
          "name": "",
          "type": "uint256"
        }
      ],
      "payable": false,
      "stateMutability": "nonpayable",
      "type": "function"
    },
    {
      "constant": false,
      "inputs": [
        {
          "internalType": "uint256",
          "name": "_tokenId",
          "type": "uint256"
        }
      ],
      "name": "getRemainingStreamBalance",
      "outputs": [
        {
          "internalType": "uint256",
          "name": "",
          "type": "uint256"
        }
      ],
      "payable": false,
      "stateMutability": "nonpayable",
      "type": "function"
    },
    {
      "constant": false,
      "inputs": [
        {
          "internalType": "uint256",
          "name": "_tokenId",
          "type": "uint256"
        }
      ],
      "name": "withdraw",
      "outputs": [
        {
          "internalType": "bool",
          "name": "",
          "type": "bool"
        }
      ],
      "payable": false,
      "stateMutability": "nonpayable",
      "type": "function"
    },
    {
      "constant": true,
      "inputs": [
        {
          "internalType": "uint256",
          "name": "_index",
          "type": "uint256"
        }
      ],
      "name": "getTokenIdForIndex",
      "outputs": [
        {
          "internalType": "uint256",
          "name": "",
          "type": "uint256"
        }
      ],
      "payable": false,
      "stateMutability": "view",
      "type": "function"
    },
    {
      "constant": true,
      "inputs": [
        {
          "internalType": "address",
          "name": "_lender",
          "type": "address"
        }
      ],
      "name": "getTokensLenderIsBorrowing",
      "outputs": [
        {
          "internalType": "uint256[]",
          "name": "",
          "type": "uint256[]"
        }
      ],
      "payable": false,
      "stateMutability": "view",
      "type": "function"
    },
    {
      "constant": false,
      "inputs": [
        {
          "internalType": "address",
          "name": "operator",
          "type": "address"
        },
        {
          "internalType": "address",
          "name": "from",
          "type": "address"
        },
        {
          "internalType": "uint256",
          "name": "tokenId",
          "type": "uint256"
        },
        {
          "internalType": "bytes",
          "name": "data",
          "type": "bytes"
        }
      ],
      "name": "onERC721Received",
      "outputs": [
        {
          "internalType": "bytes4",
          "name": "",
          "type": "bytes4"
        }
      ],
      "payable": false,
      "stateMutability": "nonpayable",
      "type": "function"
    },
    {
      "constant": true,
      "inputs": [
        {
          "internalType": "uint256",
          "name": "_tokenId",
          "type": "uint256"
        }
      ],
      "name": "isTokenEscrowed",
      "outputs": [
        {
          "internalType": "bool",
          "name": "",
          "type": "bool"
        }
      ],
      "payable": false,
      "stateMutability": "view",
      "type": "function"
    },
    {
      "constant": true,
      "inputs": [
        {
          "internalType": "uint256",
          "name": "_tokenId",
          "type": "uint256"
        },
        {
          "internalType": "address",
          "name": "_owner",
          "type": "address"
        }
      ],
      "name": "isTokenOwnedBy",
      "outputs": [
        {
          "internalType": "bool",
          "name": "",
          "type": "bool"
        }
      ],
      "payable": false,
      "stateMutability": "view",
      "type": "function"
    },
    {
      "constant": true,
      "inputs": [],
      "name": "name",
      "outputs": [
        {
          "internalType": "string",
          "name": "",
          "type": "string"
        }
      ],
      "payable": false,
      "stateMutability": "view",
      "type": "function"
    },
    {
      "constant": true,
      "inputs": [],
      "name": "symbol",
      "outputs": [
        {
          "internalType": "string",
          "name": "",
          "type": "string"
        }
      ],
      "payable": false,
      "stateMutability": "view",
      "type": "function"
    },
    {
      "constant": true,
      "inputs": [
        {
          "internalType": "uint256",
          "name": "_tokenId",
          "type": "uint256"
        }
      ],
      "name": "tokenURI",
      "outputs": [
        {
          "internalType": "string",
          "name": "",
          "type": "string"
        }
      ],
      "payable": false,
      "stateMutability": "view",
      "type": "function"
    },
    {
      "constant": true,
      "inputs": [
        {
          "internalType": "uint256",
          "name": "_tokenId",
          "type": "uint256"
        }
      ],
      "name": "getPrincipleTokenUri",
      "outputs": [
        {
          "internalType": "string",
          "name": "",
          "type": "string"
        }
      ],
      "payable": false,
      "stateMutability": "view",
      "type": "function"
    },
    {
      "constant": true,
      "inputs": [
        {
          "internalType": "address",
          "name": "owner",
          "type": "address"
        }
      ],
      "name": "balanceOf",
      "outputs": [
        {
          "internalType": "uint256",
          "name": "",
          "type": "uint256"
        }
      ],
      "payable": false,
      "stateMutability": "view",
      "type": "function"
    },
    {
      "constant": true,
      "inputs": [
        {
          "internalType": "uint256",
          "name": "_tokenId",
          "type": "uint256"
        }
      ],
      "name": "ownerOf",
      "outputs": [
        {
          "internalType": "address",
          "name": "",
          "type": "address"
        }
      ],
      "payable": false,
      "stateMutability": "view",
      "type": "function"
    },
    {
      "constant": false,
      "inputs": [
        {
          "internalType": "address",
          "name": "from",
          "type": "address"
        },
        {
          "internalType": "address",
          "name": "to",
          "type": "address"
        },
        {
          "internalType": "uint256",
          "name": "tokenId",
          "type": "uint256"
        }
      ],
      "name": "safeTransferFrom",
      "outputs": [],
      "payable": false,
      "stateMutability": "nonpayable",
      "type": "function"
    },
    {
      "constant": false,
      "inputs": [
        {
          "internalType": "address",
          "name": "from",
          "type": "address"
        },
        {
          "internalType": "address",
          "name": "to",
          "type": "address"
        },
        {
          "internalType": "uint256",
          "name": "tokenId",
          "type": "uint256"
        },
        {
          "internalType": "bytes",
          "name": "_data",
          "type": "bytes"
        }
      ],
      "name": "safeTransferFrom",
      "outputs": [],
      "payable": false,
      "stateMutability": "nonpayable",
      "type": "function"
    },
    {
      "constant": false,
      "inputs": [
        {
          "internalType": "address",
          "name": "from",
          "type": "address"
        },
        {
          "internalType": "address",
          "name": "to",
          "type": "address"
        },
        {
          "internalType": "uint256",
          "name": "tokenId",
          "type": "uint256"
        }
      ],
      "name": "transferFrom",
      "outputs": [],
      "payable": false,
      "stateMutability": "nonpayable",
      "type": "function"
    }
  ],
  "bytecode": "0x608060405260006014553480156200001657600080fd5b5060405162003d7438038062003d74833981810160405260608110156200003c57600080fd5b508051602080830151604093840151845180860186526009808252684c6f616e536861726b60b81b8286015286518088019097528652680a69082a497e13f4d160bb1b938601939093529293909291908181620000a96301ffc9a760e01b6001600160e01b036200022416565b620000c46380ac58cd60e01b6001600160e01b036200022416565b620000df63780e9d6360e01b6001600160e01b036200022416565b8151620000f4906009906020850190620004e5565b5080516200010a90600a906020840190620004e5565b5062000126635b5e139f60e01b6001600160e01b036200022416565b505050506200014d6200013e620002a960201b60201c565b6001600160e01b03620002ae16565b62000163336200030060201b6200112e1760201c565b600f80546001600160a01b038085166001600160a01b031992831617928390556010805487831690841617905560118054858316931692909217918290556040805163095ea7b360e01b8152928216600484015260001960248401525192169163095ea7b3916044808201926020929091908290030181600087803b158015620001ec57600080fd5b505af115801562000201573d6000803e3d6000fd5b505050506040513d60208110156200021857600080fd5b50620005879350505050565b6001600160e01b0319808216141562000284576040805162461bcd60e51b815260206004820152601c60248201527f4552433136353a20696e76616c696420696e7465726661636520696400000000604482015290519081900360640190fd5b6001600160e01b0319166000908152602081905260409020805460ff19166001179055565b335b90565b620002c981600d6200037a60201b6200340d1790919060201c565b6040516001600160a01b038216907f22380c05984257a1cb900161c713dd71d39e74820f1aea43bd3f1bdd2096129990600090a250565b62000326620003176001600160e01b03620002a916565b6001600160e01b036200040716565b620003635760405162461bcd60e51b815260040180806020018281038252604081526020018062003d346040913960400191505060405180910390fd5b62000377816001600160e01b036200042a16565b50565b6200038f82826001600160e01b036200047c16565b15620003e2576040805162461bcd60e51b815260206004820152601f60248201527f526f6c65733a206163636f756e7420616c72656164792068617320726f6c6500604482015290519081900360640190fd5b6001600160a01b0316600090815260209190915260409020805460ff19166001179055565b60006200042482600d6200047c60201b620033161790919060201c565b92915050565b6200044581600e6200037a60201b6200340d1790919060201c565b6040516001600160a01b038216907fee1504a83b6d4a361f4c1dc78ab59bfa30d6a3b6612c403e86bb01ef2984295f90600090a250565b60006001600160a01b038216620004c55760405162461bcd60e51b815260040180806020018281038252602281526020018062003d126022913960400191505060405180910390fd5b506001600160a01b03166000908152602091909152604090205460ff1690565b828054600181600116156101000203166002900490600052602060002090601f016020900481019282601f106200052857805160ff191683800117855562000558565b8280016001018555821562000558579182015b82811115620005585782518255916020019190600101906200053b565b50620005669291506200056a565b5090565b620002ab91905b8082111562000566576000815560010162000571565b61377b80620005976000396000f3fe608060405234801561001057600080fd5b50600436106102955760003560e01c80636352211e11610167578063b1c674ed116100ce578063c0e896d411610087578063c0e896d414610a6a578063c3cbefb814610a96578063c87b56dd14610ab3578063c95357d914610ad0578063d6cd947314610aed578063e985e9c514610af557610295565b8063b1c674ed146108b6578063b88d4fde14610929578063ba9ac115146109ed578063bb5f747b14610a0a578063bdbfa3de14610a30578063bdd3e43e14610a4d57610295565b80637aef1164116101205780637aef1164146108215780637e1c0c091461083e578063807b1eba146108465780638510f4681461086357806395d89b4114610880578063a22cb4651461088857610295565b80636352211e1461073257806366877b8d1461074f5780636c0360eb146107b057806370a08231146107b8578063727f86aa146107de5780637362d9c8146107fb57610295565b806323b872dd1161020b5780633af32abf116101c45780633af32abf1461068c57806340e58ee5146106b257806342842e0e146106cf5780634c5a628c146107055780634f6ccce71461070d57806355a373d61461072a57610295565b806323b872dd14610569578063291d95491461059f5780632c423721146105c55780632e1a7d4d1461063b5780632f745c59146106585780633013ce291461068457610295565b806310154bad1161025d57806310154bad146103d6578063150b7a02146103fc57806318160ddd146104dd5780631a6814a3146104f75780631e613085146105235780632100d9b61461054c57610295565b806301ffc9a71461029a57806306fdde03146102d5578063081812fc14610352578063092f57761461038b578063095ea7b3146103a8575b600080fd5b6102c1600480360360208110156102b057600080fd5b50356001600160e01b031916610b23565b604080519115158252519081900360200190f35b6102dd610b46565b6040805160208082528351818301528351919283929083019185019080838360005b838110156103175781810151838201526020016102ff565b50505050905090810190601f1680156103445780820380516001836020036101000a031916815260200191505b509250505060405180910390f35b61036f6004803603602081101561036857600080fd5b5035610c7b565b604080516001600160a01b039092168252519081900360200190f35b6102c1600480360360208110156103a157600080fd5b5035610cdd565b6103d4600480360360408110156103be57600080fd5b506001600160a01b038135169060200135611006565b005b6103d4600480360360208110156103ec57600080fd5b50356001600160a01b031661112e565b6104c06004803603608081101561041257600080fd5b6001600160a01b03823581169260208101359091169160408201359190810190608081016060820135600160201b81111561044c57600080fd5b82018360208201111561045e57600080fd5b803590602001918460018302840111600160201b8311171561047f57600080fd5b91908080601f016020809104026020016040519081016040528093929190818152602001838380828437600092019190915250929550611185945050505050565b604080516001600160e01b03199092168252519081900360200190f35b6104e5611195565b60408051918252519081900360200190f35b6102c16004803603604081101561050d57600080fd5b50803590602001356001600160a01b031661119b565b6102c16004803603606081101561053957600080fd5b508035906020810135906040013561122a565b6102dd6004803603602081101561056257600080fd5b5035611682565b6103d46004803603606081101561057f57600080fd5b506001600160a01b038135811691602081013590911690604001356117c0565b6103d4600480360360208110156105b557600080fd5b50356001600160a01b0316611955565b6105eb600480360360208110156105db57600080fd5b50356001600160a01b03166119a4565b60408051602080825283518183015283519192839290830191858101910280838360005b8381101561062757818101518382015260200161060f565b505050509050019250505060405180910390f35b6102c16004803603602081101561065157600080fd5b5035611a23565b6104e56004803603604081101561066e57600080fd5b506001600160a01b038135169060200135611c69565b61036f611ce8565b6102c1600480360360208110156106a257600080fd5b50356001600160a01b0316611cf7565b6102c1600480360360208110156106c857600080fd5b5035611d10565b6103d4600480360360608110156106e557600080fd5b506001600160a01b03813581169160208101359091169060400135611f91565b6103d4611fac565b6104e56004803603602081101561072357600080fd5b5035611fbe565b61036f612024565b61036f6004803603602081101561074857600080fd5b5035612033565b61076c6004803603602081101561076557600080fd5b503561215f565b604080516001600160a01b039889168152969097166020870152931515858701529115156060850152608084015260a083015260c082015290519081900360e00190f35b6102dd612221565b6104e5600480360360208110156107ce57600080fd5b50356001600160a01b03166122b7565b6102c1600480360360208110156107f457600080fd5b503561233a565b6103d46004803603602081101561081157600080fd5b50356001600160a01b0316612346565b6104e56004803603602081101561083757600080fd5b5035612395565b6104e56123a7565b6104e56004803603602081101561085c57600080fd5b50356123ad565b6104e56004803603602081101561087957600080fd5b5035612559565b6102dd61256b565b6103d46004803603604081101561089e57600080fd5b506001600160a01b03813516906020013515156125b0565b6108d3600480360360208110156108cc57600080fd5b50356126b5565b604080516001600160a01b039a8b168152602081019990995296909816878701529315156060870152911515608086015260a085015260c084015260e08301526101008201929092529051908190036101200190f35b6103d46004803603608081101561093f57600080fd5b6001600160a01b03823581169260208101359091169160408201359190810190608081016060820135600160201b81111561097957600080fd5b82018360208201111561098b57600080fd5b803590602001918460018302840111600160201b831117156109ac57600080fd5b91908080601f01602080910402602001604051908101604052809392919081815260200183838082843760009201919091525092955061270f945050505050565b6102c160048036036020811015610a0357600080fd5b5035612917565b6102c160048036036020811015610a2057600080fd5b50356001600160a01b0316612b37565b6102c160048036036020811015610a4657600080fd5b5035612b4a565b6104e560048036036020811015610a6357600080fd5b5035612de8565b6104e560048036036040811015610a8057600080fd5b506001600160a01b038135169060200135612f2c565b6104e560048036036020811015610aac57600080fd5b5035612f5a565b6102dd60048036036020811015610ac957600080fd5b5035612f6c565b6103d460048036036020811015610ae657600080fd5b503561316e565b6103d46131c6565b6102c160048036036040811015610b0b57600080fd5b506001600160a01b03813581169160200135166131d6565b6001600160e01b0319811660009081526020819052604090205460ff165b919050565b601054604080516306fdde0360e01b815290516060926001600160a01b0316916306fdde03916004808301926000929190829003018186803b158015610b8b57600080fd5b505afa158015610b9f573d6000803e3d6000fd5b505050506040513d6000823e601f3d908101601f191682016040526020811015610bc857600080fd5b8101908080516040519392919084600160201b821115610be757600080fd5b908301906020820185811115610bfc57600080fd5b8251600160201b811182820188101715610c1557600080fd5b82525081516020918201929091019080838360005b83811015610c42578181015183820152602001610c2a565b50505050905090810190601f168015610c6f5780820380516001836020036101000a031916815260200191505b50604052505050905090565b6000610c8682613204565b610cc15760405162461bcd60e51b815260040180806020018281038252602c81526020018061366c602c913960400191505060405180910390fd5b506000908152600260205260409020546001600160a01b031690565b600081815260126020526040812060010154610d35576040805162461bcd60e51b8152602060048201526012602482015271546f6b656e206e6f7420666f722073616c6560701b604482015290519081900360640190fd5b60008281526012602052604090206002810154600160a01b900460ff16610d98576040805162461bcd60e51b8152602060048201526012602482015271151bdad95b881b9bdd08195cd8dc9bddd95960721b604482015290519081900360640190fd5b6002810154600160a81b900460ff1615610df2576040805162461bcd60e51b8152602060048201526016602482015275151bdad95b88185b1c9958591e48189bdc9c9bddd95960521b604482015290519081900360640190fd5b60028101546001600160a01b031615610e52576040805162461bcd60e51b815260206004820152601c60248201527f546f6b656e20616c726561647920676f74206120626f72726f77657200000000604482015290519081900360640190fd5b60028101805460ff60a81b196001600160a01b0319909116331716600160a81b179055610e8642603c63ffffffff61322116565b600382018190556005820154610ea2919063ffffffff61322116565b600480830191909155600f546006830154604080516323b872dd60e01b815233948101949094523060248501526044840191909152516001600160a01b03909116916323b872dd9160648083019260209291908290030181600087803b158015610f0b57600080fd5b505af1158015610f1f573d6000803e3d6000fd5b505050506040513d6020811015610f3557600080fd5b505060115481546006830154600f5460038501546004808701546040805163660da5fb60e11b81526001600160a01b039788169381019390935260248301959095529285166044820152606481019190915260848101919091529051600093929092169163cc1b4bf69160a48082019260209290919082900301818787803b158015610fc057600080fd5b505af1158015610fd4573d6000803e3d6000fd5b505050506040513d6020811015610fea57600080fd5b5051600085815260166020526040902055506001915050919050565b600061101182612033565b9050806001600160a01b0316836001600160a01b031614156110645760405162461bcd60e51b81526004018080602001828103825260218152602001806136fa6021913960400191505060405180910390fd5b806001600160a01b0316611076613282565b6001600160a01b03161480611097575061109781611092613282565b6131d6565b6110d25760405162461bcd60e51b81526004018080602001828103825260388152602001806136136038913960400191505060405180910390fd5b60008281526002602052604080822080546001600160a01b0319166001600160a01b0387811691821790925591518593918516917f8c5be1e5ebec7d5bd14f71427d1e84f3dd0314c0f7b2291e5b200ac8c7c3b92591a4505050565b61113e611139613282565b612b37565b6111795760405162461bcd60e51b81526004018080602001828103825260408152602001806136ba6040913960400191505060405180910390fd5b61118281613286565b50565b630a85bd0160e11b949350505050565b60075490565b601054604080516331a9108f60e11b81526004810185905290516000926001600160a01b0380861693911691636352211e91602480820192602092909190829003018186803b1580156111ed57600080fd5b505afa158015611201573d6000803e3d6000fd5b505050506040513d602081101561121757600080fd5b50516001600160a01b0316149392505050565b6000808211611276576040805162461bcd60e51b8152602060048201526013602482015272135d5cdd081a185d9948184819195c1bdcda5d606a1b604482015290519081900360640190fd5b600083116112cb576040805162461bcd60e51b815260206004820152601a60248201527f4d7573742068617665206120706572696f6420696e2073656373000000000000604482015290519081900360640190fd5b6000848152601260205260409020600101541561132f576040805162461bcd60e51b815260206004820152601d60248201527f546f6b656e20616c726561647920706c6163656420666f722073616c65000000604482015290519081900360640190fd5b601054604080516331a9108f60e11b815260048101879052905133926001600160a01b031691636352211e916024808301926020929190829003018186803b15801561137a57600080fd5b505afa15801561138e573d6000803e3d6000fd5b505050506040513d60208110156113a457600080fd5b50516001600160a01b031614611401576040805162461bcd60e51b815260206004820152601b60248201527f43616c6c657220646f6573206e6f74206f776e20746865204e46540000000000604482015290519081900360640190fd5b604051806101200160405280336001600160a01b0316815260200185815260200160006001600160a01b031681526020016001151581526020016000151581526020016000815260200160008152602001848152602001838152506012600086815260200190815260200160002060008201518160000160006101000a8154816001600160a01b0302191690836001600160a01b031602179055506020820151816001015560408201518160020160006101000a8154816001600160a01b0302191690836001600160a01b0316021790555060608201518160020160146101000a81548160ff02191690831515021790555060808201518160020160156101000a81548160ff02191690831515021790555060a0820151816003015560c0820151816004015560e082015181600501556101008201518160060155905050601060009054906101000a90046001600160a01b03166001600160a01b03166342842e0e3330876040518463ffffffff1660e01b815260040180846001600160a01b03166001600160a01b03168152602001836001600160a01b03166001600160a01b031681526020018281526020019350505050600060405180830381600087803b1580156115ce57600080fd5b505af11580156115e2573d6000803e3d6000fd5b505050506115ef8461233a565b611640576040805162461bcd60e51b815260206004820152601c60248201527f546f6b656e206e6f7420636f72726563746c7920657363726f77656400000000604482015290519081900360640190fd5b50506014805460009081526015602090815260408083208690558354600190810190945533835260138252822080548085018255908352912001929092555090565b6010546040805163c87b56dd60e01b81526004810184905290516060926001600160a01b03169163c87b56dd916024808301926000929190829003018186803b1580156116ce57600080fd5b505afa1580156116e2573d6000803e3d6000fd5b505050506040513d6000823e601f3d908101601f19168201604052602081101561170b57600080fd5b8101908080516040519392919084600160201b82111561172a57600080fd5b90830190602082018581111561173f57600080fd5b8251600160201b81118282018810171561175857600080fd5b82525081516020918201929091019080838360005b8381101561178557818101518382015260200161176d565b50505050905090810190601f1680156117b25780820380516001836020036101000a031916815260200191505b506040525050509050919050565b6117c86134f5565b5060008181526012602090815260409182902082516101208101845281546001600160a01b03908116825260018301549382019390935260028201549283169381019390935260ff600160a01b8304811615156060850152600160a81b9092049091161580156080840152600382015460a0840152600482015460c0840152600582015460e08401526006909101546101008301526118985760405162461bcd60e51b81526004018080602001828103825260238152602001806135836023913960400191505060405180910390fd5b8060600151156118d95760405162461bcd60e51b81526004018080602001828103825260238152602001806135f06023913960400191505060405180910390fd5b601054604080516323b872dd60e01b81526001600160a01b038781166004830152868116602483015260448201869052915191909216916323b872dd91606480830192600092919082900301818387803b15801561193657600080fd5b505af115801561194a573d6000803e3d6000fd5b50505050505b505050565b611960611139613282565b61199b5760405162461bcd60e51b81526004018080602001828103825260408152602001806136ba6040913960400191505060405180910390fd5b611182816132ce565b60608060136000846001600160a01b03166001600160a01b03168152602001908152602001600020805480602002602001604051908101604052809291908181526020018280548015611a1657602002820191906000526020600020905b815481526020019060010190808311611a02575b5093979650505050505050565b60008181526016602052604081205480611a79576040805162461bcd60e51b81526020600482015260126024820152714d757374206861766520612073747265616d60701b604482015290519081900360640190fd5b611a816134f5565b5060008381526012602090815260409182902082516101208101845281546001600160a01b0390811680835260018401549483019490945260028301549081169482019490945260ff600160a01b8504811615156060830152600160a81b90940490931615156080840152600381015460a0840152600481015460c0840152600581015460e0840152600601546101008301523314611b58576040805162461bcd60e51b815260206004820152600e60248201526d26bab9ba103132903632b73232b960911b604482015290519081900360640190fd5b611b618461316e565b601154815160408051631b2b776160e11b8152600481018690526001600160a01b03928316602482015290519190921691637a9b2c6c9185918491633656eec291604480820192602092909190829003018186803b158015611bc257600080fd5b505afa158015611bd6573d6000803e3d6000fd5b505050506040513d6020811015611bec57600080fd5b5051604080516001600160e01b031960e086901b168152600481019390935260248301919091525160448083019260209291908290030181600087803b158015611c3557600080fd5b505af1158015611c49573d6000803e3d6000fd5b505050506040513d6020811015611c5f57600080fd5b5051949350505050565b6000611c74836122b7565b8210611cb15760405162461bcd60e51b815260040180806020018281038252602b815260200180613558602b913960400191505060405180910390fd5b6001600160a01b0383166000908152600560205260409020805483908110611cd557fe5b9060005260206000200154905092915050565b600f546001600160a01b031681565b6000611d0a600e8363ffffffff61331616565b92915050565b60008181526016602052604081205480611d66576040805162461bcd60e51b81526020600482015260126024820152714d757374206861766520612073747265616d60701b604482015290519081900360640190fd5b611d6e6134f5565b5060008381526012602090815260409182902082516101208101845281546001600160a01b0390811680835260018401549483019490945260028301549081169482019490945260ff600160a01b8504811615156060830152600160a81b90940490931615156080840152600381015460a0840152600481015460c0840152600581015460e0840152600601546101008301523314611e45576040805162461bcd60e51b815260206004820152600e60248201526d26bab9ba103132903632b73232b960911b604482015290519081900360640190fd5b60115460408051636db9241b60e01b81526004810185905290516001600160a01b0390921691636db9241b916024808201926020929091908290030181600087803b158015611e9357600080fd5b505af1158015611ea7573d6000803e3d6000fd5b505050506040513d6020811015611ebd57600080fd5b5050600f5460408083015181516370a0823160e01b815230600482015291516001600160a01b039093169263a9059cbb9284916370a0823191602480820192602092909190829003018186803b158015611f1657600080fd5b505afa158015611f2a573d6000803e3d6000fd5b505050506040513d6020811015611f4057600080fd5b5051604080516001600160e01b031960e086901b1681526001600160a01b03909316600484015260248301919091525160448083019260209291908290030181600087803b158015611c3557600080fd5b6119508383836040518060200160405280600081525061270f565b611fbc611fb7613282565b61337d565b565b6000611fc8611195565b82106120055760405162461bcd60e51b815260040180806020018281038252602c81526020018061371b602c913960400191505060405180910390fd5b6007828154811061201257fe5b90600052602060002001549050919050565b6010546001600160a01b031681565b600061203d6134f5565b5060008281526012602090815260409182902082516101208101845281546001600160a01b03908116825260018301549382019390935260028201549283169381019390935260ff600160a01b8304811615156060850152600160a81b9092049091161580156080840152600382015460a0840152600482015460c0840152600582015460e084015260069091015461010083015261215757601054604080516331a9108f60e11b81526004810186905290516001600160a01b0390921691636352211e91602480820192602092909190829003018186803b15801561212257600080fd5b505afa158015612136573d6000803e3d6000fd5b505050506040513d602081101561214c57600080fd5b50519150610b419050565b503092915050565b60008060008060008060006121726134f5565b505050600095865250506012602090815260409485902085516101208101875281546001600160a01b03908116808352600184015494830194909452600283015490811697820188905260ff600160a01b82048116151560608401819052600160a81b90920416151560808301819052600384015460a08401819052600485015460c08501819052600586015460e0860152600690950154610100909401849052949991975095509293509091565b600b8054604080516020601f60026000196101006001881615020190951694909404938401819004810282018101909252828152606093909290918301828280156122ad5780601f10612282576101008083540402835291602001916122ad565b820191906000526020600020905b81548152906001019060200180831161229057829003601f168201915b5050505050905090565b601054604080516370a0823160e01b81526001600160a01b038481166004830152915160009392909216916370a0823191602480820192602092909190829003018186803b15801561230857600080fd5b505afa15801561231c573d6000803e3d6000fd5b505050506040513d602081101561233257600080fd5b505192915050565b6000611d0a823061119b565b612351611139613282565b61238c5760405162461bcd60e51b81526004018080602001828103825260408152602001806136ba6040913960400191505060405180910390fd5b611182816133c5565b60156020526000908152604090205481565b60145481565b60008181526016602052604081205480612403576040805162461bcd60e51b81526020600482015260126024820152714d757374206861766520612073747265616d60701b604482015290519081900360640190fd5b61240b6134f5565b5060008381526012602090815260409182902082516101208101845281546001600160a01b03908116825260018301549382019390935260028201549283169381019390935260ff600160a01b8304811615156060850152600160a81b90920490911615156080830152600381015460a08301819052600482015460c0840152600582015460e084015260069091015461010083015242116124bb578060a001518160c001510392505050610b41565b8060c001514211156124d257600092505050610b41565b6011546040805163a82ccd4d60e01b81526004810185905290516001600160a01b039092169163a82ccd4d91602480820192602092909190829003018186803b15801561251e57600080fd5b505afa158015612532573d6000803e3d6000fd5b505050506040513d602081101561254857600080fd5b505160c09091015103915050919050565b60009081526015602052604090205490565b601054604080516395d89b4160e01b815290516060926001600160a01b0316916395d89b41916004808301926000929190829003018186803b158015610b8b57600080fd5b6125b8613282565b6001600160a01b0316826001600160a01b0316141561261e576040805162461bcd60e51b815260206004820152601960248201527f4552433732313a20617070726f766520746f2063616c6c657200000000000000604482015290519081900360640190fd5b806004600061262b613282565b6001600160a01b03908116825260208083019390935260409182016000908120918716808252919093529120805460ff19169215159290921790915561266f613282565b60408051841515815290516001600160a01b0392909216917f17307eab39ab6107e8899845ad3d59bd9653f200f220920489ca2b5937696c319181900360200190a35050565b60126020526000908152604090208054600182015460028301546003840154600485015460058601546006909601546001600160a01b0395861696949584169460ff600160a01b8604811695600160a81b90041693929189565b6127176134f5565b5060008281526012602090815260409182902082516101208101845281546001600160a01b03908116825260018301549382019390935260028201549283169381019390935260ff600160a01b8304811615156060850152600160a81b9092049091161580156080840152600382015460a0840152600482015460c0840152600582015460e08401526006909101546101008301526127e75760405162461bcd60e51b81526004018080602001828103825260238152602001806135836023913960400191505060405180910390fd5b8060600151156128285760405162461bcd60e51b81526004018080602001828103825260238152602001806135f06023913960400191505060405180910390fd5b601054604051635c46a7ef60e11b81526001600160a01b0387811660048301908152878216602484015260448301879052608060648401908152865160848501528651929094169363b88d4fde938a938a938a938a939192909160a40190602085019080838360005b838110156128a9578181015183820152602001612891565b50505050905090810190601f1680156128d65780820380516001836020036101000a031916815260200191505b5095505050505050600060405180830381600087803b1580156128f857600080fd5b505af115801561290c573d6000803e3d6000fd5b505050505050505050565b60008181526012602052604081206001015461296f576040805162461bcd60e51b8152602060048201526012602482015271546f6b656e206e6f7420666f722073616c6560701b604482015290519081900360640190fd5b60008281526012602052604090206002810154600160a01b900460ff166129d2576040805162461bcd60e51b8152602060048201526012602482015271151bdad95b881b9bdd08195cd8dc9bddd95960721b604482015290519081900360640190fd5b6002810154600160a81b900460ff16612a27576040805162461bcd60e51b8152602060048201526012602482015271151bdad95b881b9bdd08189bdc9c9bddd95960721b604482015290519081900360640190fd5b60028101546001600160a01b03163314612a88576040805162461bcd60e51b815260206004820152601c60248201527f546f6b656e206e6f7420626f72726f7765642062792063616c6c657200000000604482015290519081900360640190fd5b600281018054600161ff0160a01b03191690556011546000848152601660209081526040808320548151636db9241b60e01b8152600481019190915290516001600160a01b0390941693636db9241b93602480840194938390030190829087803b158015612af557600080fd5b505af1158015612b09573d6000803e3d6000fd5b505050506040513d6020811015612b1f57600080fd5b50505060009182525060166020526040812055600190565b6000611d0a600d8363ffffffff61331616565b600081815260126020526040812060010154612ba2576040805162461bcd60e51b8152602060048201526012602482015271546f6b656e206e6f7420666f722073616c6560701b604482015290519081900360640190fd5b60008281526012602052604090206002810154600160a01b900460ff16612c05576040805162461bcd60e51b8152602060048201526012602482015271151bdad95b881b9bdd08195cd8dc9bddd95960721b604482015290519081900360640190fd5b6002810154600160a81b900460ff1615612c5f576040805162461bcd60e51b8152602060048201526016602482015275151bdad95b88185b1c9958591e48189bdc9c9bddd95960521b604482015290519081900360640190fd5b60028101546001600160a01b0316612cbe576040805162461bcd60e51b815260206004820152601c60248201527f546f6b656e20616c726561647920676f74206120626f72726f77657200000000604482015290519081900360640190fd5b805460008481526012602052604080822080546001600160a01b0319168155600181018390556002810180546001600160b01b03191690556003810183905560048082018490556005820184905560069091018390556010548251632142170760e11b815230928101929092526001600160a01b0394851660248301819052604483018990529251929416926342842e0e9260648084019382900301818387803b158015612d6b57600080fd5b505af1158015612d7f573d6000803e3d6000fd5b50505050612d8d848261119b565b612dde576040805162461bcd60e51b815260206004820152601f60248201527f546f6b656e206e6f742072657475726e6564207375636365737366756c6c7900604482015290519081900360640190fd5b5060019392505050565b60008181526016602052604081205480612e3e576040805162461bcd60e51b81526020600482015260126024820152714d757374206861766520612073747265616d60701b604482015290519081900360640190fd5b612e466134f5565b5060008381526012602090815260409182902082516101208101845281546001600160a01b0390811680835260018401548386015260028401548083168488015260ff600160a01b8204811615156060860152600160a81b9091041615156080840152600384015460a084015260048085015460c0850152600585015460e08501526006909401546101008401526011548651631b2b776160e11b81529485018890526024850191909152945191941692633656eec29260448082019391829003018186803b158015612f1857600080fd5b505afa158015611c49573d6000803e3d6000fd5b60136020528160005260406000208181548110612f4557fe5b90600052602060002001600091509150505481565b60166020526000908152604090205481565b6060612f766134f5565b5060008281526012602090815260409182902082516101208101845281546001600160a01b03908116825260018301549382019390935260028201549283169381019390935260ff600160a01b8304811615156060850152600160a81b9092049091161580156080840152600382015460a0840152600482015460c0840152600582015460e084015260069091015461010083015261314e576010546040805163c87b56dd60e01b81526004810186905290516001600160a01b039092169163c87b56dd91602480820192600092909190829003018186803b15801561305b57600080fd5b505afa15801561306f573d6000803e3d6000fd5b505050506040513d6000823e601f3d908101601f19168201604052602081101561309857600080fd5b8101908080516040519392919084600160201b8211156130b757600080fd5b9083019060208201858111156130cc57600080fd5b8251600160201b8111828201881017156130e557600080fd5b82525081516020918201929091019080838360005b838110156131125781810151838201526020016130fa565b50505050905090810190601f16801561313f5780820380516001836020036101000a031916815260200191505b50604052505050915050610b41565b6040518060800160405280604a81526020016135a6604a91399392505050565b600081815260126020526040902060010154611182576040805162461bcd60e51b8152602060048201526012602482015271546f6b656e206e6f7420666f722073616c6560701b604482015290519081900360640190fd5b611fbc6131d1613282565b6132ce565b6001600160a01b03918216600090815260046020908152604080832093909416825291909152205460ff1690565b6000908152600160205260409020546001600160a01b0316151590565b60008282018381101561327b576040805162461bcd60e51b815260206004820152601b60248201527f536166654d6174683a206164646974696f6e206f766572666c6f770000000000604482015290519081900360640190fd5b9392505050565b3390565b613297600e8263ffffffff61340d16565b6040516001600160a01b038216907fee1504a83b6d4a361f4c1dc78ab59bfa30d6a3b6612c403e86bb01ef2984295f90600090a250565b6132df600e8263ffffffff61348e16565b6040516001600160a01b038216907f270d9b30cf5b0793bbfd54c9d5b94aeb49462b8148399000265144a8722da6b690600090a250565b60006001600160a01b03821661335d5760405162461bcd60e51b81526004018080602001828103825260228152602001806136986022913960400191505060405180910390fd5b506001600160a01b03166000908152602091909152604090205460ff1690565b61338e600d8263ffffffff61348e16565b6040516001600160a01b038216907f0a8eb35e5ca14b3d6f28e4abf2f128dbab231a58b56e89beb5d636115001e16590600090a250565b6133d6600d8263ffffffff61340d16565b6040516001600160a01b038216907f22380c05984257a1cb900161c713dd71d39e74820f1aea43bd3f1bdd2096129990600090a250565b6134178282613316565b15613469576040805162461bcd60e51b815260206004820152601f60248201527f526f6c65733a206163636f756e7420616c72656164792068617320726f6c6500604482015290519081900360640190fd5b6001600160a01b0316600090815260209190915260409020805460ff19166001179055565b6134988282613316565b6134d35760405162461bcd60e51b815260040180806020018281038252602181526020018061364b6021913960400191505060405180910390fd5b6001600160a01b0316600090815260209190915260409020805460ff19169055565b60405180610120016040528060006001600160a01b031681526020016000815260200160006001600160a01b0316815260200160001515815260200160001515815260200160008152602001600081526020016000815260200160008152509056fe455243373231456e756d657261626c653a206f776e657220696e646578206f7574206f6620626f756e647343616e6e6f74207472616e73666572206120626f72726f77656420636f6e747261637468747470733a2f2f697066732e696e667572612e696f2f697066732f516d59413366617a4b575873695258594444794878424b426938756445526a61527a6a7450524e4332444b6a335a43616e6e6f74207472616e73666572206120657363726f77656420636f6e74726163744552433732313a20617070726f76652063616c6c6572206973206e6f74206f776e6572206e6f7220617070726f76656420666f7220616c6c526f6c65733a206163636f756e7420646f6573206e6f74206861766520726f6c654552433732313a20617070726f76656420717565727920666f72206e6f6e6578697374656e7420746f6b656e526f6c65733a206163636f756e7420697320746865207a65726f206164647265737357686974656c69737441646d696e526f6c653a2063616c6c657220646f6573206e6f742068617665207468652057686974656c69737441646d696e20726f6c654552433732313a20617070726f76616c20746f2063757272656e74206f776e6572455243373231456e756d657261626c653a20676c6f62616c20696e646578206f7574206f6620626f756e6473a265627a7a723158201385bf917ce375a8a27001eb6a41932a00a3fb322e5fe92c62f4ebb643e1a2b264736f6c634300050e0032526f6c65733a206163636f756e7420697320746865207a65726f206164647265737357686974656c69737441646d696e526f6c653a2063616c6c657220646f6573206e6f742068617665207468652057686974656c69737441646d696e20726f6c65",
  "source": "pragma solidity 0.5.14;\n\nimport \"@openzeppelin/contracts/access/roles/WhitelistedRole.sol\";\nimport \"@openzeppelin/contracts/token/ERC20/IERC20.sol\";\nimport \"@openzeppelin/contracts/token/ERC721/IERC721Full.sol\";\nimport \"@openzeppelin/contracts/token/ERC721/ERC721Full.sol\";\nimport \"./sablier/IERC1620.sol\";\n\ncontract LoanShark is ERC721Full, WhitelistedRole {\n\n    struct Loan {\n        // config\n        address lender;\n        uint256 tokenId;\n        address borrower;\n\n        // state flags\n        bool isEscrowed;\n        bool isBorrowed;\n\n        // window\n        uint256 start;\n        uint256 end;\n\n        uint256 periodInSecs;\n        uint256 depositInWei;\n    }\n\n    // What to stream the payment in\n    IERC20 public paymentToken;\n\n    // The original NFT contract\n    IERC721Full public tokenContract;\n\n    // Sablier stream for payments\n    IERC1620 stream;\n\n    mapping(uint256 => Loan) public tokensAvailableToLoan;\n\n    mapping(address => uint256[]) public lenderToTokenId;\n\n    // So we can enumerate them\n    uint256 public totalTokens = 0;\n    mapping(uint256 => uint256) public indexToTokenId;\n\n    mapping(uint256 => uint256) public tokenIdToStreamId;\n\n    constructor(\n        IERC721Full _tokenContract, // How to make this generic to not accept a token at construction\n        IERC20 _paymentToken, // DAI ... or even zkDAI ?\n        IERC1620 _stream\n    ) ERC721Full(\"LoanShark\", \"SHARK\") public {\n        super.addWhitelisted(msg.sender);\n\n        paymentToken = _paymentToken;\n        tokenContract = _tokenContract;\n        stream = _stream;\n\n        // approve the stream to pull whatever they want from LoanShark\n        paymentToken.approve(address(stream), uint(- 1));\n    }\n\n    // TODO create a proxy method to allow call on original NFT by bytecode/method args - dynamic lookup?\n    function enableTokenForLending(uint256 _tokenId, uint256 _periodInSecs, uint256 _depositInWei) public returns (bool) {\n\n        // Validate input\n        require(_depositInWei > 0, \"Must have a deposit\");\n        require(_periodInSecs > 0, \"Must have a period in secs\");\n\n        require(tokensAvailableToLoan[_tokenId].tokenId == 0, \"Token already placed for sale\");\n\n        // Validate caller owns it\n        require(tokenContract.ownerOf(_tokenId) == msg.sender, \"Caller does not own the NFT\");\n\n        // Setup Loan\n        tokensAvailableToLoan[_tokenId] = Loan({\n            tokenId : _tokenId,\n            lender : msg.sender,\n            borrower : address(0x0),\n\n            isEscrowed : true,\n            isBorrowed : false,\n\n            start : 0,\n            end : 0,\n\n            periodInSecs: _periodInSecs,\n            depositInWei : _depositInWei\n            });\n\n        // Escrow NFT into the Loan Shark Contract\n        tokenContract.safeTransferFrom(msg.sender, address(this), _tokenId);\n        require(isTokenEscrowed(_tokenId), \"Token not correctly escrowed\");\n\n        // Setup simple enumeration\n        indexToTokenId[totalTokens] = _tokenId;\n        totalTokens = totalTokens + 1;\n\n        // setup simple lender mapping\n        lenderToTokenId[msg.sender].push(_tokenId);\n\n        return true;\n    }\n\n    /*\n     * Close any outstanding un-borrowed NFT loans\n     * Send the NFT back to the original lender\n     */\n    function cancelLoan(uint256 _tokenId) public returns (bool) {\n        require(tokensAvailableToLoan[_tokenId].tokenId != 0, \"Token not for sale\");\n\n        Loan storage loan = tokensAvailableToLoan[_tokenId];\n        require(loan.isEscrowed, \"Token not escrowed\");\n        require(!loan.isBorrowed, \"Token already borrowed\");\n        require(loan.borrower != address(0), \"Token already got a borrower\");\n\n        address originalLender = loan.lender;\n\n        delete tokensAvailableToLoan[_tokenId];\n\n        // Send the loan back to the original lender\n        tokenContract.safeTransferFrom(address(this), originalLender, _tokenId);\n        require(isTokenOwnedBy(_tokenId, originalLender), \"Token not returned successfully\");\n\n        return true;\n    }\n\n    function borrowToken(uint256 _tokenId) public returns (bool) {\n        require(tokensAvailableToLoan[_tokenId].tokenId != 0, \"Token not for sale\");\n\n        Loan storage loan = tokensAvailableToLoan[_tokenId];\n        require(loan.isEscrowed, \"Token not escrowed\");\n        require(!loan.isBorrowed, \"Token already borrowed\");\n        require(loan.borrower == address(0), \"Token already got a borrower\");\n\n        // sudo transfer this NFT to the new owner\n        loan.borrower = msg.sender;\n        loan.isBorrowed = true;\n\n        loan.start = now.add(60);\n        loan.end = loan.start.add(loan.periodInSecs);\n\n        // deposit here in escrow to set up stream\n        paymentToken.transferFrom(msg.sender, address(this), loan.depositInWei);\n\n        // this will pull the escrowed amount into the stream\n        uint256 streamId = stream.createStream(loan.lender, loan.depositInWei, address(paymentToken), loan.start, loan.end);\n\n        tokenIdToStreamId[_tokenId] = streamId;\n        return true;\n    }\n\n    function returnBorrowedNft(uint256 _tokenId) public returns (bool) {\n        require(tokensAvailableToLoan[_tokenId].tokenId != 0, \"Token not for sale\");\n\n        Loan storage loan = tokensAvailableToLoan[_tokenId];\n        require(loan.isEscrowed, \"Token not escrowed\");\n        require(loan.isBorrowed, \"Token not borrowed\");\n        require(loan.borrower == msg.sender, \"Token not borrowed by caller\");\n\n        // sudo transfer this NFT back to the escrow\n        loan.borrower = address(0);\n        loan.isBorrowed = false;\n\n        stream.cancelStream(tokenIdToStreamId[_tokenId]);\n\n        delete tokenIdToStreamId[_tokenId];\n\n        return true;\n    }\n\n    function clawBackNft(uint256 _tokenId) public {\n        require(tokensAvailableToLoan[_tokenId].tokenId != 0, \"Token not for sale\");\n\n        // only allow after loan has expired\n        // take back ownership from the borrower\n        // reset loan state\n        // penalise the borrower in some form?\n    }\n\n    /////////////////////\n    // Query utilities //\n    /////////////////////\n\n    function getLoanDetails(uint _tokenId) public view returns (\n        address lender,\n        address borrower,\n        bool isEscrowed,\n        bool isBorrowed,\n        uint256 start,\n        uint256 end,\n        uint256 depositInWei\n    ) {\n        Loan memory loan = tokensAvailableToLoan[_tokenId];\n        return (\n        loan.lender,\n        loan.borrower,\n        loan.isEscrowed,\n        loan.isBorrowed,\n        loan.start,\n        loan.end,\n        loan.depositInWei\n        );\n    }\n\n    function cancel(uint _tokenId) public returns (bool) {\n\n        uint256 streamId = tokenIdToStreamId[_tokenId];\n        require(streamId > 0, \"Must have a stream\");\n\n        Loan memory loan = tokensAvailableToLoan[_tokenId];\n        require(msg.sender == loan.lender, \"Must be lender\");\n\n        stream.cancelStream(streamId);\n        //        safeTransferFrom(loan.borrower, loan.lender, _tokenId);\n\n        return paymentToken.transfer(loan.borrower, paymentToken.balanceOf(address(this)));\n    }\n\n\n    function getRemainingTimeLeftForLoan(uint _tokenId) public returns (uint256) {\n        uint256 streamId = tokenIdToStreamId[_tokenId];\n        require(streamId > 0, \"Must have a stream\");\n\n        Loan memory loan = tokensAvailableToLoan[_tokenId];\n\n        if (block.timestamp <= loan.start) return loan.end - loan.start;\n        if (block.timestamp > loan.end) return 0;\n\n        return loan.end - stream.deltaOf(streamId);\n    }\n\n    function getRemainingStreamBalance(uint _tokenId) public returns (uint256) {\n        uint256 streamId = tokenIdToStreamId[_tokenId];\n        require(streamId > 0, \"Must have a stream\");\n\n        Loan memory loan = tokensAvailableToLoan[_tokenId];\n\n        return stream.balanceOf(streamId, loan.lender);\n    }\n\n    function withdraw(uint _tokenId) public returns (bool) {\n        uint256 streamId = tokenIdToStreamId[_tokenId];\n        require(streamId > 0, \"Must have a stream\");\n\n        Loan memory loan = tokensAvailableToLoan[_tokenId];\n        require(msg.sender == loan.lender, \"Must be lender\");\n\n        clawBackNft(_tokenId);\n\n        return stream.withdrawFromStream(streamId, stream.balanceOf(streamId, loan.lender));\n    }\n\n    ////////////////////\n    // Internal utils //\n    ////////////////////\n\n    function getTokenIdForIndex(uint256 _index) public view returns (uint256) {\n        return indexToTokenId[_index];\n    }\n\n    function getTokensLenderIsBorrowing(address _lender) public view returns (uint256[] memory) {\n        uint256[] memory tokenIds = lenderToTokenId[_lender];\n        return tokenIds;\n    }\n\n    // taking ownership of the NFT via callback confirmation\n    function onERC721Received(address operator, address from, uint256 tokenId, bytes memory data) public returns (bytes4) {\n        return this.onERC721Received.selector;\n    }\n\n    function isTokenEscrowed(uint256 _tokenId) public view returns (bool) {\n        return isTokenOwnedBy(_tokenId, address(this));\n    }\n\n    function isTokenOwnedBy(uint256 _tokenId, address _owner) public view returns (bool) {\n        return IERC721Full(tokenContract).ownerOf(_tokenId) == _owner;\n    }\n\n    ////////////////////////////////////////\n    // Overridden IERC721Metadata methods //\n    ////////////////////////////////////////\n\n    function name() public view returns (string memory) {\n        return tokenContract.name();\n    }\n\n    function symbol() public view returns (string memory) {\n        return tokenContract.symbol();\n    }\n\n    function tokenURI(uint256 _tokenId) public view returns (string memory) {\n        Loan memory loan = tokensAvailableToLoan[_tokenId];\n        if (loan.isBorrowed) {\n            return tokenContract.tokenURI(_tokenId);\n        }\n        // Static IPFS data for a loan shark NFT\n        return \"https://ipfs.infura.io/ipfs/QmYA3fazKWXsiRXYDDyHxBKBi8udERjaRzjtPRNC2DKj3Z\";\n    }\n\n    function getPrincipleTokenUri(uint256 _tokenId) public view returns (string memory) {\n        return tokenContract.tokenURI(_tokenId);\n    }\n\n    ////////////////////////////////\n    // Overridden IERC721 methods //\n    ////////////////////////////////\n\n    // TODO proxy through to escrowed NFT\n    // TODO special case methods which need to be thought about\n    // TODO check expired stream as well for all proxy methods?\n\n    function balanceOf(address owner) public view returns (uint256) {\n        // TODO how to handle this proxy method\n        return tokenContract.balanceOf(owner);\n    }\n\n    function ownerOf(uint256 _tokenId) public view returns (address) {\n        Loan memory loan = tokensAvailableToLoan[_tokenId];\n        if (loan.isBorrowed) {\n            return tokenContract.ownerOf(_tokenId);\n        }\n        return address(this);\n    }\n\n    function safeTransferFrom(address from, address to, uint256 tokenId, bytes memory _data) public {\n        Loan memory loan = tokensAvailableToLoan[tokenId];\n        require(!loan.isBorrowed, \"Cannot transfer a borrowed contract\");\n        require(!loan.isEscrowed, \"Cannot transfer a escrowed contract\");\n\n        return tokenContract.safeTransferFrom(from, to, tokenId, _data);\n    }\n\n    function transferFrom(address from, address to, uint256 tokenId) public {\n        Loan memory loan = tokensAvailableToLoan[tokenId];\n        require(!loan.isBorrowed, \"Cannot transfer a borrowed contract\");\n        require(!loan.isEscrowed, \"Cannot transfer a escrowed contract\");\n\n        return tokenContract.transferFrom(from, to, tokenId);\n    }\n\n}\n",
  "sourcePath": "/Users/andygray/workspace/loan-shark/contracts/LoanShark.sol",
  "compiler": {
    "name": "solc",
    "version": "0.5.14+commit.01f1aaa4.Emscripten.clang"
  },
  "schemaVersion": "3.0.22",
  "updatedAt": "2020-02-29T22:02:59.397Z",
  "devdoc": {
    "methods": {
      "approve(address,uint256)": {
        "details": "Approves another address to transfer the given token ID The zero address indicates there is no approved address. There can only be one approved address per token at a given time. Can only be called by the token owner or an approved operator.",
        "params": {
          "to": "address to be approved for the given token ID",
          "tokenId": "uint256 ID of the token to be approved"
        }
      },
      "baseURI()": {
        "details": "Returns the base URI set via {_setBaseURI}. This will be automatically added as a preffix in {tokenURI} to each token's URI, when they are non-empty.    * _Available since v2.5.0._"
      },
      "getApproved(uint256)": {
        "details": "Gets the approved address for a token ID, or zero if no address set Reverts if the token ID does not exist.",
        "params": {
          "tokenId": "uint256 ID of the token to query the approval of"
        },
        "return": "address currently approved for the given token ID"
      },
      "isApprovedForAll(address,address)": {
        "details": "Tells whether an operator is approved by a given owner.",
        "params": {
          "operator": "operator address which you want to query the approval of",
          "owner": "owner address which you want to query the approval of"
        },
        "return": "bool whether the given operator is approved by the given owner"
      },
      "safeTransferFrom(address,address,uint256)": {
        "details": "Safely transfers the ownership of a given token ID to another address If the target address is a contract, it must implement {IERC721Receiver-onERC721Received}, which is called upon a safe transfer, and return the magic value `bytes4(keccak256(\"onERC721Received(address,address,uint256,bytes)\"))`; otherwise, the transfer is reverted. Requires the msg.sender to be the owner, approved, or operator",
        "params": {
          "from": "current owner of the token",
          "to": "address to receive the ownership of the given token ID",
          "tokenId": "uint256 ID of the token to be transferred"
        }
      },
      "setApprovalForAll(address,bool)": {
        "details": "Sets or unsets the approval of a given operator An operator is allowed to transfer all tokens of the sender on their behalf.",
        "params": {
          "approved": "representing the status of the approval to be set",
          "to": "operator address to set the approval"
        }
      },
      "supportsInterface(bytes4)": {
        "details": "See {IERC165-supportsInterface}.     * Time complexity O(1), guaranteed to always use less than 30 000 gas."
      },
      "tokenByIndex(uint256)": {
        "details": "Gets the token ID at a given index of all the tokens in this contract Reverts if the index is greater or equal to the total number of tokens.",
        "params": {
          "index": "uint256 representing the index to be accessed of the tokens list"
        },
        "return": "uint256 token ID at the given index of the tokens list"
      },
      "tokenOfOwnerByIndex(address,uint256)": {
        "details": "Gets the token ID at a given index of the tokens list of the requested owner.",
        "params": {
          "index": "uint256 representing the index to be accessed of the requested tokens list",
          "owner": "address owning the tokens list to be accessed"
        },
        "return": "uint256 token ID at the given index of the tokens list owned by the requested address"
      },
      "totalSupply()": {
        "details": "Gets the total amount of tokens stored by the contract.",
        "return": "uint256 representing the total amount of tokens"
      }
    }
  },
  "userdoc": {
    "methods": {
      "balanceOf(address)": {
        "notice": "/////////////////////////////"
      },
      "getLoanDetails(uint256)": {
        "notice": "//////////////////"
      },
      "getTokenIdForIndex(uint256)": {
        "notice": "/////////////////"
      },
      "name()": {
        "notice": "/////////////////////////////////////"
      }
    }
  }
}