{
  "contractName": "LoanShark",
  "abi": [
    {
      "inputs": [
        {
          "internalType": "contract IERC721Full",
          "name": "_tokenContract",
          "type": "address"
        },
        {
          "internalType": "contract IERC20",
          "name": "_paymentToken",
          "type": "address"
        },
        {
          "internalType": "contract IERC1620",
          "name": "_stream",
          "type": "address"
        }
      ],
      "payable": false,
      "stateMutability": "nonpayable",
      "type": "constructor"
    },
    {
      "anonymous": false,
      "inputs": [
        {
          "indexed": true,
          "internalType": "address",
          "name": "owner",
          "type": "address"
        },
        {
          "indexed": true,
          "internalType": "address",
          "name": "approved",
          "type": "address"
        },
        {
          "indexed": true,
          "internalType": "uint256",
          "name": "tokenId",
          "type": "uint256"
        }
      ],
      "name": "Approval",
      "type": "event"
    },
    {
      "anonymous": false,
      "inputs": [
        {
          "indexed": true,
          "internalType": "address",
          "name": "owner",
          "type": "address"
        },
        {
          "indexed": true,
          "internalType": "address",
          "name": "operator",
          "type": "address"
        },
        {
          "indexed": false,
          "internalType": "bool",
          "name": "approved",
          "type": "bool"
        }
      ],
      "name": "ApprovalForAll",
      "type": "event"
    },
    {
      "anonymous": false,
      "inputs": [
        {
          "indexed": true,
          "internalType": "address",
          "name": "from",
          "type": "address"
        },
        {
          "indexed": true,
          "internalType": "address",
          "name": "to",
          "type": "address"
        },
        {
          "indexed": true,
          "internalType": "uint256",
          "name": "tokenId",
          "type": "uint256"
        }
      ],
      "name": "Transfer",
      "type": "event"
    },
    {
      "anonymous": false,
      "inputs": [
        {
          "indexed": true,
          "internalType": "address",
          "name": "account",
          "type": "address"
        }
      ],
      "name": "WhitelistAdminAdded",
      "type": "event"
    },
    {
      "anonymous": false,
      "inputs": [
        {
          "indexed": true,
          "internalType": "address",
          "name": "account",
          "type": "address"
        }
      ],
      "name": "WhitelistAdminRemoved",
      "type": "event"
    },
    {
      "anonymous": false,
      "inputs": [
        {
          "indexed": true,
          "internalType": "address",
          "name": "account",
          "type": "address"
        }
      ],
      "name": "WhitelistedAdded",
      "type": "event"
    },
    {
      "anonymous": false,
      "inputs": [
        {
          "indexed": true,
          "internalType": "address",
          "name": "account",
          "type": "address"
        }
      ],
      "name": "WhitelistedRemoved",
      "type": "event"
    },
    {
      "constant": false,
      "inputs": [
        {
          "internalType": "address",
          "name": "account",
          "type": "address"
        }
      ],
      "name": "addWhitelistAdmin",
      "outputs": [],
      "payable": false,
      "stateMutability": "nonpayable",
      "type": "function"
    },
    {
      "constant": false,
      "inputs": [
        {
          "internalType": "address",
          "name": "account",
          "type": "address"
        }
      ],
      "name": "addWhitelisted",
      "outputs": [],
      "payable": false,
      "stateMutability": "nonpayable",
      "type": "function"
    },
    {
      "constant": false,
      "inputs": [
        {
          "internalType": "address",
          "name": "to",
          "type": "address"
        },
        {
          "internalType": "uint256",
          "name": "tokenId",
          "type": "uint256"
        }
      ],
      "name": "approve",
      "outputs": [],
      "payable": false,
      "stateMutability": "nonpayable",
      "type": "function"
    },
    {
      "constant": true,
      "inputs": [],
      "name": "baseURI",
      "outputs": [
        {
          "internalType": "string",
          "name": "",
          "type": "string"
        }
      ],
      "payable": false,
      "stateMutability": "view",
      "type": "function"
    },
    {
      "constant": true,
      "inputs": [
        {
          "internalType": "uint256",
          "name": "tokenId",
          "type": "uint256"
        }
      ],
      "name": "getApproved",
      "outputs": [
        {
          "internalType": "address",
          "name": "",
          "type": "address"
        }
      ],
      "payable": false,
      "stateMutability": "view",
      "type": "function"
    },
    {
      "constant": true,
      "inputs": [
        {
          "internalType": "uint256",
          "name": "",
          "type": "uint256"
        }
      ],
      "name": "indexToTokenId",
      "outputs": [
        {
          "internalType": "uint256",
          "name": "",
          "type": "uint256"
        }
      ],
      "payable": false,
      "stateMutability": "view",
      "type": "function"
    },
    {
      "constant": true,
      "inputs": [
        {
          "internalType": "address",
          "name": "owner",
          "type": "address"
        },
        {
          "internalType": "address",
          "name": "operator",
          "type": "address"
        }
      ],
      "name": "isApprovedForAll",
      "outputs": [
        {
          "internalType": "bool",
          "name": "",
          "type": "bool"
        }
      ],
      "payable": false,
      "stateMutability": "view",
      "type": "function"
    },
    {
      "constant": true,
      "inputs": [
        {
          "internalType": "address",
          "name": "account",
          "type": "address"
        }
      ],
      "name": "isWhitelistAdmin",
      "outputs": [
        {
          "internalType": "bool",
          "name": "",
          "type": "bool"
        }
      ],
      "payable": false,
      "stateMutability": "view",
      "type": "function"
    },
    {
      "constant": true,
      "inputs": [
        {
          "internalType": "address",
          "name": "account",
          "type": "address"
        }
      ],
      "name": "isWhitelisted",
      "outputs": [
        {
          "internalType": "bool",
          "name": "",
          "type": "bool"
        }
      ],
      "payable": false,
      "stateMutability": "view",
      "type": "function"
    },
    {
      "constant": true,
      "inputs": [],
      "name": "paymentToken",
      "outputs": [
        {
          "internalType": "contract IERC20",
          "name": "",
          "type": "address"
        }
      ],
      "payable": false,
      "stateMutability": "view",
      "type": "function"
    },
    {
      "constant": false,
      "inputs": [
        {
          "internalType": "address",
          "name": "account",
          "type": "address"
        }
      ],
      "name": "removeWhitelisted",
      "outputs": [],
      "payable": false,
      "stateMutability": "nonpayable",
      "type": "function"
    },
    {
      "constant": false,
      "inputs": [],
      "name": "renounceWhitelistAdmin",
      "outputs": [],
      "payable": false,
      "stateMutability": "nonpayable",
      "type": "function"
    },
    {
      "constant": false,
      "inputs": [],
      "name": "renounceWhitelisted",
      "outputs": [],
      "payable": false,
      "stateMutability": "nonpayable",
      "type": "function"
    },
    {
      "constant": false,
      "inputs": [
        {
          "internalType": "address",
          "name": "to",
          "type": "address"
        },
        {
          "internalType": "bool",
          "name": "approved",
          "type": "bool"
        }
      ],
      "name": "setApprovalForAll",
      "outputs": [],
      "payable": false,
      "stateMutability": "nonpayable",
      "type": "function"
    },
    {
      "constant": true,
      "inputs": [
        {
          "internalType": "bytes4",
          "name": "interfaceId",
          "type": "bytes4"
        }
      ],
      "name": "supportsInterface",
      "outputs": [
        {
          "internalType": "bool",
          "name": "",
          "type": "bool"
        }
      ],
      "payable": false,
      "stateMutability": "view",
      "type": "function"
    },
    {
      "constant": true,
      "inputs": [
        {
          "internalType": "uint256",
          "name": "index",
          "type": "uint256"
        }
      ],
      "name": "tokenByIndex",
      "outputs": [
        {
          "internalType": "uint256",
          "name": "",
          "type": "uint256"
        }
      ],
      "payable": false,
      "stateMutability": "view",
      "type": "function"
    },
    {
      "constant": true,
      "inputs": [],
      "name": "tokenContract",
      "outputs": [
        {
          "internalType": "contract IERC721Full",
          "name": "",
          "type": "address"
        }
      ],
      "payable": false,
      "stateMutability": "view",
      "type": "function"
    },
    {
      "constant": true,
      "inputs": [
        {
          "internalType": "address",
          "name": "owner",
          "type": "address"
        },
        {
          "internalType": "uint256",
          "name": "index",
          "type": "uint256"
        }
      ],
      "name": "tokenOfOwnerByIndex",
      "outputs": [
        {
          "internalType": "uint256",
          "name": "",
          "type": "uint256"
        }
      ],
      "payable": false,
      "stateMutability": "view",
      "type": "function"
    },
    {
      "constant": true,
      "inputs": [
        {
          "internalType": "uint256",
          "name": "",
          "type": "uint256"
        }
      ],
      "name": "tokensAvailableToLoan",
      "outputs": [
        {
          "internalType": "address",
          "name": "lender",
          "type": "address"
        },
        {
          "internalType": "uint256",
          "name": "tokenId",
          "type": "uint256"
        },
        {
          "internalType": "address",
          "name": "borrower",
          "type": "address"
        },
        {
          "internalType": "bool",
          "name": "isEscrowed",
          "type": "bool"
        },
        {
          "internalType": "bool",
          "name": "isBorrowed",
          "type": "bool"
        },
        {
          "internalType": "uint256",
          "name": "start",
          "type": "uint256"
        },
        {
          "internalType": "uint256",
          "name": "end",
          "type": "uint256"
        },
        {
          "internalType": "uint256",
          "name": "depositInWei",
          "type": "uint256"
        }
      ],
      "payable": false,
      "stateMutability": "view",
      "type": "function"
    },
    {
      "constant": true,
      "inputs": [],
      "name": "totalSupply",
      "outputs": [
        {
          "internalType": "uint256",
          "name": "",
          "type": "uint256"
        }
      ],
      "payable": false,
      "stateMutability": "view",
      "type": "function"
    },
    {
      "constant": false,
      "inputs": [
        {
          "internalType": "uint256",
          "name": "_tokenId",
          "type": "uint256"
        },
        {
          "internalType": "uint256",
          "name": "_start",
          "type": "uint256"
        },
        {
          "internalType": "uint256",
          "name": "_end",
          "type": "uint256"
        },
        {
          "internalType": "uint256",
          "name": "_depositInWei",
          "type": "uint256"
        }
      ],
      "name": "enableTokenForLending",
      "outputs": [
        {
          "internalType": "bool",
          "name": "",
          "type": "bool"
        }
      ],
      "payable": false,
      "stateMutability": "nonpayable",
      "type": "function"
    },
    {
      "constant": false,
      "inputs": [
        {
          "internalType": "uint256",
          "name": "_tokenId",
          "type": "uint256"
        }
      ],
      "name": "cancelLoan",
      "outputs": [
        {
          "internalType": "bool",
          "name": "",
          "type": "bool"
        }
      ],
      "payable": false,
      "stateMutability": "nonpayable",
      "type": "function"
    },
    {
      "constant": false,
      "inputs": [
        {
          "internalType": "uint256",
          "name": "_tokenId",
          "type": "uint256"
        }
      ],
      "name": "borrowToken",
      "outputs": [
        {
          "internalType": "bool",
          "name": "",
          "type": "bool"
        }
      ],
      "payable": false,
      "stateMutability": "nonpayable",
      "type": "function"
    },
    {
      "constant": false,
      "inputs": [
        {
          "internalType": "uint256",
          "name": "_tokenId",
          "type": "uint256"
        }
      ],
      "name": "returnBorrowedNft",
      "outputs": [
        {
          "internalType": "bool",
          "name": "",
          "type": "bool"
        }
      ],
      "payable": false,
      "stateMutability": "nonpayable",
      "type": "function"
    },
    {
      "constant": false,
      "inputs": [
        {
          "internalType": "uint256",
          "name": "_tokenId",
          "type": "uint256"
        }
      ],
      "name": "clawBackNft",
      "outputs": [],
      "payable": false,
      "stateMutability": "nonpayable",
      "type": "function"
    },
    {
      "constant": true,
      "inputs": [
        {
          "internalType": "uint256",
          "name": "_tokenId",
          "type": "uint256"
        }
      ],
      "name": "getLoanDetails",
      "outputs": [
        {
          "internalType": "address",
          "name": "lender",
          "type": "address"
        },
        {
          "internalType": "address",
          "name": "borrower",
          "type": "address"
        },
        {
          "internalType": "bool",
          "name": "isEscrowed",
          "type": "bool"
        },
        {
          "internalType": "bool",
          "name": "isBorrowed",
          "type": "bool"
        },
        {
          "internalType": "uint256",
          "name": "start",
          "type": "uint256"
        },
        {
          "internalType": "uint256",
          "name": "end",
          "type": "uint256"
        },
        {
          "internalType": "string",
          "name": "tokenUri",
          "type": "string"
        }
      ],
      "payable": false,
      "stateMutability": "view",
      "type": "function"
    },
    {
      "constant": false,
      "inputs": [
        {
          "internalType": "uint256",
          "name": "_tokenId",
          "type": "uint256"
        }
      ],
      "name": "getRemainingTimeLeftForLoan",
      "outputs": [
        {
          "internalType": "uint256",
          "name": "",
          "type": "uint256"
        }
      ],
      "payable": false,
      "stateMutability": "nonpayable",
      "type": "function"
    },
    {
      "constant": false,
      "inputs": [
        {
          "internalType": "uint256",
          "name": "_tokenId",
          "type": "uint256"
        }
      ],
      "name": "getRemainingStreamBalance",
      "outputs": [
        {
          "internalType": "uint256",
          "name": "",
          "type": "uint256"
        }
      ],
      "payable": false,
      "stateMutability": "nonpayable",
      "type": "function"
    },
    {
      "constant": false,
      "inputs": [
        {
          "internalType": "address",
          "name": "operator",
          "type": "address"
        },
        {
          "internalType": "address",
          "name": "from",
          "type": "address"
        },
        {
          "internalType": "uint256",
          "name": "tokenId",
          "type": "uint256"
        },
        {
          "internalType": "bytes",
          "name": "data",
          "type": "bytes"
        }
      ],
      "name": "onERC721Received",
      "outputs": [
        {
          "internalType": "bytes4",
          "name": "",
          "type": "bytes4"
        }
      ],
      "payable": false,
      "stateMutability": "nonpayable",
      "type": "function"
    },
    {
      "constant": true,
      "inputs": [
        {
          "internalType": "uint256",
          "name": "_tokenId",
          "type": "uint256"
        }
      ],
      "name": "isTokenEscrowed",
      "outputs": [
        {
          "internalType": "bool",
          "name": "",
          "type": "bool"
        }
      ],
      "payable": false,
      "stateMutability": "view",
      "type": "function"
    },
    {
      "constant": true,
      "inputs": [
        {
          "internalType": "uint256",
          "name": "_tokenId",
          "type": "uint256"
        },
        {
          "internalType": "address",
          "name": "_owner",
          "type": "address"
        }
      ],
      "name": "isTokenOwnedBy",
      "outputs": [
        {
          "internalType": "bool",
          "name": "",
          "type": "bool"
        }
      ],
      "payable": false,
      "stateMutability": "view",
      "type": "function"
    },
    {
      "constant": true,
      "inputs": [],
      "name": "name",
      "outputs": [
        {
          "internalType": "string",
          "name": "",
          "type": "string"
        }
      ],
      "payable": false,
      "stateMutability": "view",
      "type": "function"
    },
    {
      "constant": true,
      "inputs": [],
      "name": "symbol",
      "outputs": [
        {
          "internalType": "string",
          "name": "",
          "type": "string"
        }
      ],
      "payable": false,
      "stateMutability": "view",
      "type": "function"
    },
    {
      "constant": true,
      "inputs": [
        {
          "internalType": "uint256",
          "name": "_tokenId",
          "type": "uint256"
        }
      ],
      "name": "tokenURI",
      "outputs": [
        {
          "internalType": "string",
          "name": "",
          "type": "string"
        }
      ],
      "payable": false,
      "stateMutability": "view",
      "type": "function"
    },
    {
      "constant": true,
      "inputs": [
        {
          "internalType": "address",
          "name": "owner",
          "type": "address"
        }
      ],
      "name": "balanceOf",
      "outputs": [
        {
          "internalType": "uint256",
          "name": "",
          "type": "uint256"
        }
      ],
      "payable": false,
      "stateMutability": "view",
      "type": "function"
    },
    {
      "constant": true,
      "inputs": [
        {
          "internalType": "uint256",
          "name": "_tokenId",
          "type": "uint256"
        }
      ],
      "name": "ownerOf",
      "outputs": [
        {
          "internalType": "address",
          "name": "",
          "type": "address"
        }
      ],
      "payable": false,
      "stateMutability": "view",
      "type": "function"
    },
    {
      "constant": false,
      "inputs": [
        {
          "internalType": "address",
          "name": "from",
          "type": "address"
        },
        {
          "internalType": "address",
          "name": "to",
          "type": "address"
        },
        {
          "internalType": "uint256",
          "name": "tokenId",
          "type": "uint256"
        },
        {
          "internalType": "bytes",
          "name": "_data",
          "type": "bytes"
        }
      ],
      "name": "safeTransferFrom",
      "outputs": [],
      "payable": false,
      "stateMutability": "nonpayable",
      "type": "function"
    },
    {
      "constant": false,
      "inputs": [
        {
          "internalType": "address",
          "name": "from",
          "type": "address"
        },
        {
          "internalType": "address",
          "name": "to",
          "type": "address"
        },
        {
          "internalType": "uint256",
          "name": "tokenId",
          "type": "uint256"
        }
      ],
      "name": "safeTransferFrom",
      "outputs": [],
      "payable": false,
      "stateMutability": "nonpayable",
      "type": "function"
    },
    {
      "constant": false,
      "inputs": [
        {
          "internalType": "address",
          "name": "from",
          "type": "address"
        },
        {
          "internalType": "address",
          "name": "to",
          "type": "address"
        },
        {
          "internalType": "uint256",
          "name": "tokenId",
          "type": "uint256"
        }
      ],
      "name": "transferFrom",
      "outputs": [],
      "payable": false,
      "stateMutability": "nonpayable",
      "type": "function"
    }
  ],
  "bytecode": "0x60806040523480156200001157600080fd5b5060405162002ed938038062002ed9833981810160405260608110156200003757600080fd5b5080516020808301516040938401518451808601865260098152684c6f616e536861726b60b81b8185015285518087019096526007865266098a697e13f4d160cb1b938601939093529293909291908181620000a36301ffc9a760e01b6001600160e01b036200019e16565b620000be6380ac58cd60e01b6001600160e01b036200019e16565b620000d963780e9d6360e01b6001600160e01b036200019e16565b8151620000ee9060099060208501906200045f565b5080516200010490600a9060208401906200045f565b5062000120635b5e139f60e01b6001600160e01b036200019e16565b5050505062000147620001386200022360201b60201c565b6001600160e01b036200022816565b6200015d336200027a60201b62000f331760201c565b600f80546001600160a01b03199081166001600160a01b03948516179091556010805482169484169490941790935560118054909316911617905562000501565b6001600160e01b03198082161415620001fe576040805162461bcd60e51b815260206004820152601c60248201527f4552433136353a20696e76616c696420696e7465726661636520696400000000604482015290519081900360640190fd5b6001600160e01b0319166000908152602081905260409020805460ff19166001179055565b335b90565b6200024381600d620002f460201b620026491790919060201c565b6040516001600160a01b038216907f22380c05984257a1cb900161c713dd71d39e74820f1aea43bd3f1bdd2096129990600090a250565b620002a0620002916001600160e01b036200022316565b6001600160e01b036200038116565b620002dd5760405162461bcd60e51b815260040180806020018281038252604081526020018062002e996040913960400191505060405180910390fd5b620002f1816001600160e01b03620003a416565b50565b6200030982826001600160e01b03620003f616565b156200035c576040805162461bcd60e51b815260206004820152601f60248201527f526f6c65733a206163636f756e7420616c72656164792068617320726f6c6500604482015290519081900360640190fd5b6001600160a01b0316600090815260209190915260409020805460ff19166001179055565b60006200039e82600d620003f660201b620025521790919060201c565b92915050565b620003bf81600e620002f460201b620026491790919060201c565b6040516001600160a01b038216907fee1504a83b6d4a361f4c1dc78ab59bfa30d6a3b6612c403e86bb01ef2984295f90600090a250565b60006001600160a01b0382166200043f5760405162461bcd60e51b815260040180806020018281038252602281526020018062002e776022913960400191505060405180910390fd5b506001600160a01b03166000908152602091909152604090205460ff1690565b828054600181600116156101000203166002900490600052602060002090601f016020900481019282601f10620004a257805160ff1916838001178555620004d2565b82800160010185558215620004d2579182015b82811115620004d2578251825591602001919060010190620004b5565b50620004e0929150620004e4565b5090565b6200022591905b80821115620004e05760008155600101620004eb565b61296680620005116000396000f3fe608060405234801561001057600080fd5b506004361061023d5760003560e01c80636352211e1161013b578063b1c674ed116100b8578063bdd3e43e1161007c578063bdd3e43e146107a9578063c87b56dd1461098d578063c95357d9146109aa578063d6cd9473146109c7578063e985e9c5146109cf5761023d565b8063b1c674ed146107fc578063b88d4fde14610869578063ba9ac1151461092d578063bb5f747b1461094a578063bdbfa3de146109705761023d565b80637362d9c8116100ff5780637362d9c8146107665780637aef11641461078c578063807b1eba146107a957806395d89b41146107c6578063a22cb465146107ce5761023d565b80636352211e1461061357806366877b8d146106305780636c0360eb1461071b57806370a0823114610723578063727f86aa146107495761023d565b806323b872dd116101c9578063409f26221161018d578063409f26221461058157806342842e0e146105b05780634c5a628c146105e65780634f6ccce7146105ee57806355a373d61461060b5761023d565b806323b872dd146104cb578063291d9549146105015780632f745c59146105275780633013ce29146105535780633af32abf1461055b5761023d565b8063095ea7b311610210578063095ea7b31461035057806310154bad1461037e578063150b7a02146103a457806318160ddd146104855780631a6814a31461049f5761023d565b806301ffc9a71461024257806306fdde031461027d578063081812fc146102fa578063092f577614610333575b600080fd5b6102696004803603602081101561025857600080fd5b50356001600160e01b0319166109fd565b604080519115158252519081900360200190f35b610285610a20565b6040805160208082528351818301528351919283929083019185019080838360005b838110156102bf5781810151838201526020016102a7565b50505050905090810190601f1680156102ec5780820380516001836020036101000a031916815260200191505b509250505060405180910390f35b6103176004803603602081101561031057600080fd5b5035610b55565b604080516001600160a01b039092168252519081900360200190f35b6102696004803603602081101561034957600080fd5b5035610bb7565b61037c6004803603604081101561036657600080fd5b506001600160a01b038135169060200135610e0b565b005b61037c6004803603602081101561039457600080fd5b50356001600160a01b0316610f33565b610468600480360360808110156103ba57600080fd5b6001600160a01b03823581169260208101359091169160408201359190810190608081016060820135600160201b8111156103f457600080fd5b82018360208201111561040657600080fd5b803590602001918460018302840111600160201b8311171561042757600080fd5b91908080601f016020809104026020016040519081016040528093929190818152602001838380828437600092019190915250929550610f8a945050505050565b604080516001600160e01b03199092168252519081900360200190f35b61048d610f9a565b60408051918252519081900360200190f35b610269600480360360408110156104b557600080fd5b50803590602001356001600160a01b0316610fa0565b61037c600480360360608110156104e157600080fd5b506001600160a01b0381358116916020810135909116906040013561102f565b61037c6004803603602081101561051757600080fd5b50356001600160a01b03166111b9565b61048d6004803603604081101561053d57600080fd5b506001600160a01b038135169060200135611208565b610317611287565b6102696004803603602081101561057157600080fd5b50356001600160a01b0316611296565b6102696004803603608081101561059757600080fd5b50803590602081013590604081013590606001356112af565b61037c600480360360608110156105c657600080fd5b506001600160a01b03813581169160208101359091169060400135611610565b61037c61162b565b61048d6004803603602081101561060457600080fd5b503561163d565b6103176116a3565b6103176004803603602081101561062957600080fd5b50356116b2565b61064d6004803603602081101561064657600080fd5b50356117d3565b60405180886001600160a01b03166001600160a01b03168152602001876001600160a01b03166001600160a01b03168152602001861515151581526020018515151515815260200184815260200183815260200180602001828103825283818151815260200191508051906020019080838360005b838110156106da5781810151838201526020016106c2565b50505050905090810190601f1680156107075780820380516001836020036101000a031916815260200191505b509850505050505050505060405180910390f35b61028561189d565b61048d6004803603602081101561073957600080fd5b50356001600160a01b0316611933565b6102696004803603602081101561075f57600080fd5b50356119b6565b61037c6004803603602081101561077c57600080fd5b50356001600160a01b03166119c2565b61048d600480360360208110156107a257600080fd5b5035611a11565b61048d600480360360208110156107bf57600080fd5b5035611a23565b610285611a29565b61037c600480360360408110156107e457600080fd5b506001600160a01b0381351690602001351515611a6e565b6108196004803603602081101561081257600080fd5b5035611b73565b604080516001600160a01b03998a168152602081019890985295909716868601529215156060860152901515608085015260a084015260c083015260e08201929092529051908190036101000190f35b61037c6004803603608081101561087f57600080fd5b6001600160a01b03823581169260208101359091169160408201359190810190608081016060820135600160201b8111156108b957600080fd5b8201836020820111156108cb57600080fd5b803590602001918460018302840111600160201b831117156108ec57600080fd5b91908080601f016020809104026020016040519081016040528093929190818152602001838380828437600092019190915250929550611bc7945050505050565b6102696004803603602081101561094357600080fd5b5035611dc4565b6102696004803603602081101561096057600080fd5b50356001600160a01b0316611f4f565b6102696004803603602081101561098657600080fd5b5035611f62565b610285600480360360208110156109a357600080fd5b50356121f9565b61037c600480360360208110156109c057600080fd5b503561240b565b61037c612463565b610269600480360360408110156109e557600080fd5b506001600160a01b0381358116916020013516612473565b6001600160e01b0319811660009081526020819052604090205460ff165b919050565b601054604080516306fdde0360e01b815290516060926001600160a01b0316916306fdde03916004808301926000929190829003018186803b158015610a6557600080fd5b505afa158015610a79573d6000803e3d6000fd5b505050506040513d6000823e601f3d908101601f191682016040526020811015610aa257600080fd5b8101908080516040519392919084600160201b821115610ac157600080fd5b908301906020820185811115610ad657600080fd5b8251600160201b811182820188101715610aef57600080fd5b82525081516020918201929091019080838360005b83811015610b1c578181015183820152602001610b04565b50505050905090810190601f168015610b495780820380516001836020036101000a031916815260200191505b50604052505050905090565b6000610b60826124a1565b610b9b5760405162461bcd60e51b815260040180806020018281038252602c815260200180612857602c913960400191505060405180910390fd5b506000908152600260205260409020546001600160a01b031690565b600081815260126020526040812060010154610c0f576040805162461bcd60e51b8152602060048201526012602482015271546f6b656e206e6f7420666f722073616c6560701b604482015290519081900360640190fd5b60008281526012602052604090206002810154600160a01b900460ff16610c72576040805162461bcd60e51b8152602060048201526012602482015271151bdad95b881b9bdd08195cd8dc9bddd95960721b604482015290519081900360640190fd5b6002810154600160a81b900460ff1615610ccc576040805162461bcd60e51b8152602060048201526016602482015275151bdad95b88185b1c9958591e48189bdc9c9bddd95960521b604482015290519081900360640190fd5b60028101546001600160a01b031615610d2c576040805162461bcd60e51b815260206004820152601c60248201527f546f6b656e20616c726561647920676f74206120626f72726f77657200000000604482015290519081900360640190fd5b60028101805460ff60a81b196001600160a01b0319909116331716600160a81b17905560115481546005830154600f5460038501546004808701546040805163660da5fb60e11b81526001600160a01b039788169381019390935260248301959095529285166044820152606481019190915260848101919091529051929091169163cc1b4bf69160a4808201926020929091908290030181600087803b158015610dd657600080fd5b505af1158015610dea573d6000803e3d6000fd5b505050506040513d6020811015610e0057600080fd5b506001949350505050565b6000610e16826116b2565b9050806001600160a01b0316836001600160a01b03161415610e695760405162461bcd60e51b81526004018080602001828103825260218152602001806128e56021913960400191505060405180910390fd5b806001600160a01b0316610e7b6124be565b6001600160a01b03161480610e9c5750610e9c81610e976124be565b612473565b610ed75760405162461bcd60e51b81526004018080602001828103825260388152602001806127fe6038913960400191505060405180910390fd5b60008281526002602052604080822080546001600160a01b0319166001600160a01b0387811691821790925591518593918516917f8c5be1e5ebec7d5bd14f71427d1e84f3dd0314c0f7b2291e5b200ac8c7c3b92591a4505050565b610f43610f3e6124be565b611f4f565b610f7e5760405162461bcd60e51b81526004018080602001828103825260408152602001806128a56040913960400191505060405180910390fd5b610f87816124c2565b50565b630a85bd0160e11b949350505050565b60075490565b601054604080516331a9108f60e11b81526004810185905290516000926001600160a01b0380861693911691636352211e91602480820192602092909190829003018186803b158015610ff257600080fd5b505afa158015611006573d6000803e3d6000fd5b505050506040513d602081101561101c57600080fd5b50516001600160a01b0316149392505050565b611037612731565b5060008181526012602090815260409182902082516101008101845281546001600160a01b03908116825260018301549382019390935260028201549283169381019390935260ff600160a01b8304811615156060850152600160a81b9092049091161580156080840152600382015460a0840152600482015460c084015260059091015460e08301526110fc5760405162461bcd60e51b81526004018080602001828103825260238152602001806127b86023913960400191505060405180910390fd5b80606001511561113d5760405162461bcd60e51b81526004018080602001828103825260238152602001806127db6023913960400191505060405180910390fd5b601054604080516323b872dd60e01b81526001600160a01b038781166004830152868116602483015260448201869052915191909216916323b872dd91606480830192600092919082900301818387803b15801561119a57600080fd5b505af11580156111ae573d6000803e3d6000fd5b50505050505b505050565b6111c4610f3e6124be565b6111ff5760405162461bcd60e51b81526004018080602001828103825260408152602001806128a56040913960400191505060405180910390fd5b610f878161250a565b600061121383611933565b82106112505760405162461bcd60e51b815260040180806020018281038252602b81526020018061278d602b913960400191505060405180910390fd5b6001600160a01b038316600090815260056020526040902080548390811061127457fe5b9060005260206000200154905092915050565b600f546001600160a01b031681565b60006112a9600e8363ffffffff61255216565b92915050565b60008481526012602052604081206001015415611313576040805162461bcd60e51b815260206004820152601d60248201527f546f6b656e20616c726561647920706c6163656420666f722073616c65000000604482015290519081900360640190fd5b601054604080516331a9108f60e11b815260048101889052905133926001600160a01b031691636352211e916024808301926020929190829003018186803b15801561135e57600080fd5b505afa158015611372573d6000803e3d6000fd5b505050506040513d602081101561138857600080fd5b50516001600160a01b0316146113e5576040805162461bcd60e51b815260206004820152601b60248201527f43616c6c657220646f6573206e6f74206f776e20746865204e46540000000000604482015290519081900360640190fd5b604051806101000160405280336001600160a01b03168152602001868152602001306001600160a01b03168152602001600115158152602001600015158152602001858152602001848152602001838152506012600087815260200190815260200160002060008201518160000160006101000a8154816001600160a01b0302191690836001600160a01b031602179055506020820151816001015560408201518160020160006101000a8154816001600160a01b0302191690836001600160a01b0316021790555060608201518160020160146101000a81548160ff02191690831515021790555060808201518160020160156101000a81548160ff02191690831515021790555060a0820151816003015560c0820151816004015560e08201518160050155905050601060009054906101000a90046001600160a01b03166001600160a01b03166342842e0e3330886040518463ffffffff1660e01b815260040180846001600160a01b03166001600160a01b03168152602001836001600160a01b03166001600160a01b031681526020018281526020019350505050600060405180830381600087803b15801561159e57600080fd5b505af11580156115b2573d6000803e3d6000fd5b505050506115bf856119b6565b610e00576040805162461bcd60e51b815260206004820152601c60248201527f546f6b656e206e6f7420636f72726563746c7920657363726f77656400000000604482015290519081900360640190fd5b6111b483838360405180602001604052806000815250611bc7565b61163b6116366124be565b6125b9565b565b6000611647610f9a565b82106116845760405162461bcd60e51b815260040180806020018281038252602c815260200180612906602c913960400191505060405180910390fd5b6007828154811061169157fe5b90600052602060002001549050919050565b6010546001600160a01b031681565b60006116bc612731565b5060008281526012602090815260409182902082516101008101845281546001600160a01b03908116825260018301549382019390935260028201549283169381019390935260ff600160a01b8304811615156060850152600160a81b9092049091161580156080840152600382015460a0840152600482015460c084015260059091015460e08301526117cb57601054604080516331a9108f60e11b81526004810186905290516001600160a01b0390921691636352211e91602480820192602092909190829003018186803b15801561179657600080fd5b505afa1580156117aa573d6000803e3d6000fd5b505050506040513d60208110156117c057600080fd5b50519150610a1b9050565b503092915050565b60008060008060008060606117e6612731565b5060008881526012602090815260409182902082516101008101845281546001600160a01b03908116808352600184015494830194909452600283015490811694820185905260ff600160a01b82048116151560608401819052600160a81b90920416151560808301819052600384015460a08401819052600485015460c0850181905260059095015460e0850152929593919290916118858f6121f9565b959f949e50929c50909a509850965090945092505050565b600b8054604080516020601f60026000196101006001881615020190951694909404938401819004810282018101909252828152606093909290918301828280156119295780601f106118fe57610100808354040283529160200191611929565b820191906000526020600020905b81548152906001019060200180831161190c57829003601f168201915b5050505050905090565b601054604080516370a0823160e01b81526001600160a01b038481166004830152915160009392909216916370a0823191602480820192602092909190829003018186803b15801561198457600080fd5b505afa158015611998573d6000803e3d6000fd5b505050506040513d60208110156119ae57600080fd5b505192915050565b60006112a98230610fa0565b6119cd610f3e6124be565b611a085760405162461bcd60e51b81526004018080602001828103825260408152602001806128a56040913960400191505060405180910390fd5b610f8781612601565b60136020526000908152604090205481565b50600090565b601054604080516395d89b4160e01b815290516060926001600160a01b0316916395d89b41916004808301926000929190829003018186803b158015610a6557600080fd5b611a766124be565b6001600160a01b0316826001600160a01b03161415611adc576040805162461bcd60e51b815260206004820152601960248201527f4552433732313a20617070726f766520746f2063616c6c657200000000000000604482015290519081900360640190fd5b8060046000611ae96124be565b6001600160a01b03908116825260208083019390935260409182016000908120918716808252919093529120805460ff191692151592909217909155611b2d6124be565b60408051841515815290516001600160a01b0392909216917f17307eab39ab6107e8899845ad3d59bd9653f200f220920489ca2b5937696c319181900360200190a35050565b6012602052600090815260409020805460018201546002830154600384015460048501546005909501546001600160a01b0394851695939483169360ff600160a01b8504811694600160a81b900416929188565b611bcf612731565b5060008281526012602090815260409182902082516101008101845281546001600160a01b03908116825260018301549382019390935260028201549283169381019390935260ff600160a01b8304811615156060850152600160a81b9092049091161580156080840152600382015460a0840152600482015460c084015260059091015460e0830152611c945760405162461bcd60e51b81526004018080602001828103825260238152602001806127b86023913960400191505060405180910390fd5b806060015115611cd55760405162461bcd60e51b81526004018080602001828103825260238152602001806127db6023913960400191505060405180910390fd5b601054604051635c46a7ef60e11b81526001600160a01b0387811660048301908152878216602484015260448301879052608060648401908152865160848501528651929094169363b88d4fde938a938a938a938a939192909160a40190602085019080838360005b83811015611d56578181015183820152602001611d3e565b50505050905090810190601f168015611d835780820380516001836020036101000a031916815260200191505b5095505050505050600060405180830381600087803b158015611da557600080fd5b505af1158015611db9573d6000803e3d6000fd5b505050505050505050565b600081815260126020526040812060010154611e1c576040805162461bcd60e51b8152602060048201526012602482015271546f6b656e206e6f7420666f722073616c6560701b604482015290519081900360640190fd5b60008281526012602052604090206002810154600160a01b900460ff16611e7f576040805162461bcd60e51b8152602060048201526012602482015271151bdad95b881b9bdd08195cd8dc9bddd95960721b604482015290519081900360640190fd5b6002810154600160a81b900460ff16611ed4576040805162461bcd60e51b8152602060048201526012602482015271151bdad95b881b9bdd08189bdc9c9bddd95960721b604482015290519081900360640190fd5b60028101546001600160a01b03163314611f35576040805162461bcd60e51b815260206004820152601c60248201527f546f6b656e206e6f7420626f72726f7765642062792063616c6c657200000000604482015290519081900360640190fd5b6002018054600161ff0160a01b0319169055506001919050565b60006112a9600d8363ffffffff61255216565b600081815260126020526040812060010154611fba576040805162461bcd60e51b8152602060048201526012602482015271546f6b656e206e6f7420666f722073616c6560701b604482015290519081900360640190fd5b60008281526012602052604090206002810154600160a01b900460ff1661201d576040805162461bcd60e51b8152602060048201526012602482015271151bdad95b881b9bdd08195cd8dc9bddd95960721b604482015290519081900360640190fd5b6002810154600160a81b900460ff1615612077576040805162461bcd60e51b8152602060048201526016602482015275151bdad95b88185b1c9958591e48189bdc9c9bddd95960521b604482015290519081900360640190fd5b60028101546001600160a01b03166120d6576040805162461bcd60e51b815260206004820152601c60248201527f546f6b656e20616c726561647920676f74206120626f72726f77657200000000604482015290519081900360640190fd5b805460008481526012602052604080822080546001600160a01b0319168155600181018390556002810180546001600160b01b031916905560038101839055600480820184905560059091018390556010548251632142170760e11b815230928101929092526001600160a01b0394851660248301819052604483018990529251929416926342842e0e9260648084019382900301818387803b15801561217c57600080fd5b505af1158015612190573d6000803e3d6000fd5b5050505061219e8482610fa0565b6121ef576040805162461bcd60e51b815260206004820152601f60248201527f546f6b656e206e6f742072657475726e6564207375636365737366756c6c7900604482015290519081900360640190fd5b5060019392505050565b6060612203612731565b5060008281526012602090815260409182902082516101008101845281546001600160a01b03908116825260018301549382019390935260028201549283169381019390935260ff600160a01b8304811615156060850152600160a81b9092049091161580156080840152600382015460a0840152600482015460c084015260059091015460e08301526123d0576010546040805163c87b56dd60e01b81526004810186905290516001600160a01b039092169163c87b56dd91602480820192600092909190829003018186803b1580156122dd57600080fd5b505afa1580156122f1573d6000803e3d6000fd5b505050506040513d6000823e601f3d908101601f19168201604052602081101561231a57600080fd5b8101908080516040519392919084600160201b82111561233957600080fd5b90830190602082018581111561234e57600080fd5b8251600160201b81118282018810171561236757600080fd5b82525081516020918201929091019080838360005b8381101561239457818101518382015260200161237c565b50505050905090810190601f1680156123c15780820380516001836020036101000a031916815260200191505b50604052505050915050610a1b565b505060408051808201909152601c81527f544f444f2072657475726e2073746174696320495046532068617368000000006020820152919050565b600081815260126020526040902060010154610f87576040805162461bcd60e51b8152602060048201526012602482015271546f6b656e206e6f7420666f722073616c6560701b604482015290519081900360640190fd5b61163b61246e6124be565b61250a565b6001600160a01b03918216600090815260046020908152604080832093909416825291909152205460ff1690565b6000908152600160205260409020546001600160a01b0316151590565b3390565b6124d3600e8263ffffffff61264916565b6040516001600160a01b038216907fee1504a83b6d4a361f4c1dc78ab59bfa30d6a3b6612c403e86bb01ef2984295f90600090a250565b61251b600e8263ffffffff6126ca16565b6040516001600160a01b038216907f270d9b30cf5b0793bbfd54c9d5b94aeb49462b8148399000265144a8722da6b690600090a250565b60006001600160a01b0382166125995760405162461bcd60e51b81526004018080602001828103825260228152602001806128836022913960400191505060405180910390fd5b506001600160a01b03166000908152602091909152604090205460ff1690565b6125ca600d8263ffffffff6126ca16565b6040516001600160a01b038216907f0a8eb35e5ca14b3d6f28e4abf2f128dbab231a58b56e89beb5d636115001e16590600090a250565b612612600d8263ffffffff61264916565b6040516001600160a01b038216907f22380c05984257a1cb900161c713dd71d39e74820f1aea43bd3f1bdd2096129990600090a250565b6126538282612552565b156126a5576040805162461bcd60e51b815260206004820152601f60248201527f526f6c65733a206163636f756e7420616c72656164792068617320726f6c6500604482015290519081900360640190fd5b6001600160a01b0316600090815260209190915260409020805460ff19166001179055565b6126d48282612552565b61270f5760405162461bcd60e51b81526004018080602001828103825260218152602001806128366021913960400191505060405180910390fd5b6001600160a01b0316600090815260209190915260409020805460ff19169055565b60405180610100016040528060006001600160a01b031681526020016000815260200160006001600160a01b03168152602001600015158152602001600015158152602001600081526020016000815260200160008152509056fe455243373231456e756d657261626c653a206f776e657220696e646578206f7574206f6620626f756e647343616e6e6f74207472616e73666572206120626f72726f77656420636f6e747261637443616e6e6f74207472616e73666572206120657363726f77656420636f6e74726163744552433732313a20617070726f76652063616c6c6572206973206e6f74206f776e6572206e6f7220617070726f76656420666f7220616c6c526f6c65733a206163636f756e7420646f6573206e6f74206861766520726f6c654552433732313a20617070726f76656420717565727920666f72206e6f6e6578697374656e7420746f6b656e526f6c65733a206163636f756e7420697320746865207a65726f206164647265737357686974656c69737441646d696e526f6c653a2063616c6c657220646f6573206e6f742068617665207468652057686974656c69737441646d696e20726f6c654552433732313a20617070726f76616c20746f2063757272656e74206f776e6572455243373231456e756d657261626c653a20676c6f62616c20696e646578206f7574206f6620626f756e6473a265627a7a723158207d8d3200a8a809e28f3249fb7d446bd5066adab9991e0c3592253f66721dba9464736f6c634300050e0032526f6c65733a206163636f756e7420697320746865207a65726f206164647265737357686974656c69737441646d696e526f6c653a2063616c6c657220646f6573206e6f742068617665207468652057686974656c69737441646d696e20726f6c65",
  "source": "pragma solidity ^0.5.0;\n\nimport \"@openzeppelin/contracts/access/roles/WhitelistedRole.sol\";\nimport \"@openzeppelin/contracts/token/ERC20/IERC20.sol\";\nimport \"@openzeppelin/contracts/token/ERC721/IERC721Full.sol\";\nimport \"@openzeppelin/contracts/token/ERC721/ERC721Full.sol\";\nimport \"./IERC1620.sol\";\n\ncontract LoanShark is ERC721Full, WhitelistedRole {\n\n    struct Loan {\n        // Config\n        address lender;\n        uint256 tokenId;\n        address borrower;\n\n        // state flags\n        bool isEscrowed;\n        bool isBorrowed;\n        //\n        //        // payment terms\n        //        uint256 costPerMinute;\n        //        uint256 maxMinutesAvailableForHire;\n\n        uint256 start;\n        uint256 end;\n        uint256 depositInWei;\n    }\n\n    // What to stream the payment in\n    IERC20 public paymentToken;\n\n    // The original NFT contract\n    IERC721Full public tokenContract;\n\n    // Sablier stream for payments\n    IERC1620 stream;\n\n    mapping(uint256 => Loan) public tokensAvailableToLoan;\n\n    // So we can enumerate them\n    mapping(uint256 => uint256) public indexToTokenId;\n\n    constructor(\n        IERC721Full _tokenContract, // How to make this generic to not accept a token at construction\n        IERC20 _paymentToken, // DAI ... or even zkDAI ?\n        IERC1620 _stream\n    ) ERC721Full(\"LoanShark\", \"LSK\") public {\n        super.addWhitelisted(msg.sender);\n\n        paymentToken = _paymentToken;\n        tokenContract = _tokenContract;\n        stream = _stream;\n    }\n\n    // TODO create a proxy method to allow call on original NFT by bytecode/method args - dynamic lookup?\n\n    function enableTokenForLending(uint256 _tokenId, uint256 _start, uint256 _end, uint256 _depositInWei) public returns (bool) {\n\n        // Validate input\n        //        require(_costPerMinute > 0, \"Cannot loan the token for free\");\n        require(tokensAvailableToLoan[_tokenId].tokenId == 0, \"Token already placed for sale\");\n\n        // Validate caller owns it\n        require(tokenContract.ownerOf(_tokenId) == msg.sender, \"Caller does not own the NFT\");\n\n        // Setup Loan\n        tokensAvailableToLoan[_tokenId] = Loan({\n            tokenId : _tokenId,\n            lender : msg.sender,\n            borrower : address(this),\n\n            isEscrowed : true,\n            isBorrowed : false,\n\n            start : _start,\n            end : _end,\n\n            depositInWei : _depositInWei\n            });\n\n        // Escrow NFT into the Loan Shark Contract\n        tokenContract.safeTransferFrom(msg.sender, address(this), _tokenId);\n        require(isTokenEscrowed(_tokenId), \"Token not correctly escrowed\");\n\n        return true;\n    }\n\n    /*\n     * Close any outstanding un-borrowed NFT loans\n     * Send the NFT back to the original lender\n     */\n    function cancelLoan(uint256 _tokenId) public returns (bool) {\n        require(tokensAvailableToLoan[_tokenId].tokenId != 0, \"Token not for sale\");\n\n        Loan storage loan = tokensAvailableToLoan[_tokenId];\n        require(loan.isEscrowed, \"Token not escrowed\");\n        require(!loan.isBorrowed, \"Token already borrowed\");\n        require(loan.borrower != address(0), \"Token already got a borrower\");\n\n        address originalLender = loan.lender;\n\n        delete tokensAvailableToLoan[_tokenId];\n\n        // Send the loan back to the original lender\n        tokenContract.safeTransferFrom(address(this), originalLender, _tokenId);\n        require(isTokenOwnedBy(_tokenId, originalLender), \"Token not returned successfully\");\n\n        return true;\n    }\n\n    function borrowToken(uint256 _tokenId) public returns (bool) {\n        require(tokensAvailableToLoan[_tokenId].tokenId != 0, \"Token not for sale\");\n\n        Loan storage loan = tokensAvailableToLoan[_tokenId];\n        require(loan.isEscrowed, \"Token not escrowed\");\n        require(!loan.isBorrowed, \"Token already borrowed\");\n        require(loan.borrower == address(0), \"Token already got a borrower\");\n\n        // sudo transfer this NFT to the new owner\n        loan.borrower = msg.sender;\n        loan.isBorrowed = true;\n\n        stream.createStream(loan.lender, loan.depositInWei, address(paymentToken), loan.start, loan.end);\n\n        return true;\n    }\n\n    function returnBorrowedNft(uint256 _tokenId) public returns (bool) {\n        require(tokensAvailableToLoan[_tokenId].tokenId != 0, \"Token not for sale\");\n\n        Loan storage loan = tokensAvailableToLoan[_tokenId];\n        require(loan.isEscrowed, \"Token not escrowed\");\n        require(loan.isBorrowed, \"Token not borrowed\");\n        require(loan.borrower == msg.sender, \"Token not borrowed by caller\");\n\n        // sudo transfer this NFT back to the escrow\n        loan.borrower = address(0);\n        loan.isBorrowed = false;\n\n        // TODO close stream .... ?\n\n        return true;\n    }\n\n    function clawBackNft(uint256 _tokenId) public {\n        require(tokensAvailableToLoan[_tokenId].tokenId != 0, \"Token not for sale\");\n\n        // only allow after loan has expired\n        // take back ownership from the borrower\n        // reset loan state\n        // penalise the borrower in some form?\n    }\n\n    /////////////////////\n    // Query utilities //\n    /////////////////////\n\n    function getLoanDetails(uint _tokenId) public view returns (\n        address lender,\n        address borrower,\n        bool isEscrowed,\n        bool isBorrowed,\n        uint256 start,\n        uint256 end,\n        string memory tokenUri\n    ) {\n        Loan memory loan = tokensAvailableToLoan[_tokenId];\n        return (\n        loan.lender,\n        loan.borrower,\n        loan.isEscrowed,\n        loan.isBorrowed,\n        loan.start,\n        loan.end,\n        tokenURI(_tokenId)\n        );\n    }\n\n    function getRemainingTimeLeftForLoan(uint _tokenId) public returns (uint256) {\n        // TODO\n        return 0;\n    }\n\n    function getRemainingStreamBalance(uint _tokenId) public returns (uint256) {\n        // TODO\n        return 0;\n    }\n\n    ////////////////////\n    // Internal utils //\n    ////////////////////\n\n    // taking ownership of the NFT via callback confirmation\n    function onERC721Received(address operator, address from, uint256 tokenId, bytes memory data) public returns (bytes4) {\n        return this.onERC721Received.selector;\n    }\n\n    function isTokenEscrowed(uint256 _tokenId) public view returns (bool) {\n        return isTokenOwnedBy(_tokenId, address(this));\n    }\n\n    function isTokenOwnedBy(uint256 _tokenId, address _owner) public view returns (bool) {\n        return IERC721Full(tokenContract).ownerOf(_tokenId) == _owner;\n    }\n\n    ////////////////////////////////////////\n    // Overridden IERC721Metadata methods //\n    ////////////////////////////////////////\n\n    // TODO proxy through to escrowed NFT\n\n    function name() public view returns (string memory) {\n        return tokenContract.name();\n    }\n\n    function symbol() public view returns (string memory) {\n        return tokenContract.symbol();\n    }\n\n    function tokenURI(uint256 _tokenId) public view returns (string memory) {\n        Loan memory loan = tokensAvailableToLoan[_tokenId];\n        if (loan.isBorrowed) {\n            return tokenContract.tokenURI(_tokenId);\n        }\n        return \"TODO return static IPFS hash\";\n    }\n\n    ////////////////////////////////\n    // Overridden IERC721 methods //\n    ////////////////////////////////\n\n    // TODO proxy through to escrowed NFT\n    // TODO special case methods which need to be thought about\n    // TODO check expired stream as well for all proxy methods?\n\n    function balanceOf(address owner) public view returns (uint256) {\n        // TODO how to handle this proxy method\n        return tokenContract.balanceOf(owner);\n    }\n\n    function ownerOf(uint256 _tokenId) public view returns (address) {\n        Loan memory loan = tokensAvailableToLoan[_tokenId];\n        if (loan.isBorrowed) {\n            return tokenContract.ownerOf(_tokenId);\n        }\n        return address(this);\n    }\n\n    function safeTransferFrom(address from, address to, uint256 tokenId, bytes memory _data) public {\n        Loan memory loan = tokensAvailableToLoan[tokenId];\n        require(!loan.isBorrowed, \"Cannot transfer a borrowed contract\");\n        require(!loan.isEscrowed, \"Cannot transfer a escrowed contract\");\n\n        return tokenContract.safeTransferFrom(from, to, tokenId, _data);\n    }\n\n    function transferFrom(address from, address to, uint256 tokenId) public {\n        Loan memory loan = tokensAvailableToLoan[tokenId];\n        require(!loan.isBorrowed, \"Cannot transfer a borrowed contract\");\n        require(!loan.isEscrowed, \"Cannot transfer a escrowed contract\");\n\n        return tokenContract.transferFrom(from, to, tokenId);\n    }\n\n}\n",
  "sourcePath": "/Users/andygray/workspace/loan-shark/contracts/LoanShark.sol",
  "compiler": {
    "name": "solc",
    "version": "0.5.14+commit.01f1aaa4.Emscripten.clang"
  },
  "schemaVersion": "3.0.22",
  "updatedAt": "2020-02-29T00:37:02.851Z",
  "devdoc": {
    "methods": {
      "approve(address,uint256)": {
        "details": "Approves another address to transfer the given token ID The zero address indicates there is no approved address. There can only be one approved address per token at a given time. Can only be called by the token owner or an approved operator.",
        "params": {
          "to": "address to be approved for the given token ID",
          "tokenId": "uint256 ID of the token to be approved"
        }
      },
      "baseURI()": {
        "details": "Returns the base URI set via {_setBaseURI}. This will be automatically added as a preffix in {tokenURI} to each token's URI, when they are non-empty.    * _Available since v2.5.0._"
      },
      "getApproved(uint256)": {
        "details": "Gets the approved address for a token ID, or zero if no address set Reverts if the token ID does not exist.",
        "params": {
          "tokenId": "uint256 ID of the token to query the approval of"
        },
        "return": "address currently approved for the given token ID"
      },
      "isApprovedForAll(address,address)": {
        "details": "Tells whether an operator is approved by a given owner.",
        "params": {
          "operator": "operator address which you want to query the approval of",
          "owner": "owner address which you want to query the approval of"
        },
        "return": "bool whether the given operator is approved by the given owner"
      },
      "safeTransferFrom(address,address,uint256)": {
        "details": "Safely transfers the ownership of a given token ID to another address If the target address is a contract, it must implement {IERC721Receiver-onERC721Received}, which is called upon a safe transfer, and return the magic value `bytes4(keccak256(\"onERC721Received(address,address,uint256,bytes)\"))`; otherwise, the transfer is reverted. Requires the msg.sender to be the owner, approved, or operator",
        "params": {
          "from": "current owner of the token",
          "to": "address to receive the ownership of the given token ID",
          "tokenId": "uint256 ID of the token to be transferred"
        }
      },
      "setApprovalForAll(address,bool)": {
        "details": "Sets or unsets the approval of a given operator An operator is allowed to transfer all tokens of the sender on their behalf.",
        "params": {
          "approved": "representing the status of the approval to be set",
          "to": "operator address to set the approval"
        }
      },
      "supportsInterface(bytes4)": {
        "details": "See {IERC165-supportsInterface}.     * Time complexity O(1), guaranteed to always use less than 30 000 gas."
      },
      "tokenByIndex(uint256)": {
        "details": "Gets the token ID at a given index of all the tokens in this contract Reverts if the index is greater or equal to the total number of tokens.",
        "params": {
          "index": "uint256 representing the index to be accessed of the tokens list"
        },
        "return": "uint256 token ID at the given index of the tokens list"
      },
      "tokenOfOwnerByIndex(address,uint256)": {
        "details": "Gets the token ID at a given index of the tokens list of the requested owner.",
        "params": {
          "index": "uint256 representing the index to be accessed of the requested tokens list",
          "owner": "address owning the tokens list to be accessed"
        },
        "return": "uint256 token ID at the given index of the tokens list owned by the requested address"
      },
      "totalSupply()": {
        "details": "Gets the total amount of tokens stored by the contract.",
        "return": "uint256 representing the total amount of tokens"
      }
    }
  },
  "userdoc": {
    "methods": {
      "balanceOf(address)": {
        "notice": "/////////////////////////////"
      },
      "getLoanDetails(uint256)": {
        "notice": "//////////////////"
      },
      "name()": {
        "notice": "/////////////////////////////////////"
      },
      "onERC721Received(address,address,uint256,bytes)": {
        "notice": "/////////////////"
      }
    }
  }
}