{
  "contractName": "LoanShark",
  "abi": [
    {
      "inputs": [
        {
          "internalType": "contract IERC721Full",
          "name": "_tokenContract",
          "type": "address"
        },
        {
          "internalType": "contract IERC20",
          "name": "_paymentToken",
          "type": "address"
        }
      ],
      "payable": false,
      "stateMutability": "nonpayable",
      "type": "constructor"
    },
    {
      "anonymous": false,
      "inputs": [
        {
          "indexed": true,
          "internalType": "address",
          "name": "owner",
          "type": "address"
        },
        {
          "indexed": true,
          "internalType": "address",
          "name": "approved",
          "type": "address"
        },
        {
          "indexed": true,
          "internalType": "uint256",
          "name": "tokenId",
          "type": "uint256"
        }
      ],
      "name": "Approval",
      "type": "event"
    },
    {
      "anonymous": false,
      "inputs": [
        {
          "indexed": true,
          "internalType": "address",
          "name": "owner",
          "type": "address"
        },
        {
          "indexed": true,
          "internalType": "address",
          "name": "operator",
          "type": "address"
        },
        {
          "indexed": false,
          "internalType": "bool",
          "name": "approved",
          "type": "bool"
        }
      ],
      "name": "ApprovalForAll",
      "type": "event"
    },
    {
      "anonymous": false,
      "inputs": [
        {
          "indexed": true,
          "internalType": "address",
          "name": "from",
          "type": "address"
        },
        {
          "indexed": true,
          "internalType": "address",
          "name": "to",
          "type": "address"
        },
        {
          "indexed": true,
          "internalType": "uint256",
          "name": "tokenId",
          "type": "uint256"
        }
      ],
      "name": "Transfer",
      "type": "event"
    },
    {
      "anonymous": false,
      "inputs": [
        {
          "indexed": true,
          "internalType": "address",
          "name": "account",
          "type": "address"
        }
      ],
      "name": "WhitelistAdminAdded",
      "type": "event"
    },
    {
      "anonymous": false,
      "inputs": [
        {
          "indexed": true,
          "internalType": "address",
          "name": "account",
          "type": "address"
        }
      ],
      "name": "WhitelistAdminRemoved",
      "type": "event"
    },
    {
      "anonymous": false,
      "inputs": [
        {
          "indexed": true,
          "internalType": "address",
          "name": "account",
          "type": "address"
        }
      ],
      "name": "WhitelistedAdded",
      "type": "event"
    },
    {
      "anonymous": false,
      "inputs": [
        {
          "indexed": true,
          "internalType": "address",
          "name": "account",
          "type": "address"
        }
      ],
      "name": "WhitelistedRemoved",
      "type": "event"
    },
    {
      "constant": false,
      "inputs": [
        {
          "internalType": "address",
          "name": "account",
          "type": "address"
        }
      ],
      "name": "addWhitelistAdmin",
      "outputs": [],
      "payable": false,
      "stateMutability": "nonpayable",
      "type": "function"
    },
    {
      "constant": false,
      "inputs": [
        {
          "internalType": "address",
          "name": "account",
          "type": "address"
        }
      ],
      "name": "addWhitelisted",
      "outputs": [],
      "payable": false,
      "stateMutability": "nonpayable",
      "type": "function"
    },
    {
      "constant": false,
      "inputs": [
        {
          "internalType": "address",
          "name": "to",
          "type": "address"
        },
        {
          "internalType": "uint256",
          "name": "tokenId",
          "type": "uint256"
        }
      ],
      "name": "approve",
      "outputs": [],
      "payable": false,
      "stateMutability": "nonpayable",
      "type": "function"
    },
    {
      "constant": true,
      "inputs": [],
      "name": "baseURI",
      "outputs": [
        {
          "internalType": "string",
          "name": "",
          "type": "string"
        }
      ],
      "payable": false,
      "stateMutability": "view",
      "type": "function"
    },
    {
      "constant": true,
      "inputs": [
        {
          "internalType": "uint256",
          "name": "tokenId",
          "type": "uint256"
        }
      ],
      "name": "getApproved",
      "outputs": [
        {
          "internalType": "address",
          "name": "",
          "type": "address"
        }
      ],
      "payable": false,
      "stateMutability": "view",
      "type": "function"
    },
    {
      "constant": true,
      "inputs": [
        {
          "internalType": "address",
          "name": "owner",
          "type": "address"
        },
        {
          "internalType": "address",
          "name": "operator",
          "type": "address"
        }
      ],
      "name": "isApprovedForAll",
      "outputs": [
        {
          "internalType": "bool",
          "name": "",
          "type": "bool"
        }
      ],
      "payable": false,
      "stateMutability": "view",
      "type": "function"
    },
    {
      "constant": true,
      "inputs": [
        {
          "internalType": "address",
          "name": "account",
          "type": "address"
        }
      ],
      "name": "isWhitelistAdmin",
      "outputs": [
        {
          "internalType": "bool",
          "name": "",
          "type": "bool"
        }
      ],
      "payable": false,
      "stateMutability": "view",
      "type": "function"
    },
    {
      "constant": true,
      "inputs": [
        {
          "internalType": "address",
          "name": "account",
          "type": "address"
        }
      ],
      "name": "isWhitelisted",
      "outputs": [
        {
          "internalType": "bool",
          "name": "",
          "type": "bool"
        }
      ],
      "payable": false,
      "stateMutability": "view",
      "type": "function"
    },
    {
      "constant": true,
      "inputs": [],
      "name": "paymentToken",
      "outputs": [
        {
          "internalType": "contract IERC20",
          "name": "",
          "type": "address"
        }
      ],
      "payable": false,
      "stateMutability": "view",
      "type": "function"
    },
    {
      "constant": false,
      "inputs": [
        {
          "internalType": "address",
          "name": "account",
          "type": "address"
        }
      ],
      "name": "removeWhitelisted",
      "outputs": [],
      "payable": false,
      "stateMutability": "nonpayable",
      "type": "function"
    },
    {
      "constant": false,
      "inputs": [],
      "name": "renounceWhitelistAdmin",
      "outputs": [],
      "payable": false,
      "stateMutability": "nonpayable",
      "type": "function"
    },
    {
      "constant": false,
      "inputs": [],
      "name": "renounceWhitelisted",
      "outputs": [],
      "payable": false,
      "stateMutability": "nonpayable",
      "type": "function"
    },
    {
      "constant": false,
      "inputs": [
        {
          "internalType": "address",
          "name": "to",
          "type": "address"
        },
        {
          "internalType": "bool",
          "name": "approved",
          "type": "bool"
        }
      ],
      "name": "setApprovalForAll",
      "outputs": [],
      "payable": false,
      "stateMutability": "nonpayable",
      "type": "function"
    },
    {
      "constant": true,
      "inputs": [
        {
          "internalType": "bytes4",
          "name": "interfaceId",
          "type": "bytes4"
        }
      ],
      "name": "supportsInterface",
      "outputs": [
        {
          "internalType": "bool",
          "name": "",
          "type": "bool"
        }
      ],
      "payable": false,
      "stateMutability": "view",
      "type": "function"
    },
    {
      "constant": true,
      "inputs": [
        {
          "internalType": "uint256",
          "name": "index",
          "type": "uint256"
        }
      ],
      "name": "tokenByIndex",
      "outputs": [
        {
          "internalType": "uint256",
          "name": "",
          "type": "uint256"
        }
      ],
      "payable": false,
      "stateMutability": "view",
      "type": "function"
    },
    {
      "constant": true,
      "inputs": [],
      "name": "tokenContract",
      "outputs": [
        {
          "internalType": "contract IERC721Full",
          "name": "",
          "type": "address"
        }
      ],
      "payable": false,
      "stateMutability": "view",
      "type": "function"
    },
    {
      "constant": true,
      "inputs": [
        {
          "internalType": "address",
          "name": "owner",
          "type": "address"
        },
        {
          "internalType": "uint256",
          "name": "index",
          "type": "uint256"
        }
      ],
      "name": "tokenOfOwnerByIndex",
      "outputs": [
        {
          "internalType": "uint256",
          "name": "",
          "type": "uint256"
        }
      ],
      "payable": false,
      "stateMutability": "view",
      "type": "function"
    },
    {
      "constant": true,
      "inputs": [
        {
          "internalType": "uint256",
          "name": "",
          "type": "uint256"
        }
      ],
      "name": "tokensAvailableToLoan",
      "outputs": [
        {
          "internalType": "address",
          "name": "lender",
          "type": "address"
        },
        {
          "internalType": "uint256",
          "name": "tokenId",
          "type": "uint256"
        },
        {
          "internalType": "address",
          "name": "borrower",
          "type": "address"
        },
        {
          "internalType": "bool",
          "name": "isEscrowed",
          "type": "bool"
        },
        {
          "internalType": "bool",
          "name": "isBorrowed",
          "type": "bool"
        },
        {
          "internalType": "uint256",
          "name": "costPerMinute",
          "type": "uint256"
        },
        {
          "internalType": "uint256",
          "name": "maxMinutesAvailableForHire",
          "type": "uint256"
        }
      ],
      "payable": false,
      "stateMutability": "view",
      "type": "function"
    },
    {
      "constant": true,
      "inputs": [],
      "name": "totalSupply",
      "outputs": [
        {
          "internalType": "uint256",
          "name": "",
          "type": "uint256"
        }
      ],
      "payable": false,
      "stateMutability": "view",
      "type": "function"
    },
    {
      "constant": false,
      "inputs": [
        {
          "internalType": "uint256",
          "name": "_tokenId",
          "type": "uint256"
        },
        {
          "internalType": "uint256",
          "name": "_costPerMinute",
          "type": "uint256"
        },
        {
          "internalType": "uint256",
          "name": "_maxMinutesAvailableForHire",
          "type": "uint256"
        }
      ],
      "name": "enableTokenForLending",
      "outputs": [
        {
          "internalType": "bool",
          "name": "",
          "type": "bool"
        }
      ],
      "payable": false,
      "stateMutability": "nonpayable",
      "type": "function"
    },
    {
      "constant": false,
      "inputs": [
        {
          "internalType": "uint256",
          "name": "_tokenId",
          "type": "uint256"
        },
        {
          "internalType": "uint256",
          "name": "_totalCommitment",
          "type": "uint256"
        }
      ],
      "name": "borrowToken",
      "outputs": [
        {
          "internalType": "bool",
          "name": "",
          "type": "bool"
        }
      ],
      "payable": false,
      "stateMutability": "nonpayable",
      "type": "function"
    },
    {
      "constant": false,
      "inputs": [
        {
          "internalType": "uint256",
          "name": "_tokenId",
          "type": "uint256"
        }
      ],
      "name": "returnNft",
      "outputs": [],
      "payable": false,
      "stateMutability": "nonpayable",
      "type": "function"
    },
    {
      "constant": false,
      "inputs": [
        {
          "internalType": "uint256",
          "name": "_tokenId",
          "type": "uint256"
        }
      ],
      "name": "pullBackOverdueNft",
      "outputs": [],
      "payable": false,
      "stateMutability": "nonpayable",
      "type": "function"
    },
    {
      "constant": false,
      "inputs": [
        {
          "internalType": "address",
          "name": "operator",
          "type": "address"
        },
        {
          "internalType": "address",
          "name": "from",
          "type": "address"
        },
        {
          "internalType": "uint256",
          "name": "tokenId",
          "type": "uint256"
        },
        {
          "internalType": "bytes",
          "name": "data",
          "type": "bytes"
        }
      ],
      "name": "onERC721Received",
      "outputs": [
        {
          "internalType": "bytes4",
          "name": "",
          "type": "bytes4"
        }
      ],
      "payable": false,
      "stateMutability": "nonpayable",
      "type": "function"
    },
    {
      "constant": true,
      "inputs": [
        {
          "internalType": "uint256",
          "name": "_tokenId",
          "type": "uint256"
        }
      ],
      "name": "isTokenEscrowed",
      "outputs": [
        {
          "internalType": "bool",
          "name": "",
          "type": "bool"
        }
      ],
      "payable": false,
      "stateMutability": "view",
      "type": "function"
    },
    {
      "constant": true,
      "inputs": [],
      "name": "name",
      "outputs": [
        {
          "internalType": "string",
          "name": "",
          "type": "string"
        }
      ],
      "payable": false,
      "stateMutability": "view",
      "type": "function"
    },
    {
      "constant": true,
      "inputs": [],
      "name": "symbol",
      "outputs": [
        {
          "internalType": "string",
          "name": "",
          "type": "string"
        }
      ],
      "payable": false,
      "stateMutability": "view",
      "type": "function"
    },
    {
      "constant": true,
      "inputs": [
        {
          "internalType": "uint256",
          "name": "_tokenId",
          "type": "uint256"
        }
      ],
      "name": "tokenURI",
      "outputs": [
        {
          "internalType": "string",
          "name": "",
          "type": "string"
        }
      ],
      "payable": false,
      "stateMutability": "view",
      "type": "function"
    },
    {
      "constant": true,
      "inputs": [
        {
          "internalType": "address",
          "name": "owner",
          "type": "address"
        }
      ],
      "name": "balanceOf",
      "outputs": [
        {
          "internalType": "uint256",
          "name": "",
          "type": "uint256"
        }
      ],
      "payable": false,
      "stateMutability": "view",
      "type": "function"
    },
    {
      "constant": true,
      "inputs": [
        {
          "internalType": "uint256",
          "name": "_tokenId",
          "type": "uint256"
        }
      ],
      "name": "ownerOf",
      "outputs": [
        {
          "internalType": "address",
          "name": "",
          "type": "address"
        }
      ],
      "payable": false,
      "stateMutability": "view",
      "type": "function"
    },
    {
      "constant": false,
      "inputs": [
        {
          "internalType": "address",
          "name": "from",
          "type": "address"
        },
        {
          "internalType": "address",
          "name": "to",
          "type": "address"
        },
        {
          "internalType": "uint256",
          "name": "tokenId",
          "type": "uint256"
        },
        {
          "internalType": "bytes",
          "name": "_data",
          "type": "bytes"
        }
      ],
      "name": "safeTransferFrom",
      "outputs": [],
      "payable": false,
      "stateMutability": "nonpayable",
      "type": "function"
    },
    {
      "constant": false,
      "inputs": [
        {
          "internalType": "address",
          "name": "from",
          "type": "address"
        },
        {
          "internalType": "address",
          "name": "to",
          "type": "address"
        },
        {
          "internalType": "uint256",
          "name": "tokenId",
          "type": "uint256"
        }
      ],
      "name": "safeTransferFrom",
      "outputs": [],
      "payable": false,
      "stateMutability": "nonpayable",
      "type": "function"
    },
    {
      "constant": false,
      "inputs": [
        {
          "internalType": "address",
          "name": "from",
          "type": "address"
        },
        {
          "internalType": "address",
          "name": "to",
          "type": "address"
        },
        {
          "internalType": "uint256",
          "name": "tokenId",
          "type": "uint256"
        }
      ],
      "name": "transferFrom",
      "outputs": [],
      "payable": false,
      "stateMutability": "nonpayable",
      "type": "function"
    }
  ],
  "bytecode": "0x60806040523480156200001157600080fd5b506040516200407538038062004075833981810160405260408110156200003757600080fd5b8101908080519060200190929190805190602001909291905050506040518060400160405280600981526020017f4c6f616e536861726b00000000000000000000000000000000000000000000008152506040518060400160405280600781526020017f4c534bf09fa688000000000000000000000000000000000000000000000000008152508181620000d86301ffc9a760e01b6200021660201b60201c565b620000f06380ac58cd60e01b6200021660201b60201c565b6200010863780e9d6360e01b6200021660201b60201c565b8160099080519060200190620001209291906200065c565b5080600a9080519060200190620001399291906200065c565b5062000152635b5e139f60e01b6200021660201b60201c565b50505050620001766200016a6200031f60201b60201c565b6200032760201b60201c565b6200018c336200038860201b620016e11760201c565b80600f60006101000a81548173ffffffffffffffffffffffffffffffffffffffff021916908373ffffffffffffffffffffffffffffffffffffffff16021790555081601060006101000a81548173ffffffffffffffffffffffffffffffffffffffff021916908373ffffffffffffffffffffffffffffffffffffffff16021790555050506200070b565b63ffffffff60e01b817bffffffffffffffffffffffffffffffffffffffffffffffffffffffff19161415620002b3576040517f08c379a000000000000000000000000000000000000000000000000000000000815260040180806020018281038252601c8152602001807f4552433136353a20696e76616c696420696e746572666163652069640000000081525060200191505060405180910390fd5b6001600080837bffffffffffffffffffffffffffffffffffffffffffffffffffffffff19167bffffffffffffffffffffffffffffffffffffffffffffffffffffffff1916815260200190815260200160002060006101000a81548160ff02191690831515021790555050565b600033905090565b6200034281600d6200041360201b620034ef1790919060201c565b8073ffffffffffffffffffffffffffffffffffffffff167f22380c05984257a1cb900161c713dd71d39e74820f1aea43bd3f1bdd2096129960405160405180910390a250565b620003a86200039c6200031f60201b60201c565b620004f760201b60201c565b620003ff576040517f08c379a0000000000000000000000000000000000000000000000000000000008152600401808060200182810382526040815260200180620040356040913960400191505060405180910390fd5b62000410816200051b60201b60201c565b50565b6200042582826200057c60201b60201c565b1562000499576040517f08c379a000000000000000000000000000000000000000000000000000000000815260040180806020018281038252601f8152602001807f526f6c65733a206163636f756e7420616c72656164792068617320726f6c650081525060200191505060405180910390fd5b60018260000160008373ffffffffffffffffffffffffffffffffffffffff1673ffffffffffffffffffffffffffffffffffffffff16815260200190815260200160002060006101000a81548160ff0219169083151502179055505050565b60006200051482600d6200057c60201b6200335d1790919060201c565b9050919050565b6200053681600e6200041360201b620034ef1790919060201c565b8073ffffffffffffffffffffffffffffffffffffffff167fee1504a83b6d4a361f4c1dc78ab59bfa30d6a3b6612c403e86bb01ef2984295f60405160405180910390a250565b60008073ffffffffffffffffffffffffffffffffffffffff168273ffffffffffffffffffffffffffffffffffffffff16141562000605576040517f08c379a0000000000000000000000000000000000000000000000000000000008152600401808060200182810382526022815260200180620040136022913960400191505060405180910390fd5b8260000160008373ffffffffffffffffffffffffffffffffffffffff1673ffffffffffffffffffffffffffffffffffffffff16815260200190815260200160002060009054906101000a900460ff16905092915050565b828054600181600116156101000203166002900490600052602060002090601f016020900481019282601f106200069f57805160ff1916838001178555620006d0565b82800160010185558215620006d0579182015b82811115620006cf578251825591602001919060010190620006b2565b5b509050620006df9190620006e3565b5090565b6200070891905b8082111562000704576000816000905550600101620006ea565b5090565b90565b6138f8806200071b6000396000f3fe608060405234801561001057600080fd5b50600436106101fb5760003560e01c80634c5a628c1161011a5780637362d9c8116100ad578063b88d4fde1161007c578063b88d4fde14610c93578063bb5f747b14610d98578063c87b56dd14610df4578063d6cd947314610e9b578063e985e9c514610ea5576101fb565b80637362d9c814610ab057806395d89b4114610af4578063a22cb46514610b77578063b1c674ed14610bc7576101fb565b80636352211e116100e95780636352211e146109215780636c0360eb1461098f57806370a0823114610a12578063727f86aa14610a6a576101fb565b80634c5a628c1461085d5780634f6ccce71461086757806355a373d6146108a957806362bac890146108f3576101fb565b806318160ddd116101925780632f745c59116101615780632f745c59146106e75780633013ce29146107495780633af32abf1461079357806342842e0e146107ef576101fb565b806318160ddd146105bd5780631e613085146105db57806323b872dd14610635578063291d9549146106a3576101fb565b8063095ea7b3116101ce578063095ea7b3146103a657806309d77f0e146103f457806310154bad14610422578063150b7a0214610466576101fb565b806301ffc9a71461020057806306fdde0314610265578063081812fc146102e857806308ec592714610356575b600080fd5b61024b6004803603602081101561021657600080fd5b8101908080357bffffffffffffffffffffffffffffffffffffffffffffffffffffffff19169060200190929190505050610f21565b604051808215151515815260200191505060405180910390f35b61026d610f88565b6040518080602001828103825283818151815260200191508051906020019080838360005b838110156102ad578082015181840152602081019050610292565b50505050905090810190601f1680156102da5780820380516001836020036101000a031916815260200191505b509250505060405180910390f35b610314600480360360208110156102fe57600080fd5b81019080803590602001909291905050506110f0565b604051808273ffffffffffffffffffffffffffffffffffffffff1673ffffffffffffffffffffffffffffffffffffffff16815260200191505060405180910390f35b61038c6004803603604081101561036c57600080fd5b81019080803590602001909291908035906020019092919050505061118b565b604051808215151515815260200191505060405180910390f35b6103f2600480360360408110156103bc57600080fd5b81019080803573ffffffffffffffffffffffffffffffffffffffff1690602001909291908035906020019092919050505061146a565b005b6104206004803603602081101561040a57600080fd5b8101908080359060200190929190505050611651565b005b6104646004803603602081101561043857600080fd5b81019080803573ffffffffffffffffffffffffffffffffffffffff1690602001909291905050506116e1565b005b6105696004803603608081101561047c57600080fd5b81019080803573ffffffffffffffffffffffffffffffffffffffff169060200190929190803573ffffffffffffffffffffffffffffffffffffffff16906020019092919080359060200190929190803590602001906401000000008111156104e357600080fd5b8201836020820111156104f557600080fd5b8035906020019184600183028401116401000000008311171561051757600080fd5b91908080601f016020809104026020016040519081016040528093929190818152602001838380828437600081840152601f19601f820116905080830192505050505050509192919290505050611752565b60405180827bffffffffffffffffffffffffffffffffffffffffffffffffffffffff19167bffffffffffffffffffffffffffffffffffffffffffffffffffffffff1916815260200191505060405180910390f35b6105c5611766565b6040518082815260200191505060405180910390f35b61061b600480360360608110156105f157600080fd5b81019080803590602001909291908035906020019092919080359060200190929190505050611773565b604051808215151515815260200191505060405180910390f35b6106a16004803603606081101561064b57600080fd5b81019080803573ffffffffffffffffffffffffffffffffffffffff169060200190929190803573ffffffffffffffffffffffffffffffffffffffff16906020019092919080359060200190929190505050611cff565b005b6106e5600480360360208110156106b957600080fd5b81019080803573ffffffffffffffffffffffffffffffffffffffff169060200190929190505050611fd8565b005b610733600480360360408110156106fd57600080fd5b81019080803573ffffffffffffffffffffffffffffffffffffffff16906020019092919080359060200190929190505050612049565b6040518082815260200191505060405180910390f35b610751612108565b604051808273ffffffffffffffffffffffffffffffffffffffff1673ffffffffffffffffffffffffffffffffffffffff16815260200191505060405180910390f35b6107d5600480360360208110156107a957600080fd5b81019080803573ffffffffffffffffffffffffffffffffffffffff16906020019092919050505061212e565b604051808215151515815260200191505060405180910390f35b61085b6004803603606081101561080557600080fd5b81019080803573ffffffffffffffffffffffffffffffffffffffff169060200190929190803573ffffffffffffffffffffffffffffffffffffffff1690602001909291908035906020019092919050505061214b565b005b61086561216b565b005b6108936004803603602081101561087d57600080fd5b810190808035906020019092919050505061217d565b6040518082815260200191505060405180910390f35b6108b16121fd565b604051808273ffffffffffffffffffffffffffffffffffffffff1673ffffffffffffffffffffffffffffffffffffffff16815260200191505060405180910390f35b61091f6004803603602081101561090957600080fd5b8101908080359060200190929190505050612223565b005b61094d6004803603602081101561093757600080fd5b81019080803590602001909291905050506122b3565b604051808273ffffffffffffffffffffffffffffffffffffffff1673ffffffffffffffffffffffffffffffffffffffff16815260200191505060405180910390f35b6109976124a7565b6040518080602001828103825283818151815260200191508051906020019080838360005b838110156109d75780820151818401526020810190506109bc565b50505050905090810190601f168015610a045780820380516001836020036101000a031916815260200191505b509250505060405180910390f35b610a5460048036036020811015610a2857600080fd5b81019080803573ffffffffffffffffffffffffffffffffffffffff169060200190929190505050612549565b6040518082815260200191505060405180910390f35b610a9660048036036020811015610a8057600080fd5b810190808035906020019092919050505061262c565b604051808215151515815260200191505060405180910390f35b610af260048036036020811015610ac657600080fd5b81019080803573ffffffffffffffffffffffffffffffffffffffff169060200190929190505050612711565b005b610afc612782565b6040518080602001828103825283818151815260200191508051906020019080838360005b83811015610b3c578082015181840152602081019050610b21565b50505050905090810190601f168015610b695780820380516001836020036101000a031916815260200191505b509250505060405180910390f35b610bc560048036036040811015610b8d57600080fd5b81019080803573ffffffffffffffffffffffffffffffffffffffff1690602001909291908035151590602001909291905050506128ea565b005b610bf360048036036020811015610bdd57600080fd5b8101908080359060200190929190505050612aa2565b604051808873ffffffffffffffffffffffffffffffffffffffff1673ffffffffffffffffffffffffffffffffffffffff1681526020018781526020018673ffffffffffffffffffffffffffffffffffffffff1673ffffffffffffffffffffffffffffffffffffffff168152602001851515151581526020018415151515815260200183815260200182815260200197505050505050505060405180910390f35b610d9660048036036080811015610ca957600080fd5b81019080803573ffffffffffffffffffffffffffffffffffffffff169060200190929190803573ffffffffffffffffffffffffffffffffffffffff1690602001909291908035906020019092919080359060200190640100000000811115610d1057600080fd5b820183602082011115610d2257600080fd5b80359060200191846001830284011164010000000083111715610d4457600080fd5b91908080601f016020809104026020016040519081016040528093929190818152602001838380828437600081840152601f19601f820116905080830192505050505050509192919290505050612b3e565b005b610dda60048036036020811015610dae57600080fd5b81019080803573ffffffffffffffffffffffffffffffffffffffff169060200190929190505050612e85565b604051808215151515815260200191505060405180910390f35b610e2060048036036020811015610e0a57600080fd5b8101908080359060200190929190505050612ea2565b6040518080602001828103825283818151815260200191508051906020019080838360005b83811015610e60578082015181840152602081019050610e45565b50505050905090810190601f168015610e8d5780820380516001836020036101000a031916815260200191505b509250505060405180910390f35b610ea3613189565b005b610f0760048036036040811015610ebb57600080fd5b81019080803573ffffffffffffffffffffffffffffffffffffffff169060200190929190803573ffffffffffffffffffffffffffffffffffffffff16906020019092919050505061319b565b604051808215151515815260200191505060405180910390f35b6000806000837bffffffffffffffffffffffffffffffffffffffffffffffffffffffff19167bffffffffffffffffffffffffffffffffffffffffffffffffffffffff1916815260200190815260200160002060009054906101000a900460ff169050919050565b6060601060009054906101000a900473ffffffffffffffffffffffffffffffffffffffff1673ffffffffffffffffffffffffffffffffffffffff166306fdde036040518163ffffffff1660e01b815260040160006040518083038186803b158015610ff257600080fd5b505afa158015611006573d6000803e3d6000fd5b505050506040513d6000823e3d601f19601f82011682018060405250602081101561103057600080fd5b810190808051604051939291908464010000000082111561105057600080fd5b8382019150602082018581111561106657600080fd5b825186600182028301116401000000008211171561108357600080fd5b8083526020830192505050908051906020019080838360005b838110156110b757808201518184015260208101905061109c565b50505050905090810190601f1680156110e45780820380516001836020036101000a031916815260200191505b50604052505050905090565b60006110fb8261322f565b611150576040517f08c379a000000000000000000000000000000000000000000000000000000000815260040180806020018281038252602c8152602001806137bf602c913960400191505060405180910390fd5b6002600083815260200190815260200160002060009054906101000a900473ffffffffffffffffffffffffffffffffffffffff169050919050565b60008060116000858152602001908152602001600020600101541415611219576040517f08c379a00000000000000000000000000000000000000000000000000000000081526004018080602001828103825260128152602001807f546f6b656e206e6f7420666f722073616c65000000000000000000000000000081525060200191505060405180910390fd5b60006011600085815260200190815260200160002090508060020160149054906101000a900460ff166112b4576040517f08c379a00000000000000000000000000000000000000000000000000000000081526004018080602001828103825260128152602001807f546f6b656e206e6f7420657363726f776564000000000000000000000000000081525060200191505060405180910390fd5b8060020160159054906101000a900460ff1615611339576040517f08c379a00000000000000000000000000000000000000000000000000000000081526004018080602001828103825260168152602001807f546f6b656e20616c726561647920626f72726f7765640000000000000000000081525060200191505060405180910390fd5b600073ffffffffffffffffffffffffffffffffffffffff168160020160009054906101000a900473ffffffffffffffffffffffffffffffffffffffff1673ffffffffffffffffffffffffffffffffffffffff16146113ff576040517f08c379a000000000000000000000000000000000000000000000000000000000815260040180806020018281038252601c8152602001807f546f6b656e20616c726561647920676f74206120626f72726f7765720000000081525060200191505060405180910390fd5b338160020160006101000a81548173ffffffffffffffffffffffffffffffffffffffff021916908373ffffffffffffffffffffffffffffffffffffffff16021790555060018160020160156101000a81548160ff021916908315150217905550600191505092915050565b6000611475826122b3565b90508073ffffffffffffffffffffffffffffffffffffffff168373ffffffffffffffffffffffffffffffffffffffff1614156114fc576040517f08c379a000000000000000000000000000000000000000000000000000000000815260040180806020018281038252602181526020018061384d6021913960400191505060405180910390fd5b8073ffffffffffffffffffffffffffffffffffffffff1661151b6132a1565b73ffffffffffffffffffffffffffffffffffffffff16148061154a5750611549816115446132a1565b61319b565b5b61159f576040517f08c379a00000000000000000000000000000000000000000000000000000000081526004018080602001828103825260388152602001806137666038913960400191505060405180910390fd5b826002600084815260200190815260200160002060006101000a81548173ffffffffffffffffffffffffffffffffffffffff021916908373ffffffffffffffffffffffffffffffffffffffff160217905550818373ffffffffffffffffffffffffffffffffffffffff168273ffffffffffffffffffffffffffffffffffffffff167f8c5be1e5ebec7d5bd14f71427d1e84f3dd0314c0f7b2291e5b200ac8c7c3b92560405160405180910390a4505050565b6000601160008381526020019081526020016000206001015414156116de576040517f08c379a00000000000000000000000000000000000000000000000000000000081526004018080602001828103825260128152602001807f546f6b656e206e6f7420666f722073616c65000000000000000000000000000081525060200191505060405180910390fd5b50565b6116f16116ec6132a1565b612e85565b611746576040517f08c379a000000000000000000000000000000000000000000000000000000000815260040180806020018281038252604081526020018061380d6040913960400191505060405180910390fd5b61174f816132a9565b50565b600063150b7a0260e01b9050949350505050565b6000600780549050905090565b60008083116117ea576040517f08c379a000000000000000000000000000000000000000000000000000000000815260040180806020018281038252601e8152602001807f43616e6e6f74206c6f616e2074686520746f6b656e20666f722066726565000081525060200191505060405180910390fd5b60008211611843576040517f08c379a000000000000000000000000000000000000000000000000000000000815260040180806020018281038252602a81526020018061389a602a913960400191505060405180910390fd5b60006011600086815260200190815260200160002060010154146118cf576040517f08c379a000000000000000000000000000000000000000000000000000000000815260040180806020018281038252601d8152602001807f546f6b656e20616c726561647920706c6163656420666f722073616c6500000081525060200191505060405180910390fd5b3373ffffffffffffffffffffffffffffffffffffffff16601060009054906101000a900473ffffffffffffffffffffffffffffffffffffffff1673ffffffffffffffffffffffffffffffffffffffff16636352211e866040518263ffffffff1660e01b81526004018082815260200191505060206040518083038186803b15801561195957600080fd5b505afa15801561196d573d6000803e3d6000fd5b505050506040513d602081101561198357600080fd5b810190808051906020019092919050505073ffffffffffffffffffffffffffffffffffffffff1614611a1d576040517f08c379a000000000000000000000000000000000000000000000000000000000815260040180806020018281038252601b8152602001807f43616c6c657220646f6573206e6f74206f776e20746865204e4654000000000081525060200191505060405180910390fd5b6040518060e001604052803373ffffffffffffffffffffffffffffffffffffffff1681526020018581526020013073ffffffffffffffffffffffffffffffffffffffff168152602001600115158152602001600015158152602001848152602001838152506011600086815260200190815260200160002060008201518160000160006101000a81548173ffffffffffffffffffffffffffffffffffffffff021916908373ffffffffffffffffffffffffffffffffffffffff1602179055506020820151816001015560408201518160020160006101000a81548173ffffffffffffffffffffffffffffffffffffffff021916908373ffffffffffffffffffffffffffffffffffffffff16021790555060608201518160020160146101000a81548160ff02191690831515021790555060808201518160020160156101000a81548160ff02191690831515021790555060a0820151816003015560c08201518160040155905050601060009054906101000a900473ffffffffffffffffffffffffffffffffffffffff1673ffffffffffffffffffffffffffffffffffffffff166342842e0e3330876040518463ffffffff1660e01b8152600401808473ffffffffffffffffffffffffffffffffffffffff1673ffffffffffffffffffffffffffffffffffffffff1681526020018373ffffffffffffffffffffffffffffffffffffffff1673ffffffffffffffffffffffffffffffffffffffff1681526020018281526020019350505050600060405180830381600087803b158015611c6157600080fd5b505af1158015611c75573d6000803e3d6000fd5b50505050611c828461262c565b611cf4576040517f08c379a000000000000000000000000000000000000000000000000000000000815260040180806020018281038252601c8152602001807f546f6b656e206e6f7420636f72726563746c7920657363726f7765640000000081525060200191505060405180910390fd5b600190509392505050565b611d07613687565b601160008381526020019081526020016000206040518060e00160405290816000820160009054906101000a900473ffffffffffffffffffffffffffffffffffffffff1673ffffffffffffffffffffffffffffffffffffffff1673ffffffffffffffffffffffffffffffffffffffff168152602001600182015481526020016002820160009054906101000a900473ffffffffffffffffffffffffffffffffffffffff1673ffffffffffffffffffffffffffffffffffffffff1673ffffffffffffffffffffffffffffffffffffffff1681526020016002820160149054906101000a900460ff161515151581526020016002820160159054906101000a900460ff16151515158152602001600382015481526020016004820154815250509050806080015115611e82576040517f08c379a00000000000000000000000000000000000000000000000000000000081526004018080602001828103825260238152602001806137206023913960400191505060405180910390fd5b806060015115611edd576040517f08c379a00000000000000000000000000000000000000000000000000000000081526004018080602001828103825260238152602001806137436023913960400191505060405180910390fd5b601060009054906101000a900473ffffffffffffffffffffffffffffffffffffffff1673ffffffffffffffffffffffffffffffffffffffff166323b872dd8585856040518463ffffffff1660e01b8152600401808473ffffffffffffffffffffffffffffffffffffffff1673ffffffffffffffffffffffffffffffffffffffff1681526020018373ffffffffffffffffffffffffffffffffffffffff1673ffffffffffffffffffffffffffffffffffffffff1681526020018281526020019350505050600060405180830381600087803b158015611fba57600080fd5b505af1158015611fce573d6000803e3d6000fd5b5050505050505050565b611fe8611fe36132a1565b612e85565b61203d576040517f08c379a000000000000000000000000000000000000000000000000000000000815260040180806020018281038252604081526020018061380d6040913960400191505060405180910390fd5b61204681613303565b50565b600061205483612549565b82106120ab576040517f08c379a000000000000000000000000000000000000000000000000000000000815260040180806020018281038252602b8152602001806136f5602b913960400191505060405180910390fd5b600560008473ffffffffffffffffffffffffffffffffffffffff1673ffffffffffffffffffffffffffffffffffffffff16815260200190815260200160002082815481106120f557fe5b9060005260206000200154905092915050565b600f60009054906101000a900473ffffffffffffffffffffffffffffffffffffffff1681565b600061214482600e61335d90919063ffffffff16565b9050919050565b61216683838360405180602001604052806000815250612b3e565b505050565b61217b6121766132a1565b61343b565b565b6000612187611766565b82106121de576040517f08c379a000000000000000000000000000000000000000000000000000000000815260040180806020018281038252602c81526020018061386e602c913960400191505060405180910390fd5b600782815481106121eb57fe5b90600052602060002001549050919050565b601060009054906101000a900473ffffffffffffffffffffffffffffffffffffffff1681565b6000601160008381526020019081526020016000206001015414156122b0576040517f08c379a00000000000000000000000000000000000000000000000000000000081526004018080602001828103825260128152602001807f546f6b656e206e6f7420666f722073616c65000000000000000000000000000081525060200191505060405180910390fd5b50565b60006122bd613687565b601160008481526020019081526020016000206040518060e00160405290816000820160009054906101000a900473ffffffffffffffffffffffffffffffffffffffff1673ffffffffffffffffffffffffffffffffffffffff1673ffffffffffffffffffffffffffffffffffffffff168152602001600182015481526020016002820160009054906101000a900473ffffffffffffffffffffffffffffffffffffffff1673ffffffffffffffffffffffffffffffffffffffff1673ffffffffffffffffffffffffffffffffffffffff1681526020016002820160149054906101000a900460ff161515151581526020016002820160159054906101000a900460ff1615151515815260200160038201548152602001600482015481525050905080608001511561249d57601060009054906101000a900473ffffffffffffffffffffffffffffffffffffffff1673ffffffffffffffffffffffffffffffffffffffff16636352211e846040518263ffffffff1660e01b81526004018082815260200191505060206040518083038186803b15801561245a57600080fd5b505afa15801561246e573d6000803e3d6000fd5b505050506040513d602081101561248457600080fd5b81019080805190602001909291905050509150506124a2565b309150505b919050565b6060600b8054600181600116156101000203166002900480601f01602080910402602001604051908101604052809291908181526020018280546001816001161561010002031660029004801561253f5780601f106125145761010080835404028352916020019161253f565b820191906000526020600020905b81548152906001019060200180831161252257829003601f168201915b5050505050905090565b6000601060009054906101000a900473ffffffffffffffffffffffffffffffffffffffff1673ffffffffffffffffffffffffffffffffffffffff166370a08231836040518263ffffffff1660e01b8152600401808273ffffffffffffffffffffffffffffffffffffffff1673ffffffffffffffffffffffffffffffffffffffff16815260200191505060206040518083038186803b1580156125ea57600080fd5b505afa1580156125fe573d6000803e3d6000fd5b505050506040513d602081101561261457600080fd5b81019080805190602001909291905050509050919050565b60003073ffffffffffffffffffffffffffffffffffffffff16601060009054906101000a900473ffffffffffffffffffffffffffffffffffffffff1673ffffffffffffffffffffffffffffffffffffffff16636352211e846040518263ffffffff1660e01b81526004018082815260200191505060206040518083038186803b1580156126b857600080fd5b505afa1580156126cc573d6000803e3d6000fd5b505050506040513d60208110156126e257600080fd5b810190808051906020019092919050505073ffffffffffffffffffffffffffffffffffffffff16149050919050565b61272161271c6132a1565b612e85565b612776576040517f08c379a000000000000000000000000000000000000000000000000000000000815260040180806020018281038252604081526020018061380d6040913960400191505060405180910390fd5b61277f81613495565b50565b6060601060009054906101000a900473ffffffffffffffffffffffffffffffffffffffff1673ffffffffffffffffffffffffffffffffffffffff166395d89b416040518163ffffffff1660e01b815260040160006040518083038186803b1580156127ec57600080fd5b505afa158015612800573d6000803e3d6000fd5b505050506040513d6000823e3d601f19601f82011682018060405250602081101561282a57600080fd5b810190808051604051939291908464010000000082111561284a57600080fd5b8382019150602082018581111561286057600080fd5b825186600182028301116401000000008211171561287d57600080fd5b8083526020830192505050908051906020019080838360005b838110156128b1578082015181840152602081019050612896565b50505050905090810190601f1680156128de5780820380516001836020036101000a031916815260200191505b50604052505050905090565b6128f26132a1565b73ffffffffffffffffffffffffffffffffffffffff168273ffffffffffffffffffffffffffffffffffffffff161415612993576040517f08c379a00000000000000000000000000000000000000000000000000000000081526004018080602001828103825260198152602001807f4552433732313a20617070726f766520746f2063616c6c65720000000000000081525060200191505060405180910390fd5b80600460006129a06132a1565b73ffffffffffffffffffffffffffffffffffffffff1673ffffffffffffffffffffffffffffffffffffffff16815260200190815260200160002060008473ffffffffffffffffffffffffffffffffffffffff1673ffffffffffffffffffffffffffffffffffffffff16815260200190815260200160002060006101000a81548160ff0219169083151502179055508173ffffffffffffffffffffffffffffffffffffffff16612a4d6132a1565b73ffffffffffffffffffffffffffffffffffffffff167f17307eab39ab6107e8899845ad3d59bd9653f200f220920489ca2b5937696c3183604051808215151515815260200191505060405180910390a35050565b60116020528060005260406000206000915090508060000160009054906101000a900473ffffffffffffffffffffffffffffffffffffffff16908060010154908060020160009054906101000a900473ffffffffffffffffffffffffffffffffffffffff16908060020160149054906101000a900460ff16908060020160159054906101000a900460ff16908060030154908060040154905087565b612b46613687565b601160008481526020019081526020016000206040518060e00160405290816000820160009054906101000a900473ffffffffffffffffffffffffffffffffffffffff1673ffffffffffffffffffffffffffffffffffffffff1673ffffffffffffffffffffffffffffffffffffffff168152602001600182015481526020016002820160009054906101000a900473ffffffffffffffffffffffffffffffffffffffff1673ffffffffffffffffffffffffffffffffffffffff1673ffffffffffffffffffffffffffffffffffffffff1681526020016002820160149054906101000a900460ff161515151581526020016002820160159054906101000a900460ff16151515158152602001600382015481526020016004820154815250509050806080015115612cc1576040517f08c379a00000000000000000000000000000000000000000000000000000000081526004018080602001828103825260238152602001806137206023913960400191505060405180910390fd5b806060015115612d1c576040517f08c379a00000000000000000000000000000000000000000000000000000000081526004018080602001828103825260238152602001806137436023913960400191505060405180910390fd5b601060009054906101000a900473ffffffffffffffffffffffffffffffffffffffff1673ffffffffffffffffffffffffffffffffffffffff1663b88d4fde868686866040518563ffffffff1660e01b8152600401808573ffffffffffffffffffffffffffffffffffffffff1673ffffffffffffffffffffffffffffffffffffffff1681526020018473ffffffffffffffffffffffffffffffffffffffff1673ffffffffffffffffffffffffffffffffffffffff16815260200183815260200180602001828103825283818151815260200191508051906020019080838360005b83811015612e17578082015181840152602081019050612dfc565b50505050905090810190601f168015612e445780820380516001836020036101000a031916815260200191505b5095505050505050600060405180830381600087803b158015612e6657600080fd5b505af1158015612e7a573d6000803e3d6000fd5b505050505050505050565b6000612e9b82600d61335d90919063ffffffff16565b9050919050565b6060612eac613687565b601160008481526020019081526020016000206040518060e00160405290816000820160009054906101000a900473ffffffffffffffffffffffffffffffffffffffff1673ffffffffffffffffffffffffffffffffffffffff1673ffffffffffffffffffffffffffffffffffffffff168152602001600182015481526020016002820160009054906101000a900473ffffffffffffffffffffffffffffffffffffffff1673ffffffffffffffffffffffffffffffffffffffff1673ffffffffffffffffffffffffffffffffffffffff1681526020016002820160149054906101000a900460ff161515151581526020016002820160159054906101000a900460ff1615151515815260200160038201548152602001600482015481525050905080608001511561314a57601060009054906101000a900473ffffffffffffffffffffffffffffffffffffffff1673ffffffffffffffffffffffffffffffffffffffff1663c87b56dd846040518263ffffffff1660e01b81526004018082815260200191505060006040518083038186803b15801561304957600080fd5b505afa15801561305d573d6000803e3d6000fd5b505050506040513d6000823e3d601f19601f82011682018060405250602081101561308757600080fd5b81019080805160405193929190846401000000008211156130a757600080fd5b838201915060208201858111156130bd57600080fd5b82518660018202830111640100000000821117156130da57600080fd5b8083526020830192505050908051906020019080838360005b8381101561310e5780820151818401526020810190506130f3565b50505050905090810190601f16801561313b5780820380516001836020036101000a031916815260200191505b50604052505050915050613184565b6040518060400160405280601c81526020017f544f444f2072657475726e2073746174696320495046532068617368000000008152509150505b919050565b6131996131946132a1565b613303565b565b6000600460008473ffffffffffffffffffffffffffffffffffffffff1673ffffffffffffffffffffffffffffffffffffffff16815260200190815260200160002060008373ffffffffffffffffffffffffffffffffffffffff1673ffffffffffffffffffffffffffffffffffffffff16815260200190815260200160002060009054906101000a900460ff16905092915050565b6000806001600084815260200190815260200160002060009054906101000a900473ffffffffffffffffffffffffffffffffffffffff169050600073ffffffffffffffffffffffffffffffffffffffff168173ffffffffffffffffffffffffffffffffffffffff161415915050919050565b600033905090565b6132bd81600e6134ef90919063ffffffff16565b8073ffffffffffffffffffffffffffffffffffffffff167fee1504a83b6d4a361f4c1dc78ab59bfa30d6a3b6612c403e86bb01ef2984295f60405160405180910390a250565b61331781600e6135ca90919063ffffffff16565b8073ffffffffffffffffffffffffffffffffffffffff167f270d9b30cf5b0793bbfd54c9d5b94aeb49462b8148399000265144a8722da6b660405160405180910390a250565b60008073ffffffffffffffffffffffffffffffffffffffff168273ffffffffffffffffffffffffffffffffffffffff1614156133e4576040517f08c379a00000000000000000000000000000000000000000000000000000000081526004018080602001828103825260228152602001806137eb6022913960400191505060405180910390fd5b8260000160008373ffffffffffffffffffffffffffffffffffffffff1673ffffffffffffffffffffffffffffffffffffffff16815260200190815260200160002060009054906101000a900460ff16905092915050565b61344f81600d6135ca90919063ffffffff16565b8073ffffffffffffffffffffffffffffffffffffffff167f0a8eb35e5ca14b3d6f28e4abf2f128dbab231a58b56e89beb5d636115001e16560405160405180910390a250565b6134a981600d6134ef90919063ffffffff16565b8073ffffffffffffffffffffffffffffffffffffffff167f22380c05984257a1cb900161c713dd71d39e74820f1aea43bd3f1bdd2096129960405160405180910390a250565b6134f9828261335d565b1561356c576040517f08c379a000000000000000000000000000000000000000000000000000000000815260040180806020018281038252601f8152602001807f526f6c65733a206163636f756e7420616c72656164792068617320726f6c650081525060200191505060405180910390fd5b60018260000160008373ffffffffffffffffffffffffffffffffffffffff1673ffffffffffffffffffffffffffffffffffffffff16815260200190815260200160002060006101000a81548160ff0219169083151502179055505050565b6135d4828261335d565b613629576040517f08c379a000000000000000000000000000000000000000000000000000000000815260040180806020018281038252602181526020018061379e6021913960400191505060405180910390fd5b60008260000160008373ffffffffffffffffffffffffffffffffffffffff1673ffffffffffffffffffffffffffffffffffffffff16815260200190815260200160002060006101000a81548160ff0219169083151502179055505050565b6040518060e00160405280600073ffffffffffffffffffffffffffffffffffffffff16815260200160008152602001600073ffffffffffffffffffffffffffffffffffffffff1681526020016000151581526020016000151581526020016000815260200160008152509056fe455243373231456e756d657261626c653a206f776e657220696e646578206f7574206f6620626f756e647343616e6e6f74207472616e73666572206120626f72726f77656420636f6e747261637443616e6e6f74207472616e73666572206120657363726f77656420636f6e74726163744552433732313a20617070726f76652063616c6c6572206973206e6f74206f776e6572206e6f7220617070726f76656420666f7220616c6c526f6c65733a206163636f756e7420646f6573206e6f74206861766520726f6c654552433732313a20617070726f76656420717565727920666f72206e6f6e6578697374656e7420746f6b656e526f6c65733a206163636f756e7420697320746865207a65726f206164647265737357686974656c69737441646d696e526f6c653a2063616c6c657220646f6573206e6f742068617665207468652057686974656c69737441646d696e20726f6c654552433732313a20617070726f76616c20746f2063757272656e74206f776e6572455243373231456e756d657261626c653a20676c6f62616c20696e646578206f7574206f6620626f756e647343616e6e6f74206c656e64206120746f6b656e20666f72206c657373207468616e2031206d696e757465a265627a7a72315820c01950d675cc00792e5c4470f1b0de09305530f610c0e1ae3521ef764bbf62b264736f6c634300050c0032526f6c65733a206163636f756e7420697320746865207a65726f206164647265737357686974656c69737441646d696e526f6c653a2063616c6c657220646f6573206e6f742068617665207468652057686974656c69737441646d696e20726f6c65",
  "source": "pragma solidity ^0.5.0;\n\nimport \"@openzeppelin/contracts/access/roles/WhitelistedRole.sol\";\nimport \"@openzeppelin/contracts/token/ERC20/IERC20.sol\";\nimport \"@openzeppelin/contracts/token/ERC721/IERC721Full.sol\";\nimport \"@openzeppelin/contracts/token/ERC721/ERC721Full.sol\";\n\ncontract LoanShark is ERC721Full, WhitelistedRole {\n\n    struct Loan {\n        // Config\n        address lender;\n        uint256 tokenId;\n        address borrower;\n\n        // state flags\n        bool isEscrowed;\n        bool isBorrowed;\n\n        // payment terms\n        uint256 costPerMinute;\n        uint256 maxMinutesAvailableForHire;\n    }\n\n    // What to stream the payment in\n    IERC20 public paymentToken;\n\n    // The original NFT contract\n    IERC721Full public tokenContract;\n\n    // Total\n    mapping(uint256 => Loan) public tokensAvailableToLoan;\n\n    constructor(\n        IERC721Full _tokenContract, // How to make this generic to not accept a token at construction\n        IERC20 _paymentToken // DAI ... or even zkDAI ?\n    ) ERC721Full(\"LoanShark\", \"LSK\") public {\n        super.addWhitelisted(msg.sender);\n\n        paymentToken = _paymentToken;\n        tokenContract = _tokenContract;\n    }\n\n    // TODO create a proxy method to allow call on original NFT by bytecode/method args - dynamic lookup?\n\n    function enableTokenForLending(uint256 _tokenId, uint256 _costPerMinute, uint256 _maxMinutesAvailableForHire) public returns (bool) {\n\n        // Validate input\n        require(_costPerMinute > 0, \"Cannot loan the token for free\");\n        require(_maxMinutesAvailableForHire > 0, \"Cannot lend a token for less than 1 minute\");\n        require(tokensAvailableToLoan[_tokenId].tokenId == 0, \"Token already placed for sale\");\n\n        // Validate caller owns it\n        require(tokenContract.ownerOf(_tokenId) == msg.sender, \"Caller does not own the NFT\");\n\n        // Setup Loan\n        tokensAvailableToLoan[_tokenId] = Loan({\n            tokenId : _tokenId,\n            lender : msg.sender,\n            borrower : address(this),\n\n            isEscrowed : true,\n            isBorrowed : false,\n\n            costPerMinute : _costPerMinute,\n            maxMinutesAvailableForHire : _maxMinutesAvailableForHire\n            });\n\n        // Escrow NFT into the Loan Shark Contract\n        tokenContract.safeTransferFrom(msg.sender, address(this), _tokenId);\n        require(isTokenEscrowed(_tokenId), \"Token not correctly escrowed\");\n\n        return true;\n    }\n\n    function borrowToken(uint256 _tokenId, uint256 _totalCommitment) public returns (bool) {\n        require(tokensAvailableToLoan[_tokenId].tokenId != 0, \"Token not for sale\");\n\n        Loan storage loan = tokensAvailableToLoan[_tokenId];\n        require(loan.isEscrowed, \"Token not escrowed\");\n        require(!loan.isBorrowed, \"Token already borrowed\");\n        require(loan.borrower == address(0), \"Token already got a borrower\");\n\n\n        // sudo transfer this NFT to the new owner\n        loan.borrower = msg.sender;\n        loan.isBorrowed = true;\n\n        // TODO start the stream....?\n\n        // enable proxy methods to display original\n        // update state to show item is user\n\n        return true;\n    }\n\n    function returnNft(uint256 _tokenId) public {\n        require(tokensAvailableToLoan[_tokenId].tokenId != 0, \"Token not for sale\");\n\n        // NFT is taken back in true full control on this proxy\n        // NFT reset loan state\n    }\n\n    function pullBackOverdueNft(uint256 _tokenId) public {\n        require(tokensAvailableToLoan[_tokenId].tokenId != 0, \"Token not for sale\");\n\n        // only allow after loan has expired\n        // take back ownership from the borrower\n        // reset loan state\n        // penalise the borrower in some form?\n    }\n\n    // taking ownership of the NFT via callback confirmation\n    function onERC721Received(address operator, address from, uint256 tokenId, bytes memory data) public returns (bytes4) {\n        return this.onERC721Received.selector;\n    }\n\n    function isTokenEscrowed(uint256 _tokenId) public view returns (bool) {\n        return IERC721Full(tokenContract).ownerOf(_tokenId) == address(this);\n    }\n\n    ////////////////////////////////////////\n    // Overridden IERC721Metadata methods //\n    ////////////////////////////////////////\n\n    // TODO proxy through to escrowed NFT\n\n    function name() external view returns (string memory) {\n        return tokenContract.name();\n    }\n\n    function symbol() external view returns (string memory) {\n        return tokenContract.symbol();\n    }\n\n    function tokenURI(uint256 _tokenId) external view returns (string memory) {\n        Loan memory loan = tokensAvailableToLoan[_tokenId];\n        if (loan.isBorrowed) {\n            return tokenContract.tokenURI(_tokenId);\n        }\n        return \"TODO return static IPFS hash\";\n    }\n\n    ////////////////////////////////\n    // Overridden IERC721 methods //\n    ////////////////////////////////\n\n    // TODO proxy through to escrowed NFT\n    // TODO special case methods which need to be thought about\n    // TODO check expired stream as well for all proxy methods?\n\n    function balanceOf(address owner) public view returns (uint256) {\n        // TODO how to handle this proxy method\n        return tokenContract.balanceOf(owner);\n    }\n\n    function ownerOf(uint256 _tokenId) public view returns (address) {\n        Loan memory loan = tokensAvailableToLoan[_tokenId];\n        if (loan.isBorrowed) {\n            return tokenContract.ownerOf(_tokenId);\n        }\n        return address(this);\n    }\n\n    function safeTransferFrom(address from, address to, uint256 tokenId, bytes memory _data) public {\n        Loan memory loan = tokensAvailableToLoan[tokenId];\n        require(!loan.isBorrowed, \"Cannot transfer a borrowed contract\");\n        require(!loan.isEscrowed, \"Cannot transfer a escrowed contract\");\n\n        return tokenContract.safeTransferFrom(from, to, tokenId, _data);\n    }\n\n    function transferFrom(address from, address to, uint256 tokenId) public {\n        Loan memory loan = tokensAvailableToLoan[tokenId];\n        require(!loan.isBorrowed, \"Cannot transfer a borrowed contract\");\n        require(!loan.isEscrowed, \"Cannot transfer a escrowed contract\");\n\n        return tokenContract.transferFrom(from, to, tokenId);\n    }\n\n}\n",
  "sourcePath": "/Users/jamesmorgan/Dropbox/workspace-blockrocket/blockrocket/loan-shark/contracts/LoanShark.sol",
  "compiler": {
    "name": "solc",
    "version": "0.5.12+commit.7709ece9.Emscripten.clang"
  },
  "schemaVersion": "3.0.19",
  "updatedAt": "2020-02-28T22:17:03.804Z",
  "devdoc": {
    "methods": {
      "approve(address,uint256)": {
        "details": "Approves another address to transfer the given token ID The zero address indicates there is no approved address. There can only be one approved address per token at a given time. Can only be called by the token owner or an approved operator.",
        "params": {
          "to": "address to be approved for the given token ID",
          "tokenId": "uint256 ID of the token to be approved"
        }
      },
      "baseURI()": {
        "details": "Returns the base URI set via {_setBaseURI}. This will be automatically added as a preffix in {tokenURI} to each token's URI, when they are non-empty.    * _Available since v2.5.0._"
      },
      "getApproved(uint256)": {
        "details": "Gets the approved address for a token ID, or zero if no address set Reverts if the token ID does not exist.",
        "params": {
          "tokenId": "uint256 ID of the token to query the approval of"
        },
        "return": "address currently approved for the given token ID"
      },
      "isApprovedForAll(address,address)": {
        "details": "Tells whether an operator is approved by a given owner.",
        "params": {
          "operator": "operator address which you want to query the approval of",
          "owner": "owner address which you want to query the approval of"
        },
        "return": "bool whether the given operator is approved by the given owner"
      },
      "safeTransferFrom(address,address,uint256)": {
        "details": "Safely transfers the ownership of a given token ID to another address If the target address is a contract, it must implement {IERC721Receiver-onERC721Received}, which is called upon a safe transfer, and return the magic value `bytes4(keccak256(\"onERC721Received(address,address,uint256,bytes)\"))`; otherwise, the transfer is reverted. Requires the msg.sender to be the owner, approved, or operator",
        "params": {
          "from": "current owner of the token",
          "to": "address to receive the ownership of the given token ID",
          "tokenId": "uint256 ID of the token to be transferred"
        }
      },
      "setApprovalForAll(address,bool)": {
        "details": "Sets or unsets the approval of a given operator An operator is allowed to transfer all tokens of the sender on their behalf.",
        "params": {
          "approved": "representing the status of the approval to be set",
          "to": "operator address to set the approval"
        }
      },
      "supportsInterface(bytes4)": {
        "details": "See {IERC165-supportsInterface}.     * Time complexity O(1), guaranteed to always use less than 30 000 gas."
      },
      "tokenByIndex(uint256)": {
        "details": "Gets the token ID at a given index of all the tokens in this contract Reverts if the index is greater or equal to the total number of tokens.",
        "params": {
          "index": "uint256 representing the index to be accessed of the tokens list"
        },
        "return": "uint256 token ID at the given index of the tokens list"
      },
      "tokenOfOwnerByIndex(address,uint256)": {
        "details": "Gets the token ID at a given index of the tokens list of the requested owner.",
        "params": {
          "index": "uint256 representing the index to be accessed of the requested tokens list",
          "owner": "address owning the tokens list to be accessed"
        },
        "return": "uint256 token ID at the given index of the tokens list owned by the requested address"
      },
      "totalSupply()": {
        "details": "Gets the total amount of tokens stored by the contract.",
        "return": "uint256 representing the total amount of tokens"
      }
    }
  },
  "userdoc": {
    "methods": {
      "balanceOf(address)": {
        "notice": "/////////////////////////////"
      },
      "name()": {
        "notice": "/////////////////////////////////////"
      }
    }
  }
}