{
  "contractName": "LoanShark",
  "abi": [
    {
      "inputs": [
        {
          "internalType": "contract IERC721Full",
          "name": "_tokenContract",
          "type": "address"
        },
        {
          "internalType": "contract IERC20",
          "name": "_paymentToken",
          "type": "address"
        }
      ],
      "payable": false,
      "stateMutability": "nonpayable",
      "type": "constructor"
    },
    {
      "anonymous": false,
      "inputs": [
        {
          "indexed": true,
          "internalType": "address",
          "name": "owner",
          "type": "address"
        },
        {
          "indexed": true,
          "internalType": "address",
          "name": "approved",
          "type": "address"
        },
        {
          "indexed": true,
          "internalType": "uint256",
          "name": "tokenId",
          "type": "uint256"
        }
      ],
      "name": "Approval",
      "type": "event"
    },
    {
      "anonymous": false,
      "inputs": [
        {
          "indexed": true,
          "internalType": "address",
          "name": "owner",
          "type": "address"
        },
        {
          "indexed": true,
          "internalType": "address",
          "name": "operator",
          "type": "address"
        },
        {
          "indexed": false,
          "internalType": "bool",
          "name": "approved",
          "type": "bool"
        }
      ],
      "name": "ApprovalForAll",
      "type": "event"
    },
    {
      "anonymous": false,
      "inputs": [
        {
          "indexed": true,
          "internalType": "address",
          "name": "from",
          "type": "address"
        },
        {
          "indexed": true,
          "internalType": "address",
          "name": "to",
          "type": "address"
        },
        {
          "indexed": true,
          "internalType": "uint256",
          "name": "tokenId",
          "type": "uint256"
        }
      ],
      "name": "Transfer",
      "type": "event"
    },
    {
      "anonymous": false,
      "inputs": [
        {
          "indexed": true,
          "internalType": "address",
          "name": "account",
          "type": "address"
        }
      ],
      "name": "WhitelistAdminAdded",
      "type": "event"
    },
    {
      "anonymous": false,
      "inputs": [
        {
          "indexed": true,
          "internalType": "address",
          "name": "account",
          "type": "address"
        }
      ],
      "name": "WhitelistAdminRemoved",
      "type": "event"
    },
    {
      "anonymous": false,
      "inputs": [
        {
          "indexed": true,
          "internalType": "address",
          "name": "account",
          "type": "address"
        }
      ],
      "name": "WhitelistedAdded",
      "type": "event"
    },
    {
      "anonymous": false,
      "inputs": [
        {
          "indexed": true,
          "internalType": "address",
          "name": "account",
          "type": "address"
        }
      ],
      "name": "WhitelistedRemoved",
      "type": "event"
    },
    {
      "constant": false,
      "inputs": [
        {
          "internalType": "address",
          "name": "account",
          "type": "address"
        }
      ],
      "name": "addWhitelistAdmin",
      "outputs": [],
      "payable": false,
      "stateMutability": "nonpayable",
      "type": "function"
    },
    {
      "constant": false,
      "inputs": [
        {
          "internalType": "address",
          "name": "account",
          "type": "address"
        }
      ],
      "name": "addWhitelisted",
      "outputs": [],
      "payable": false,
      "stateMutability": "nonpayable",
      "type": "function"
    },
    {
      "constant": false,
      "inputs": [
        {
          "internalType": "address",
          "name": "to",
          "type": "address"
        },
        {
          "internalType": "uint256",
          "name": "tokenId",
          "type": "uint256"
        }
      ],
      "name": "approve",
      "outputs": [],
      "payable": false,
      "stateMutability": "nonpayable",
      "type": "function"
    },
    {
      "constant": true,
      "inputs": [],
      "name": "baseURI",
      "outputs": [
        {
          "internalType": "string",
          "name": "",
          "type": "string"
        }
      ],
      "payable": false,
      "stateMutability": "view",
      "type": "function"
    },
    {
      "constant": true,
      "inputs": [
        {
          "internalType": "uint256",
          "name": "tokenId",
          "type": "uint256"
        }
      ],
      "name": "getApproved",
      "outputs": [
        {
          "internalType": "address",
          "name": "",
          "type": "address"
        }
      ],
      "payable": false,
      "stateMutability": "view",
      "type": "function"
    },
    {
      "constant": true,
      "inputs": [
        {
          "internalType": "uint256",
          "name": "",
          "type": "uint256"
        }
      ],
      "name": "indexToTokenId",
      "outputs": [
        {
          "internalType": "uint256",
          "name": "",
          "type": "uint256"
        }
      ],
      "payable": false,
      "stateMutability": "view",
      "type": "function"
    },
    {
      "constant": true,
      "inputs": [
        {
          "internalType": "address",
          "name": "owner",
          "type": "address"
        },
        {
          "internalType": "address",
          "name": "operator",
          "type": "address"
        }
      ],
      "name": "isApprovedForAll",
      "outputs": [
        {
          "internalType": "bool",
          "name": "",
          "type": "bool"
        }
      ],
      "payable": false,
      "stateMutability": "view",
      "type": "function"
    },
    {
      "constant": true,
      "inputs": [
        {
          "internalType": "address",
          "name": "account",
          "type": "address"
        }
      ],
      "name": "isWhitelistAdmin",
      "outputs": [
        {
          "internalType": "bool",
          "name": "",
          "type": "bool"
        }
      ],
      "payable": false,
      "stateMutability": "view",
      "type": "function"
    },
    {
      "constant": true,
      "inputs": [
        {
          "internalType": "address",
          "name": "account",
          "type": "address"
        }
      ],
      "name": "isWhitelisted",
      "outputs": [
        {
          "internalType": "bool",
          "name": "",
          "type": "bool"
        }
      ],
      "payable": false,
      "stateMutability": "view",
      "type": "function"
    },
    {
      "constant": true,
      "inputs": [],
      "name": "paymentToken",
      "outputs": [
        {
          "internalType": "contract IERC20",
          "name": "",
          "type": "address"
        }
      ],
      "payable": false,
      "stateMutability": "view",
      "type": "function"
    },
    {
      "constant": false,
      "inputs": [
        {
          "internalType": "address",
          "name": "account",
          "type": "address"
        }
      ],
      "name": "removeWhitelisted",
      "outputs": [],
      "payable": false,
      "stateMutability": "nonpayable",
      "type": "function"
    },
    {
      "constant": false,
      "inputs": [],
      "name": "renounceWhitelistAdmin",
      "outputs": [],
      "payable": false,
      "stateMutability": "nonpayable",
      "type": "function"
    },
    {
      "constant": false,
      "inputs": [],
      "name": "renounceWhitelisted",
      "outputs": [],
      "payable": false,
      "stateMutability": "nonpayable",
      "type": "function"
    },
    {
      "constant": false,
      "inputs": [
        {
          "internalType": "address",
          "name": "to",
          "type": "address"
        },
        {
          "internalType": "bool",
          "name": "approved",
          "type": "bool"
        }
      ],
      "name": "setApprovalForAll",
      "outputs": [],
      "payable": false,
      "stateMutability": "nonpayable",
      "type": "function"
    },
    {
      "constant": true,
      "inputs": [
        {
          "internalType": "bytes4",
          "name": "interfaceId",
          "type": "bytes4"
        }
      ],
      "name": "supportsInterface",
      "outputs": [
        {
          "internalType": "bool",
          "name": "",
          "type": "bool"
        }
      ],
      "payable": false,
      "stateMutability": "view",
      "type": "function"
    },
    {
      "constant": true,
      "inputs": [
        {
          "internalType": "uint256",
          "name": "index",
          "type": "uint256"
        }
      ],
      "name": "tokenByIndex",
      "outputs": [
        {
          "internalType": "uint256",
          "name": "",
          "type": "uint256"
        }
      ],
      "payable": false,
      "stateMutability": "view",
      "type": "function"
    },
    {
      "constant": true,
      "inputs": [],
      "name": "tokenContract",
      "outputs": [
        {
          "internalType": "contract IERC721Full",
          "name": "",
          "type": "address"
        }
      ],
      "payable": false,
      "stateMutability": "view",
      "type": "function"
    },
    {
      "constant": true,
      "inputs": [
        {
          "internalType": "address",
          "name": "owner",
          "type": "address"
        },
        {
          "internalType": "uint256",
          "name": "index",
          "type": "uint256"
        }
      ],
      "name": "tokenOfOwnerByIndex",
      "outputs": [
        {
          "internalType": "uint256",
          "name": "",
          "type": "uint256"
        }
      ],
      "payable": false,
      "stateMutability": "view",
      "type": "function"
    },
    {
      "constant": true,
      "inputs": [
        {
          "internalType": "uint256",
          "name": "",
          "type": "uint256"
        }
      ],
      "name": "tokensAvailableToLoan",
      "outputs": [
        {
          "internalType": "address",
          "name": "lender",
          "type": "address"
        },
        {
          "internalType": "uint256",
          "name": "tokenId",
          "type": "uint256"
        },
        {
          "internalType": "address",
          "name": "borrower",
          "type": "address"
        },
        {
          "internalType": "bool",
          "name": "isEscrowed",
          "type": "bool"
        },
        {
          "internalType": "bool",
          "name": "isBorrowed",
          "type": "bool"
        },
        {
          "internalType": "uint256",
          "name": "costPerMinute",
          "type": "uint256"
        },
        {
          "internalType": "uint256",
          "name": "maxMinutesAvailableForHire",
          "type": "uint256"
        }
      ],
      "payable": false,
      "stateMutability": "view",
      "type": "function"
    },
    {
      "constant": true,
      "inputs": [],
      "name": "totalSupply",
      "outputs": [
        {
          "internalType": "uint256",
          "name": "",
          "type": "uint256"
        }
      ],
      "payable": false,
      "stateMutability": "view",
      "type": "function"
    },
    {
      "constant": false,
      "inputs": [
        {
          "internalType": "uint256",
          "name": "_tokenId",
          "type": "uint256"
        },
        {
          "internalType": "uint256",
          "name": "_costPerMinute",
          "type": "uint256"
        },
        {
          "internalType": "uint256",
          "name": "_maxMinutesAvailableForHire",
          "type": "uint256"
        }
      ],
      "name": "enableTokenForLending",
      "outputs": [
        {
          "internalType": "bool",
          "name": "",
          "type": "bool"
        }
      ],
      "payable": false,
      "stateMutability": "nonpayable",
      "type": "function"
    },
    {
      "constant": false,
      "inputs": [
        {
          "internalType": "uint256",
          "name": "_tokenId",
          "type": "uint256"
        }
      ],
      "name": "cancelLoan",
      "outputs": [
        {
          "internalType": "bool",
          "name": "",
          "type": "bool"
        }
      ],
      "payable": false,
      "stateMutability": "nonpayable",
      "type": "function"
    },
    {
      "constant": false,
      "inputs": [
        {
          "internalType": "uint256",
          "name": "_tokenId",
          "type": "uint256"
        },
        {
          "internalType": "uint256",
          "name": "_totalCommitment",
          "type": "uint256"
        }
      ],
      "name": "borrowToken",
      "outputs": [
        {
          "internalType": "bool",
          "name": "",
          "type": "bool"
        }
      ],
      "payable": false,
      "stateMutability": "nonpayable",
      "type": "function"
    },
    {
      "constant": false,
      "inputs": [
        {
          "internalType": "uint256",
          "name": "_tokenId",
          "type": "uint256"
        }
      ],
      "name": "returnBorrowedNft",
      "outputs": [
        {
          "internalType": "bool",
          "name": "",
          "type": "bool"
        }
      ],
      "payable": false,
      "stateMutability": "nonpayable",
      "type": "function"
    },
    {
      "constant": false,
      "inputs": [
        {
          "internalType": "uint256",
          "name": "_tokenId",
          "type": "uint256"
        }
      ],
      "name": "pullBackOverdueNft",
      "outputs": [],
      "payable": false,
      "stateMutability": "nonpayable",
      "type": "function"
    },
    {
      "constant": true,
      "inputs": [
        {
          "internalType": "uint256",
          "name": "_tokenId",
          "type": "uint256"
        }
      ],
      "name": "getLoanDetails",
      "outputs": [
        {
          "internalType": "address",
          "name": "lender",
          "type": "address"
        },
        {
          "internalType": "uint256",
          "name": "tokenId",
          "type": "uint256"
        },
        {
          "internalType": "address",
          "name": "borrower",
          "type": "address"
        },
        {
          "internalType": "bool",
          "name": "isEscrowed",
          "type": "bool"
        },
        {
          "internalType": "bool",
          "name": "isBorrowed",
          "type": "bool"
        },
        {
          "internalType": "uint256",
          "name": "costPerMinute",
          "type": "uint256"
        },
        {
          "internalType": "uint256",
          "name": "maxMinutesAvailableForHire",
          "type": "uint256"
        }
      ],
      "payable": false,
      "stateMutability": "view",
      "type": "function"
    },
    {
      "constant": false,
      "inputs": [
        {
          "internalType": "uint256",
          "name": "_tokenId",
          "type": "uint256"
        }
      ],
      "name": "getRemainingTimeLeftForLoan",
      "outputs": [
        {
          "internalType": "uint256",
          "name": "",
          "type": "uint256"
        }
      ],
      "payable": false,
      "stateMutability": "nonpayable",
      "type": "function"
    },
    {
      "constant": false,
      "inputs": [
        {
          "internalType": "uint256",
          "name": "_tokenId",
          "type": "uint256"
        }
      ],
      "name": "getRemainingStreamBalance",
      "outputs": [
        {
          "internalType": "uint256",
          "name": "",
          "type": "uint256"
        }
      ],
      "payable": false,
      "stateMutability": "nonpayable",
      "type": "function"
    },
    {
      "constant": false,
      "inputs": [
        {
          "internalType": "address",
          "name": "operator",
          "type": "address"
        },
        {
          "internalType": "address",
          "name": "from",
          "type": "address"
        },
        {
          "internalType": "uint256",
          "name": "tokenId",
          "type": "uint256"
        },
        {
          "internalType": "bytes",
          "name": "data",
          "type": "bytes"
        }
      ],
      "name": "onERC721Received",
      "outputs": [
        {
          "internalType": "bytes4",
          "name": "",
          "type": "bytes4"
        }
      ],
      "payable": false,
      "stateMutability": "nonpayable",
      "type": "function"
    },
    {
      "constant": true,
      "inputs": [
        {
          "internalType": "uint256",
          "name": "_tokenId",
          "type": "uint256"
        }
      ],
      "name": "isTokenEscrowed",
      "outputs": [
        {
          "internalType": "bool",
          "name": "",
          "type": "bool"
        }
      ],
      "payable": false,
      "stateMutability": "view",
      "type": "function"
    },
    {
      "constant": true,
      "inputs": [
        {
          "internalType": "uint256",
          "name": "_tokenId",
          "type": "uint256"
        },
        {
          "internalType": "address",
          "name": "_owner",
          "type": "address"
        }
      ],
      "name": "isTokenOwnedBy",
      "outputs": [
        {
          "internalType": "bool",
          "name": "",
          "type": "bool"
        }
      ],
      "payable": false,
      "stateMutability": "view",
      "type": "function"
    },
    {
      "constant": true,
      "inputs": [],
      "name": "name",
      "outputs": [
        {
          "internalType": "string",
          "name": "",
          "type": "string"
        }
      ],
      "payable": false,
      "stateMutability": "view",
      "type": "function"
    },
    {
      "constant": true,
      "inputs": [],
      "name": "symbol",
      "outputs": [
        {
          "internalType": "string",
          "name": "",
          "type": "string"
        }
      ],
      "payable": false,
      "stateMutability": "view",
      "type": "function"
    },
    {
      "constant": true,
      "inputs": [
        {
          "internalType": "uint256",
          "name": "_tokenId",
          "type": "uint256"
        }
      ],
      "name": "tokenURI",
      "outputs": [
        {
          "internalType": "string",
          "name": "",
          "type": "string"
        }
      ],
      "payable": false,
      "stateMutability": "view",
      "type": "function"
    },
    {
      "constant": true,
      "inputs": [
        {
          "internalType": "address",
          "name": "owner",
          "type": "address"
        }
      ],
      "name": "balanceOf",
      "outputs": [
        {
          "internalType": "uint256",
          "name": "",
          "type": "uint256"
        }
      ],
      "payable": false,
      "stateMutability": "view",
      "type": "function"
    },
    {
      "constant": true,
      "inputs": [
        {
          "internalType": "uint256",
          "name": "_tokenId",
          "type": "uint256"
        }
      ],
      "name": "ownerOf",
      "outputs": [
        {
          "internalType": "address",
          "name": "",
          "type": "address"
        }
      ],
      "payable": false,
      "stateMutability": "view",
      "type": "function"
    },
    {
      "constant": false,
      "inputs": [
        {
          "internalType": "address",
          "name": "from",
          "type": "address"
        },
        {
          "internalType": "address",
          "name": "to",
          "type": "address"
        },
        {
          "internalType": "uint256",
          "name": "tokenId",
          "type": "uint256"
        },
        {
          "internalType": "bytes",
          "name": "_data",
          "type": "bytes"
        }
      ],
      "name": "safeTransferFrom",
      "outputs": [],
      "payable": false,
      "stateMutability": "nonpayable",
      "type": "function"
    },
    {
      "constant": false,
      "inputs": [
        {
          "internalType": "address",
          "name": "from",
          "type": "address"
        },
        {
          "internalType": "address",
          "name": "to",
          "type": "address"
        },
        {
          "internalType": "uint256",
          "name": "tokenId",
          "type": "uint256"
        }
      ],
      "name": "safeTransferFrom",
      "outputs": [],
      "payable": false,
      "stateMutability": "nonpayable",
      "type": "function"
    },
    {
      "constant": false,
      "inputs": [
        {
          "internalType": "address",
          "name": "from",
          "type": "address"
        },
        {
          "internalType": "address",
          "name": "to",
          "type": "address"
        },
        {
          "internalType": "uint256",
          "name": "tokenId",
          "type": "uint256"
        }
      ],
      "name": "transferFrom",
      "outputs": [],
      "payable": false,
      "stateMutability": "nonpayable",
      "type": "function"
    }
  ],
  "bytecode": "0x60806040523480156200001157600080fd5b5060405162004bc838038062004bc8833981810160405260408110156200003757600080fd5b8101908080519060200190929190805190602001909291905050506040518060400160405280600981526020017f4c6f616e536861726b00000000000000000000000000000000000000000000008152506040518060400160405280600781526020017f4c534bf09fa688000000000000000000000000000000000000000000000000008152508181620000d86301ffc9a760e01b6200021660201b60201c565b620000f06380ac58cd60e01b6200021660201b60201c565b6200010863780e9d6360e01b6200021660201b60201c565b8160099080519060200190620001209291906200065c565b5080600a9080519060200190620001399291906200065c565b5062000152635b5e139f60e01b6200021660201b60201c565b50505050620001766200016a6200031f60201b60201c565b6200032760201b60201c565b6200018c336200038860201b620018e91760201c565b80600f60006101000a81548173ffffffffffffffffffffffffffffffffffffffff021916908373ffffffffffffffffffffffffffffffffffffffff16021790555081601060006101000a81548173ffffffffffffffffffffffffffffffffffffffff021916908373ffffffffffffffffffffffffffffffffffffffff16021790555050506200070b565b63ffffffff60e01b817bffffffffffffffffffffffffffffffffffffffffffffffffffffffff19161415620002b3576040517f08c379a000000000000000000000000000000000000000000000000000000000815260040180806020018281038252601c8152602001807f4552433136353a20696e76616c696420696e746572666163652069640000000081525060200191505060405180910390fd5b6001600080837bffffffffffffffffffffffffffffffffffffffffffffffffffffffff19167bffffffffffffffffffffffffffffffffffffffffffffffffffffffff1916815260200190815260200160002060006101000a81548160ff02191690831515021790555050565b600033905090565b6200034281600d6200041360201b620040421790919060201c565b8073ffffffffffffffffffffffffffffffffffffffff167f22380c05984257a1cb900161c713dd71d39e74820f1aea43bd3f1bdd2096129960405160405180910390a250565b620003a86200039c6200031f60201b60201c565b620004f760201b60201c565b620003ff576040517f08c379a000000000000000000000000000000000000000000000000000000000815260040180806020018281038252604081526020018062004b886040913960400191505060405180910390fd5b62000410816200051b60201b60201c565b50565b6200042582826200057c60201b60201c565b1562000499576040517f08c379a000000000000000000000000000000000000000000000000000000000815260040180806020018281038252601f8152602001807f526f6c65733a206163636f756e7420616c72656164792068617320726f6c650081525060200191505060405180910390fd5b60018260000160008373ffffffffffffffffffffffffffffffffffffffff1673ffffffffffffffffffffffffffffffffffffffff16815260200190815260200160002060006101000a81548160ff0219169083151502179055505050565b60006200051482600d6200057c60201b62003eb01790919060201c565b9050919050565b6200053681600e6200041360201b620040421790919060201c565b8073ffffffffffffffffffffffffffffffffffffffff167fee1504a83b6d4a361f4c1dc78ab59bfa30d6a3b6612c403e86bb01ef2984295f60405160405180910390a250565b60008073ffffffffffffffffffffffffffffffffffffffff168273ffffffffffffffffffffffffffffffffffffffff16141562000605576040517f08c379a000000000000000000000000000000000000000000000000000000000815260040180806020018281038252602281526020018062004b666022913960400191505060405180910390fd5b8260000160008373ffffffffffffffffffffffffffffffffffffffff1673ffffffffffffffffffffffffffffffffffffffff16815260200190815260200160002060009054906101000a900460ff16905092915050565b828054600181600116156101000203166002900490600052602060002090601f016020900481019282601f106200069f57805160ff1916838001178555620006d0565b82800160010185558215620006d0579182015b82811115620006cf578251825591602001919060010190620006b2565b5b509050620006df9190620006e3565b5090565b6200070891905b8082111562000704576000816000905550600101620006ea565b5090565b90565b61444b806200071b6000396000f3fe608060405234801561001057600080fd5b506004361061023d5760003560e01c806362bac8901161013b578063a22cb465116100b8578063bdbfa3de1161007c578063bdbfa3de14611004578063bdd3e43e1461104a578063c87b56dd1461108c578063d6cd947314611133578063e985e9c51461113d5761023d565b8063a22cb46514610d41578063b1c674ed14610d91578063b88d4fde14610e5d578063ba9ac11514610f62578063bb5f747b14610fa85761023d565b8063727f86aa116100ff578063727f86aa14610bb05780637362d9c814610bf65780637aef116414610c3a578063807b1eba14610c7c57806395d89b4114610cbe5761023d565b806362bac8901461096d5780636352211e1461099b57806366877b8d14610a095780636c0360eb14610ad557806370a0823114610b585761023d565b80631e613085116101c95780633af32abf1161018d5780633af32abf1461080d57806342842e0e146108695780634c5a628c146108d75780634f6ccce7146108e157806355a373d6146109235761023d565b80631e6130851461065557806323b872dd146106af578063291d95491461071d5780632f745c59146107615780633013ce29146107c35761023d565b8063095ea7b311610210578063095ea7b3146103e857806310154bad14610436578063150b7a021461047a57806318160ddd146105d15780631a6814a3146105ef5761023d565b806301ffc9a71461024257806306fdde03146102a7578063081812fc1461032a57806308ec592714610398575b600080fd5b61028d6004803603602081101561025857600080fd5b8101908080357bffffffffffffffffffffffffffffffffffffffffffffffffffffffff191690602001909291905050506111b9565b604051808215151515815260200191505060405180910390f35b6102af611220565b6040518080602001828103825283818151815260200191508051906020019080838360005b838110156102ef5780820151818401526020810190506102d4565b50505050905090810190601f16801561031c5780820380516001836020036101000a031916815260200191505b509250505060405180910390f35b6103566004803603602081101561034057600080fd5b8101908080359060200190929190505050611388565b604051808273ffffffffffffffffffffffffffffffffffffffff1673ffffffffffffffffffffffffffffffffffffffff16815260200191505060405180910390f35b6103ce600480360360408110156103ae57600080fd5b810190808035906020019092919080359060200190929190505050611423565b604051808215151515815260200191505060405180910390f35b610434600480360360408110156103fe57600080fd5b81019080803573ffffffffffffffffffffffffffffffffffffffff16906020019092919080359060200190929190505050611702565b005b6104786004803603602081101561044c57600080fd5b81019080803573ffffffffffffffffffffffffffffffffffffffff1690602001909291905050506118e9565b005b61057d6004803603608081101561049057600080fd5b81019080803573ffffffffffffffffffffffffffffffffffffffff169060200190929190803573ffffffffffffffffffffffffffffffffffffffff16906020019092919080359060200190929190803590602001906401000000008111156104f757600080fd5b82018360208201111561050957600080fd5b8035906020019184600183028401116401000000008311171561052b57600080fd5b91908080601f016020809104026020016040519081016040528093929190818152602001838380828437600081840152601f19601f82011690508083019250505050505050919291929050505061195a565b60405180827bffffffffffffffffffffffffffffffffffffffffffffffffffffffff19167bffffffffffffffffffffffffffffffffffffffffffffffffffffffff1916815260200191505060405180910390f35b6105d961196e565b6040518082815260200191505060405180910390f35b61063b6004803603604081101561060557600080fd5b8101908080359060200190929190803573ffffffffffffffffffffffffffffffffffffffff16906020019092919050505061197b565b604051808215151515815260200191505060405180910390f35b6106956004803603606081101561066b57600080fd5b81019080803590602001909291908035906020019092919080359060200190929190505050611a61565b604051808215151515815260200191505060405180910390f35b61071b600480360360608110156106c557600080fd5b81019080803573ffffffffffffffffffffffffffffffffffffffff169060200190929190803573ffffffffffffffffffffffffffffffffffffffff16906020019092919080359060200190929190505050611fed565b005b61075f6004803603602081101561073357600080fd5b81019080803573ffffffffffffffffffffffffffffffffffffffff1690602001909291905050506122c6565b005b6107ad6004803603604081101561077757600080fd5b81019080803573ffffffffffffffffffffffffffffffffffffffff16906020019092919080359060200190929190505050612337565b6040518082815260200191505060405180910390f35b6107cb6123f6565b604051808273ffffffffffffffffffffffffffffffffffffffff1673ffffffffffffffffffffffffffffffffffffffff16815260200191505060405180910390f35b61084f6004803603602081101561082357600080fd5b81019080803573ffffffffffffffffffffffffffffffffffffffff16906020019092919050505061241c565b604051808215151515815260200191505060405180910390f35b6108d56004803603606081101561087f57600080fd5b81019080803573ffffffffffffffffffffffffffffffffffffffff169060200190929190803573ffffffffffffffffffffffffffffffffffffffff16906020019092919080359060200190929190505050612439565b005b6108df612459565b005b61090d600480360360208110156108f757600080fd5b810190808035906020019092919050505061246b565b6040518082815260200191505060405180910390f35b61092b6124eb565b604051808273ffffffffffffffffffffffffffffffffffffffff1673ffffffffffffffffffffffffffffffffffffffff16815260200191505060405180910390f35b6109996004803603602081101561098357600080fd5b8101908080359060200190929190505050612511565b005b6109c7600480360360208110156109b157600080fd5b81019080803590602001909291905050506125a1565b604051808273ffffffffffffffffffffffffffffffffffffffff1673ffffffffffffffffffffffffffffffffffffffff16815260200191505060405180910390f35b610a3560048036036020811015610a1f57600080fd5b8101908080359060200190929190505050612795565b604051808873ffffffffffffffffffffffffffffffffffffffff1673ffffffffffffffffffffffffffffffffffffffff1681526020018781526020018673ffffffffffffffffffffffffffffffffffffffff1673ffffffffffffffffffffffffffffffffffffffff168152602001851515151581526020018415151515815260200183815260200182815260200197505050505050505060405180910390f35b610add612905565b6040518080602001828103825283818151815260200191508051906020019080838360005b83811015610b1d578082015181840152602081019050610b02565b50505050905090810190601f168015610b4a5780820380516001836020036101000a031916815260200191505b509250505060405180910390f35b610b9a60048036036020811015610b6e57600080fd5b81019080803573ffffffffffffffffffffffffffffffffffffffff1690602001909291905050506129a7565b6040518082815260200191505060405180910390f35b610bdc60048036036020811015610bc657600080fd5b8101908080359060200190929190505050612a8a565b604051808215151515815260200191505060405180910390f35b610c3860048036036020811015610c0c57600080fd5b81019080803573ffffffffffffffffffffffffffffffffffffffff169060200190929190505050612a9d565b005b610c6660048036036020811015610c5057600080fd5b8101908080359060200190929190505050612b0e565b6040518082815260200191505060405180910390f35b610ca860048036036020811015610c9257600080fd5b8101908080359060200190929190505050612b26565b6040518082815260200191505060405180910390f35b610cc6612b30565b6040518080602001828103825283818151815260200191508051906020019080838360005b83811015610d06578082015181840152602081019050610ceb565b50505050905090810190601f168015610d335780820380516001836020036101000a031916815260200191505b509250505060405180910390f35b610d8f60048036036040811015610d5757600080fd5b81019080803573ffffffffffffffffffffffffffffffffffffffff169060200190929190803515159060200190929190505050612c98565b005b610dbd60048036036020811015610da757600080fd5b8101908080359060200190929190505050612e50565b604051808873ffffffffffffffffffffffffffffffffffffffff1673ffffffffffffffffffffffffffffffffffffffff1681526020018781526020018673ffffffffffffffffffffffffffffffffffffffff1673ffffffffffffffffffffffffffffffffffffffff168152602001851515151581526020018415151515815260200183815260200182815260200197505050505050505060405180910390f35b610f6060048036036080811015610e7357600080fd5b81019080803573ffffffffffffffffffffffffffffffffffffffff169060200190929190803573ffffffffffffffffffffffffffffffffffffffff1690602001909291908035906020019092919080359060200190640100000000811115610eda57600080fd5b820183602082011115610eec57600080fd5b80359060200191846001830284011164010000000083111715610f0e57600080fd5b91908080601f016020809104026020016040519081016040528093929190818152602001838380828437600081840152601f19601f820116905080830192505050505050509192919290505050612eec565b005b610f8e60048036036020811015610f7857600080fd5b8101908080359060200190929190505050613233565b604051808215151515815260200191505060405180910390f35b610fea60048036036020811015610fbe57600080fd5b81019080803573ffffffffffffffffffffffffffffffffffffffff169060200190929190505050613510565b604051808215151515815260200191505060405180910390f35b6110306004803603602081101561101a57600080fd5b810190808035906020019092919050505061352d565b604051808215151515815260200191505060405180910390f35b6110766004803603602081101561106057600080fd5b81019080803590602001909291905050506139eb565b6040518082815260200191505060405180910390f35b6110b8600480360360208110156110a257600080fd5b81019080803590602001909291905050506139f5565b6040518080602001828103825283818151815260200191508051906020019080838360005b838110156110f85780820151818401526020810190506110dd565b50505050905090810190601f1680156111255780820380516001836020036101000a031916815260200191505b509250505060405180910390f35b61113b613cdc565b005b61119f6004803603604081101561115357600080fd5b81019080803573ffffffffffffffffffffffffffffffffffffffff169060200190929190803573ffffffffffffffffffffffffffffffffffffffff169060200190929190505050613cee565b604051808215151515815260200191505060405180910390f35b6000806000837bffffffffffffffffffffffffffffffffffffffffffffffffffffffff19167bffffffffffffffffffffffffffffffffffffffffffffffffffffffff1916815260200190815260200160002060009054906101000a900460ff169050919050565b6060601060009054906101000a900473ffffffffffffffffffffffffffffffffffffffff1673ffffffffffffffffffffffffffffffffffffffff166306fdde036040518163ffffffff1660e01b815260040160006040518083038186803b15801561128a57600080fd5b505afa15801561129e573d6000803e3d6000fd5b505050506040513d6000823e3d601f19601f8201168201806040525060208110156112c857600080fd5b81019080805160405193929190846401000000008211156112e857600080fd5b838201915060208201858111156112fe57600080fd5b825186600182028301116401000000008211171561131b57600080fd5b8083526020830192505050908051906020019080838360005b8381101561134f578082015181840152602081019050611334565b50505050905090810190601f16801561137c5780820380516001836020036101000a031916815260200191505b50604052505050905090565b600061139382613d82565b6113e8576040517f08c379a000000000000000000000000000000000000000000000000000000000815260040180806020018281038252602c815260200180614312602c913960400191505060405180910390fd5b6002600083815260200190815260200160002060009054906101000a900473ffffffffffffffffffffffffffffffffffffffff169050919050565b600080601160008581526020019081526020016000206001015414156114b1576040517f08c379a00000000000000000000000000000000000000000000000000000000081526004018080602001828103825260128152602001807f546f6b656e206e6f7420666f722073616c65000000000000000000000000000081525060200191505060405180910390fd5b60006011600085815260200190815260200160002090508060020160149054906101000a900460ff1661154c576040517f08c379a00000000000000000000000000000000000000000000000000000000081526004018080602001828103825260128152602001807f546f6b656e206e6f7420657363726f776564000000000000000000000000000081525060200191505060405180910390fd5b8060020160159054906101000a900460ff16156115d1576040517f08c379a00000000000000000000000000000000000000000000000000000000081526004018080602001828103825260168152602001807f546f6b656e20616c726561647920626f72726f7765640000000000000000000081525060200191505060405180910390fd5b600073ffffffffffffffffffffffffffffffffffffffff168160020160009054906101000a900473ffffffffffffffffffffffffffffffffffffffff1673ffffffffffffffffffffffffffffffffffffffff1614611697576040517f08c379a000000000000000000000000000000000000000000000000000000000815260040180806020018281038252601c8152602001807f546f6b656e20616c726561647920676f74206120626f72726f7765720000000081525060200191505060405180910390fd5b338160020160006101000a81548173ffffffffffffffffffffffffffffffffffffffff021916908373ffffffffffffffffffffffffffffffffffffffff16021790555060018160020160156101000a81548160ff021916908315150217905550600191505092915050565b600061170d826125a1565b90508073ffffffffffffffffffffffffffffffffffffffff168373ffffffffffffffffffffffffffffffffffffffff161415611794576040517f08c379a00000000000000000000000000000000000000000000000000000000081526004018080602001828103825260218152602001806143a06021913960400191505060405180910390fd5b8073ffffffffffffffffffffffffffffffffffffffff166117b3613df4565b73ffffffffffffffffffffffffffffffffffffffff1614806117e257506117e1816117dc613df4565b613cee565b5b611837576040517f08c379a00000000000000000000000000000000000000000000000000000000081526004018080602001828103825260388152602001806142b96038913960400191505060405180910390fd5b826002600084815260200190815260200160002060006101000a81548173ffffffffffffffffffffffffffffffffffffffff021916908373ffffffffffffffffffffffffffffffffffffffff160217905550818373ffffffffffffffffffffffffffffffffffffffff168273ffffffffffffffffffffffffffffffffffffffff167f8c5be1e5ebec7d5bd14f71427d1e84f3dd0314c0f7b2291e5b200ac8c7c3b92560405160405180910390a4505050565b6118f96118f4613df4565b613510565b61194e576040517f08c379a00000000000000000000000000000000000000000000000000000000081526004018080602001828103825260408152602001806143606040913960400191505060405180910390fd5b61195781613dfc565b50565b600063150b7a0260e01b9050949350505050565b6000600780549050905090565b60008173ffffffffffffffffffffffffffffffffffffffff16601060009054906101000a900473ffffffffffffffffffffffffffffffffffffffff1673ffffffffffffffffffffffffffffffffffffffff16636352211e856040518263ffffffff1660e01b81526004018082815260200191505060206040518083038186803b158015611a0757600080fd5b505afa158015611a1b573d6000803e3d6000fd5b505050506040513d6020811015611a3157600080fd5b810190808051906020019092919050505073ffffffffffffffffffffffffffffffffffffffff1614905092915050565b6000808311611ad8576040517f08c379a000000000000000000000000000000000000000000000000000000000815260040180806020018281038252601e8152602001807f43616e6e6f74206c6f616e2074686520746f6b656e20666f722066726565000081525060200191505060405180910390fd5b60008211611b31576040517f08c379a000000000000000000000000000000000000000000000000000000000815260040180806020018281038252602a8152602001806143ed602a913960400191505060405180910390fd5b6000601160008681526020019081526020016000206001015414611bbd576040517f08c379a000000000000000000000000000000000000000000000000000000000815260040180806020018281038252601d8152602001807f546f6b656e20616c726561647920706c6163656420666f722073616c6500000081525060200191505060405180910390fd5b3373ffffffffffffffffffffffffffffffffffffffff16601060009054906101000a900473ffffffffffffffffffffffffffffffffffffffff1673ffffffffffffffffffffffffffffffffffffffff16636352211e866040518263ffffffff1660e01b81526004018082815260200191505060206040518083038186803b158015611c4757600080fd5b505afa158015611c5b573d6000803e3d6000fd5b505050506040513d6020811015611c7157600080fd5b810190808051906020019092919050505073ffffffffffffffffffffffffffffffffffffffff1614611d0b576040517f08c379a000000000000000000000000000000000000000000000000000000000815260040180806020018281038252601b8152602001807f43616c6c657220646f6573206e6f74206f776e20746865204e4654000000000081525060200191505060405180910390fd5b6040518060e001604052803373ffffffffffffffffffffffffffffffffffffffff1681526020018581526020013073ffffffffffffffffffffffffffffffffffffffff168152602001600115158152602001600015158152602001848152602001838152506011600086815260200190815260200160002060008201518160000160006101000a81548173ffffffffffffffffffffffffffffffffffffffff021916908373ffffffffffffffffffffffffffffffffffffffff1602179055506020820151816001015560408201518160020160006101000a81548173ffffffffffffffffffffffffffffffffffffffff021916908373ffffffffffffffffffffffffffffffffffffffff16021790555060608201518160020160146101000a81548160ff02191690831515021790555060808201518160020160156101000a81548160ff02191690831515021790555060a0820151816003015560c08201518160040155905050601060009054906101000a900473ffffffffffffffffffffffffffffffffffffffff1673ffffffffffffffffffffffffffffffffffffffff166342842e0e3330876040518463ffffffff1660e01b8152600401808473ffffffffffffffffffffffffffffffffffffffff1673ffffffffffffffffffffffffffffffffffffffff1681526020018373ffffffffffffffffffffffffffffffffffffffff1673ffffffffffffffffffffffffffffffffffffffff1681526020018281526020019350505050600060405180830381600087803b158015611f4f57600080fd5b505af1158015611f63573d6000803e3d6000fd5b50505050611f7084612a8a565b611fe2576040517f08c379a000000000000000000000000000000000000000000000000000000000815260040180806020018281038252601c8152602001807f546f6b656e206e6f7420636f72726563746c7920657363726f7765640000000081525060200191505060405180910390fd5b600190509392505050565b611ff56141da565b601160008381526020019081526020016000206040518060e00160405290816000820160009054906101000a900473ffffffffffffffffffffffffffffffffffffffff1673ffffffffffffffffffffffffffffffffffffffff1673ffffffffffffffffffffffffffffffffffffffff168152602001600182015481526020016002820160009054906101000a900473ffffffffffffffffffffffffffffffffffffffff1673ffffffffffffffffffffffffffffffffffffffff1673ffffffffffffffffffffffffffffffffffffffff1681526020016002820160149054906101000a900460ff161515151581526020016002820160159054906101000a900460ff16151515158152602001600382015481526020016004820154815250509050806080015115612170576040517f08c379a00000000000000000000000000000000000000000000000000000000081526004018080602001828103825260238152602001806142736023913960400191505060405180910390fd5b8060600151156121cb576040517f08c379a00000000000000000000000000000000000000000000000000000000081526004018080602001828103825260238152602001806142966023913960400191505060405180910390fd5b601060009054906101000a900473ffffffffffffffffffffffffffffffffffffffff1673ffffffffffffffffffffffffffffffffffffffff166323b872dd8585856040518463ffffffff1660e01b8152600401808473ffffffffffffffffffffffffffffffffffffffff1673ffffffffffffffffffffffffffffffffffffffff1681526020018373ffffffffffffffffffffffffffffffffffffffff1673ffffffffffffffffffffffffffffffffffffffff1681526020018281526020019350505050600060405180830381600087803b1580156122a857600080fd5b505af11580156122bc573d6000803e3d6000fd5b5050505050505050565b6122d66122d1613df4565b613510565b61232b576040517f08c379a00000000000000000000000000000000000000000000000000000000081526004018080602001828103825260408152602001806143606040913960400191505060405180910390fd5b61233481613e56565b50565b6000612342836129a7565b8210612399576040517f08c379a000000000000000000000000000000000000000000000000000000000815260040180806020018281038252602b815260200180614248602b913960400191505060405180910390fd5b600560008473ffffffffffffffffffffffffffffffffffffffff1673ffffffffffffffffffffffffffffffffffffffff16815260200190815260200160002082815481106123e357fe5b9060005260206000200154905092915050565b600f60009054906101000a900473ffffffffffffffffffffffffffffffffffffffff1681565b600061243282600e613eb090919063ffffffff16565b9050919050565b61245483838360405180602001604052806000815250612eec565b505050565b612469612464613df4565b613f8e565b565b600061247561196e565b82106124cc576040517f08c379a000000000000000000000000000000000000000000000000000000000815260040180806020018281038252602c8152602001806143c1602c913960400191505060405180910390fd5b600782815481106124d957fe5b90600052602060002001549050919050565b601060009054906101000a900473ffffffffffffffffffffffffffffffffffffffff1681565b60006011600083815260200190815260200160002060010154141561259e576040517f08c379a00000000000000000000000000000000000000000000000000000000081526004018080602001828103825260128152602001807f546f6b656e206e6f7420666f722073616c65000000000000000000000000000081525060200191505060405180910390fd5b50565b60006125ab6141da565b601160008481526020019081526020016000206040518060e00160405290816000820160009054906101000a900473ffffffffffffffffffffffffffffffffffffffff1673ffffffffffffffffffffffffffffffffffffffff1673ffffffffffffffffffffffffffffffffffffffff168152602001600182015481526020016002820160009054906101000a900473ffffffffffffffffffffffffffffffffffffffff1673ffffffffffffffffffffffffffffffffffffffff1673ffffffffffffffffffffffffffffffffffffffff1681526020016002820160149054906101000a900460ff161515151581526020016002820160159054906101000a900460ff1615151515815260200160038201548152602001600482015481525050905080608001511561278b57601060009054906101000a900473ffffffffffffffffffffffffffffffffffffffff1673ffffffffffffffffffffffffffffffffffffffff16636352211e846040518263ffffffff1660e01b81526004018082815260200191505060206040518083038186803b15801561274857600080fd5b505afa15801561275c573d6000803e3d6000fd5b505050506040513d602081101561277257600080fd5b8101908080519060200190929190505050915050612790565b309150505b919050565b60008060008060008060006127a86141da565b601160008a81526020019081526020016000206040518060e00160405290816000820160009054906101000a900473ffffffffffffffffffffffffffffffffffffffff1673ffffffffffffffffffffffffffffffffffffffff1673ffffffffffffffffffffffffffffffffffffffff168152602001600182015481526020016002820160009054906101000a900473ffffffffffffffffffffffffffffffffffffffff1673ffffffffffffffffffffffffffffffffffffffff1673ffffffffffffffffffffffffffffffffffffffff1681526020016002820160149054906101000a900460ff161515151581526020016002820160159054906101000a900460ff16151515158152602001600382015481526020016004820154815250509050806000015181602001518260400151836060015184608001518560a001518660c00151975097509750975097509750975050919395979092949650565b6060600b8054600181600116156101000203166002900480601f01602080910402602001604051908101604052809291908181526020018280546001816001161561010002031660029004801561299d5780601f106129725761010080835404028352916020019161299d565b820191906000526020600020905b81548152906001019060200180831161298057829003601f168201915b5050505050905090565b6000601060009054906101000a900473ffffffffffffffffffffffffffffffffffffffff1673ffffffffffffffffffffffffffffffffffffffff166370a08231836040518263ffffffff1660e01b8152600401808273ffffffffffffffffffffffffffffffffffffffff1673ffffffffffffffffffffffffffffffffffffffff16815260200191505060206040518083038186803b158015612a4857600080fd5b505afa158015612a5c573d6000803e3d6000fd5b505050506040513d6020811015612a7257600080fd5b81019080805190602001909291905050509050919050565b6000612a96823061197b565b9050919050565b612aad612aa8613df4565b613510565b612b02576040517f08c379a00000000000000000000000000000000000000000000000000000000081526004018080602001828103825260408152602001806143606040913960400191505060405180910390fd5b612b0b81613fe8565b50565b60126020528060005260406000206000915090505481565b6000809050919050565b6060601060009054906101000a900473ffffffffffffffffffffffffffffffffffffffff1673ffffffffffffffffffffffffffffffffffffffff166395d89b416040518163ffffffff1660e01b815260040160006040518083038186803b158015612b9a57600080fd5b505afa158015612bae573d6000803e3d6000fd5b505050506040513d6000823e3d601f19601f820116820180604052506020811015612bd857600080fd5b8101908080516040519392919084640100000000821115612bf857600080fd5b83820191506020820185811115612c0e57600080fd5b8251866001820283011164010000000082111715612c2b57600080fd5b8083526020830192505050908051906020019080838360005b83811015612c5f578082015181840152602081019050612c44565b50505050905090810190601f168015612c8c5780820380516001836020036101000a031916815260200191505b50604052505050905090565b612ca0613df4565b73ffffffffffffffffffffffffffffffffffffffff168273ffffffffffffffffffffffffffffffffffffffff161415612d41576040517f08c379a00000000000000000000000000000000000000000000000000000000081526004018080602001828103825260198152602001807f4552433732313a20617070726f766520746f2063616c6c65720000000000000081525060200191505060405180910390fd5b8060046000612d4e613df4565b73ffffffffffffffffffffffffffffffffffffffff1673ffffffffffffffffffffffffffffffffffffffff16815260200190815260200160002060008473ffffffffffffffffffffffffffffffffffffffff1673ffffffffffffffffffffffffffffffffffffffff16815260200190815260200160002060006101000a81548160ff0219169083151502179055508173ffffffffffffffffffffffffffffffffffffffff16612dfb613df4565b73ffffffffffffffffffffffffffffffffffffffff167f17307eab39ab6107e8899845ad3d59bd9653f200f220920489ca2b5937696c3183604051808215151515815260200191505060405180910390a35050565b60116020528060005260406000206000915090508060000160009054906101000a900473ffffffffffffffffffffffffffffffffffffffff16908060010154908060020160009054906101000a900473ffffffffffffffffffffffffffffffffffffffff16908060020160149054906101000a900460ff16908060020160159054906101000a900460ff16908060030154908060040154905087565b612ef46141da565b601160008481526020019081526020016000206040518060e00160405290816000820160009054906101000a900473ffffffffffffffffffffffffffffffffffffffff1673ffffffffffffffffffffffffffffffffffffffff1673ffffffffffffffffffffffffffffffffffffffff168152602001600182015481526020016002820160009054906101000a900473ffffffffffffffffffffffffffffffffffffffff1673ffffffffffffffffffffffffffffffffffffffff1673ffffffffffffffffffffffffffffffffffffffff1681526020016002820160149054906101000a900460ff161515151581526020016002820160159054906101000a900460ff1615151515815260200160038201548152602001600482015481525050905080608001511561306f576040517f08c379a00000000000000000000000000000000000000000000000000000000081526004018080602001828103825260238152602001806142736023913960400191505060405180910390fd5b8060600151156130ca576040517f08c379a00000000000000000000000000000000000000000000000000000000081526004018080602001828103825260238152602001806142966023913960400191505060405180910390fd5b601060009054906101000a900473ffffffffffffffffffffffffffffffffffffffff1673ffffffffffffffffffffffffffffffffffffffff1663b88d4fde868686866040518563ffffffff1660e01b8152600401808573ffffffffffffffffffffffffffffffffffffffff1673ffffffffffffffffffffffffffffffffffffffff1681526020018473ffffffffffffffffffffffffffffffffffffffff1673ffffffffffffffffffffffffffffffffffffffff16815260200183815260200180602001828103825283818151815260200191508051906020019080838360005b838110156131c55780820151818401526020810190506131aa565b50505050905090810190601f1680156131f25780820380516001836020036101000a031916815260200191505b5095505050505050600060405180830381600087803b15801561321457600080fd5b505af1158015613228573d6000803e3d6000fd5b505050505050505050565b600080601160008481526020019081526020016000206001015414156132c1576040517f08c379a00000000000000000000000000000000000000000000000000000000081526004018080602001828103825260128152602001807f546f6b656e206e6f7420666f722073616c65000000000000000000000000000081525060200191505060405180910390fd5b60006011600084815260200190815260200160002090508060020160149054906101000a900460ff1661335c576040517f08c379a00000000000000000000000000000000000000000000000000000000081526004018080602001828103825260128152602001807f546f6b656e206e6f7420657363726f776564000000000000000000000000000081525060200191505060405180910390fd5b8060020160159054906101000a900460ff166133e0576040517f08c379a00000000000000000000000000000000000000000000000000000000081526004018080602001828103825260128152602001807f546f6b656e206e6f7420626f72726f776564000000000000000000000000000081525060200191505060405180910390fd5b3373ffffffffffffffffffffffffffffffffffffffff168160020160009054906101000a900473ffffffffffffffffffffffffffffffffffffffff1673ffffffffffffffffffffffffffffffffffffffff16146134a5576040517f08c379a000000000000000000000000000000000000000000000000000000000815260040180806020018281038252601c8152602001807f546f6b656e206e6f7420626f72726f7765642062792063616c6c65720000000081525060200191505060405180910390fd5b60008160020160006101000a81548173ffffffffffffffffffffffffffffffffffffffff021916908373ffffffffffffffffffffffffffffffffffffffff16021790555060008160020160156101000a81548160ff0219169083151502179055506001915050919050565b600061352682600d613eb090919063ffffffff16565b9050919050565b600080601160008481526020019081526020016000206001015414156135bb576040517f08c379a00000000000000000000000000000000000000000000000000000000081526004018080602001828103825260128152602001807f546f6b656e206e6f7420666f722073616c65000000000000000000000000000081525060200191505060405180910390fd5b60006011600084815260200190815260200160002090508060020160149054906101000a900460ff16613656576040517f08c379a00000000000000000000000000000000000000000000000000000000081526004018080602001828103825260128152602001807f546f6b656e206e6f7420657363726f776564000000000000000000000000000081525060200191505060405180910390fd5b8060020160159054906101000a900460ff16156136db576040517f08c379a00000000000000000000000000000000000000000000000000000000081526004018080602001828103825260168152602001807f546f6b656e20616c726561647920626f72726f7765640000000000000000000081525060200191505060405180910390fd5b600073ffffffffffffffffffffffffffffffffffffffff168160020160009054906101000a900473ffffffffffffffffffffffffffffffffffffffff1673ffffffffffffffffffffffffffffffffffffffff1614156137a2576040517f08c379a000000000000000000000000000000000000000000000000000000000815260040180806020018281038252601c8152602001807f546f6b656e20616c726561647920676f74206120626f72726f7765720000000081525060200191505060405180910390fd5b60008160000160009054906101000a900473ffffffffffffffffffffffffffffffffffffffff16905060116000858152602001908152602001600020600080820160006101000a81549073ffffffffffffffffffffffffffffffffffffffff021916905560018201600090556002820160006101000a81549073ffffffffffffffffffffffffffffffffffffffff02191690556002820160146101000a81549060ff02191690556002820160156101000a81549060ff0219169055600382016000905560048201600090555050601060009054906101000a900473ffffffffffffffffffffffffffffffffffffffff1673ffffffffffffffffffffffffffffffffffffffff166342842e0e3083876040518463ffffffff1660e01b8152600401808473ffffffffffffffffffffffffffffffffffffffff1673ffffffffffffffffffffffffffffffffffffffff1681526020018373ffffffffffffffffffffffffffffffffffffffff1673ffffffffffffffffffffffffffffffffffffffff1681526020018281526020019350505050600060405180830381600087803b15801561394c57600080fd5b505af1158015613960573d6000803e3d6000fd5b5050505061396e848261197b565b6139e0576040517f08c379a000000000000000000000000000000000000000000000000000000000815260040180806020018281038252601f8152602001807f546f6b656e206e6f742072657475726e6564207375636365737366756c6c790081525060200191505060405180910390fd5b600192505050919050565b6000809050919050565b60606139ff6141da565b601160008481526020019081526020016000206040518060e00160405290816000820160009054906101000a900473ffffffffffffffffffffffffffffffffffffffff1673ffffffffffffffffffffffffffffffffffffffff1673ffffffffffffffffffffffffffffffffffffffff168152602001600182015481526020016002820160009054906101000a900473ffffffffffffffffffffffffffffffffffffffff1673ffffffffffffffffffffffffffffffffffffffff1673ffffffffffffffffffffffffffffffffffffffff1681526020016002820160149054906101000a900460ff161515151581526020016002820160159054906101000a900460ff16151515158152602001600382015481526020016004820154815250509050806080015115613c9d57601060009054906101000a900473ffffffffffffffffffffffffffffffffffffffff1673ffffffffffffffffffffffffffffffffffffffff1663c87b56dd846040518263ffffffff1660e01b81526004018082815260200191505060006040518083038186803b158015613b9c57600080fd5b505afa158015613bb0573d6000803e3d6000fd5b505050506040513d6000823e3d601f19601f820116820180604052506020811015613bda57600080fd5b8101908080516040519392919084640100000000821115613bfa57600080fd5b83820191506020820185811115613c1057600080fd5b8251866001820283011164010000000082111715613c2d57600080fd5b8083526020830192505050908051906020019080838360005b83811015613c61578082015181840152602081019050613c46565b50505050905090810190601f168015613c8e5780820380516001836020036101000a031916815260200191505b50604052505050915050613cd7565b6040518060400160405280601c81526020017f544f444f2072657475726e2073746174696320495046532068617368000000008152509150505b919050565b613cec613ce7613df4565b613e56565b565b6000600460008473ffffffffffffffffffffffffffffffffffffffff1673ffffffffffffffffffffffffffffffffffffffff16815260200190815260200160002060008373ffffffffffffffffffffffffffffffffffffffff1673ffffffffffffffffffffffffffffffffffffffff16815260200190815260200160002060009054906101000a900460ff16905092915050565b6000806001600084815260200190815260200160002060009054906101000a900473ffffffffffffffffffffffffffffffffffffffff169050600073ffffffffffffffffffffffffffffffffffffffff168173ffffffffffffffffffffffffffffffffffffffff161415915050919050565b600033905090565b613e1081600e61404290919063ffffffff16565b8073ffffffffffffffffffffffffffffffffffffffff167fee1504a83b6d4a361f4c1dc78ab59bfa30d6a3b6612c403e86bb01ef2984295f60405160405180910390a250565b613e6a81600e61411d90919063ffffffff16565b8073ffffffffffffffffffffffffffffffffffffffff167f270d9b30cf5b0793bbfd54c9d5b94aeb49462b8148399000265144a8722da6b660405160405180910390a250565b60008073ffffffffffffffffffffffffffffffffffffffff168273ffffffffffffffffffffffffffffffffffffffff161415613f37576040517f08c379a000000000000000000000000000000000000000000000000000000000815260040180806020018281038252602281526020018061433e6022913960400191505060405180910390fd5b8260000160008373ffffffffffffffffffffffffffffffffffffffff1673ffffffffffffffffffffffffffffffffffffffff16815260200190815260200160002060009054906101000a900460ff16905092915050565b613fa281600d61411d90919063ffffffff16565b8073ffffffffffffffffffffffffffffffffffffffff167f0a8eb35e5ca14b3d6f28e4abf2f128dbab231a58b56e89beb5d636115001e16560405160405180910390a250565b613ffc81600d61404290919063ffffffff16565b8073ffffffffffffffffffffffffffffffffffffffff167f22380c05984257a1cb900161c713dd71d39e74820f1aea43bd3f1bdd2096129960405160405180910390a250565b61404c8282613eb0565b156140bf576040517f08c379a000000000000000000000000000000000000000000000000000000000815260040180806020018281038252601f8152602001807f526f6c65733a206163636f756e7420616c72656164792068617320726f6c650081525060200191505060405180910390fd5b60018260000160008373ffffffffffffffffffffffffffffffffffffffff1673ffffffffffffffffffffffffffffffffffffffff16815260200190815260200160002060006101000a81548160ff0219169083151502179055505050565b6141278282613eb0565b61417c576040517f08c379a00000000000000000000000000000000000000000000000000000000081526004018080602001828103825260218152602001806142f16021913960400191505060405180910390fd5b60008260000160008373ffffffffffffffffffffffffffffffffffffffff1673ffffffffffffffffffffffffffffffffffffffff16815260200190815260200160002060006101000a81548160ff0219169083151502179055505050565b6040518060e00160405280600073ffffffffffffffffffffffffffffffffffffffff16815260200160008152602001600073ffffffffffffffffffffffffffffffffffffffff1681526020016000151581526020016000151581526020016000815260200160008152509056fe455243373231456e756d657261626c653a206f776e657220696e646578206f7574206f6620626f756e647343616e6e6f74207472616e73666572206120626f72726f77656420636f6e747261637443616e6e6f74207472616e73666572206120657363726f77656420636f6e74726163744552433732313a20617070726f76652063616c6c6572206973206e6f74206f776e6572206e6f7220617070726f76656420666f7220616c6c526f6c65733a206163636f756e7420646f6573206e6f74206861766520726f6c654552433732313a20617070726f76656420717565727920666f72206e6f6e6578697374656e7420746f6b656e526f6c65733a206163636f756e7420697320746865207a65726f206164647265737357686974656c69737441646d696e526f6c653a2063616c6c657220646f6573206e6f742068617665207468652057686974656c69737441646d696e20726f6c654552433732313a20617070726f76616c20746f2063757272656e74206f776e6572455243373231456e756d657261626c653a20676c6f62616c20696e646578206f7574206f6620626f756e647343616e6e6f74206c656e64206120746f6b656e20666f72206c657373207468616e2031206d696e757465a265627a7a723158207c8bed2f74c42676ba789b769ee9283416e4b7b3398ce56fe25465e63615e36464736f6c634300050c0032526f6c65733a206163636f756e7420697320746865207a65726f206164647265737357686974656c69737441646d696e526f6c653a2063616c6c657220646f6573206e6f742068617665207468652057686974656c69737441646d696e20726f6c65",
  "source": "pragma solidity ^0.5.0;\n\nimport \"@openzeppelin/contracts/access/roles/WhitelistedRole.sol\";\nimport \"@openzeppelin/contracts/token/ERC20/IERC20.sol\";\nimport \"@openzeppelin/contracts/token/ERC721/IERC721Full.sol\";\nimport \"@openzeppelin/contracts/token/ERC721/ERC721Full.sol\";\n\ncontract LoanShark is ERC721Full, WhitelistedRole {\n\n    struct Loan {\n        // Config\n        address lender;\n        uint256 tokenId;\n        address borrower;\n\n        // state flags\n        bool isEscrowed;\n        bool isBorrowed;\n\n        // payment terms\n        uint256 costPerMinute;\n        uint256 maxMinutesAvailableForHire;\n    }\n\n    // What to stream the payment in\n    IERC20 public paymentToken;\n\n    // The original NFT contract\n    IERC721Full public tokenContract;\n\n    mapping(uint256 => Loan) public tokensAvailableToLoan;\n\n    // So we can enumerate them\n    mapping(uint256 => uint256) public indexToTokenId;\n\n    constructor(\n        IERC721Full _tokenContract, // How to make this generic to not accept a token at construction\n        IERC20 _paymentToken // DAI ... or even zkDAI ?\n    ) ERC721Full(\"LoanShark\", \"LSK\") public {\n        super.addWhitelisted(msg.sender);\n\n        paymentToken = _paymentToken;\n        tokenContract = _tokenContract;\n    }\n\n    // TODO create a proxy method to allow call on original NFT by bytecode/method args - dynamic lookup?\n\n    function enableTokenForLending(uint256 _tokenId, uint256 _costPerMinute, uint256 _maxMinutesAvailableForHire) public returns (bool) {\n\n        // Validate input\n        require(_costPerMinute > 0, \"Cannot loan the token for free\");\n        require(_maxMinutesAvailableForHire > 0, \"Cannot lend a token for less than 1 minute\");\n        require(tokensAvailableToLoan[_tokenId].tokenId == 0, \"Token already placed for sale\");\n\n        // Validate caller owns it\n        require(tokenContract.ownerOf(_tokenId) == msg.sender, \"Caller does not own the NFT\");\n\n        // Setup Loan\n        tokensAvailableToLoan[_tokenId] = Loan({\n            tokenId : _tokenId,\n            lender : msg.sender,\n            borrower : address(this),\n\n            isEscrowed : true,\n            isBorrowed : false,\n\n            costPerMinute : _costPerMinute,\n            maxMinutesAvailableForHire : _maxMinutesAvailableForHire\n            });\n\n        // Escrow NFT into the Loan Shark Contract\n        tokenContract.safeTransferFrom(msg.sender, address(this), _tokenId);\n        require(isTokenEscrowed(_tokenId), \"Token not correctly escrowed\");\n\n        return true;\n    }\n\n    /*\n     * Close any outstanding un-borrowed NFT loans\n     * Send the NFT back to the original lender\n     */\n    function cancelLoan(uint256 _tokenId) public returns (bool) {\n        require(tokensAvailableToLoan[_tokenId].tokenId != 0, \"Token not for sale\");\n\n        Loan storage loan = tokensAvailableToLoan[_tokenId];\n        require(loan.isEscrowed, \"Token not escrowed\");\n        require(!loan.isBorrowed, \"Token already borrowed\");\n        require(loan.borrower != address(0), \"Token already got a borrower\");\n\n        address originalLender = loan.lender;\n\n        delete tokensAvailableToLoan[_tokenId];\n\n        // Send the loan back to the original lender\n        tokenContract.safeTransferFrom(address(this), originalLender, _tokenId);\n        require(isTokenOwnedBy(_tokenId, originalLender), \"Token not returned successfully\");\n\n        return true;\n    }\n\n    function borrowToken(uint256 _tokenId, uint256 _totalCommitment) public returns (bool) {\n        require(tokensAvailableToLoan[_tokenId].tokenId != 0, \"Token not for sale\");\n\n        Loan storage loan = tokensAvailableToLoan[_tokenId];\n        require(loan.isEscrowed, \"Token not escrowed\");\n        require(!loan.isBorrowed, \"Token already borrowed\");\n        require(loan.borrower == address(0), \"Token already got a borrower\");\n\n        // sudo transfer this NFT to the new owner\n        loan.borrower = msg.sender;\n        loan.isBorrowed = true;\n\n        // TODO start the stream .... ?\n\n        return true;\n    }\n\n    function returnBorrowedNft(uint256 _tokenId) public returns (bool) {\n        require(tokensAvailableToLoan[_tokenId].tokenId != 0, \"Token not for sale\");\n\n        Loan storage loan = tokensAvailableToLoan[_tokenId];\n        require(loan.isEscrowed, \"Token not escrowed\");\n        require(loan.isBorrowed, \"Token not borrowed\");\n        require(loan.borrower == msg.sender, \"Token not borrowed by caller\");\n\n        // sudo transfer this NFT back to the escrow\n        loan.borrower = address(0);\n        loan.isBorrowed = false;\n\n        // TODO close stream .... ?\n\n        return true;\n    }\n\n    function pullBackOverdueNft(uint256 _tokenId) public {\n        require(tokensAvailableToLoan[_tokenId].tokenId != 0, \"Token not for sale\");\n\n        // only allow after loan has expired\n        // take back ownership from the borrower\n        // reset loan state\n        // penalise the borrower in some form?\n    }\n\n    /////////////////////\n    // Query utilities //\n    /////////////////////\n\n    function getLoanDetails(uint _tokenId) public view returns (\n        address lender,\n        uint256 tokenId,\n        address borrower,\n        bool isEscrowed,\n        bool isBorrowed,\n        uint256 costPerMinute,\n        uint256 maxMinutesAvailableForHire\n    ) {\n        Loan memory loan = tokensAvailableToLoan[_tokenId];\n        return (\n            loan.lender,\n            loan.tokenId,\n            loan.borrower,\n            loan.isEscrowed,\n            loan.isBorrowed,\n            loan.costPerMinute,\n            loan.maxMinutesAvailableForHire\n        );\n    }\n\n    function getRemainingTimeLeftForLoan(uint _tokenId) public returns (uint256) {\n        // TODO\n        return 0;\n    }\n\n    function getRemainingStreamBalance(uint _tokenId) public returns (uint256) {\n        // TODO\n        return 0;\n    }\n\n    ////////////////////\n    // Internal utils //\n    ////////////////////\n\n    // taking ownership of the NFT via callback confirmation\n    function onERC721Received(address operator, address from, uint256 tokenId, bytes memory data) public returns (bytes4) {\n        return this.onERC721Received.selector;\n    }\n\n    function isTokenEscrowed(uint256 _tokenId) public view returns (bool) {\n        return isTokenOwnedBy(_tokenId, address(this));\n    }\n\n    function isTokenOwnedBy(uint256 _tokenId, address _owner) public view returns (bool) {\n        return IERC721Full(tokenContract).ownerOf(_tokenId) == _owner;\n    }\n\n    ////////////////////////////////////////\n    // Overridden IERC721Metadata methods //\n    ////////////////////////////////////////\n\n    // TODO proxy through to escrowed NFT\n\n    function name() external view returns (string memory) {\n        return tokenContract.name();\n    }\n\n    function symbol() external view returns (string memory) {\n        return tokenContract.symbol();\n    }\n\n    function tokenURI(uint256 _tokenId) external view returns (string memory) {\n        Loan memory loan = tokensAvailableToLoan[_tokenId];\n        if (loan.isBorrowed) {\n            return tokenContract.tokenURI(_tokenId);\n        }\n        return \"TODO return static IPFS hash\";\n    }\n\n    ////////////////////////////////\n    // Overridden IERC721 methods //\n    ////////////////////////////////\n\n    // TODO proxy through to escrowed NFT\n    // TODO special case methods which need to be thought about\n    // TODO check expired stream as well for all proxy methods?\n\n    function balanceOf(address owner) public view returns (uint256) {\n        // TODO how to handle this proxy method\n        return tokenContract.balanceOf(owner);\n    }\n\n    function ownerOf(uint256 _tokenId) public view returns (address) {\n        Loan memory loan = tokensAvailableToLoan[_tokenId];\n        if (loan.isBorrowed) {\n            return tokenContract.ownerOf(_tokenId);\n        }\n        return address(this);\n    }\n\n    function safeTransferFrom(address from, address to, uint256 tokenId, bytes memory _data) public {\n        Loan memory loan = tokensAvailableToLoan[tokenId];\n        require(!loan.isBorrowed, \"Cannot transfer a borrowed contract\");\n        require(!loan.isEscrowed, \"Cannot transfer a escrowed contract\");\n\n        return tokenContract.safeTransferFrom(from, to, tokenId, _data);\n    }\n\n    function transferFrom(address from, address to, uint256 tokenId) public {\n        Loan memory loan = tokensAvailableToLoan[tokenId];\n        require(!loan.isBorrowed, \"Cannot transfer a borrowed contract\");\n        require(!loan.isEscrowed, \"Cannot transfer a escrowed contract\");\n\n        return tokenContract.transferFrom(from, to, tokenId);\n    }\n\n}\n",
  "sourcePath": "/Users/jamesmorgan/Dropbox/workspace-blockrocket/blockrocket/loan-shark/contracts/LoanShark.sol",
  "compiler": {
    "name": "solc",
    "version": "0.5.12+commit.7709ece9.Emscripten.clang"
  },
  "schemaVersion": "3.0.19",
  "updatedAt": "2020-02-28T23:05:56.765Z",
  "devdoc": {
    "methods": {
      "approve(address,uint256)": {
        "details": "Approves another address to transfer the given token ID The zero address indicates there is no approved address. There can only be one approved address per token at a given time. Can only be called by the token owner or an approved operator.",
        "params": {
          "to": "address to be approved for the given token ID",
          "tokenId": "uint256 ID of the token to be approved"
        }
      },
      "baseURI()": {
        "details": "Returns the base URI set via {_setBaseURI}. This will be automatically added as a preffix in {tokenURI} to each token's URI, when they are non-empty.    * _Available since v2.5.0._"
      },
      "getApproved(uint256)": {
        "details": "Gets the approved address for a token ID, or zero if no address set Reverts if the token ID does not exist.",
        "params": {
          "tokenId": "uint256 ID of the token to query the approval of"
        },
        "return": "address currently approved for the given token ID"
      },
      "isApprovedForAll(address,address)": {
        "details": "Tells whether an operator is approved by a given owner.",
        "params": {
          "operator": "operator address which you want to query the approval of",
          "owner": "owner address which you want to query the approval of"
        },
        "return": "bool whether the given operator is approved by the given owner"
      },
      "safeTransferFrom(address,address,uint256)": {
        "details": "Safely transfers the ownership of a given token ID to another address If the target address is a contract, it must implement {IERC721Receiver-onERC721Received}, which is called upon a safe transfer, and return the magic value `bytes4(keccak256(\"onERC721Received(address,address,uint256,bytes)\"))`; otherwise, the transfer is reverted. Requires the msg.sender to be the owner, approved, or operator",
        "params": {
          "from": "current owner of the token",
          "to": "address to receive the ownership of the given token ID",
          "tokenId": "uint256 ID of the token to be transferred"
        }
      },
      "setApprovalForAll(address,bool)": {
        "details": "Sets or unsets the approval of a given operator An operator is allowed to transfer all tokens of the sender on their behalf.",
        "params": {
          "approved": "representing the status of the approval to be set",
          "to": "operator address to set the approval"
        }
      },
      "supportsInterface(bytes4)": {
        "details": "See {IERC165-supportsInterface}.     * Time complexity O(1), guaranteed to always use less than 30 000 gas."
      },
      "tokenByIndex(uint256)": {
        "details": "Gets the token ID at a given index of all the tokens in this contract Reverts if the index is greater or equal to the total number of tokens.",
        "params": {
          "index": "uint256 representing the index to be accessed of the tokens list"
        },
        "return": "uint256 token ID at the given index of the tokens list"
      },
      "tokenOfOwnerByIndex(address,uint256)": {
        "details": "Gets the token ID at a given index of the tokens list of the requested owner.",
        "params": {
          "index": "uint256 representing the index to be accessed of the requested tokens list",
          "owner": "address owning the tokens list to be accessed"
        },
        "return": "uint256 token ID at the given index of the tokens list owned by the requested address"
      },
      "totalSupply()": {
        "details": "Gets the total amount of tokens stored by the contract.",
        "return": "uint256 representing the total amount of tokens"
      }
    }
  },
  "userdoc": {
    "methods": {
      "balanceOf(address)": {
        "notice": "/////////////////////////////"
      },
      "getLoanDetails(uint256)": {
        "notice": "//////////////////"
      },
      "name()": {
        "notice": "/////////////////////////////////////"
      },
      "onERC721Received(address,address,uint256,bytes)": {
        "notice": "/////////////////"
      }
    }
  }
}