{
  "contractName": "LoanShark",
  "abi": [
    {
      "inputs": [
        {
          "internalType": "contract IERC721Full",
          "name": "_tokenContract",
          "type": "address"
        },
        {
          "internalType": "contract IERC20",
          "name": "_paymentToken",
          "type": "address"
        },
        {
          "internalType": "contract IERC1620",
          "name": "_stream",
          "type": "address"
        }
      ],
      "payable": false,
      "stateMutability": "nonpayable",
      "type": "constructor"
    },
    {
      "anonymous": false,
      "inputs": [
        {
          "indexed": true,
          "internalType": "address",
          "name": "owner",
          "type": "address"
        },
        {
          "indexed": true,
          "internalType": "address",
          "name": "approved",
          "type": "address"
        },
        {
          "indexed": true,
          "internalType": "uint256",
          "name": "tokenId",
          "type": "uint256"
        }
      ],
      "name": "Approval",
      "type": "event"
    },
    {
      "anonymous": false,
      "inputs": [
        {
          "indexed": true,
          "internalType": "address",
          "name": "owner",
          "type": "address"
        },
        {
          "indexed": true,
          "internalType": "address",
          "name": "operator",
          "type": "address"
        },
        {
          "indexed": false,
          "internalType": "bool",
          "name": "approved",
          "type": "bool"
        }
      ],
      "name": "ApprovalForAll",
      "type": "event"
    },
    {
      "anonymous": false,
      "inputs": [
        {
          "indexed": true,
          "internalType": "address",
          "name": "from",
          "type": "address"
        },
        {
          "indexed": true,
          "internalType": "address",
          "name": "to",
          "type": "address"
        },
        {
          "indexed": true,
          "internalType": "uint256",
          "name": "tokenId",
          "type": "uint256"
        }
      ],
      "name": "Transfer",
      "type": "event"
    },
    {
      "anonymous": false,
      "inputs": [
        {
          "indexed": true,
          "internalType": "address",
          "name": "account",
          "type": "address"
        }
      ],
      "name": "WhitelistAdminAdded",
      "type": "event"
    },
    {
      "anonymous": false,
      "inputs": [
        {
          "indexed": true,
          "internalType": "address",
          "name": "account",
          "type": "address"
        }
      ],
      "name": "WhitelistAdminRemoved",
      "type": "event"
    },
    {
      "anonymous": false,
      "inputs": [
        {
          "indexed": true,
          "internalType": "address",
          "name": "account",
          "type": "address"
        }
      ],
      "name": "WhitelistedAdded",
      "type": "event"
    },
    {
      "anonymous": false,
      "inputs": [
        {
          "indexed": true,
          "internalType": "address",
          "name": "account",
          "type": "address"
        }
      ],
      "name": "WhitelistedRemoved",
      "type": "event"
    },
    {
      "constant": false,
      "inputs": [
        {
          "internalType": "address",
          "name": "account",
          "type": "address"
        }
      ],
      "name": "addWhitelistAdmin",
      "outputs": [],
      "payable": false,
      "stateMutability": "nonpayable",
      "type": "function"
    },
    {
      "constant": false,
      "inputs": [
        {
          "internalType": "address",
          "name": "account",
          "type": "address"
        }
      ],
      "name": "addWhitelisted",
      "outputs": [],
      "payable": false,
      "stateMutability": "nonpayable",
      "type": "function"
    },
    {
      "constant": false,
      "inputs": [
        {
          "internalType": "address",
          "name": "to",
          "type": "address"
        },
        {
          "internalType": "uint256",
          "name": "tokenId",
          "type": "uint256"
        }
      ],
      "name": "approve",
      "outputs": [],
      "payable": false,
      "stateMutability": "nonpayable",
      "type": "function"
    },
    {
      "constant": true,
      "inputs": [],
      "name": "baseURI",
      "outputs": [
        {
          "internalType": "string",
          "name": "",
          "type": "string"
        }
      ],
      "payable": false,
      "stateMutability": "view",
      "type": "function"
    },
    {
      "constant": true,
      "inputs": [
        {
          "internalType": "uint256",
          "name": "tokenId",
          "type": "uint256"
        }
      ],
      "name": "getApproved",
      "outputs": [
        {
          "internalType": "address",
          "name": "",
          "type": "address"
        }
      ],
      "payable": false,
      "stateMutability": "view",
      "type": "function"
    },
    {
      "constant": true,
      "inputs": [
        {
          "internalType": "uint256",
          "name": "",
          "type": "uint256"
        }
      ],
      "name": "indexToTokenId",
      "outputs": [
        {
          "internalType": "uint256",
          "name": "",
          "type": "uint256"
        }
      ],
      "payable": false,
      "stateMutability": "view",
      "type": "function"
    },
    {
      "constant": true,
      "inputs": [
        {
          "internalType": "address",
          "name": "owner",
          "type": "address"
        },
        {
          "internalType": "address",
          "name": "operator",
          "type": "address"
        }
      ],
      "name": "isApprovedForAll",
      "outputs": [
        {
          "internalType": "bool",
          "name": "",
          "type": "bool"
        }
      ],
      "payable": false,
      "stateMutability": "view",
      "type": "function"
    },
    {
      "constant": true,
      "inputs": [
        {
          "internalType": "address",
          "name": "account",
          "type": "address"
        }
      ],
      "name": "isWhitelistAdmin",
      "outputs": [
        {
          "internalType": "bool",
          "name": "",
          "type": "bool"
        }
      ],
      "payable": false,
      "stateMutability": "view",
      "type": "function"
    },
    {
      "constant": true,
      "inputs": [
        {
          "internalType": "address",
          "name": "account",
          "type": "address"
        }
      ],
      "name": "isWhitelisted",
      "outputs": [
        {
          "internalType": "bool",
          "name": "",
          "type": "bool"
        }
      ],
      "payable": false,
      "stateMutability": "view",
      "type": "function"
    },
    {
      "constant": true,
      "inputs": [],
      "name": "paymentToken",
      "outputs": [
        {
          "internalType": "contract IERC20",
          "name": "",
          "type": "address"
        }
      ],
      "payable": false,
      "stateMutability": "view",
      "type": "function"
    },
    {
      "constant": false,
      "inputs": [
        {
          "internalType": "address",
          "name": "account",
          "type": "address"
        }
      ],
      "name": "removeWhitelisted",
      "outputs": [],
      "payable": false,
      "stateMutability": "nonpayable",
      "type": "function"
    },
    {
      "constant": false,
      "inputs": [],
      "name": "renounceWhitelistAdmin",
      "outputs": [],
      "payable": false,
      "stateMutability": "nonpayable",
      "type": "function"
    },
    {
      "constant": false,
      "inputs": [],
      "name": "renounceWhitelisted",
      "outputs": [],
      "payable": false,
      "stateMutability": "nonpayable",
      "type": "function"
    },
    {
      "constant": false,
      "inputs": [
        {
          "internalType": "address",
          "name": "to",
          "type": "address"
        },
        {
          "internalType": "bool",
          "name": "approved",
          "type": "bool"
        }
      ],
      "name": "setApprovalForAll",
      "outputs": [],
      "payable": false,
      "stateMutability": "nonpayable",
      "type": "function"
    },
    {
      "constant": true,
      "inputs": [
        {
          "internalType": "bytes4",
          "name": "interfaceId",
          "type": "bytes4"
        }
      ],
      "name": "supportsInterface",
      "outputs": [
        {
          "internalType": "bool",
          "name": "",
          "type": "bool"
        }
      ],
      "payable": false,
      "stateMutability": "view",
      "type": "function"
    },
    {
      "constant": true,
      "inputs": [
        {
          "internalType": "uint256",
          "name": "index",
          "type": "uint256"
        }
      ],
      "name": "tokenByIndex",
      "outputs": [
        {
          "internalType": "uint256",
          "name": "",
          "type": "uint256"
        }
      ],
      "payable": false,
      "stateMutability": "view",
      "type": "function"
    },
    {
      "constant": true,
      "inputs": [],
      "name": "tokenContract",
      "outputs": [
        {
          "internalType": "contract IERC721Full",
          "name": "",
          "type": "address"
        }
      ],
      "payable": false,
      "stateMutability": "view",
      "type": "function"
    },
    {
      "constant": true,
      "inputs": [
        {
          "internalType": "address",
          "name": "owner",
          "type": "address"
        },
        {
          "internalType": "uint256",
          "name": "index",
          "type": "uint256"
        }
      ],
      "name": "tokenOfOwnerByIndex",
      "outputs": [
        {
          "internalType": "uint256",
          "name": "",
          "type": "uint256"
        }
      ],
      "payable": false,
      "stateMutability": "view",
      "type": "function"
    },
    {
      "constant": true,
      "inputs": [
        {
          "internalType": "uint256",
          "name": "",
          "type": "uint256"
        }
      ],
      "name": "tokensAvailableToLoan",
      "outputs": [
        {
          "internalType": "address",
          "name": "lender",
          "type": "address"
        },
        {
          "internalType": "uint256",
          "name": "tokenId",
          "type": "uint256"
        },
        {
          "internalType": "address",
          "name": "borrower",
          "type": "address"
        },
        {
          "internalType": "bool",
          "name": "isEscrowed",
          "type": "bool"
        },
        {
          "internalType": "bool",
          "name": "isBorrowed",
          "type": "bool"
        },
        {
          "internalType": "uint256",
          "name": "start",
          "type": "uint256"
        },
        {
          "internalType": "uint256",
          "name": "end",
          "type": "uint256"
        },
        {
          "internalType": "uint256",
          "name": "depositInWei",
          "type": "uint256"
        }
      ],
      "payable": false,
      "stateMutability": "view",
      "type": "function"
    },
    {
      "constant": true,
      "inputs": [],
      "name": "totalSupply",
      "outputs": [
        {
          "internalType": "uint256",
          "name": "",
          "type": "uint256"
        }
      ],
      "payable": false,
      "stateMutability": "view",
      "type": "function"
    },
    {
      "constant": true,
      "inputs": [],
      "name": "totalTokens",
      "outputs": [
        {
          "internalType": "uint256",
          "name": "",
          "type": "uint256"
        }
      ],
      "payable": false,
      "stateMutability": "view",
      "type": "function"
    },
    {
      "constant": false,
      "inputs": [
        {
          "internalType": "uint256",
          "name": "_tokenId",
          "type": "uint256"
        },
        {
          "internalType": "uint256",
          "name": "_start",
          "type": "uint256"
        },
        {
          "internalType": "uint256",
          "name": "_end",
          "type": "uint256"
        },
        {
          "internalType": "uint256",
          "name": "_depositInWei",
          "type": "uint256"
        }
      ],
      "name": "enableTokenForLending",
      "outputs": [
        {
          "internalType": "bool",
          "name": "",
          "type": "bool"
        }
      ],
      "payable": false,
      "stateMutability": "nonpayable",
      "type": "function"
    },
    {
      "constant": false,
      "inputs": [
        {
          "internalType": "uint256",
          "name": "_tokenId",
          "type": "uint256"
        }
      ],
      "name": "cancelLoan",
      "outputs": [
        {
          "internalType": "bool",
          "name": "",
          "type": "bool"
        }
      ],
      "payable": false,
      "stateMutability": "nonpayable",
      "type": "function"
    },
    {
      "constant": false,
      "inputs": [
        {
          "internalType": "uint256",
          "name": "_tokenId",
          "type": "uint256"
        }
      ],
      "name": "borrowToken",
      "outputs": [
        {
          "internalType": "bool",
          "name": "",
          "type": "bool"
        }
      ],
      "payable": false,
      "stateMutability": "nonpayable",
      "type": "function"
    },
    {
      "constant": false,
      "inputs": [
        {
          "internalType": "uint256",
          "name": "_tokenId",
          "type": "uint256"
        }
      ],
      "name": "returnBorrowedNft",
      "outputs": [
        {
          "internalType": "bool",
          "name": "",
          "type": "bool"
        }
      ],
      "payable": false,
      "stateMutability": "nonpayable",
      "type": "function"
    },
    {
      "constant": false,
      "inputs": [
        {
          "internalType": "uint256",
          "name": "_tokenId",
          "type": "uint256"
        }
      ],
      "name": "clawBackNft",
      "outputs": [],
      "payable": false,
      "stateMutability": "nonpayable",
      "type": "function"
    },
    {
      "constant": true,
      "inputs": [
        {
          "internalType": "uint256",
          "name": "_tokenId",
          "type": "uint256"
        }
      ],
      "name": "getLoanDetails",
      "outputs": [
        {
          "internalType": "address",
          "name": "lender",
          "type": "address"
        },
        {
          "internalType": "address",
          "name": "borrower",
          "type": "address"
        },
        {
          "internalType": "bool",
          "name": "isEscrowed",
          "type": "bool"
        },
        {
          "internalType": "bool",
          "name": "isBorrowed",
          "type": "bool"
        },
        {
          "internalType": "uint256",
          "name": "start",
          "type": "uint256"
        },
        {
          "internalType": "uint256",
          "name": "end",
          "type": "uint256"
        }
      ],
      "payable": false,
      "stateMutability": "view",
      "type": "function"
    },
    {
      "constant": false,
      "inputs": [
        {
          "internalType": "uint256",
          "name": "_tokenId",
          "type": "uint256"
        }
      ],
      "name": "getRemainingTimeLeftForLoan",
      "outputs": [
        {
          "internalType": "uint256",
          "name": "",
          "type": "uint256"
        }
      ],
      "payable": false,
      "stateMutability": "nonpayable",
      "type": "function"
    },
    {
      "constant": false,
      "inputs": [
        {
          "internalType": "uint256",
          "name": "_tokenId",
          "type": "uint256"
        }
      ],
      "name": "getRemainingStreamBalance",
      "outputs": [
        {
          "internalType": "uint256",
          "name": "",
          "type": "uint256"
        }
      ],
      "payable": false,
      "stateMutability": "nonpayable",
      "type": "function"
    },
    {
      "constant": true,
      "inputs": [
        {
          "internalType": "uint256",
          "name": "_index",
          "type": "uint256"
        }
      ],
      "name": "getTokenIdForIndex",
      "outputs": [
        {
          "internalType": "uint256",
          "name": "",
          "type": "uint256"
        }
      ],
      "payable": false,
      "stateMutability": "view",
      "type": "function"
    },
    {
      "constant": false,
      "inputs": [
        {
          "internalType": "address",
          "name": "operator",
          "type": "address"
        },
        {
          "internalType": "address",
          "name": "from",
          "type": "address"
        },
        {
          "internalType": "uint256",
          "name": "tokenId",
          "type": "uint256"
        },
        {
          "internalType": "bytes",
          "name": "data",
          "type": "bytes"
        }
      ],
      "name": "onERC721Received",
      "outputs": [
        {
          "internalType": "bytes4",
          "name": "",
          "type": "bytes4"
        }
      ],
      "payable": false,
      "stateMutability": "nonpayable",
      "type": "function"
    },
    {
      "constant": true,
      "inputs": [
        {
          "internalType": "uint256",
          "name": "_tokenId",
          "type": "uint256"
        }
      ],
      "name": "isTokenEscrowed",
      "outputs": [
        {
          "internalType": "bool",
          "name": "",
          "type": "bool"
        }
      ],
      "payable": false,
      "stateMutability": "view",
      "type": "function"
    },
    {
      "constant": true,
      "inputs": [
        {
          "internalType": "uint256",
          "name": "_tokenId",
          "type": "uint256"
        },
        {
          "internalType": "address",
          "name": "_owner",
          "type": "address"
        }
      ],
      "name": "isTokenOwnedBy",
      "outputs": [
        {
          "internalType": "bool",
          "name": "",
          "type": "bool"
        }
      ],
      "payable": false,
      "stateMutability": "view",
      "type": "function"
    },
    {
      "constant": true,
      "inputs": [],
      "name": "name",
      "outputs": [
        {
          "internalType": "string",
          "name": "",
          "type": "string"
        }
      ],
      "payable": false,
      "stateMutability": "view",
      "type": "function"
    },
    {
      "constant": true,
      "inputs": [],
      "name": "symbol",
      "outputs": [
        {
          "internalType": "string",
          "name": "",
          "type": "string"
        }
      ],
      "payable": false,
      "stateMutability": "view",
      "type": "function"
    },
    {
      "constant": true,
      "inputs": [
        {
          "internalType": "uint256",
          "name": "_tokenId",
          "type": "uint256"
        }
      ],
      "name": "tokenURI",
      "outputs": [
        {
          "internalType": "string",
          "name": "",
          "type": "string"
        }
      ],
      "payable": false,
      "stateMutability": "view",
      "type": "function"
    },
    {
      "constant": true,
      "inputs": [
        {
          "internalType": "uint256",
          "name": "_tokenId",
          "type": "uint256"
        }
      ],
      "name": "getPrincipleTokenUri",
      "outputs": [
        {
          "internalType": "string",
          "name": "",
          "type": "string"
        }
      ],
      "payable": false,
      "stateMutability": "view",
      "type": "function"
    },
    {
      "constant": true,
      "inputs": [
        {
          "internalType": "address",
          "name": "owner",
          "type": "address"
        }
      ],
      "name": "balanceOf",
      "outputs": [
        {
          "internalType": "uint256",
          "name": "",
          "type": "uint256"
        }
      ],
      "payable": false,
      "stateMutability": "view",
      "type": "function"
    },
    {
      "constant": true,
      "inputs": [
        {
          "internalType": "uint256",
          "name": "_tokenId",
          "type": "uint256"
        }
      ],
      "name": "ownerOf",
      "outputs": [
        {
          "internalType": "address",
          "name": "",
          "type": "address"
        }
      ],
      "payable": false,
      "stateMutability": "view",
      "type": "function"
    },
    {
      "constant": false,
      "inputs": [
        {
          "internalType": "address",
          "name": "from",
          "type": "address"
        },
        {
          "internalType": "address",
          "name": "to",
          "type": "address"
        },
        {
          "internalType": "uint256",
          "name": "tokenId",
          "type": "uint256"
        }
      ],
      "name": "safeTransferFrom",
      "outputs": [],
      "payable": false,
      "stateMutability": "nonpayable",
      "type": "function"
    },
    {
      "constant": false,
      "inputs": [
        {
          "internalType": "address",
          "name": "from",
          "type": "address"
        },
        {
          "internalType": "address",
          "name": "to",
          "type": "address"
        },
        {
          "internalType": "uint256",
          "name": "tokenId",
          "type": "uint256"
        },
        {
          "internalType": "bytes",
          "name": "_data",
          "type": "bytes"
        }
      ],
      "name": "safeTransferFrom",
      "outputs": [],
      "payable": false,
      "stateMutability": "nonpayable",
      "type": "function"
    },
    {
      "constant": false,
      "inputs": [
        {
          "internalType": "address",
          "name": "from",
          "type": "address"
        },
        {
          "internalType": "address",
          "name": "to",
          "type": "address"
        },
        {
          "internalType": "uint256",
          "name": "tokenId",
          "type": "uint256"
        }
      ],
      "name": "transferFrom",
      "outputs": [],
      "payable": false,
      "stateMutability": "nonpayable",
      "type": "function"
    }
  ],
  "bytecode": "0x608060405260006013553480156200001657600080fd5b506040516200312538038062003125833981810160405260608110156200003c57600080fd5b5080516020808301516040938401518451808601865260098152684c6f616e536861726b60b81b8185015285518087019096526007865266098a697e13f4d160cb1b938601939093529293909291908181620000a86301ffc9a760e01b6001600160e01b036200022316565b620000c36380ac58cd60e01b6001600160e01b036200022316565b620000de63780e9d6360e01b6001600160e01b036200022316565b8151620000f3906009906020850190620004e4565b5080516200010990600a906020840190620004e4565b5062000125635b5e139f60e01b6001600160e01b036200022316565b505050506200014c6200013d620002a860201b60201c565b6001600160e01b03620002ad16565b6200016233620002ff60201b62000f941760201c565b600f80546001600160a01b038085166001600160a01b031992831617928390556010805487831690841617905560118054858316931692909217918290556040805163095ea7b360e01b8152928216600484015260001960248401525192169163095ea7b3916044808201926020929091908290030181600087803b158015620001eb57600080fd5b505af115801562000200573d6000803e3d6000fd5b505050506040513d60208110156200021757600080fd5b50620005869350505050565b6001600160e01b0319808216141562000283576040805162461bcd60e51b815260206004820152601c60248201527f4552433136353a20696e76616c696420696e7465726661636520696400000000604482015290519081900360640190fd5b6001600160e01b0319166000908152602081905260409020805460ff19166001179055565b335b90565b620002c881600d6200037960201b620028101790919060201c565b6040516001600160a01b038216907f22380c05984257a1cb900161c713dd71d39e74820f1aea43bd3f1bdd2096129990600090a250565b62000325620003166001600160e01b03620002a816565b6001600160e01b036200040616565b620003625760405162461bcd60e51b8152600401808060200182810382526040815260200180620030e56040913960400191505060405180910390fd5b62000376816001600160e01b036200042916565b50565b6200038e82826001600160e01b036200047b16565b15620003e1576040805162461bcd60e51b815260206004820152601f60248201527f526f6c65733a206163636f756e7420616c72656164792068617320726f6c6500604482015290519081900360640190fd5b6001600160a01b0316600090815260209190915260409020805460ff19166001179055565b60006200042382600d6200047b60201b620027191790919060201c565b92915050565b6200044481600e6200037960201b620028101790919060201c565b6040516001600160a01b038216907fee1504a83b6d4a361f4c1dc78ab59bfa30d6a3b6612c403e86bb01ef2984295f90600090a250565b60006001600160a01b038216620004c45760405162461bcd60e51b8152600401808060200182810382526022815260200180620030c36022913960400191505060405180910390fd5b506001600160a01b03166000908152602091909152604090205460ff1690565b828054600181600116156101000203166002900490600052602060002090601f016020900481019282601f106200052757805160ff191683800117855562000557565b8280016001018555821562000557579182015b82811115620005575782518255916020019190600101906200053a565b506200056592915062000569565b5090565b620002aa91905b8082111562000565576000815560010162000570565b612b2d80620005966000396000f3fe608060405234801561001057600080fd5b506004361061025e5760003560e01c806366877b8d11610146578063a22cb465116100c3578063bdbfa3de11610087578063bdbfa3de14610944578063bdd3e43e14610760578063c87b56dd14610961578063c95357d91461097e578063d6cd94731461099b578063e985e9c5146109a35761025e565b8063a22cb465146107a2578063b1c674ed146107d0578063b88d4fde1461083d578063ba9ac11514610901578063bb5f747b1461091e5761025e565b80637aef11641161010a5780637aef11641461073b5780637e1c0c0914610758578063807b1eba146107605780638510f4681461077d57806395d89b411461079a5761025e565b806366877b8d1461066e5780636c0360eb146106ca57806370a08231146106d2578063727f86aa146106f85780637362d9c8146107155761025e565b806323b872dd116101df578063409f2622116101a3578063409f2622146105bf57806342842e0e146105ee5780634c5a628c146106245780634f6ccce71461062c57806355a373d6146106495780636352211e146106515761025e565b806323b872dd14610509578063291d95491461053f5780632f745c59146105655780633013ce29146105915780633af32abf146105995761025e565b806310154bad1161022657806310154bad1461039f578063150b7a02146103c557806318160ddd146104a65780631a6814a3146104c05780632100d9b6146104ec5761025e565b806301ffc9a71461026357806306fdde031461029e578063081812fc1461031b578063092f577614610354578063095ea7b314610371575b600080fd5b61028a6004803603602081101561027957600080fd5b50356001600160e01b0319166109d1565b604080519115158252519081900360200190f35b6102a66109f4565b6040805160208082528351818301528351919283929083019185019080838360005b838110156102e05781810151838201526020016102c8565b50505050905090810190601f16801561030d5780820380516001836020036101000a031916815260200191505b509250505060405180910390f35b6103386004803603602081101561033157600080fd5b5035610b29565b604080516001600160a01b039092168252519081900360200190f35b61028a6004803603602081101561036a57600080fd5b5035610b8b565b61039d6004803603604081101561038757600080fd5b506001600160a01b038135169060200135610e6c565b005b61039d600480360360208110156103b557600080fd5b50356001600160a01b0316610f94565b610489600480360360808110156103db57600080fd5b6001600160a01b03823581169260208101359091169160408201359190810190608081016060820135600160201b81111561041557600080fd5b82018360208201111561042757600080fd5b803590602001918460018302840111600160201b8311171561044857600080fd5b91908080601f016020809104026020016040519081016040528093929190818152602001838380828437600092019190915250929550610feb945050505050565b604080516001600160e01b03199092168252519081900360200190f35b6104ae610ffb565b60408051918252519081900360200190f35b61028a600480360360408110156104d657600080fd5b50803590602001356001600160a01b0316611001565b6102a66004803603602081101561050257600080fd5b5035611090565b61039d6004803603606081101561051f57600080fd5b506001600160a01b038135811691602081013590911690604001356111ce565b61039d6004803603602081101561055557600080fd5b50356001600160a01b0316611358565b6104ae6004803603604081101561057b57600080fd5b506001600160a01b0381351690602001356113a7565b610338611426565b61028a600480360360208110156105af57600080fd5b50356001600160a01b0316611435565b61028a600480360360808110156105d557600080fd5b508035906020810135906040810135906060013561144e565b61039d6004803603606081101561060457600080fd5b506001600160a01b038135811691602081013590911690604001356117d6565b61039d6117f1565b6104ae6004803603602081101561064257600080fd5b5035611803565b610338611869565b6103386004803603602081101561066757600080fd5b5035611878565b61068b6004803603602081101561068457600080fd5b5035611999565b604080516001600160a01b039788168152959096166020860152921515848601529015156060840152608083015260a082015290519081900360c00190f35b6102a6611a4c565b6104ae600480360360208110156106e857600080fd5b50356001600160a01b0316611ae2565b61028a6004803603602081101561070e57600080fd5b5035611b65565b61039d6004803603602081101561072b57600080fd5b50356001600160a01b0316611b71565b6104ae6004803603602081101561075157600080fd5b5035611bc0565b6104ae611bd2565b6104ae6004803603602081101561077657600080fd5b5035611bd8565b6104ae6004803603602081101561079357600080fd5b5035611bde565b6102a6611bf0565b61039d600480360360408110156107b857600080fd5b506001600160a01b0381351690602001351515611c35565b6107ed600480360360208110156107e657600080fd5b5035611d3a565b604080516001600160a01b03998a168152602081019890985295909716868601529215156060860152901515608085015260a084015260c083015260e08201929092529051908190036101000190f35b61039d6004803603608081101561085357600080fd5b6001600160a01b03823581169260208101359091169160408201359190810190608081016060820135600160201b81111561088d57600080fd5b82018360208201111561089f57600080fd5b803590602001918460018302840111600160201b831117156108c057600080fd5b91908080601f016020809104026020016040519081016040528093929190818152602001838380828437600092019190915250929550611d8e945050505050565b61028a6004803603602081101561091757600080fd5b5035611f8b565b61028a6004803603602081101561093457600080fd5b50356001600160a01b0316612116565b61028a6004803603602081101561095a57600080fd5b5035612129565b6102a66004803603602081101561097757600080fd5b50356123c0565b61039d6004803603602081101561099457600080fd5b50356125d2565b61039d61262a565b61028a600480360360408110156109b957600080fd5b506001600160a01b038135811691602001351661263a565b6001600160e01b0319811660009081526020819052604090205460ff165b919050565b601054604080516306fdde0360e01b815290516060926001600160a01b0316916306fdde03916004808301926000929190829003018186803b158015610a3957600080fd5b505afa158015610a4d573d6000803e3d6000fd5b505050506040513d6000823e601f3d908101601f191682016040526020811015610a7657600080fd5b8101908080516040519392919084600160201b821115610a9557600080fd5b908301906020820185811115610aaa57600080fd5b8251600160201b811182820188101715610ac357600080fd5b82525081516020918201929091019080838360005b83811015610af0578181015183820152602001610ad8565b50505050905090810190601f168015610b1d5780820380516001836020036101000a031916815260200191505b50604052505050905090565b6000610b3482612668565b610b6f5760405162461bcd60e51b815260040180806020018281038252602c815260200180612a1e602c913960400191505060405180910390fd5b506000908152600260205260409020546001600160a01b031690565b600081815260126020526040812060010154610be3576040805162461bcd60e51b8152602060048201526012602482015271546f6b656e206e6f7420666f722073616c6560701b604482015290519081900360640190fd5b60008281526012602052604090206002810154600160a01b900460ff16610c46576040805162461bcd60e51b8152602060048201526012602482015271151bdad95b881b9bdd08195cd8dc9bddd95960721b604482015290519081900360640190fd5b6002810154600160a81b900460ff1615610ca0576040805162461bcd60e51b8152602060048201526016602482015275151bdad95b88185b1c9958591e48189bdc9c9bddd95960521b604482015290519081900360640190fd5b60028101546001600160a01b031615610d00576040805162461bcd60e51b815260206004820152601c60248201527f546f6b656e20616c726561647920676f74206120626f72726f77657200000000604482015290519081900360640190fd5b600281018054600160a81b336001600160a01b0319909216821760ff60a81b191617909155600f546005830154604080516323b872dd60e01b815260048101949094523060248501526044840191909152516001600160a01b03909116916323b872dd9160648083019260209291908290030181600087803b158015610d8557600080fd5b505af1158015610d99573d6000803e3d6000fd5b505050506040513d6020811015610daf57600080fd5b505060115481546005830154600f5460038501546004808701546040805163660da5fb60e11b81526001600160a01b039788169381019390935260248301959095529285166044820152606481019190915260848101919091529051919092169163cc1b4bf69160a48083019260209291908290030181600087803b158015610e3757600080fd5b505af1158015610e4b573d6000803e3d6000fd5b505050506040513d6020811015610e6157600080fd5b506001949350505050565b6000610e7782611878565b9050806001600160a01b0316836001600160a01b03161415610eca5760405162461bcd60e51b8152600401808060200182810382526021815260200180612aac6021913960400191505060405180910390fd5b806001600160a01b0316610edc612685565b6001600160a01b03161480610efd5750610efd81610ef8612685565b61263a565b610f385760405162461bcd60e51b81526004018080602001828103825260388152602001806129c56038913960400191505060405180910390fd5b60008281526002602052604080822080546001600160a01b0319166001600160a01b0387811691821790925591518593918516917f8c5be1e5ebec7d5bd14f71427d1e84f3dd0314c0f7b2291e5b200ac8c7c3b92591a4505050565b610fa4610f9f612685565b612116565b610fdf5760405162461bcd60e51b8152600401808060200182810382526040815260200180612a6c6040913960400191505060405180910390fd5b610fe881612689565b50565b630a85bd0160e11b949350505050565b60075490565b601054604080516331a9108f60e11b81526004810185905290516000926001600160a01b0380861693911691636352211e91602480820192602092909190829003018186803b15801561105357600080fd5b505afa158015611067573d6000803e3d6000fd5b505050506040513d602081101561107d57600080fd5b50516001600160a01b0316149392505050565b6010546040805163c87b56dd60e01b81526004810184905290516060926001600160a01b03169163c87b56dd916024808301926000929190829003018186803b1580156110dc57600080fd5b505afa1580156110f0573d6000803e3d6000fd5b505050506040513d6000823e601f3d908101601f19168201604052602081101561111957600080fd5b8101908080516040519392919084600160201b82111561113857600080fd5b90830190602082018581111561114d57600080fd5b8251600160201b81118282018810171561116657600080fd5b82525081516020918201929091019080838360005b8381101561119357818101518382015260200161117b565b50505050905090810190601f1680156111c05780820380516001836020036101000a031916815260200191505b506040525050509050919050565b6111d66128f8565b5060008181526012602090815260409182902082516101008101845281546001600160a01b03908116825260018301549382019390935260028201549283169381019390935260ff600160a01b8304811615156060850152600160a81b9092049091161580156080840152600382015460a0840152600482015460c084015260059091015460e083015261129b5760405162461bcd60e51b815260040180806020018281038252602381526020018061297f6023913960400191505060405180910390fd5b8060600151156112dc5760405162461bcd60e51b81526004018080602001828103825260238152602001806129a26023913960400191505060405180910390fd5b601054604080516323b872dd60e01b81526001600160a01b038781166004830152868116602483015260448201869052915191909216916323b872dd91606480830192600092919082900301818387803b15801561133957600080fd5b505af115801561134d573d6000803e3d6000fd5b50505050505b505050565b611363610f9f612685565b61139e5760405162461bcd60e51b8152600401808060200182810382526040815260200180612a6c6040913960400191505060405180910390fd5b610fe8816126d1565b60006113b283611ae2565b82106113ef5760405162461bcd60e51b815260040180806020018281038252602b815260200180612954602b913960400191505060405180910390fd5b6001600160a01b038316600090815260056020526040902080548390811061141357fe5b9060005260206000200154905092915050565b600f546001600160a01b031681565b6000611448600e8363ffffffff61271916565b92915050565b600084815260126020526040812060010154156114b2576040805162461bcd60e51b815260206004820152601d60248201527f546f6b656e20616c726561647920706c6163656420666f722073616c65000000604482015290519081900360640190fd5b601054604080516331a9108f60e11b815260048101889052905133926001600160a01b031691636352211e916024808301926020929190829003018186803b1580156114fd57600080fd5b505afa158015611511573d6000803e3d6000fd5b505050506040513d602081101561152757600080fd5b50516001600160a01b031614611584576040805162461bcd60e51b815260206004820152601b60248201527f43616c6c657220646f6573206e6f74206f776e20746865204e46540000000000604482015290519081900360640190fd5b604051806101000160405280336001600160a01b03168152602001868152602001306001600160a01b03168152602001600115158152602001600015158152602001858152602001848152602001838152506012600087815260200190815260200160002060008201518160000160006101000a8154816001600160a01b0302191690836001600160a01b031602179055506020820151816001015560408201518160020160006101000a8154816001600160a01b0302191690836001600160a01b0316021790555060608201518160020160146101000a81548160ff02191690831515021790555060808201518160020160156101000a81548160ff02191690831515021790555060a0820151816003015560c0820151816004015560e08201518160050155905050601060009054906101000a90046001600160a01b03166001600160a01b03166342842e0e3330886040518463ffffffff1660e01b815260040180846001600160a01b03166001600160a01b03168152602001836001600160a01b03166001600160a01b031681526020018281526020019350505050600060405180830381600087803b15801561173d57600080fd5b505af1158015611751573d6000803e3d6000fd5b5050505061175e85611b65565b6117af576040805162461bcd60e51b815260206004820152601c60248201527f546f6b656e206e6f7420636f72726563746c7920657363726f77656400000000604482015290519081900360640190fd5b50506013805460009081526014602052604090209390935550508054600190810190915590565b61135383838360405180602001604052806000815250611d8e565b6118016117fc612685565b612780565b565b600061180d610ffb565b821061184a5760405162461bcd60e51b815260040180806020018281038252602c815260200180612acd602c913960400191505060405180910390fd5b6007828154811061185757fe5b90600052602060002001549050919050565b6010546001600160a01b031681565b60006118826128f8565b5060008281526012602090815260409182902082516101008101845281546001600160a01b03908116825260018301549382019390935260028201549283169381019390935260ff600160a01b8304811615156060850152600160a81b9092049091161580156080840152600382015460a0840152600482015460c084015260059091015460e083015261199157601054604080516331a9108f60e11b81526004810186905290516001600160a01b0390921691636352211e91602480820192602092909190829003018186803b15801561195c57600080fd5b505afa158015611970573d6000803e3d6000fd5b505050506040513d602081101561198657600080fd5b505191506109ef9050565b503092915050565b6000806000806000806119aa6128f8565b505050600094855250506012602090815260409384902084516101008101865281546001600160a01b03908116808352600184015494830194909452600283015490811696820187905260ff600160a01b82048116151560608401819052600160a81b90920416151560808301819052600384015460a08401819052600485015460c0850181905260059095015460e090940193909352939790955092935091565b600b8054604080516020601f6002600019610100600188161502019095169490940493840181900481028201810190925282815260609390929091830182828015611ad85780601f10611aad57610100808354040283529160200191611ad8565b820191906000526020600020905b815481529060010190602001808311611abb57829003601f168201915b5050505050905090565b601054604080516370a0823160e01b81526001600160a01b038481166004830152915160009392909216916370a0823191602480820192602092909190829003018186803b158015611b3357600080fd5b505afa158015611b47573d6000803e3d6000fd5b505050506040513d6020811015611b5d57600080fd5b505192915050565b60006114488230611001565b611b7c610f9f612685565b611bb75760405162461bcd60e51b8152600401808060200182810382526040815260200180612a6c6040913960400191505060405180910390fd5b610fe8816127c8565b60146020526000908152604090205481565b60135481565b50600090565b60009081526014602052604090205490565b601054604080516395d89b4160e01b815290516060926001600160a01b0316916395d89b41916004808301926000929190829003018186803b158015610a3957600080fd5b611c3d612685565b6001600160a01b0316826001600160a01b03161415611ca3576040805162461bcd60e51b815260206004820152601960248201527f4552433732313a20617070726f766520746f2063616c6c657200000000000000604482015290519081900360640190fd5b8060046000611cb0612685565b6001600160a01b03908116825260208083019390935260409182016000908120918716808252919093529120805460ff191692151592909217909155611cf4612685565b60408051841515815290516001600160a01b0392909216917f17307eab39ab6107e8899845ad3d59bd9653f200f220920489ca2b5937696c319181900360200190a35050565b6012602052600090815260409020805460018201546002830154600384015460048501546005909501546001600160a01b0394851695939483169360ff600160a01b8504811694600160a81b900416929188565b611d966128f8565b5060008281526012602090815260409182902082516101008101845281546001600160a01b03908116825260018301549382019390935260028201549283169381019390935260ff600160a01b8304811615156060850152600160a81b9092049091161580156080840152600382015460a0840152600482015460c084015260059091015460e0830152611e5b5760405162461bcd60e51b815260040180806020018281038252602381526020018061297f6023913960400191505060405180910390fd5b806060015115611e9c5760405162461bcd60e51b81526004018080602001828103825260238152602001806129a26023913960400191505060405180910390fd5b601054604051635c46a7ef60e11b81526001600160a01b0387811660048301908152878216602484015260448301879052608060648401908152865160848501528651929094169363b88d4fde938a938a938a938a939192909160a40190602085019080838360005b83811015611f1d578181015183820152602001611f05565b50505050905090810190601f168015611f4a5780820380516001836020036101000a031916815260200191505b5095505050505050600060405180830381600087803b158015611f6c57600080fd5b505af1158015611f80573d6000803e3d6000fd5b505050505050505050565b600081815260126020526040812060010154611fe3576040805162461bcd60e51b8152602060048201526012602482015271546f6b656e206e6f7420666f722073616c6560701b604482015290519081900360640190fd5b60008281526012602052604090206002810154600160a01b900460ff16612046576040805162461bcd60e51b8152602060048201526012602482015271151bdad95b881b9bdd08195cd8dc9bddd95960721b604482015290519081900360640190fd5b6002810154600160a81b900460ff1661209b576040805162461bcd60e51b8152602060048201526012602482015271151bdad95b881b9bdd08189bdc9c9bddd95960721b604482015290519081900360640190fd5b60028101546001600160a01b031633146120fc576040805162461bcd60e51b815260206004820152601c60248201527f546f6b656e206e6f7420626f72726f7765642062792063616c6c657200000000604482015290519081900360640190fd5b6002018054600161ff0160a01b0319169055506001919050565b6000611448600d8363ffffffff61271916565b600081815260126020526040812060010154612181576040805162461bcd60e51b8152602060048201526012602482015271546f6b656e206e6f7420666f722073616c6560701b604482015290519081900360640190fd5b60008281526012602052604090206002810154600160a01b900460ff166121e4576040805162461bcd60e51b8152602060048201526012602482015271151bdad95b881b9bdd08195cd8dc9bddd95960721b604482015290519081900360640190fd5b6002810154600160a81b900460ff161561223e576040805162461bcd60e51b8152602060048201526016602482015275151bdad95b88185b1c9958591e48189bdc9c9bddd95960521b604482015290519081900360640190fd5b60028101546001600160a01b031661229d576040805162461bcd60e51b815260206004820152601c60248201527f546f6b656e20616c726561647920676f74206120626f72726f77657200000000604482015290519081900360640190fd5b805460008481526012602052604080822080546001600160a01b0319168155600181018390556002810180546001600160b01b031916905560038101839055600480820184905560059091018390556010548251632142170760e11b815230928101929092526001600160a01b0394851660248301819052604483018990529251929416926342842e0e9260648084019382900301818387803b15801561234357600080fd5b505af1158015612357573d6000803e3d6000fd5b505050506123658482611001565b6123b6576040805162461bcd60e51b815260206004820152601f60248201527f546f6b656e206e6f742072657475726e6564207375636365737366756c6c7900604482015290519081900360640190fd5b5060019392505050565b60606123ca6128f8565b5060008281526012602090815260409182902082516101008101845281546001600160a01b03908116825260018301549382019390935260028201549283169381019390935260ff600160a01b8304811615156060850152600160a81b9092049091161580156080840152600382015460a0840152600482015460c084015260059091015460e0830152612597576010546040805163c87b56dd60e01b81526004810186905290516001600160a01b039092169163c87b56dd91602480820192600092909190829003018186803b1580156124a457600080fd5b505afa1580156124b8573d6000803e3d6000fd5b505050506040513d6000823e601f3d908101601f1916820160405260208110156124e157600080fd5b8101908080516040519392919084600160201b82111561250057600080fd5b90830190602082018581111561251557600080fd5b8251600160201b81118282018810171561252e57600080fd5b82525081516020918201929091019080838360005b8381101561255b578181015183820152602001612543565b50505050905090810190601f1680156125885780820380516001836020036101000a031916815260200191505b506040525050509150506109ef565b505060408051808201909152601c81527f544f444f2072657475726e2073746174696320495046532068617368000000006020820152919050565b600081815260126020526040902060010154610fe8576040805162461bcd60e51b8152602060048201526012602482015271546f6b656e206e6f7420666f722073616c6560701b604482015290519081900360640190fd5b611801612635612685565b6126d1565b6001600160a01b03918216600090815260046020908152604080832093909416825291909152205460ff1690565b6000908152600160205260409020546001600160a01b0316151590565b3390565b61269a600e8263ffffffff61281016565b6040516001600160a01b038216907fee1504a83b6d4a361f4c1dc78ab59bfa30d6a3b6612c403e86bb01ef2984295f90600090a250565b6126e2600e8263ffffffff61289116565b6040516001600160a01b038216907f270d9b30cf5b0793bbfd54c9d5b94aeb49462b8148399000265144a8722da6b690600090a250565b60006001600160a01b0382166127605760405162461bcd60e51b8152600401808060200182810382526022815260200180612a4a6022913960400191505060405180910390fd5b506001600160a01b03166000908152602091909152604090205460ff1690565b612791600d8263ffffffff61289116565b6040516001600160a01b038216907f0a8eb35e5ca14b3d6f28e4abf2f128dbab231a58b56e89beb5d636115001e16590600090a250565b6127d9600d8263ffffffff61281016565b6040516001600160a01b038216907f22380c05984257a1cb900161c713dd71d39e74820f1aea43bd3f1bdd2096129990600090a250565b61281a8282612719565b1561286c576040805162461bcd60e51b815260206004820152601f60248201527f526f6c65733a206163636f756e7420616c72656164792068617320726f6c6500604482015290519081900360640190fd5b6001600160a01b0316600090815260209190915260409020805460ff19166001179055565b61289b8282612719565b6128d65760405162461bcd60e51b81526004018080602001828103825260218152602001806129fd6021913960400191505060405180910390fd5b6001600160a01b0316600090815260209190915260409020805460ff19169055565b60405180610100016040528060006001600160a01b031681526020016000815260200160006001600160a01b03168152602001600015158152602001600015158152602001600081526020016000815260200160008152509056fe455243373231456e756d657261626c653a206f776e657220696e646578206f7574206f6620626f756e647343616e6e6f74207472616e73666572206120626f72726f77656420636f6e747261637443616e6e6f74207472616e73666572206120657363726f77656420636f6e74726163744552433732313a20617070726f76652063616c6c6572206973206e6f74206f776e6572206e6f7220617070726f76656420666f7220616c6c526f6c65733a206163636f756e7420646f6573206e6f74206861766520726f6c654552433732313a20617070726f76656420717565727920666f72206e6f6e6578697374656e7420746f6b656e526f6c65733a206163636f756e7420697320746865207a65726f206164647265737357686974656c69737441646d696e526f6c653a2063616c6c657220646f6573206e6f742068617665207468652057686974656c69737441646d696e20726f6c654552433732313a20617070726f76616c20746f2063757272656e74206f776e6572455243373231456e756d657261626c653a20676c6f62616c20696e646578206f7574206f6620626f756e6473a265627a7a723158209c2c0d1a504b21d6db2aa2efd9937753475cfc3114acc14886fd8cb6d5fe6b9f64736f6c634300050e0032526f6c65733a206163636f756e7420697320746865207a65726f206164647265737357686974656c69737441646d696e526f6c653a2063616c6c657220646f6573206e6f742068617665207468652057686974656c69737441646d696e20726f6c65",
  "source": "pragma solidity 0.5.14;\n\nimport \"@openzeppelin/contracts/access/roles/WhitelistedRole.sol\";\nimport \"@openzeppelin/contracts/token/ERC20/IERC20.sol\";\nimport \"@openzeppelin/contracts/token/ERC721/IERC721Full.sol\";\nimport \"@openzeppelin/contracts/token/ERC721/ERC721Full.sol\";\nimport \"./sablier/IERC1620.sol\";\n\ncontract LoanShark is ERC721Full, WhitelistedRole {\n\n    struct Loan {\n        // Config\n        address lender;\n        uint256 tokenId;\n        address borrower;\n\n        // state flags\n        bool isEscrowed;\n        bool isBorrowed;\n        //\n        //        // payment terms\n        //        uint256 costPerMinute;\n        //        uint256 maxMinutesAvailableForHire;\n\n        uint256 start;\n        uint256 end;\n        uint256 depositInWei;\n    }\n\n    // What to stream the payment in\n    IERC20 public paymentToken;\n\n    // The original NFT contract\n    IERC721Full public tokenContract;\n\n    // Sablier stream for payments\n    IERC1620 stream;\n\n    mapping(uint256 => Loan) public tokensAvailableToLoan;\n\n    // So we can enumerate them\n    uint256 public totalTokens = 0;\n    mapping(uint256 => uint256) public indexToTokenId;\n\n    constructor(\n        IERC721Full _tokenContract, // How to make this generic to not accept a token at construction\n        IERC20 _paymentToken, // DAI ... or even zkDAI ?\n        IERC1620 _stream\n    ) ERC721Full(\"LoanShark\", \"LSK\") public {\n        super.addWhitelisted(msg.sender);\n\n        paymentToken = _paymentToken;\n        tokenContract = _tokenContract;\n        stream = _stream;\n\n        // approve the stream to pull whatever they want from LoanShark\n        paymentToken.approve(address(stream), uint(-1));\n    }\n\n    // TODO create a proxy method to allow call on original NFT by bytecode/method args - dynamic lookup?\n\n    function enableTokenForLending(uint256 _tokenId, uint256 _start, uint256 _end, uint256 _depositInWei) public returns (bool) {\n\n        // Validate input\n        //        require(_costPerMinute > 0, \"Cannot loan the token for free\");\n        require(tokensAvailableToLoan[_tokenId].tokenId == 0, \"Token already placed for sale\");\n\n        // Validate caller owns it\n        require(tokenContract.ownerOf(_tokenId) == msg.sender, \"Caller does not own the NFT\");\n\n        // Setup Loan\n        tokensAvailableToLoan[_tokenId] = Loan({\n            tokenId : _tokenId,\n            lender : msg.sender,\n            borrower : address(this),\n\n            isEscrowed : true,\n            isBorrowed : false,\n\n            start : _start,\n            end : _end,\n\n            depositInWei : _depositInWei\n            });\n\n        // Escrow NFT into the Loan Shark Contract\n        tokenContract.safeTransferFrom(msg.sender, address(this), _tokenId);\n        require(isTokenEscrowed(_tokenId), \"Token not correctly escrowed\");\n\n        // Setup simple enumeration\n        indexToTokenId[totalTokens] = _tokenId;\n        totalTokens = totalTokens + 1;\n\n        return true;\n    }\n\n    /*\n     * Close any outstanding un-borrowed NFT loans\n     * Send the NFT back to the original lender\n     */\n    function cancelLoan(uint256 _tokenId) public returns (bool) {\n        require(tokensAvailableToLoan[_tokenId].tokenId != 0, \"Token not for sale\");\n\n        Loan storage loan = tokensAvailableToLoan[_tokenId];\n        require(loan.isEscrowed, \"Token not escrowed\");\n        require(!loan.isBorrowed, \"Token already borrowed\");\n        require(loan.borrower != address(0), \"Token already got a borrower\");\n\n        address originalLender = loan.lender;\n\n        delete tokensAvailableToLoan[_tokenId];\n\n        // Send the loan back to the original lender\n        tokenContract.safeTransferFrom(address(this), originalLender, _tokenId);\n        require(isTokenOwnedBy(_tokenId, originalLender), \"Token not returned successfully\");\n\n        return true;\n    }\n\n    function borrowToken(uint256 _tokenId) public returns (bool) {\n        require(tokensAvailableToLoan[_tokenId].tokenId != 0, \"Token not for sale\");\n\n        Loan storage loan = tokensAvailableToLoan[_tokenId];\n        require(loan.isEscrowed, \"Token not escrowed\");\n        require(!loan.isBorrowed, \"Token already borrowed\");\n        require(loan.borrower == address(0), \"Token already got a borrower\");\n\n        // sudo transfer this NFT to the new owner\n        loan.borrower = msg.sender;\n        loan.isBorrowed = true;\n\n        // deposit here in escrow to set up stream\n        paymentToken.transferFrom(msg.sender, address(this), loan.depositInWei);\n\n        // this will pull the escrowed amount into the stream\n        stream.createStream(loan.lender, loan.depositInWei, address(paymentToken), loan.start, loan.end);\n\n        return true;\n    }\n\n    function returnBorrowedNft(uint256 _tokenId) public returns (bool) {\n        require(tokensAvailableToLoan[_tokenId].tokenId != 0, \"Token not for sale\");\n\n        Loan storage loan = tokensAvailableToLoan[_tokenId];\n        require(loan.isEscrowed, \"Token not escrowed\");\n        require(loan.isBorrowed, \"Token not borrowed\");\n        require(loan.borrower == msg.sender, \"Token not borrowed by caller\");\n\n        // sudo transfer this NFT back to the escrow\n        loan.borrower = address(0);\n        loan.isBorrowed = false;\n\n        // TODO close stream .... ?\n\n        return true;\n    }\n\n    function clawBackNft(uint256 _tokenId) public {\n        require(tokensAvailableToLoan[_tokenId].tokenId != 0, \"Token not for sale\");\n\n        // only allow after loan has expired\n        // take back ownership from the borrower\n        // reset loan state\n        // penalise the borrower in some form?\n    }\n\n    /////////////////////\n    // Query utilities //\n    /////////////////////\n\n    function getLoanDetails(uint _tokenId) public view returns (\n        address lender,\n        address borrower,\n        bool isEscrowed,\n        bool isBorrowed,\n        uint256 start,\n        uint256 end\n    ) {\n        Loan memory loan = tokensAvailableToLoan[_tokenId];\n        return (\n        loan.lender,\n        loan.borrower,\n        loan.isEscrowed,\n        loan.isBorrowed,\n        loan.start,\n        loan.end\n        );\n    }\n\n    function getRemainingTimeLeftForLoan(uint _tokenId) public returns (uint256) {\n        // TODO\n        return 0;\n    }\n\n    function getRemainingStreamBalance(uint _tokenId) public returns (uint256) {\n        // TODO\n        return 0;\n    }\n\n    ////////////////////\n    // Internal utils //\n    ////////////////////\n\n    function getTokenIdForIndex(uint256 _index) public view returns (uint256) {\n        return indexToTokenId[_index];\n    }\n\n    // taking ownership of the NFT via callback confirmation\n    function onERC721Received(address operator, address from, uint256 tokenId, bytes memory data) public returns (bytes4) {\n        return this.onERC721Received.selector;\n    }\n\n    function isTokenEscrowed(uint256 _tokenId) public view returns (bool) {\n        return isTokenOwnedBy(_tokenId, address(this));\n    }\n\n    function isTokenOwnedBy(uint256 _tokenId, address _owner) public view returns (bool) {\n        return IERC721Full(tokenContract).ownerOf(_tokenId) == _owner;\n    }\n\n    ////////////////////////////////////////\n    // Overridden IERC721Metadata methods //\n    ////////////////////////////////////////\n\n    // TODO proxy through to escrowed NFT\n\n    function name() public view returns (string memory) {\n        return tokenContract.name();\n    }\n\n    function symbol() public view returns (string memory) {\n        return tokenContract.symbol();\n    }\n\n    function tokenURI(uint256 _tokenId) public view returns (string memory) {\n        Loan memory loan = tokensAvailableToLoan[_tokenId];\n        if (loan.isBorrowed) {\n            return tokenContract.tokenURI(_tokenId);\n        }\n        return \"TODO return static IPFS hash\";\n    }\n\n    function getPrincipleTokenUri(uint256 _tokenId) public view returns (string memory) {\n        return tokenContract.tokenURI(_tokenId);\n    }\n\n    ////////////////////////////////\n    // Overridden IERC721 methods //\n    ////////////////////////////////\n\n    // TODO proxy through to escrowed NFT\n    // TODO special case methods which need to be thought about\n    // TODO check expired stream as well for all proxy methods?\n\n    function balanceOf(address owner) public view returns (uint256) {\n        // TODO how to handle this proxy method\n        return tokenContract.balanceOf(owner);\n    }\n\n    function ownerOf(uint256 _tokenId) public view returns (address) {\n        Loan memory loan = tokensAvailableToLoan[_tokenId];\n        if (loan.isBorrowed) {\n            return tokenContract.ownerOf(_tokenId);\n        }\n        return address(this);\n    }\n\n    function safeTransferFrom(address from, address to, uint256 tokenId, bytes memory _data) public {\n        Loan memory loan = tokensAvailableToLoan[tokenId];\n        require(!loan.isBorrowed, \"Cannot transfer a borrowed contract\");\n        require(!loan.isEscrowed, \"Cannot transfer a escrowed contract\");\n\n        return tokenContract.safeTransferFrom(from, to, tokenId, _data);\n    }\n\n    function transferFrom(address from, address to, uint256 tokenId) public {\n        Loan memory loan = tokensAvailableToLoan[tokenId];\n        require(!loan.isBorrowed, \"Cannot transfer a borrowed contract\");\n        require(!loan.isEscrowed, \"Cannot transfer a escrowed contract\");\n\n        return tokenContract.transferFrom(from, to, tokenId);\n    }\n\n}\n",
  "sourcePath": "/Users/hollyatkinson/Development/code/loan-shark/contracts/LoanShark.sol",
  "compiler": {
    "name": "solc",
    "version": "0.5.14+commit.01f1aaa4.Emscripten.clang"
  },
  "schemaVersion": "3.0.23",
  "updatedAt": "2020-02-29T11:37:20.801Z",
  "networkType": "ethereum",
  "devdoc": {
    "methods": {
      "approve(address,uint256)": {
        "details": "Approves another address to transfer the given token ID The zero address indicates there is no approved address. There can only be one approved address per token at a given time. Can only be called by the token owner or an approved operator.",
        "params": {
          "to": "address to be approved for the given token ID",
          "tokenId": "uint256 ID of the token to be approved"
        }
      },
      "baseURI()": {
        "details": "Returns the base URI set via {_setBaseURI}. This will be automatically added as a preffix in {tokenURI} to each token's URI, when they are non-empty.    * _Available since v2.5.0._"
      },
      "getApproved(uint256)": {
        "details": "Gets the approved address for a token ID, or zero if no address set Reverts if the token ID does not exist.",
        "params": {
          "tokenId": "uint256 ID of the token to query the approval of"
        },
        "return": "address currently approved for the given token ID"
      },
      "isApprovedForAll(address,address)": {
        "details": "Tells whether an operator is approved by a given owner.",
        "params": {
          "operator": "operator address which you want to query the approval of",
          "owner": "owner address which you want to query the approval of"
        },
        "return": "bool whether the given operator is approved by the given owner"
      },
      "safeTransferFrom(address,address,uint256)": {
        "details": "Safely transfers the ownership of a given token ID to another address If the target address is a contract, it must implement {IERC721Receiver-onERC721Received}, which is called upon a safe transfer, and return the magic value `bytes4(keccak256(\"onERC721Received(address,address,uint256,bytes)\"))`; otherwise, the transfer is reverted. Requires the msg.sender to be the owner, approved, or operator",
        "params": {
          "from": "current owner of the token",
          "to": "address to receive the ownership of the given token ID",
          "tokenId": "uint256 ID of the token to be transferred"
        }
      },
      "setApprovalForAll(address,bool)": {
        "details": "Sets or unsets the approval of a given operator An operator is allowed to transfer all tokens of the sender on their behalf.",
        "params": {
          "approved": "representing the status of the approval to be set",
          "to": "operator address to set the approval"
        }
      },
      "supportsInterface(bytes4)": {
        "details": "See {IERC165-supportsInterface}.     * Time complexity O(1), guaranteed to always use less than 30 000 gas."
      },
      "tokenByIndex(uint256)": {
        "details": "Gets the token ID at a given index of all the tokens in this contract Reverts if the index is greater or equal to the total number of tokens.",
        "params": {
          "index": "uint256 representing the index to be accessed of the tokens list"
        },
        "return": "uint256 token ID at the given index of the tokens list"
      },
      "tokenOfOwnerByIndex(address,uint256)": {
        "details": "Gets the token ID at a given index of the tokens list of the requested owner.",
        "params": {
          "index": "uint256 representing the index to be accessed of the requested tokens list",
          "owner": "address owning the tokens list to be accessed"
        },
        "return": "uint256 token ID at the given index of the tokens list owned by the requested address"
      },
      "totalSupply()": {
        "details": "Gets the total amount of tokens stored by the contract.",
        "return": "uint256 representing the total amount of tokens"
      }
    }
  },
  "userdoc": {
    "methods": {
      "balanceOf(address)": {
        "notice": "/////////////////////////////"
      },
      "getLoanDetails(uint256)": {
        "notice": "//////////////////"
      },
      "getTokenIdForIndex(uint256)": {
        "notice": "/////////////////"
      },
      "name()": {
        "notice": "/////////////////////////////////////"
      }
    }
  }
}