{
  "contractName": "LoanShark",
  "abi": [
    {
      "inputs": [
        {
          "internalType": "contract IERC721Full",
          "name": "_tokenContract",
          "type": "address"
        },
        {
          "internalType": "contract IERC20",
          "name": "_paymentToken",
          "type": "address"
        },
        {
          "internalType": "contract IERC1620",
          "name": "_stream",
          "type": "address"
        }
      ],
      "payable": false,
      "stateMutability": "nonpayable",
      "type": "constructor"
    },
    {
      "anonymous": false,
      "inputs": [
        {
          "indexed": true,
          "internalType": "address",
          "name": "owner",
          "type": "address"
        },
        {
          "indexed": true,
          "internalType": "address",
          "name": "approved",
          "type": "address"
        },
        {
          "indexed": true,
          "internalType": "uint256",
          "name": "tokenId",
          "type": "uint256"
        }
      ],
      "name": "Approval",
      "type": "event"
    },
    {
      "anonymous": false,
      "inputs": [
        {
          "indexed": true,
          "internalType": "address",
          "name": "owner",
          "type": "address"
        },
        {
          "indexed": true,
          "internalType": "address",
          "name": "operator",
          "type": "address"
        },
        {
          "indexed": false,
          "internalType": "bool",
          "name": "approved",
          "type": "bool"
        }
      ],
      "name": "ApprovalForAll",
      "type": "event"
    },
    {
      "anonymous": false,
      "inputs": [
        {
          "indexed": true,
          "internalType": "address",
          "name": "from",
          "type": "address"
        },
        {
          "indexed": true,
          "internalType": "address",
          "name": "to",
          "type": "address"
        },
        {
          "indexed": true,
          "internalType": "uint256",
          "name": "tokenId",
          "type": "uint256"
        }
      ],
      "name": "Transfer",
      "type": "event"
    },
    {
      "anonymous": false,
      "inputs": [
        {
          "indexed": true,
          "internalType": "address",
          "name": "account",
          "type": "address"
        }
      ],
      "name": "WhitelistAdminAdded",
      "type": "event"
    },
    {
      "anonymous": false,
      "inputs": [
        {
          "indexed": true,
          "internalType": "address",
          "name": "account",
          "type": "address"
        }
      ],
      "name": "WhitelistAdminRemoved",
      "type": "event"
    },
    {
      "anonymous": false,
      "inputs": [
        {
          "indexed": true,
          "internalType": "address",
          "name": "account",
          "type": "address"
        }
      ],
      "name": "WhitelistedAdded",
      "type": "event"
    },
    {
      "anonymous": false,
      "inputs": [
        {
          "indexed": true,
          "internalType": "address",
          "name": "account",
          "type": "address"
        }
      ],
      "name": "WhitelistedRemoved",
      "type": "event"
    },
    {
      "constant": false,
      "inputs": [
        {
          "internalType": "address",
          "name": "account",
          "type": "address"
        }
      ],
      "name": "addWhitelistAdmin",
      "outputs": [],
      "payable": false,
      "stateMutability": "nonpayable",
      "type": "function"
    },
    {
      "constant": false,
      "inputs": [
        {
          "internalType": "address",
          "name": "account",
          "type": "address"
        }
      ],
      "name": "addWhitelisted",
      "outputs": [],
      "payable": false,
      "stateMutability": "nonpayable",
      "type": "function"
    },
    {
      "constant": false,
      "inputs": [
        {
          "internalType": "address",
          "name": "to",
          "type": "address"
        },
        {
          "internalType": "uint256",
          "name": "tokenId",
          "type": "uint256"
        }
      ],
      "name": "approve",
      "outputs": [],
      "payable": false,
      "stateMutability": "nonpayable",
      "type": "function"
    },
    {
      "constant": true,
      "inputs": [],
      "name": "baseURI",
      "outputs": [
        {
          "internalType": "string",
          "name": "",
          "type": "string"
        }
      ],
      "payable": false,
      "stateMutability": "view",
      "type": "function"
    },
    {
      "constant": true,
      "inputs": [
        {
          "internalType": "uint256",
          "name": "tokenId",
          "type": "uint256"
        }
      ],
      "name": "getApproved",
      "outputs": [
        {
          "internalType": "address",
          "name": "",
          "type": "address"
        }
      ],
      "payable": false,
      "stateMutability": "view",
      "type": "function"
    },
    {
      "constant": true,
      "inputs": [
        {
          "internalType": "uint256",
          "name": "",
          "type": "uint256"
        }
      ],
      "name": "indexToTokenId",
      "outputs": [
        {
          "internalType": "uint256",
          "name": "",
          "type": "uint256"
        }
      ],
      "payable": false,
      "stateMutability": "view",
      "type": "function"
    },
    {
      "constant": true,
      "inputs": [
        {
          "internalType": "address",
          "name": "owner",
          "type": "address"
        },
        {
          "internalType": "address",
          "name": "operator",
          "type": "address"
        }
      ],
      "name": "isApprovedForAll",
      "outputs": [
        {
          "internalType": "bool",
          "name": "",
          "type": "bool"
        }
      ],
      "payable": false,
      "stateMutability": "view",
      "type": "function"
    },
    {
      "constant": true,
      "inputs": [
        {
          "internalType": "address",
          "name": "account",
          "type": "address"
        }
      ],
      "name": "isWhitelistAdmin",
      "outputs": [
        {
          "internalType": "bool",
          "name": "",
          "type": "bool"
        }
      ],
      "payable": false,
      "stateMutability": "view",
      "type": "function"
    },
    {
      "constant": true,
      "inputs": [
        {
          "internalType": "address",
          "name": "account",
          "type": "address"
        }
      ],
      "name": "isWhitelisted",
      "outputs": [
        {
          "internalType": "bool",
          "name": "",
          "type": "bool"
        }
      ],
      "payable": false,
      "stateMutability": "view",
      "type": "function"
    },
    {
      "constant": true,
      "inputs": [
        {
          "internalType": "address",
          "name": "",
          "type": "address"
        },
        {
          "internalType": "uint256",
          "name": "",
          "type": "uint256"
        }
      ],
      "name": "lenderToTokenId",
      "outputs": [
        {
          "internalType": "uint256",
          "name": "",
          "type": "uint256"
        }
      ],
      "payable": false,
      "stateMutability": "view",
      "type": "function"
    },
    {
      "constant": true,
      "inputs": [],
      "name": "paymentToken",
      "outputs": [
        {
          "internalType": "contract IERC20",
          "name": "",
          "type": "address"
        }
      ],
      "payable": false,
      "stateMutability": "view",
      "type": "function"
    },
    {
      "constant": false,
      "inputs": [
        {
          "internalType": "address",
          "name": "account",
          "type": "address"
        }
      ],
      "name": "removeWhitelisted",
      "outputs": [],
      "payable": false,
      "stateMutability": "nonpayable",
      "type": "function"
    },
    {
      "constant": false,
      "inputs": [],
      "name": "renounceWhitelistAdmin",
      "outputs": [],
      "payable": false,
      "stateMutability": "nonpayable",
      "type": "function"
    },
    {
      "constant": false,
      "inputs": [],
      "name": "renounceWhitelisted",
      "outputs": [],
      "payable": false,
      "stateMutability": "nonpayable",
      "type": "function"
    },
    {
      "constant": false,
      "inputs": [
        {
          "internalType": "address",
          "name": "to",
          "type": "address"
        },
        {
          "internalType": "bool",
          "name": "approved",
          "type": "bool"
        }
      ],
      "name": "setApprovalForAll",
      "outputs": [],
      "payable": false,
      "stateMutability": "nonpayable",
      "type": "function"
    },
    {
      "constant": true,
      "inputs": [
        {
          "internalType": "bytes4",
          "name": "interfaceId",
          "type": "bytes4"
        }
      ],
      "name": "supportsInterface",
      "outputs": [
        {
          "internalType": "bool",
          "name": "",
          "type": "bool"
        }
      ],
      "payable": false,
      "stateMutability": "view",
      "type": "function"
    },
    {
      "constant": true,
      "inputs": [
        {
          "internalType": "uint256",
          "name": "index",
          "type": "uint256"
        }
      ],
      "name": "tokenByIndex",
      "outputs": [
        {
          "internalType": "uint256",
          "name": "",
          "type": "uint256"
        }
      ],
      "payable": false,
      "stateMutability": "view",
      "type": "function"
    },
    {
      "constant": true,
      "inputs": [],
      "name": "tokenContract",
      "outputs": [
        {
          "internalType": "contract IERC721Full",
          "name": "",
          "type": "address"
        }
      ],
      "payable": false,
      "stateMutability": "view",
      "type": "function"
    },
    {
      "constant": true,
      "inputs": [
        {
          "internalType": "uint256",
          "name": "",
          "type": "uint256"
        }
      ],
      "name": "tokenIdToStreamId",
      "outputs": [
        {
          "internalType": "uint256",
          "name": "",
          "type": "uint256"
        }
      ],
      "payable": false,
      "stateMutability": "view",
      "type": "function"
    },
    {
      "constant": true,
      "inputs": [
        {
          "internalType": "address",
          "name": "owner",
          "type": "address"
        },
        {
          "internalType": "uint256",
          "name": "index",
          "type": "uint256"
        }
      ],
      "name": "tokenOfOwnerByIndex",
      "outputs": [
        {
          "internalType": "uint256",
          "name": "",
          "type": "uint256"
        }
      ],
      "payable": false,
      "stateMutability": "view",
      "type": "function"
    },
    {
      "constant": true,
      "inputs": [
        {
          "internalType": "uint256",
          "name": "",
          "type": "uint256"
        }
      ],
      "name": "tokensAvailableToLoan",
      "outputs": [
        {
          "internalType": "address",
          "name": "lender",
          "type": "address"
        },
        {
          "internalType": "uint256",
          "name": "tokenId",
          "type": "uint256"
        },
        {
          "internalType": "address",
          "name": "borrower",
          "type": "address"
        },
        {
          "internalType": "bool",
          "name": "isEscrowed",
          "type": "bool"
        },
        {
          "internalType": "bool",
          "name": "isBorrowed",
          "type": "bool"
        },
        {
          "internalType": "uint256",
          "name": "start",
          "type": "uint256"
        },
        {
          "internalType": "uint256",
          "name": "end",
          "type": "uint256"
        },
        {
          "internalType": "uint256",
          "name": "depositInWei",
          "type": "uint256"
        }
      ],
      "payable": false,
      "stateMutability": "view",
      "type": "function"
    },
    {
      "constant": true,
      "inputs": [],
      "name": "totalSupply",
      "outputs": [
        {
          "internalType": "uint256",
          "name": "",
          "type": "uint256"
        }
      ],
      "payable": false,
      "stateMutability": "view",
      "type": "function"
    },
    {
      "constant": true,
      "inputs": [],
      "name": "totalTokens",
      "outputs": [
        {
          "internalType": "uint256",
          "name": "",
          "type": "uint256"
        }
      ],
      "payable": false,
      "stateMutability": "view",
      "type": "function"
    },
    {
      "constant": false,
      "inputs": [
        {
          "internalType": "uint256",
          "name": "_tokenId",
          "type": "uint256"
        },
        {
          "internalType": "uint256",
          "name": "_start",
          "type": "uint256"
        },
        {
          "internalType": "uint256",
          "name": "_end",
          "type": "uint256"
        },
        {
          "internalType": "uint256",
          "name": "_depositInWei",
          "type": "uint256"
        }
      ],
      "name": "enableTokenForLending",
      "outputs": [
        {
          "internalType": "bool",
          "name": "",
          "type": "bool"
        }
      ],
      "payable": false,
      "stateMutability": "nonpayable",
      "type": "function"
    },
    {
      "constant": false,
      "inputs": [
        {
          "internalType": "uint256",
          "name": "_tokenId",
          "type": "uint256"
        }
      ],
      "name": "cancelLoan",
      "outputs": [
        {
          "internalType": "bool",
          "name": "",
          "type": "bool"
        }
      ],
      "payable": false,
      "stateMutability": "nonpayable",
      "type": "function"
    },
    {
      "constant": false,
      "inputs": [
        {
          "internalType": "uint256",
          "name": "_tokenId",
          "type": "uint256"
        }
      ],
      "name": "borrowToken",
      "outputs": [
        {
          "internalType": "bool",
          "name": "",
          "type": "bool"
        }
      ],
      "payable": false,
      "stateMutability": "nonpayable",
      "type": "function"
    },
    {
      "constant": false,
      "inputs": [
        {
          "internalType": "uint256",
          "name": "_tokenId",
          "type": "uint256"
        }
      ],
      "name": "returnBorrowedNft",
      "outputs": [
        {
          "internalType": "bool",
          "name": "",
          "type": "bool"
        }
      ],
      "payable": false,
      "stateMutability": "nonpayable",
      "type": "function"
    },
    {
      "constant": false,
      "inputs": [
        {
          "internalType": "uint256",
          "name": "_tokenId",
          "type": "uint256"
        }
      ],
      "name": "clawBackNft",
      "outputs": [],
      "payable": false,
      "stateMutability": "nonpayable",
      "type": "function"
    },
    {
      "constant": true,
      "inputs": [
        {
          "internalType": "uint256",
          "name": "_tokenId",
          "type": "uint256"
        }
      ],
      "name": "getLoanDetails",
      "outputs": [
        {
          "internalType": "address",
          "name": "lender",
          "type": "address"
        },
        {
          "internalType": "address",
          "name": "borrower",
          "type": "address"
        },
        {
          "internalType": "bool",
          "name": "isEscrowed",
          "type": "bool"
        },
        {
          "internalType": "bool",
          "name": "isBorrowed",
          "type": "bool"
        },
        {
          "internalType": "uint256",
          "name": "start",
          "type": "uint256"
        },
        {
          "internalType": "uint256",
          "name": "end",
          "type": "uint256"
        }
      ],
      "payable": false,
      "stateMutability": "view",
      "type": "function"
    },
    {
      "constant": false,
      "inputs": [
        {
          "internalType": "uint256",
          "name": "_tokenId",
          "type": "uint256"
        }
      ],
      "name": "getRemainingTimeLeftForLoan",
      "outputs": [
        {
          "internalType": "uint256",
          "name": "",
          "type": "uint256"
        }
      ],
      "payable": false,
      "stateMutability": "nonpayable",
      "type": "function"
    },
    {
      "constant": false,
      "inputs": [
        {
          "internalType": "uint256",
          "name": "_tokenId",
          "type": "uint256"
        }
      ],
      "name": "getRemainingStreamBalance",
      "outputs": [
        {
          "internalType": "uint256",
          "name": "",
          "type": "uint256"
        }
      ],
      "payable": false,
      "stateMutability": "nonpayable",
      "type": "function"
    },
    {
      "constant": false,
      "inputs": [
        {
          "internalType": "uint256",
          "name": "_tokenId",
          "type": "uint256"
        }
      ],
      "name": "withdraw",
      "outputs": [
        {
          "internalType": "bool",
          "name": "",
          "type": "bool"
        }
      ],
      "payable": false,
      "stateMutability": "nonpayable",
      "type": "function"
    },
    {
      "constant": true,
      "inputs": [
        {
          "internalType": "uint256",
          "name": "_index",
          "type": "uint256"
        }
      ],
      "name": "getTokenIdForIndex",
      "outputs": [
        {
          "internalType": "uint256",
          "name": "",
          "type": "uint256"
        }
      ],
      "payable": false,
      "stateMutability": "view",
      "type": "function"
    },
    {
      "constant": true,
      "inputs": [
        {
          "internalType": "address",
          "name": "_lender",
          "type": "address"
        }
      ],
      "name": "getTokensLenderIsBorrowing",
      "outputs": [
        {
          "internalType": "uint256[]",
          "name": "",
          "type": "uint256[]"
        }
      ],
      "payable": false,
      "stateMutability": "view",
      "type": "function"
    },
    {
      "constant": false,
      "inputs": [
        {
          "internalType": "address",
          "name": "operator",
          "type": "address"
        },
        {
          "internalType": "address",
          "name": "from",
          "type": "address"
        },
        {
          "internalType": "uint256",
          "name": "tokenId",
          "type": "uint256"
        },
        {
          "internalType": "bytes",
          "name": "data",
          "type": "bytes"
        }
      ],
      "name": "onERC721Received",
      "outputs": [
        {
          "internalType": "bytes4",
          "name": "",
          "type": "bytes4"
        }
      ],
      "payable": false,
      "stateMutability": "nonpayable",
      "type": "function"
    },
    {
      "constant": true,
      "inputs": [
        {
          "internalType": "uint256",
          "name": "_tokenId",
          "type": "uint256"
        }
      ],
      "name": "isTokenEscrowed",
      "outputs": [
        {
          "internalType": "bool",
          "name": "",
          "type": "bool"
        }
      ],
      "payable": false,
      "stateMutability": "view",
      "type": "function"
    },
    {
      "constant": true,
      "inputs": [
        {
          "internalType": "uint256",
          "name": "_tokenId",
          "type": "uint256"
        },
        {
          "internalType": "address",
          "name": "_owner",
          "type": "address"
        }
      ],
      "name": "isTokenOwnedBy",
      "outputs": [
        {
          "internalType": "bool",
          "name": "",
          "type": "bool"
        }
      ],
      "payable": false,
      "stateMutability": "view",
      "type": "function"
    },
    {
      "constant": true,
      "inputs": [],
      "name": "name",
      "outputs": [
        {
          "internalType": "string",
          "name": "",
          "type": "string"
        }
      ],
      "payable": false,
      "stateMutability": "view",
      "type": "function"
    },
    {
      "constant": true,
      "inputs": [],
      "name": "symbol",
      "outputs": [
        {
          "internalType": "string",
          "name": "",
          "type": "string"
        }
      ],
      "payable": false,
      "stateMutability": "view",
      "type": "function"
    },
    {
      "constant": true,
      "inputs": [
        {
          "internalType": "uint256",
          "name": "_tokenId",
          "type": "uint256"
        }
      ],
      "name": "tokenURI",
      "outputs": [
        {
          "internalType": "string",
          "name": "",
          "type": "string"
        }
      ],
      "payable": false,
      "stateMutability": "view",
      "type": "function"
    },
    {
      "constant": true,
      "inputs": [
        {
          "internalType": "uint256",
          "name": "_tokenId",
          "type": "uint256"
        }
      ],
      "name": "getPrincipleTokenUri",
      "outputs": [
        {
          "internalType": "string",
          "name": "",
          "type": "string"
        }
      ],
      "payable": false,
      "stateMutability": "view",
      "type": "function"
    },
    {
      "constant": true,
      "inputs": [
        {
          "internalType": "address",
          "name": "owner",
          "type": "address"
        }
      ],
      "name": "balanceOf",
      "outputs": [
        {
          "internalType": "uint256",
          "name": "",
          "type": "uint256"
        }
      ],
      "payable": false,
      "stateMutability": "view",
      "type": "function"
    },
    {
      "constant": true,
      "inputs": [
        {
          "internalType": "uint256",
          "name": "_tokenId",
          "type": "uint256"
        }
      ],
      "name": "ownerOf",
      "outputs": [
        {
          "internalType": "address",
          "name": "",
          "type": "address"
        }
      ],
      "payable": false,
      "stateMutability": "view",
      "type": "function"
    },
    {
      "constant": false,
      "inputs": [
        {
          "internalType": "address",
          "name": "from",
          "type": "address"
        },
        {
          "internalType": "address",
          "name": "to",
          "type": "address"
        },
        {
          "internalType": "uint256",
          "name": "tokenId",
          "type": "uint256"
        }
      ],
      "name": "safeTransferFrom",
      "outputs": [],
      "payable": false,
      "stateMutability": "nonpayable",
      "type": "function"
    },
    {
      "constant": false,
      "inputs": [
        {
          "internalType": "address",
          "name": "from",
          "type": "address"
        },
        {
          "internalType": "address",
          "name": "to",
          "type": "address"
        },
        {
          "internalType": "uint256",
          "name": "tokenId",
          "type": "uint256"
        },
        {
          "internalType": "bytes",
          "name": "_data",
          "type": "bytes"
        }
      ],
      "name": "safeTransferFrom",
      "outputs": [],
      "payable": false,
      "stateMutability": "nonpayable",
      "type": "function"
    },
    {
      "constant": false,
      "inputs": [
        {
          "internalType": "address",
          "name": "from",
          "type": "address"
        },
        {
          "internalType": "address",
          "name": "to",
          "type": "address"
        },
        {
          "internalType": "uint256",
          "name": "tokenId",
          "type": "uint256"
        }
      ],
      "name": "transferFrom",
      "outputs": [],
      "payable": false,
      "stateMutability": "nonpayable",
      "type": "function"
    }
  ],
  "bytecode": "0x608060405260006014553480156200001657600080fd5b506040516200387038038062003870833981810160405260608110156200003c57600080fd5b5080516020808301516040938401518451808601865260098152684c6f616e536861726b60b81b8185015285518087019096526007865266098a697e13f4d160cb1b938601939093529293909291908181620000a86301ffc9a760e01b6001600160e01b036200022316565b620000c36380ac58cd60e01b6001600160e01b036200022316565b620000de63780e9d6360e01b6001600160e01b036200022316565b8151620000f3906009906020850190620004e4565b5080516200010990600a906020840190620004e4565b5062000125635b5e139f60e01b6001600160e01b036200022316565b505050506200014c6200013d620002a860201b60201c565b6001600160e01b03620002ad16565b6200016233620002ff60201b620010cd1760201c565b600f80546001600160a01b038085166001600160a01b031992831617928390556010805487831690841617905560118054858316931692909217918290556040805163095ea7b360e01b8152928216600484015260001960248401525192169163095ea7b3916044808201926020929091908290030181600087803b158015620001eb57600080fd5b505af115801562000200573d6000803e3d6000fd5b505050506040513d60208110156200021757600080fd5b50620005869350505050565b6001600160e01b0319808216141562000283576040805162461bcd60e51b815260206004820152601c60248201527f4552433136353a20696e76616c696420696e7465726661636520696400000000604482015290519081900360640190fd5b6001600160e01b0319166000908152602081905260409020805460ff19166001179055565b335b90565b620002c881600d6200037960201b62002f111790919060201c565b6040516001600160a01b038216907f22380c05984257a1cb900161c713dd71d39e74820f1aea43bd3f1bdd2096129990600090a250565b62000325620003166001600160e01b03620002a816565b6001600160e01b036200040616565b620003625760405162461bcd60e51b8152600401808060200182810382526040815260200180620038306040913960400191505060405180910390fd5b62000376816001600160e01b036200042916565b50565b6200038e82826001600160e01b036200047b16565b15620003e1576040805162461bcd60e51b815260206004820152601f60248201527f526f6c65733a206163636f756e7420616c72656164792068617320726f6c6500604482015290519081900360640190fd5b6001600160a01b0316600090815260209190915260409020805460ff19166001179055565b60006200042382600d6200047b60201b62002e1a1790919060201c565b92915050565b6200044481600e6200037960201b62002f111790919060201c565b6040516001600160a01b038216907fee1504a83b6d4a361f4c1dc78ab59bfa30d6a3b6612c403e86bb01ef2984295f90600090a250565b60006001600160a01b038216620004c45760405162461bcd60e51b81526004018080602001828103825260228152602001806200380e6022913960400191505060405180910390fd5b506001600160a01b03166000908152602091909152604090205460ff1690565b828054600181600116156101000203166002900490600052602060002090601f016020900481019282601f106200052757805160ff191683800117855562000557565b8280016001018555821562000557579182015b82811115620005575782518255916020019190600101906200053a565b506200056592915062000569565b5090565b620002aa91905b8082111562000565576000815560010162000570565b61327880620005966000396000f3fe608060405234801561001057600080fd5b506004361061028a5760003560e01c806366877b8d1161015c578063b1c674ed116100ce578063c0e896d411610087578063c0e896d414610a3d578063c3cbefb814610a69578063c87b56dd14610a86578063c95357d914610aa3578063d6cd947314610ac0578063e985e9c514610ac85761028a565b8063b1c674ed1461088f578063b88d4fde146108fc578063ba9ac115146109c0578063bb5f747b146109dd578063bdbfa3de14610a03578063bdd3e43e14610a205761028a565b80637aef1164116101205780637aef1164146107fa5780637e1c0c0914610817578063807b1eba1461081f5780638510f4681461083c57806395d89b4114610859578063a22cb465146108615761028a565b806366877b8d1461072d5780636c0360eb1461078957806370a0823114610791578063727f86aa146107b75780637362d9c8146107d45761028a565b8063291d954911610200578063409f2622116101b9578063409f26221461067e57806342842e0e146106ad5780634c5a628c146106e35780634f6ccce7146106eb57806355a373d6146107085780636352211e146107105761028a565b8063291d95491461056b5780632c423721146105915780632e1a7d4d146106075780632f745c59146106245780633013ce29146106505780633af32abf146106585761028a565b806310154bad1161025257806310154bad146103cb578063150b7a02146103f157806318160ddd146104d25780631a6814a3146104ec5780632100d9b61461051857806323b872dd146105355761028a565b806301ffc9a71461028f57806306fdde03146102ca578063081812fc14610347578063092f577614610380578063095ea7b31461039d575b600080fd5b6102b6600480360360208110156102a557600080fd5b50356001600160e01b031916610af6565b604080519115158252519081900360200190f35b6102d2610b19565b6040805160208082528351818301528351919283929083019185019080838360005b8381101561030c5781810151838201526020016102f4565b50505050905090810190601f1680156103395780820380516001836020036101000a031916815260200191505b509250505060405180910390f35b6103646004803603602081101561035d57600080fd5b5035610c4e565b604080516001600160a01b039092168252519081900360200190f35b6102b66004803603602081101561039657600080fd5b5035610cb0565b6103c9600480360360408110156103b357600080fd5b506001600160a01b038135169060200135610fa5565b005b6103c9600480360360208110156103e157600080fd5b50356001600160a01b03166110cd565b6104b56004803603608081101561040757600080fd5b6001600160a01b03823581169260208101359091169160408201359190810190608081016060820135600160201b81111561044157600080fd5b82018360208201111561045357600080fd5b803590602001918460018302840111600160201b8311171561047457600080fd5b91908080601f016020809104026020016040519081016040528093929190818152602001838380828437600092019190915250929550611124945050505050565b604080516001600160e01b03199092168252519081900360200190f35b6104da611134565b60408051918252519081900360200190f35b6102b66004803603604081101561050257600080fd5b50803590602001356001600160a01b031661113a565b6102d26004803603602081101561052e57600080fd5b50356111c9565b6103c96004803603606081101561054b57600080fd5b506001600160a01b03813581169160208101359091169060400135611307565b6103c96004803603602081101561058157600080fd5b50356001600160a01b0316611491565b6105b7600480360360208110156105a757600080fd5b50356001600160a01b03166114e0565b60408051602080825283518183015283519192839290830191858101910280838360005b838110156105f35781810151838201526020016105db565b505050509050019250505060405180910390f35b6102b66004803603602081101561061d57600080fd5b503561155f565b6104da6004803603604081101561063a57600080fd5b506001600160a01b038135169060200135611791565b610364611810565b6102b66004803603602081101561066e57600080fd5b50356001600160a01b031661181f565b6102b66004803603608081101561069457600080fd5b5080359060208101359060408101359060600135611838565b6103c9600480360360608110156106c357600080fd5b506001600160a01b03813581169160208101359091169060400135611bde565b6103c9611bf9565b6104da6004803603602081101561070157600080fd5b5035611c0b565b610364611c71565b6103646004803603602081101561072657600080fd5b5035611c80565b61074a6004803603602081101561074357600080fd5b5035611da1565b604080516001600160a01b039788168152959096166020860152921515848601529015156060840152608083015260a082015290519081900360c00190f35b6102d2611e54565b6104da600480360360208110156107a757600080fd5b50356001600160a01b0316611eea565b6102b6600480360360208110156107cd57600080fd5b5035611f6d565b6103c9600480360360208110156107ea57600080fd5b50356001600160a01b0316611f79565b6104da6004803603602081101561081057600080fd5b5035611fc8565b6104da611fda565b6104da6004803603602081101561083557600080fd5b5035611fe0565b6104da6004803603602081101561085257600080fd5b5035612181565b6102d2612193565b6103c96004803603604081101561087757600080fd5b506001600160a01b03813516906020013515156121d8565b6108ac600480360360208110156108a557600080fd5b50356122dd565b604080516001600160a01b03998a168152602081019890985295909716868601529215156060860152901515608085015260a084015260c083015260e08201929092529051908190036101000190f35b6103c96004803603608081101561091257600080fd5b6001600160a01b03823581169260208101359091169160408201359190810190608081016060820135600160201b81111561094c57600080fd5b82018360208201111561095e57600080fd5b803590602001918460018302840111600160201b8311171561097f57600080fd5b91908080601f016020809104026020016040519081016040528093929190818152602001838380828437600092019190915250929550612331945050505050565b6102b6600480360360208110156109d657600080fd5b503561252e565b6102b6600480360360208110156109f357600080fd5b50356001600160a01b03166126b9565b6102b660048036036020811015610a1957600080fd5b50356126cc565b6104da60048036036020811015610a3657600080fd5b5035612963565b6104da60048036036040811015610a5357600080fd5b506001600160a01b038135169060200135612a9c565b6104da60048036036020811015610a7f57600080fd5b5035612aca565b6102d260048036036020811015610a9c57600080fd5b5035612adc565b6103c960048036036020811015610ab957600080fd5b5035612cd3565b6103c9612d2b565b6102b660048036036040811015610ade57600080fd5b506001600160a01b0381358116916020013516612d3b565b6001600160e01b0319811660009081526020819052604090205460ff165b919050565b601054604080516306fdde0360e01b815290516060926001600160a01b0316916306fdde03916004808301926000929190829003018186803b158015610b5e57600080fd5b505afa158015610b72573d6000803e3d6000fd5b505050506040513d6000823e601f3d908101601f191682016040526020811015610b9b57600080fd5b8101908080516040519392919084600160201b821115610bba57600080fd5b908301906020820185811115610bcf57600080fd5b8251600160201b811182820188101715610be857600080fd5b82525081516020918201929091019080838360005b83811015610c15578181015183820152602001610bfd565b50505050905090810190601f168015610c425780820380516001836020036101000a031916815260200191505b50604052505050905090565b6000610c5982612d69565b610c945760405162461bcd60e51b815260040180806020018281038252602c815260200180613169602c913960400191505060405180910390fd5b506000908152600260205260409020546001600160a01b031690565b600081815260126020526040812060010154610d08576040805162461bcd60e51b8152602060048201526012602482015271546f6b656e206e6f7420666f722073616c6560701b604482015290519081900360640190fd5b60008281526012602052604090206002810154600160a01b900460ff16610d6b576040805162461bcd60e51b8152602060048201526012602482015271151bdad95b881b9bdd08195cd8dc9bddd95960721b604482015290519081900360640190fd5b6002810154600160a81b900460ff1615610dc5576040805162461bcd60e51b8152602060048201526016602482015275151bdad95b88185b1c9958591e48189bdc9c9bddd95960521b604482015290519081900360640190fd5b60028101546001600160a01b031615610e25576040805162461bcd60e51b815260206004820152601c60248201527f546f6b656e20616c726561647920676f74206120626f72726f77657200000000604482015290519081900360640190fd5b600281018054600160a81b336001600160a01b0319909216821760ff60a81b191617909155600f546005830154604080516323b872dd60e01b815260048101949094523060248501526044840191909152516001600160a01b03909116916323b872dd9160648083019260209291908290030181600087803b158015610eaa57600080fd5b505af1158015610ebe573d6000803e3d6000fd5b505050506040513d6020811015610ed457600080fd5b505060115481546005830154600f5460038501546004808701546040805163660da5fb60e11b81526001600160a01b039788169381019390935260248301959095529285166044820152606481019190915260848101919091529051600093929092169163cc1b4bf69160a48082019260209290919082900301818787803b158015610f5f57600080fd5b505af1158015610f73573d6000803e3d6000fd5b505050506040513d6020811015610f8957600080fd5b5051600085815260166020526040902055506001915050919050565b6000610fb082611c80565b9050806001600160a01b0316836001600160a01b031614156110035760405162461bcd60e51b81526004018080602001828103825260218152602001806131f76021913960400191505060405180910390fd5b806001600160a01b0316611015612d86565b6001600160a01b03161480611036575061103681611031612d86565b612d3b565b6110715760405162461bcd60e51b81526004018080602001828103825260388152602001806131106038913960400191505060405180910390fd5b60008281526002602052604080822080546001600160a01b0319166001600160a01b0387811691821790925591518593918516917f8c5be1e5ebec7d5bd14f71427d1e84f3dd0314c0f7b2291e5b200ac8c7c3b92591a4505050565b6110dd6110d8612d86565b6126b9565b6111185760405162461bcd60e51b81526004018080602001828103825260408152602001806131b76040913960400191505060405180910390fd5b61112181612d8a565b50565b630a85bd0160e11b949350505050565b60075490565b601054604080516331a9108f60e11b81526004810185905290516000926001600160a01b0380861693911691636352211e91602480820192602092909190829003018186803b15801561118c57600080fd5b505afa1580156111a0573d6000803e3d6000fd5b505050506040513d60208110156111b657600080fd5b50516001600160a01b0316149392505050565b6010546040805163c87b56dd60e01b81526004810184905290516060926001600160a01b03169163c87b56dd916024808301926000929190829003018186803b15801561121557600080fd5b505afa158015611229573d6000803e3d6000fd5b505050506040513d6000823e601f3d908101601f19168201604052602081101561125257600080fd5b8101908080516040519392919084600160201b82111561127157600080fd5b90830190602082018581111561128657600080fd5b8251600160201b81118282018810171561129f57600080fd5b82525081516020918201929091019080838360005b838110156112cc5781810151838201526020016112b4565b50505050905090810190601f1680156112f95780820380516001836020036101000a031916815260200191505b506040525050509050919050565b61130f612ff9565b5060008181526012602090815260409182902082516101008101845281546001600160a01b03908116825260018301549382019390935260028201549283169381019390935260ff600160a01b8304811615156060850152600160a81b9092049091161580156080840152600382015460a0840152600482015460c084015260059091015460e08301526113d45760405162461bcd60e51b81526004018080602001828103825260238152602001806130806023913960400191505060405180910390fd5b8060600151156114155760405162461bcd60e51b81526004018080602001828103825260238152602001806130ed6023913960400191505060405180910390fd5b601054604080516323b872dd60e01b81526001600160a01b038781166004830152868116602483015260448201869052915191909216916323b872dd91606480830192600092919082900301818387803b15801561147257600080fd5b505af1158015611486573d6000803e3d6000fd5b50505050505b505050565b61149c6110d8612d86565b6114d75760405162461bcd60e51b81526004018080602001828103825260408152602001806131b76040913960400191505060405180910390fd5b61112181612dd2565b60608060136000846001600160a01b03166001600160a01b0316815260200190815260200160002080548060200260200160405190810160405280929190818152602001828054801561155257602002820191906000526020600020905b81548152602001906001019080831161153e575b5093979650505050505050565b600081815260166020526040812054806115b5576040805162461bcd60e51b81526020600482015260126024820152714d757374206861766520612073747265616d60701b604482015290519081900360640190fd5b6115bd612ff9565b5060008381526012602090815260409182902082516101008101845281546001600160a01b0390811680835260018401549483019490945260028301549081169482019490945260ff600160a01b8504811615156060830152600160a81b90940490931615156080840152600381015460a0840152600481015460c08401526005015460e08301523314611689576040805162461bcd60e51b815260206004820152600e60248201526d26bab9ba103132903632b73232b960911b604482015290519081900360640190fd5b601154815160408051631b2b776160e11b8152600481018690526001600160a01b03928316602482015290519190921691637a9b2c6c9185918491633656eec291604480820192602092909190829003018186803b1580156116ea57600080fd5b505afa1580156116fe573d6000803e3d6000fd5b505050506040513d602081101561171457600080fd5b5051604080516001600160e01b031960e086901b168152600481019390935260248301919091525160448083019260209291908290030181600087803b15801561175d57600080fd5b505af1158015611771573d6000803e3d6000fd5b505050506040513d602081101561178757600080fd5b5051949350505050565b600061179c83611eea565b82106117d95760405162461bcd60e51b815260040180806020018281038252602b815260200180613055602b913960400191505060405180910390fd5b6001600160a01b03831660009081526005602052604090208054839081106117fd57fe5b9060005260206000200154905092915050565b600f546001600160a01b031681565b6000611832600e8363ffffffff612e1a16565b92915050565b6000848152601260205260408120600101541561189c576040805162461bcd60e51b815260206004820152601d60248201527f546f6b656e20616c726561647920706c6163656420666f722073616c65000000604482015290519081900360640190fd5b601054604080516331a9108f60e11b815260048101889052905133926001600160a01b031691636352211e916024808301926020929190829003018186803b1580156118e757600080fd5b505afa1580156118fb573d6000803e3d6000fd5b505050506040513d602081101561191157600080fd5b50516001600160a01b03161461196e576040805162461bcd60e51b815260206004820152601b60248201527f43616c6c657220646f6573206e6f74206f776e20746865204e46540000000000604482015290519081900360640190fd5b604051806101000160405280336001600160a01b0316815260200186815260200160006001600160a01b03168152602001600115158152602001600015158152602001858152602001848152602001838152506012600087815260200190815260200160002060008201518160000160006101000a8154816001600160a01b0302191690836001600160a01b031602179055506020820151816001015560408201518160020160006101000a8154816001600160a01b0302191690836001600160a01b0316021790555060608201518160020160146101000a81548160ff02191690831515021790555060808201518160020160156101000a81548160ff02191690831515021790555060a0820151816003015560c0820151816004015560e08201518160050155905050601060009054906101000a90046001600160a01b03166001600160a01b03166342842e0e3330886040518463ffffffff1660e01b815260040180846001600160a01b03166001600160a01b03168152602001836001600160a01b03166001600160a01b031681526020018281526020019350505050600060405180830381600087803b158015611b2857600080fd5b505af1158015611b3c573d6000803e3d6000fd5b50505050611b4985611f6d565b611b9a576040805162461bcd60e51b815260206004820152601c60248201527f546f6b656e206e6f7420636f72726563746c7920657363726f77656400000000604482015290519081900360640190fd5b506014805460009081526015602090815260408083208890558354600190810190945533835260138252822080548085018255908352912001859055949350505050565b61148c83838360405180602001604052806000815250612331565b611c09611c04612d86565b612e81565b565b6000611c15611134565b8210611c525760405162461bcd60e51b815260040180806020018281038252602c815260200180613218602c913960400191505060405180910390fd5b60078281548110611c5f57fe5b90600052602060002001549050919050565b6010546001600160a01b031681565b6000611c8a612ff9565b5060008281526012602090815260409182902082516101008101845281546001600160a01b03908116825260018301549382019390935260028201549283169381019390935260ff600160a01b8304811615156060850152600160a81b9092049091161580156080840152600382015460a0840152600482015460c084015260059091015460e0830152611d9957601054604080516331a9108f60e11b81526004810186905290516001600160a01b0390921691636352211e91602480820192602092909190829003018186803b158015611d6457600080fd5b505afa158015611d78573d6000803e3d6000fd5b505050506040513d6020811015611d8e57600080fd5b50519150610b149050565b503092915050565b600080600080600080611db2612ff9565b505050600094855250506012602090815260409384902084516101008101865281546001600160a01b03908116808352600184015494830194909452600283015490811696820187905260ff600160a01b82048116151560608401819052600160a81b90920416151560808301819052600384015460a08401819052600485015460c0850181905260059095015460e090940193909352939790955092935091565b600b8054604080516020601f6002600019610100600188161502019095169490940493840181900481028201810190925282815260609390929091830182828015611ee05780601f10611eb557610100808354040283529160200191611ee0565b820191906000526020600020905b815481529060010190602001808311611ec357829003601f168201915b5050505050905090565b601054604080516370a0823160e01b81526001600160a01b038481166004830152915160009392909216916370a0823191602480820192602092909190829003018186803b158015611f3b57600080fd5b505afa158015611f4f573d6000803e3d6000fd5b505050506040513d6020811015611f6557600080fd5b505192915050565b6000611832823061113a565b611f846110d8612d86565b611fbf5760405162461bcd60e51b81526004018080602001828103825260408152602001806131b76040913960400191505060405180910390fd5b61112181612ec9565b60156020526000908152604090205481565b60145481565b60008181526016602052604081205480612036576040805162461bcd60e51b81526020600482015260126024820152714d757374206861766520612073747265616d60701b604482015290519081900360640190fd5b61203e612ff9565b5060008381526012602090815260409182902082516101008101845281546001600160a01b03908116825260018301549382019390935260028201549283169381019390935260ff600160a01b8304811615156060850152600160a81b90920490911615156080830152600381015460a08301819052600482015460c084015260059091015460e083015242116120e3578060a001518160c001510392505050610b14565b8060c001514211156120fa57600092505050610b14565b6011546040805163a82ccd4d60e01b81526004810185905290516001600160a01b039092169163a82ccd4d91602480820192602092909190829003018186803b15801561214657600080fd5b505afa15801561215a573d6000803e3d6000fd5b505050506040513d602081101561217057600080fd5b505160c09091015103915050919050565b60009081526015602052604090205490565b601054604080516395d89b4160e01b815290516060926001600160a01b0316916395d89b41916004808301926000929190829003018186803b158015610b5e57600080fd5b6121e0612d86565b6001600160a01b0316826001600160a01b03161415612246576040805162461bcd60e51b815260206004820152601960248201527f4552433732313a20617070726f766520746f2063616c6c657200000000000000604482015290519081900360640190fd5b8060046000612253612d86565b6001600160a01b03908116825260208083019390935260409182016000908120918716808252919093529120805460ff191692151592909217909155612297612d86565b60408051841515815290516001600160a01b0392909216917f17307eab39ab6107e8899845ad3d59bd9653f200f220920489ca2b5937696c319181900360200190a35050565b6012602052600090815260409020805460018201546002830154600384015460048501546005909501546001600160a01b0394851695939483169360ff600160a01b8504811694600160a81b900416929188565b612339612ff9565b5060008281526012602090815260409182902082516101008101845281546001600160a01b03908116825260018301549382019390935260028201549283169381019390935260ff600160a01b8304811615156060850152600160a81b9092049091161580156080840152600382015460a0840152600482015460c084015260059091015460e08301526123fe5760405162461bcd60e51b81526004018080602001828103825260238152602001806130806023913960400191505060405180910390fd5b80606001511561243f5760405162461bcd60e51b81526004018080602001828103825260238152602001806130ed6023913960400191505060405180910390fd5b601054604051635c46a7ef60e11b81526001600160a01b0387811660048301908152878216602484015260448301879052608060648401908152865160848501528651929094169363b88d4fde938a938a938a938a939192909160a40190602085019080838360005b838110156124c05781810151838201526020016124a8565b50505050905090810190601f1680156124ed5780820380516001836020036101000a031916815260200191505b5095505050505050600060405180830381600087803b15801561250f57600080fd5b505af1158015612523573d6000803e3d6000fd5b505050505050505050565b600081815260126020526040812060010154612586576040805162461bcd60e51b8152602060048201526012602482015271546f6b656e206e6f7420666f722073616c6560701b604482015290519081900360640190fd5b60008281526012602052604090206002810154600160a01b900460ff166125e9576040805162461bcd60e51b8152602060048201526012602482015271151bdad95b881b9bdd08195cd8dc9bddd95960721b604482015290519081900360640190fd5b6002810154600160a81b900460ff1661263e576040805162461bcd60e51b8152602060048201526012602482015271151bdad95b881b9bdd08189bdc9c9bddd95960721b604482015290519081900360640190fd5b60028101546001600160a01b0316331461269f576040805162461bcd60e51b815260206004820152601c60248201527f546f6b656e206e6f7420626f72726f7765642062792063616c6c657200000000604482015290519081900360640190fd5b6002018054600161ff0160a01b0319169055506001919050565b6000611832600d8363ffffffff612e1a16565b600081815260126020526040812060010154612724576040805162461bcd60e51b8152602060048201526012602482015271546f6b656e206e6f7420666f722073616c6560701b604482015290519081900360640190fd5b60008281526012602052604090206002810154600160a01b900460ff16612787576040805162461bcd60e51b8152602060048201526012602482015271151bdad95b881b9bdd08195cd8dc9bddd95960721b604482015290519081900360640190fd5b6002810154600160a81b900460ff16156127e1576040805162461bcd60e51b8152602060048201526016602482015275151bdad95b88185b1c9958591e48189bdc9c9bddd95960521b604482015290519081900360640190fd5b60028101546001600160a01b0316612840576040805162461bcd60e51b815260206004820152601c60248201527f546f6b656e20616c726561647920676f74206120626f72726f77657200000000604482015290519081900360640190fd5b805460008481526012602052604080822080546001600160a01b0319168155600181018390556002810180546001600160b01b031916905560038101839055600480820184905560059091018390556010548251632142170760e11b815230928101929092526001600160a01b0394851660248301819052604483018990529251929416926342842e0e9260648084019382900301818387803b1580156128e657600080fd5b505af11580156128fa573d6000803e3d6000fd5b50505050612908848261113a565b612959576040805162461bcd60e51b815260206004820152601f60248201527f546f6b656e206e6f742072657475726e6564207375636365737366756c6c7900604482015290519081900360640190fd5b5060019392505050565b600081815260166020526040812054806129b9576040805162461bcd60e51b81526020600482015260126024820152714d757374206861766520612073747265616d60701b604482015290519081900360640190fd5b6129c1612ff9565b5060008381526012602090815260409182902082516101008101845281546001600160a01b0390811680835260018401548386015260028401548083168488015260ff600160a01b8204811615156060860152600160a81b9091041615156080840152600384015460a084015260048085015460c085015260059094015460e08401526011548651631b2b776160e11b81529485018890526024850191909152945191941692633656eec29260448082019391829003018186803b158015612a8857600080fd5b505afa158015611771573d6000803e3d6000fd5b60136020528160005260406000208181548110612ab557fe5b90600052602060002001600091509150505481565b60166020526000908152604090205481565b6060612ae6612ff9565b5060008281526012602090815260409182902082516101008101845281546001600160a01b03908116825260018301549382019390935260028201549283169381019390935260ff600160a01b8304811615156060850152600160a81b9092049091161580156080840152600382015460a0840152600482015460c084015260059091015460e0830152612cb3576010546040805163c87b56dd60e01b81526004810186905290516001600160a01b039092169163c87b56dd91602480820192600092909190829003018186803b158015612bc057600080fd5b505afa158015612bd4573d6000803e3d6000fd5b505050506040513d6000823e601f3d908101601f191682016040526020811015612bfd57600080fd5b8101908080516040519392919084600160201b821115612c1c57600080fd5b908301906020820185811115612c3157600080fd5b8251600160201b811182820188101715612c4a57600080fd5b82525081516020918201929091019080838360005b83811015612c77578181015183820152602001612c5f565b50505050905090810190601f168015612ca45780820380516001836020036101000a031916815260200191505b50604052505050915050610b14565b6040518060800160405280604a81526020016130a3604a91399392505050565b600081815260126020526040902060010154611121576040805162461bcd60e51b8152602060048201526012602482015271546f6b656e206e6f7420666f722073616c6560701b604482015290519081900360640190fd5b611c09612d36612d86565b612dd2565b6001600160a01b03918216600090815260046020908152604080832093909416825291909152205460ff1690565b6000908152600160205260409020546001600160a01b0316151590565b3390565b612d9b600e8263ffffffff612f1116565b6040516001600160a01b038216907fee1504a83b6d4a361f4c1dc78ab59bfa30d6a3b6612c403e86bb01ef2984295f90600090a250565b612de3600e8263ffffffff612f9216565b6040516001600160a01b038216907f270d9b30cf5b0793bbfd54c9d5b94aeb49462b8148399000265144a8722da6b690600090a250565b60006001600160a01b038216612e615760405162461bcd60e51b81526004018080602001828103825260228152602001806131956022913960400191505060405180910390fd5b506001600160a01b03166000908152602091909152604090205460ff1690565b612e92600d8263ffffffff612f9216565b6040516001600160a01b038216907f0a8eb35e5ca14b3d6f28e4abf2f128dbab231a58b56e89beb5d636115001e16590600090a250565b612eda600d8263ffffffff612f1116565b6040516001600160a01b038216907f22380c05984257a1cb900161c713dd71d39e74820f1aea43bd3f1bdd2096129990600090a250565b612f1b8282612e1a565b15612f6d576040805162461bcd60e51b815260206004820152601f60248201527f526f6c65733a206163636f756e7420616c72656164792068617320726f6c6500604482015290519081900360640190fd5b6001600160a01b0316600090815260209190915260409020805460ff19166001179055565b612f9c8282612e1a565b612fd75760405162461bcd60e51b81526004018080602001828103825260218152602001806131486021913960400191505060405180910390fd5b6001600160a01b0316600090815260209190915260409020805460ff19169055565b60405180610100016040528060006001600160a01b031681526020016000815260200160006001600160a01b03168152602001600015158152602001600015158152602001600081526020016000815260200160008152509056fe455243373231456e756d657261626c653a206f776e657220696e646578206f7574206f6620626f756e647343616e6e6f74207472616e73666572206120626f72726f77656420636f6e747261637468747470733a2f2f697066732e696e667572612e696f2f697066732f516d59413366617a4b575873695258594444794878424b426938756445526a61527a6a7450524e4332444b6a335a43616e6e6f74207472616e73666572206120657363726f77656420636f6e74726163744552433732313a20617070726f76652063616c6c6572206973206e6f74206f776e6572206e6f7220617070726f76656420666f7220616c6c526f6c65733a206163636f756e7420646f6573206e6f74206861766520726f6c654552433732313a20617070726f76656420717565727920666f72206e6f6e6578697374656e7420746f6b656e526f6c65733a206163636f756e7420697320746865207a65726f206164647265737357686974656c69737441646d696e526f6c653a2063616c6c657220646f6573206e6f742068617665207468652057686974656c69737441646d696e20726f6c654552433732313a20617070726f76616c20746f2063757272656e74206f776e6572455243373231456e756d657261626c653a20676c6f62616c20696e646578206f7574206f6620626f756e6473a265627a7a72315820e0ad60d0b7b54ebadbd829c5bc09cb8f870eae1addf342106b9e625996e6ad2164736f6c634300050e0032526f6c65733a206163636f756e7420697320746865207a65726f206164647265737357686974656c69737441646d696e526f6c653a2063616c6c657220646f6573206e6f742068617665207468652057686974656c69737441646d696e20726f6c65",
  "source": "pragma solidity 0.5.14;\n\nimport \"@openzeppelin/contracts/access/roles/WhitelistedRole.sol\";\nimport \"@openzeppelin/contracts/token/ERC20/IERC20.sol\";\nimport \"@openzeppelin/contracts/token/ERC721/IERC721Full.sol\";\nimport \"@openzeppelin/contracts/token/ERC721/ERC721Full.sol\";\nimport \"./sablier/IERC1620.sol\";\n\ncontract LoanShark is ERC721Full, WhitelistedRole {\n\n    struct Loan {\n        // Config\n        address lender;\n        uint256 tokenId;\n        address borrower;\n\n        // state flags\n        bool isEscrowed;\n        bool isBorrowed;\n        //\n        //        // payment terms\n        //        uint256 costPerMinute;\n        //        uint256 maxMinutesAvailableForHire;\n\n        uint256 start;\n        uint256 end;\n        uint256 depositInWei;\n    }\n\n    // What to stream the payment in\n    IERC20 public paymentToken;\n\n    // The original NFT contract\n    IERC721Full public tokenContract;\n\n    // Sablier stream for payments\n    IERC1620 stream;\n\n    mapping(uint256 => Loan) public tokensAvailableToLoan;\n\n    mapping(address => uint256[]) public lenderToTokenId;\n\n    // So we can enumerate them\n    uint256 public totalTokens = 0;\n    mapping(uint256 => uint256) public indexToTokenId;\n\n    mapping(uint256 => uint256) public tokenIdToStreamId;\n\n    constructor(\n        IERC721Full _tokenContract, // How to make this generic to not accept a token at construction\n        IERC20 _paymentToken, // DAI ... or even zkDAI ?\n        IERC1620 _stream\n    ) ERC721Full(\"LoanShark\", \"LSK\") public {\n        super.addWhitelisted(msg.sender);\n\n        paymentToken = _paymentToken;\n        tokenContract = _tokenContract;\n        stream = _stream;\n\n        // approve the stream to pull whatever they want from LoanShark\n        paymentToken.approve(address(stream), uint(- 1));\n    }\n\n    // TODO create a proxy method to allow call on original NFT by bytecode/method args - dynamic lookup?\n\n    function enableTokenForLending(uint256 _tokenId, uint256 _start, uint256 _end, uint256 _depositInWei) public returns (bool) {\n\n        // Validate input\n        //        require(_costPerMinute > 0, \"Cannot loan the token for free\");\n        require(tokensAvailableToLoan[_tokenId].tokenId == 0, \"Token already placed for sale\");\n\n        // Validate caller owns it\n        require(tokenContract.ownerOf(_tokenId) == msg.sender, \"Caller does not own the NFT\");\n\n        // Setup Loan\n        tokensAvailableToLoan[_tokenId] = Loan({\n            tokenId : _tokenId,\n            lender : msg.sender,\n            borrower : address(0x0),\n\n            isEscrowed : true,\n            isBorrowed : false,\n\n            start : _start,\n            end : _end,\n\n            depositInWei : _depositInWei\n            });\n\n        // Escrow NFT into the Loan Shark Contract\n        tokenContract.safeTransferFrom(msg.sender, address(this), _tokenId);\n        require(isTokenEscrowed(_tokenId), \"Token not correctly escrowed\");\n\n        // Setup simple enumeration\n        indexToTokenId[totalTokens] = _tokenId;\n        totalTokens = totalTokens + 1;\n\n        // setup simple lender mapping\n        lenderToTokenId[msg.sender].push(_tokenId);\n\n        return true;\n    }\n\n    /*\n     * Close any outstanding un-borrowed NFT loans\n     * Send the NFT back to the original lender\n     */\n    function cancelLoan(uint256 _tokenId) public returns (bool) {\n        require(tokensAvailableToLoan[_tokenId].tokenId != 0, \"Token not for sale\");\n\n        Loan storage loan = tokensAvailableToLoan[_tokenId];\n        require(loan.isEscrowed, \"Token not escrowed\");\n        require(!loan.isBorrowed, \"Token already borrowed\");\n        require(loan.borrower != address(0), \"Token already got a borrower\");\n\n        address originalLender = loan.lender;\n\n        delete tokensAvailableToLoan[_tokenId];\n\n        // Send the loan back to the original lender\n        tokenContract.safeTransferFrom(address(this), originalLender, _tokenId);\n        require(isTokenOwnedBy(_tokenId, originalLender), \"Token not returned successfully\");\n\n        return true;\n    }\n\n    function borrowToken(uint256 _tokenId) public returns (bool) {\n        require(tokensAvailableToLoan[_tokenId].tokenId != 0, \"Token not for sale\");\n\n        Loan storage loan = tokensAvailableToLoan[_tokenId];\n        require(loan.isEscrowed, \"Token not escrowed\");\n        require(!loan.isBorrowed, \"Token already borrowed\");\n        require(loan.borrower == address(0), \"Token already got a borrower\");\n\n        // sudo transfer this NFT to the new owner\n        loan.borrower = msg.sender;\n        loan.isBorrowed = true;\n\n        // deposit here in escrow to set up stream\n        paymentToken.transferFrom(msg.sender, address(this), loan.depositInWei);\n\n        // this will pull the escrowed amount into the stream\n        uint256 streamId = stream.createStream(loan.lender, loan.depositInWei, address(paymentToken), loan.start, loan.end);\n\n        tokenIdToStreamId[_tokenId] = streamId;\n        return true;\n    }\n\n    function returnBorrowedNft(uint256 _tokenId) public returns (bool) {\n        require(tokensAvailableToLoan[_tokenId].tokenId != 0, \"Token not for sale\");\n\n        Loan storage loan = tokensAvailableToLoan[_tokenId];\n        require(loan.isEscrowed, \"Token not escrowed\");\n        require(loan.isBorrowed, \"Token not borrowed\");\n        require(loan.borrower == msg.sender, \"Token not borrowed by caller\");\n\n        // sudo transfer this NFT back to the escrow\n        loan.borrower = address(0);\n        loan.isBorrowed = false;\n\n        // TODO close stream .... ?\n\n        return true;\n    }\n\n    function clawBackNft(uint256 _tokenId) public {\n        require(tokensAvailableToLoan[_tokenId].tokenId != 0, \"Token not for sale\");\n\n        // only allow after loan has expired\n        // take back ownership from the borrower\n        // reset loan state\n        // penalise the borrower in some form?\n    }\n\n    /////////////////////\n    // Query utilities //\n    /////////////////////\n\n    function getLoanDetails(uint _tokenId) public view returns (\n        address lender,\n        address borrower,\n        bool isEscrowed,\n        bool isBorrowed,\n        uint256 start,\n        uint256 end\n    ) {\n        Loan memory loan = tokensAvailableToLoan[_tokenId];\n        return (\n        loan.lender,\n        loan.borrower,\n        loan.isEscrowed,\n        loan.isBorrowed,\n        loan.start,\n        loan.end\n        );\n    }\n\n    function getRemainingTimeLeftForLoan(uint _tokenId) public returns (uint256) {\n        uint256 streamId = tokenIdToStreamId[_tokenId];\n        require(streamId > 0, \"Must have a stream\");\n\n        Loan memory loan = tokensAvailableToLoan[_tokenId];\n\n        if (block.timestamp <= loan.start) return loan.end - loan.start;\n        if (block.timestamp > loan.end) return 0;\n\n        return loan.end - stream.deltaOf(streamId);\n    }\n\n    function getRemainingStreamBalance(uint _tokenId) public returns (uint256) {\n        uint256 streamId = tokenIdToStreamId[_tokenId];\n        require(streamId > 0, \"Must have a stream\");\n\n        Loan memory loan = tokensAvailableToLoan[_tokenId];\n\n        return stream.balanceOf(streamId, loan.lender);\n    }\n\n    function withdraw(uint _tokenId) public returns (bool) {\n        uint256 streamId = tokenIdToStreamId[_tokenId];\n        require(streamId > 0, \"Must have a stream\");\n\n        Loan memory loan = tokensAvailableToLoan[_tokenId];\n        require(msg.sender == loan.lender, \"Must be lender\");\n\n        return stream.withdrawFromStream(streamId, stream.balanceOf(streamId, loan.lender));\n    }\n\n    ////////////////////\n    // Internal utils //\n    ////////////////////\n\n    function getTokenIdForIndex(uint256 _index) public view returns (uint256) {\n        return indexToTokenId[_index];\n    }\n\n    function getTokensLenderIsBorrowing(address _lender) public view returns (uint256[] memory) {\n        uint256[] memory tokenIds = lenderToTokenId[_lender];\n        return tokenIds;\n    }\n\n    // taking ownership of the NFT via callback confirmation\n    function onERC721Received(address operator, address from, uint256 tokenId, bytes memory data) public returns (bytes4) {\n        return this.onERC721Received.selector;\n    }\n\n    function isTokenEscrowed(uint256 _tokenId) public view returns (bool) {\n        return isTokenOwnedBy(_tokenId, address(this));\n    }\n\n    function isTokenOwnedBy(uint256 _tokenId, address _owner) public view returns (bool) {\n        return IERC721Full(tokenContract).ownerOf(_tokenId) == _owner;\n    }\n\n    ////////////////////////////////////////\n    // Overridden IERC721Metadata methods //\n    ////////////////////////////////////////\n\n    function name() public view returns (string memory) {\n        return tokenContract.name();\n    }\n\n    function symbol() public view returns (string memory) {\n        return tokenContract.symbol();\n    }\n\n    function tokenURI(uint256 _tokenId) public view returns (string memory) {\n        Loan memory loan = tokensAvailableToLoan[_tokenId];\n        if (loan.isBorrowed) {\n            return tokenContract.tokenURI(_tokenId);\n        }\n        // Static IPFS data for a loan shark NFT\n        return \"https://ipfs.infura.io/ipfs/QmYA3fazKWXsiRXYDDyHxBKBi8udERjaRzjtPRNC2DKj3Z\";\n    }\n\n    function getPrincipleTokenUri(uint256 _tokenId) public view returns (string memory) {\n        return tokenContract.tokenURI(_tokenId);\n    }\n\n    ////////////////////////////////\n    // Overridden IERC721 methods //\n    ////////////////////////////////\n\n    // TODO proxy through to escrowed NFT\n    // TODO special case methods which need to be thought about\n    // TODO check expired stream as well for all proxy methods?\n\n    function balanceOf(address owner) public view returns (uint256) {\n        // TODO how to handle this proxy method\n        return tokenContract.balanceOf(owner);\n    }\n\n    function ownerOf(uint256 _tokenId) public view returns (address) {\n        Loan memory loan = tokensAvailableToLoan[_tokenId];\n        if (loan.isBorrowed) {\n            return tokenContract.ownerOf(_tokenId);\n        }\n        return address(this);\n    }\n\n    function safeTransferFrom(address from, address to, uint256 tokenId, bytes memory _data) public {\n        Loan memory loan = tokensAvailableToLoan[tokenId];\n        require(!loan.isBorrowed, \"Cannot transfer a borrowed contract\");\n        require(!loan.isEscrowed, \"Cannot transfer a escrowed contract\");\n\n        return tokenContract.safeTransferFrom(from, to, tokenId, _data);\n    }\n\n    function transferFrom(address from, address to, uint256 tokenId) public {\n        Loan memory loan = tokensAvailableToLoan[tokenId];\n        require(!loan.isBorrowed, \"Cannot transfer a borrowed contract\");\n        require(!loan.isEscrowed, \"Cannot transfer a escrowed contract\");\n\n        return tokenContract.transferFrom(from, to, tokenId);\n    }\n\n}\n",
  "sourcePath": "/Users/andygray/workspace/loan-shark/contracts/LoanShark.sol",
  "compiler": {
    "name": "solc",
    "version": "0.5.14+commit.01f1aaa4.Emscripten.clang"
  },
  "schemaVersion": "3.0.22",
  "updatedAt": "2020-02-29T16:44:53.081Z",
  "networkType": "ethereum",
  "devdoc": {
    "methods": {
      "approve(address,uint256)": {
        "details": "Approves another address to transfer the given token ID The zero address indicates there is no approved address. There can only be one approved address per token at a given time. Can only be called by the token owner or an approved operator.",
        "params": {
          "to": "address to be approved for the given token ID",
          "tokenId": "uint256 ID of the token to be approved"
        }
      },
      "baseURI()": {
        "details": "Returns the base URI set via {_setBaseURI}. This will be automatically added as a preffix in {tokenURI} to each token's URI, when they are non-empty.    * _Available since v2.5.0._"
      },
      "getApproved(uint256)": {
        "details": "Gets the approved address for a token ID, or zero if no address set Reverts if the token ID does not exist.",
        "params": {
          "tokenId": "uint256 ID of the token to query the approval of"
        },
        "return": "address currently approved for the given token ID"
      },
      "isApprovedForAll(address,address)": {
        "details": "Tells whether an operator is approved by a given owner.",
        "params": {
          "operator": "operator address which you want to query the approval of",
          "owner": "owner address which you want to query the approval of"
        },
        "return": "bool whether the given operator is approved by the given owner"
      },
      "safeTransferFrom(address,address,uint256)": {
        "details": "Safely transfers the ownership of a given token ID to another address If the target address is a contract, it must implement {IERC721Receiver-onERC721Received}, which is called upon a safe transfer, and return the magic value `bytes4(keccak256(\"onERC721Received(address,address,uint256,bytes)\"))`; otherwise, the transfer is reverted. Requires the msg.sender to be the owner, approved, or operator",
        "params": {
          "from": "current owner of the token",
          "to": "address to receive the ownership of the given token ID",
          "tokenId": "uint256 ID of the token to be transferred"
        }
      },
      "setApprovalForAll(address,bool)": {
        "details": "Sets or unsets the approval of a given operator An operator is allowed to transfer all tokens of the sender on their behalf.",
        "params": {
          "approved": "representing the status of the approval to be set",
          "to": "operator address to set the approval"
        }
      },
      "supportsInterface(bytes4)": {
        "details": "See {IERC165-supportsInterface}.     * Time complexity O(1), guaranteed to always use less than 30 000 gas."
      },
      "tokenByIndex(uint256)": {
        "details": "Gets the token ID at a given index of all the tokens in this contract Reverts if the index is greater or equal to the total number of tokens.",
        "params": {
          "index": "uint256 representing the index to be accessed of the tokens list"
        },
        "return": "uint256 token ID at the given index of the tokens list"
      },
      "tokenOfOwnerByIndex(address,uint256)": {
        "details": "Gets the token ID at a given index of the tokens list of the requested owner.",
        "params": {
          "index": "uint256 representing the index to be accessed of the requested tokens list",
          "owner": "address owning the tokens list to be accessed"
        },
        "return": "uint256 token ID at the given index of the tokens list owned by the requested address"
      },
      "totalSupply()": {
        "details": "Gets the total amount of tokens stored by the contract.",
        "return": "uint256 representing the total amount of tokens"
      }
    }
  },
  "userdoc": {
    "methods": {
      "balanceOf(address)": {
        "notice": "/////////////////////////////"
      },
      "getLoanDetails(uint256)": {
        "notice": "//////////////////"
      },
      "getTokenIdForIndex(uint256)": {
        "notice": "/////////////////"
      },
      "name()": {
        "notice": "/////////////////////////////////////"
      }
    }
  }
}