{
  "contractName": "LoanShark",
  "abi": [
    {
      "inputs": [
        {
          "internalType": "contract IERC721Full",
          "name": "_tokenContract",
          "type": "address"
        },
        {
          "internalType": "contract IERC20",
          "name": "_paymentToken",
          "type": "address"
        },
        {
          "internalType": "contract IERC1620",
          "name": "_stream",
          "type": "address"
        }
      ],
      "payable": false,
      "stateMutability": "nonpayable",
      "type": "constructor"
    },
    {
      "anonymous": false,
      "inputs": [
        {
          "indexed": true,
          "internalType": "address",
          "name": "owner",
          "type": "address"
        },
        {
          "indexed": true,
          "internalType": "address",
          "name": "approved",
          "type": "address"
        },
        {
          "indexed": true,
          "internalType": "uint256",
          "name": "tokenId",
          "type": "uint256"
        }
      ],
      "name": "Approval",
      "type": "event"
    },
    {
      "anonymous": false,
      "inputs": [
        {
          "indexed": true,
          "internalType": "address",
          "name": "owner",
          "type": "address"
        },
        {
          "indexed": true,
          "internalType": "address",
          "name": "operator",
          "type": "address"
        },
        {
          "indexed": false,
          "internalType": "bool",
          "name": "approved",
          "type": "bool"
        }
      ],
      "name": "ApprovalForAll",
      "type": "event"
    },
    {
      "anonymous": false,
      "inputs": [
        {
          "indexed": true,
          "internalType": "address",
          "name": "from",
          "type": "address"
        },
        {
          "indexed": true,
          "internalType": "address",
          "name": "to",
          "type": "address"
        },
        {
          "indexed": true,
          "internalType": "uint256",
          "name": "tokenId",
          "type": "uint256"
        }
      ],
      "name": "Transfer",
      "type": "event"
    },
    {
      "anonymous": false,
      "inputs": [
        {
          "indexed": true,
          "internalType": "address",
          "name": "account",
          "type": "address"
        }
      ],
      "name": "WhitelistAdminAdded",
      "type": "event"
    },
    {
      "anonymous": false,
      "inputs": [
        {
          "indexed": true,
          "internalType": "address",
          "name": "account",
          "type": "address"
        }
      ],
      "name": "WhitelistAdminRemoved",
      "type": "event"
    },
    {
      "anonymous": false,
      "inputs": [
        {
          "indexed": true,
          "internalType": "address",
          "name": "account",
          "type": "address"
        }
      ],
      "name": "WhitelistedAdded",
      "type": "event"
    },
    {
      "anonymous": false,
      "inputs": [
        {
          "indexed": true,
          "internalType": "address",
          "name": "account",
          "type": "address"
        }
      ],
      "name": "WhitelistedRemoved",
      "type": "event"
    },
    {
      "constant": false,
      "inputs": [
        {
          "internalType": "address",
          "name": "account",
          "type": "address"
        }
      ],
      "name": "addWhitelistAdmin",
      "outputs": [],
      "payable": false,
      "stateMutability": "nonpayable",
      "type": "function"
    },
    {
      "constant": false,
      "inputs": [
        {
          "internalType": "address",
          "name": "account",
          "type": "address"
        }
      ],
      "name": "addWhitelisted",
      "outputs": [],
      "payable": false,
      "stateMutability": "nonpayable",
      "type": "function"
    },
    {
      "constant": false,
      "inputs": [
        {
          "internalType": "address",
          "name": "to",
          "type": "address"
        },
        {
          "internalType": "uint256",
          "name": "tokenId",
          "type": "uint256"
        }
      ],
      "name": "approve",
      "outputs": [],
      "payable": false,
      "stateMutability": "nonpayable",
      "type": "function"
    },
    {
      "constant": true,
      "inputs": [],
      "name": "baseURI",
      "outputs": [
        {
          "internalType": "string",
          "name": "",
          "type": "string"
        }
      ],
      "payable": false,
      "stateMutability": "view",
      "type": "function"
    },
    {
      "constant": true,
      "inputs": [
        {
          "internalType": "uint256",
          "name": "tokenId",
          "type": "uint256"
        }
      ],
      "name": "getApproved",
      "outputs": [
        {
          "internalType": "address",
          "name": "",
          "type": "address"
        }
      ],
      "payable": false,
      "stateMutability": "view",
      "type": "function"
    },
    {
      "constant": true,
      "inputs": [
        {
          "internalType": "uint256",
          "name": "",
          "type": "uint256"
        }
      ],
      "name": "indexToTokenId",
      "outputs": [
        {
          "internalType": "uint256",
          "name": "",
          "type": "uint256"
        }
      ],
      "payable": false,
      "stateMutability": "view",
      "type": "function"
    },
    {
      "constant": true,
      "inputs": [
        {
          "internalType": "address",
          "name": "owner",
          "type": "address"
        },
        {
          "internalType": "address",
          "name": "operator",
          "type": "address"
        }
      ],
      "name": "isApprovedForAll",
      "outputs": [
        {
          "internalType": "bool",
          "name": "",
          "type": "bool"
        }
      ],
      "payable": false,
      "stateMutability": "view",
      "type": "function"
    },
    {
      "constant": true,
      "inputs": [
        {
          "internalType": "address",
          "name": "account",
          "type": "address"
        }
      ],
      "name": "isWhitelistAdmin",
      "outputs": [
        {
          "internalType": "bool",
          "name": "",
          "type": "bool"
        }
      ],
      "payable": false,
      "stateMutability": "view",
      "type": "function"
    },
    {
      "constant": true,
      "inputs": [
        {
          "internalType": "address",
          "name": "account",
          "type": "address"
        }
      ],
      "name": "isWhitelisted",
      "outputs": [
        {
          "internalType": "bool",
          "name": "",
          "type": "bool"
        }
      ],
      "payable": false,
      "stateMutability": "view",
      "type": "function"
    },
    {
      "constant": true,
      "inputs": [
        {
          "internalType": "address",
          "name": "",
          "type": "address"
        },
        {
          "internalType": "uint256",
          "name": "",
          "type": "uint256"
        }
      ],
      "name": "lenderToTokenId",
      "outputs": [
        {
          "internalType": "uint256",
          "name": "",
          "type": "uint256"
        }
      ],
      "payable": false,
      "stateMutability": "view",
      "type": "function"
    },
    {
      "constant": true,
      "inputs": [],
      "name": "paymentToken",
      "outputs": [
        {
          "internalType": "contract IERC20",
          "name": "",
          "type": "address"
        }
      ],
      "payable": false,
      "stateMutability": "view",
      "type": "function"
    },
    {
      "constant": false,
      "inputs": [
        {
          "internalType": "address",
          "name": "account",
          "type": "address"
        }
      ],
      "name": "removeWhitelisted",
      "outputs": [],
      "payable": false,
      "stateMutability": "nonpayable",
      "type": "function"
    },
    {
      "constant": false,
      "inputs": [],
      "name": "renounceWhitelistAdmin",
      "outputs": [],
      "payable": false,
      "stateMutability": "nonpayable",
      "type": "function"
    },
    {
      "constant": false,
      "inputs": [],
      "name": "renounceWhitelisted",
      "outputs": [],
      "payable": false,
      "stateMutability": "nonpayable",
      "type": "function"
    },
    {
      "constant": false,
      "inputs": [
        {
          "internalType": "address",
          "name": "to",
          "type": "address"
        },
        {
          "internalType": "bool",
          "name": "approved",
          "type": "bool"
        }
      ],
      "name": "setApprovalForAll",
      "outputs": [],
      "payable": false,
      "stateMutability": "nonpayable",
      "type": "function"
    },
    {
      "constant": true,
      "inputs": [
        {
          "internalType": "bytes4",
          "name": "interfaceId",
          "type": "bytes4"
        }
      ],
      "name": "supportsInterface",
      "outputs": [
        {
          "internalType": "bool",
          "name": "",
          "type": "bool"
        }
      ],
      "payable": false,
      "stateMutability": "view",
      "type": "function"
    },
    {
      "constant": true,
      "inputs": [
        {
          "internalType": "uint256",
          "name": "index",
          "type": "uint256"
        }
      ],
      "name": "tokenByIndex",
      "outputs": [
        {
          "internalType": "uint256",
          "name": "",
          "type": "uint256"
        }
      ],
      "payable": false,
      "stateMutability": "view",
      "type": "function"
    },
    {
      "constant": true,
      "inputs": [],
      "name": "tokenContract",
      "outputs": [
        {
          "internalType": "contract IERC721Full",
          "name": "",
          "type": "address"
        }
      ],
      "payable": false,
      "stateMutability": "view",
      "type": "function"
    },
    {
      "constant": true,
      "inputs": [
        {
          "internalType": "uint256",
          "name": "",
          "type": "uint256"
        }
      ],
      "name": "tokenIdToStreamId",
      "outputs": [
        {
          "internalType": "uint256",
          "name": "",
          "type": "uint256"
        }
      ],
      "payable": false,
      "stateMutability": "view",
      "type": "function"
    },
    {
      "constant": true,
      "inputs": [
        {
          "internalType": "address",
          "name": "owner",
          "type": "address"
        },
        {
          "internalType": "uint256",
          "name": "index",
          "type": "uint256"
        }
      ],
      "name": "tokenOfOwnerByIndex",
      "outputs": [
        {
          "internalType": "uint256",
          "name": "",
          "type": "uint256"
        }
      ],
      "payable": false,
      "stateMutability": "view",
      "type": "function"
    },
    {
      "constant": true,
      "inputs": [
        {
          "internalType": "uint256",
          "name": "",
          "type": "uint256"
        }
      ],
      "name": "tokensAvailableToLoan",
      "outputs": [
        {
          "internalType": "address",
          "name": "lender",
          "type": "address"
        },
        {
          "internalType": "uint256",
          "name": "tokenId",
          "type": "uint256"
        },
        {
          "internalType": "address",
          "name": "borrower",
          "type": "address"
        },
        {
          "internalType": "bool",
          "name": "isEscrowed",
          "type": "bool"
        },
        {
          "internalType": "bool",
          "name": "isBorrowed",
          "type": "bool"
        },
        {
          "internalType": "uint256",
          "name": "start",
          "type": "uint256"
        },
        {
          "internalType": "uint256",
          "name": "end",
          "type": "uint256"
        },
        {
          "internalType": "uint256",
          "name": "depositInWei",
          "type": "uint256"
        }
      ],
      "payable": false,
      "stateMutability": "view",
      "type": "function"
    },
    {
      "constant": true,
      "inputs": [],
      "name": "totalSupply",
      "outputs": [
        {
          "internalType": "uint256",
          "name": "",
          "type": "uint256"
        }
      ],
      "payable": false,
      "stateMutability": "view",
      "type": "function"
    },
    {
      "constant": true,
      "inputs": [],
      "name": "totalTokens",
      "outputs": [
        {
          "internalType": "uint256",
          "name": "",
          "type": "uint256"
        }
      ],
      "payable": false,
      "stateMutability": "view",
      "type": "function"
    },
    {
      "constant": false,
      "inputs": [
        {
          "internalType": "uint256",
          "name": "_tokenId",
          "type": "uint256"
        },
        {
          "internalType": "uint256",
          "name": "_start",
          "type": "uint256"
        },
        {
          "internalType": "uint256",
          "name": "_end",
          "type": "uint256"
        },
        {
          "internalType": "uint256",
          "name": "_depositInWei",
          "type": "uint256"
        }
      ],
      "name": "enableTokenForLending",
      "outputs": [
        {
          "internalType": "bool",
          "name": "",
          "type": "bool"
        }
      ],
      "payable": false,
      "stateMutability": "nonpayable",
      "type": "function"
    },
    {
      "constant": false,
      "inputs": [
        {
          "internalType": "uint256",
          "name": "_tokenId",
          "type": "uint256"
        }
      ],
      "name": "cancelLoan",
      "outputs": [
        {
          "internalType": "bool",
          "name": "",
          "type": "bool"
        }
      ],
      "payable": false,
      "stateMutability": "nonpayable",
      "type": "function"
    },
    {
      "constant": false,
      "inputs": [
        {
          "internalType": "uint256",
          "name": "_tokenId",
          "type": "uint256"
        }
      ],
      "name": "borrowToken",
      "outputs": [
        {
          "internalType": "bool",
          "name": "",
          "type": "bool"
        }
      ],
      "payable": false,
      "stateMutability": "nonpayable",
      "type": "function"
    },
    {
      "constant": false,
      "inputs": [
        {
          "internalType": "uint256",
          "name": "_tokenId",
          "type": "uint256"
        }
      ],
      "name": "returnBorrowedNft",
      "outputs": [
        {
          "internalType": "bool",
          "name": "",
          "type": "bool"
        }
      ],
      "payable": false,
      "stateMutability": "nonpayable",
      "type": "function"
    },
    {
      "constant": false,
      "inputs": [
        {
          "internalType": "uint256",
          "name": "_tokenId",
          "type": "uint256"
        }
      ],
      "name": "clawBackNft",
      "outputs": [],
      "payable": false,
      "stateMutability": "nonpayable",
      "type": "function"
    },
    {
      "constant": true,
      "inputs": [
        {
          "internalType": "uint256",
          "name": "_tokenId",
          "type": "uint256"
        }
      ],
      "name": "getLoanDetails",
      "outputs": [
        {
          "internalType": "address",
          "name": "lender",
          "type": "address"
        },
        {
          "internalType": "address",
          "name": "borrower",
          "type": "address"
        },
        {
          "internalType": "bool",
          "name": "isEscrowed",
          "type": "bool"
        },
        {
          "internalType": "bool",
          "name": "isBorrowed",
          "type": "bool"
        },
        {
          "internalType": "uint256",
          "name": "start",
          "type": "uint256"
        },
        {
          "internalType": "uint256",
          "name": "end",
          "type": "uint256"
        },
        {
          "internalType": "uint256",
          "name": "depositInWei",
          "type": "uint256"
        }
      ],
      "payable": false,
      "stateMutability": "view",
      "type": "function"
    },
    {
      "constant": false,
      "inputs": [
        {
          "internalType": "uint256",
          "name": "_tokenId",
          "type": "uint256"
        }
      ],
      "name": "cancel",
      "outputs": [
        {
          "internalType": "bool",
          "name": "",
          "type": "bool"
        }
      ],
      "payable": false,
      "stateMutability": "nonpayable",
      "type": "function"
    },
    {
      "constant": false,
      "inputs": [
        {
          "internalType": "uint256",
          "name": "_tokenId",
          "type": "uint256"
        }
      ],
      "name": "getRemainingTimeLeftForLoan",
      "outputs": [
        {
          "internalType": "uint256",
          "name": "",
          "type": "uint256"
        }
      ],
      "payable": false,
      "stateMutability": "nonpayable",
      "type": "function"
    },
    {
      "constant": false,
      "inputs": [
        {
          "internalType": "uint256",
          "name": "_tokenId",
          "type": "uint256"
        }
      ],
      "name": "getRemainingStreamBalance",
      "outputs": [
        {
          "internalType": "uint256",
          "name": "",
          "type": "uint256"
        }
      ],
      "payable": false,
      "stateMutability": "nonpayable",
      "type": "function"
    },
    {
      "constant": false,
      "inputs": [
        {
          "internalType": "uint256",
          "name": "_tokenId",
          "type": "uint256"
        }
      ],
      "name": "withdraw",
      "outputs": [
        {
          "internalType": "bool",
          "name": "",
          "type": "bool"
        }
      ],
      "payable": false,
      "stateMutability": "nonpayable",
      "type": "function"
    },
    {
      "constant": true,
      "inputs": [
        {
          "internalType": "uint256",
          "name": "_index",
          "type": "uint256"
        }
      ],
      "name": "getTokenIdForIndex",
      "outputs": [
        {
          "internalType": "uint256",
          "name": "",
          "type": "uint256"
        }
      ],
      "payable": false,
      "stateMutability": "view",
      "type": "function"
    },
    {
      "constant": true,
      "inputs": [
        {
          "internalType": "address",
          "name": "_lender",
          "type": "address"
        }
      ],
      "name": "getTokensLenderIsBorrowing",
      "outputs": [
        {
          "internalType": "uint256[]",
          "name": "",
          "type": "uint256[]"
        }
      ],
      "payable": false,
      "stateMutability": "view",
      "type": "function"
    },
    {
      "constant": false,
      "inputs": [
        {
          "internalType": "address",
          "name": "operator",
          "type": "address"
        },
        {
          "internalType": "address",
          "name": "from",
          "type": "address"
        },
        {
          "internalType": "uint256",
          "name": "tokenId",
          "type": "uint256"
        },
        {
          "internalType": "bytes",
          "name": "data",
          "type": "bytes"
        }
      ],
      "name": "onERC721Received",
      "outputs": [
        {
          "internalType": "bytes4",
          "name": "",
          "type": "bytes4"
        }
      ],
      "payable": false,
      "stateMutability": "nonpayable",
      "type": "function"
    },
    {
      "constant": true,
      "inputs": [
        {
          "internalType": "uint256",
          "name": "_tokenId",
          "type": "uint256"
        }
      ],
      "name": "isTokenEscrowed",
      "outputs": [
        {
          "internalType": "bool",
          "name": "",
          "type": "bool"
        }
      ],
      "payable": false,
      "stateMutability": "view",
      "type": "function"
    },
    {
      "constant": true,
      "inputs": [
        {
          "internalType": "uint256",
          "name": "_tokenId",
          "type": "uint256"
        },
        {
          "internalType": "address",
          "name": "_owner",
          "type": "address"
        }
      ],
      "name": "isTokenOwnedBy",
      "outputs": [
        {
          "internalType": "bool",
          "name": "",
          "type": "bool"
        }
      ],
      "payable": false,
      "stateMutability": "view",
      "type": "function"
    },
    {
      "constant": true,
      "inputs": [],
      "name": "name",
      "outputs": [
        {
          "internalType": "string",
          "name": "",
          "type": "string"
        }
      ],
      "payable": false,
      "stateMutability": "view",
      "type": "function"
    },
    {
      "constant": true,
      "inputs": [],
      "name": "symbol",
      "outputs": [
        {
          "internalType": "string",
          "name": "",
          "type": "string"
        }
      ],
      "payable": false,
      "stateMutability": "view",
      "type": "function"
    },
    {
      "constant": true,
      "inputs": [
        {
          "internalType": "uint256",
          "name": "_tokenId",
          "type": "uint256"
        }
      ],
      "name": "tokenURI",
      "outputs": [
        {
          "internalType": "string",
          "name": "",
          "type": "string"
        }
      ],
      "payable": false,
      "stateMutability": "view",
      "type": "function"
    },
    {
      "constant": true,
      "inputs": [
        {
          "internalType": "uint256",
          "name": "_tokenId",
          "type": "uint256"
        }
      ],
      "name": "getPrincipleTokenUri",
      "outputs": [
        {
          "internalType": "string",
          "name": "",
          "type": "string"
        }
      ],
      "payable": false,
      "stateMutability": "view",
      "type": "function"
    },
    {
      "constant": true,
      "inputs": [
        {
          "internalType": "address",
          "name": "owner",
          "type": "address"
        }
      ],
      "name": "balanceOf",
      "outputs": [
        {
          "internalType": "uint256",
          "name": "",
          "type": "uint256"
        }
      ],
      "payable": false,
      "stateMutability": "view",
      "type": "function"
    },
    {
      "constant": true,
      "inputs": [
        {
          "internalType": "uint256",
          "name": "_tokenId",
          "type": "uint256"
        }
      ],
      "name": "ownerOf",
      "outputs": [
        {
          "internalType": "address",
          "name": "",
          "type": "address"
        }
      ],
      "payable": false,
      "stateMutability": "view",
      "type": "function"
    },
    {
      "constant": false,
      "inputs": [
        {
          "internalType": "address",
          "name": "from",
          "type": "address"
        },
        {
          "internalType": "address",
          "name": "to",
          "type": "address"
        },
        {
          "internalType": "uint256",
          "name": "tokenId",
          "type": "uint256"
        }
      ],
      "name": "safeTransferFrom",
      "outputs": [],
      "payable": false,
      "stateMutability": "nonpayable",
      "type": "function"
    },
    {
      "constant": false,
      "inputs": [
        {
          "internalType": "address",
          "name": "from",
          "type": "address"
        },
        {
          "internalType": "address",
          "name": "to",
          "type": "address"
        },
        {
          "internalType": "uint256",
          "name": "tokenId",
          "type": "uint256"
        },
        {
          "internalType": "bytes",
          "name": "_data",
          "type": "bytes"
        }
      ],
      "name": "safeTransferFrom",
      "outputs": [],
      "payable": false,
      "stateMutability": "nonpayable",
      "type": "function"
    },
    {
      "constant": false,
      "inputs": [
        {
          "internalType": "address",
          "name": "from",
          "type": "address"
        },
        {
          "internalType": "address",
          "name": "to",
          "type": "address"
        },
        {
          "internalType": "uint256",
          "name": "tokenId",
          "type": "uint256"
        }
      ],
      "name": "transferFrom",
      "outputs": [],
      "payable": false,
      "stateMutability": "nonpayable",
      "type": "function"
    }
  ],
  "bytecode": "0x608060405260006014553480156200001657600080fd5b5060405162003bb538038062003bb5833981810160405260608110156200003c57600080fd5b5080516020808301516040938401518451808601865260098152684c6f616e536861726b60b81b8185015285518087019096526007865266098a697e13f4d160cb1b938601939093529293909291908181620000a86301ffc9a760e01b6001600160e01b036200022316565b620000c36380ac58cd60e01b6001600160e01b036200022316565b620000de63780e9d6360e01b6001600160e01b036200022316565b8151620000f3906009906020850190620004e4565b5080516200010990600a906020840190620004e4565b5062000125635b5e139f60e01b6001600160e01b036200022316565b505050506200014c6200013d620002a860201b60201c565b6001600160e01b03620002ad16565b6200016233620002ff60201b620010fa1760201c565b600f80546001600160a01b038085166001600160a01b031992831617928390556010805487831690841617905560118054858316931692909217918290556040805163095ea7b360e01b8152928216600484015260001960248401525192169163095ea7b3916044808201926020929091908290030181600087803b158015620001eb57600080fd5b505af115801562000200573d6000803e3d6000fd5b505050506040513d60208110156200021757600080fd5b50620005869350505050565b6001600160e01b0319808216141562000283576040805162461bcd60e51b815260206004820152601c60248201527f4552433136353a20696e76616c696420696e7465726661636520696400000000604482015290519081900360640190fd5b6001600160e01b0319166000908152602081905260409020805460ff19166001179055565b335b90565b620002c881600d6200037960201b620032561790919060201c565b6040516001600160a01b038216907f22380c05984257a1cb900161c713dd71d39e74820f1aea43bd3f1bdd2096129990600090a250565b62000325620003166001600160e01b03620002a816565b6001600160e01b036200040616565b620003625760405162461bcd60e51b815260040180806020018281038252604081526020018062003b756040913960400191505060405180910390fd5b62000376816001600160e01b036200042916565b50565b6200038e82826001600160e01b036200047b16565b15620003e1576040805162461bcd60e51b815260206004820152601f60248201527f526f6c65733a206163636f756e7420616c72656164792068617320726f6c6500604482015290519081900360640190fd5b6001600160a01b0316600090815260209190915260409020805460ff19166001179055565b60006200042382600d6200047b60201b6200315f1790919060201c565b92915050565b6200044481600e6200037960201b620032561790919060201c565b6040516001600160a01b038216907fee1504a83b6d4a361f4c1dc78ab59bfa30d6a3b6612c403e86bb01ef2984295f90600090a250565b60006001600160a01b038216620004c45760405162461bcd60e51b815260040180806020018281038252602281526020018062003b536022913960400191505060405180910390fd5b506001600160a01b03166000908152602091909152604090205460ff1690565b828054600181600116156101000203166002900490600052602060002090601f016020900481019282601f106200052757805160ff191683800117855562000557565b8280016001018555821562000557579182015b82811115620005575782518255916020019190600101906200053a565b506200056592915062000569565b5090565b620002aa91905b8082111562000565576000815560010162000570565b6135bd80620005966000396000f3fe608060405234801561001057600080fd5b50600436106102955760003560e01c80636352211e11610167578063b1c674ed116100ce578063c0e896d411610087578063c0e896d414610a6a578063c3cbefb814610a96578063c87b56dd14610ab3578063c95357d914610ad0578063d6cd947314610aed578063e985e9c514610af557610295565b8063b1c674ed146108bc578063b88d4fde14610929578063ba9ac115146109ed578063bb5f747b14610a0a578063bdbfa3de14610a30578063bdd3e43e14610a4d57610295565b80637aef1164116101205780637aef1164146108275780637e1c0c0914610844578063807b1eba1461084c5780638510f4681461086957806395d89b4114610886578063a22cb4651461088e57610295565b80636352211e1461073857806366877b8d146107555780636c0360eb146107b657806370a08231146107be578063727f86aa146107e45780637362d9c81461080157610295565b8063291d95491161020b578063409f2622116101c4578063409f26221461068957806340e58ee5146106b857806342842e0e146106d55780634c5a628c1461070b5780634f6ccce71461071357806355a373d61461073057610295565b8063291d9549146105765780632c4237211461059c5780632e1a7d4d146106125780632f745c591461062f5780633013ce291461065b5780633af32abf1461066357610295565b806310154bad1161025d57806310154bad146103d6578063150b7a02146103fc57806318160ddd146104dd5780631a6814a3146104f75780632100d9b61461052357806323b872dd1461054057610295565b806301ffc9a71461029a57806306fdde03146102d5578063081812fc14610352578063092f57761461038b578063095ea7b3146103a8575b600080fd5b6102c1600480360360208110156102b057600080fd5b50356001600160e01b031916610b23565b604080519115158252519081900360200190f35b6102dd610b46565b6040805160208082528351818301528351919283929083019185019080838360005b838110156103175781810151838201526020016102ff565b50505050905090810190601f1680156103445780820380516001836020036101000a031916815260200191505b509250505060405180910390f35b61036f6004803603602081101561036857600080fd5b5035610c7b565b604080516001600160a01b039092168252519081900360200190f35b6102c1600480360360208110156103a157600080fd5b5035610cdd565b6103d4600480360360408110156103be57600080fd5b506001600160a01b038135169060200135610fd2565b005b6103d4600480360360208110156103ec57600080fd5b50356001600160a01b03166110fa565b6104c06004803603608081101561041257600080fd5b6001600160a01b03823581169260208101359091169160408201359190810190608081016060820135600160201b81111561044c57600080fd5b82018360208201111561045e57600080fd5b803590602001918460018302840111600160201b8311171561047f57600080fd5b91908080601f016020809104026020016040519081016040528093929190818152602001838380828437600092019190915250929550611151945050505050565b604080516001600160e01b03199092168252519081900360200190f35b6104e5611161565b60408051918252519081900360200190f35b6102c16004803603604081101561050d57600080fd5b50803590602001356001600160a01b0316611167565b6102dd6004803603602081101561053957600080fd5b50356111f6565b6103d46004803603606081101561055657600080fd5b506001600160a01b03813581169160208101359091169060400135611334565b6103d46004803603602081101561058c57600080fd5b50356001600160a01b03166114be565b6105c2600480360360208110156105b257600080fd5b50356001600160a01b031661150d565b60408051602080825283518183015283519192839290830191858101910280838360005b838110156105fe5781810151838201526020016105e6565b505050509050019250505060405180910390f35b6102c16004803603602081101561062857600080fd5b503561158c565b6104e56004803603604081101561064557600080fd5b506001600160a01b0381351690602001356117c7565b61036f611846565b6102c16004803603602081101561067957600080fd5b50356001600160a01b0316611855565b6102c16004803603608081101561069f57600080fd5b508035906020810135906040810135906060013561186e565b6102c1600480360360208110156106ce57600080fd5b5035611c14565b6103d4600480360360608110156106eb57600080fd5b506001600160a01b03813581169160208101359091169060400135611e8a565b6103d4611ea5565b6104e56004803603602081101561072957600080fd5b5035611eb7565b61036f611f1d565b61036f6004803603602081101561074e57600080fd5b5035611f2c565b6107726004803603602081101561076b57600080fd5b503561204d565b604080516001600160a01b039889168152969097166020870152931515858701529115156060850152608084015260a083015260c082015290519081900360e00190f35b6102dd612104565b6104e5600480360360208110156107d457600080fd5b50356001600160a01b031661219a565b6102c1600480360360208110156107fa57600080fd5b503561221d565b6103d46004803603602081101561081757600080fd5b50356001600160a01b0316612229565b6104e56004803603602081101561083d57600080fd5b5035612278565b6104e561228a565b6104e56004803603602081101561086257600080fd5b5035612290565b6104e56004803603602081101561087f57600080fd5b5035612431565b6102dd612443565b6103d4600480360360408110156108a457600080fd5b506001600160a01b0381351690602001351515612488565b6108d9600480360360208110156108d257600080fd5b503561258d565b604080516001600160a01b03998a168152602081019890985295909716868601529215156060860152901515608085015260a084015260c083015260e08201929092529051908190036101000190f35b6103d46004803603608081101561093f57600080fd5b6001600160a01b03823581169260208101359091169160408201359190810190608081016060820135600160201b81111561097957600080fd5b82018360208201111561098b57600080fd5b803590602001918460018302840111600160201b831117156109ac57600080fd5b91908080601f0160208091040260200160405190810160405280939291908181526020018383808284376000920191909152509295506125e1945050505050565b6102c160048036036020811015610a0357600080fd5b50356127de565b6102c160048036036020811015610a2057600080fd5b50356001600160a01b03166129fe565b6102c160048036036020811015610a4657600080fd5b5035612a11565b6104e560048036036020811015610a6357600080fd5b5035612ca8565b6104e560048036036040811015610a8057600080fd5b506001600160a01b038135169060200135612de1565b6104e560048036036020811015610aac57600080fd5b5035612e0f565b6102dd60048036036020811015610ac957600080fd5b5035612e21565b6103d460048036036020811015610ae657600080fd5b5035613018565b6103d4613070565b6102c160048036036040811015610b0b57600080fd5b506001600160a01b0381358116916020013516613080565b6001600160e01b0319811660009081526020819052604090205460ff165b919050565b601054604080516306fdde0360e01b815290516060926001600160a01b0316916306fdde03916004808301926000929190829003018186803b158015610b8b57600080fd5b505afa158015610b9f573d6000803e3d6000fd5b505050506040513d6000823e601f3d908101601f191682016040526020811015610bc857600080fd5b8101908080516040519392919084600160201b821115610be757600080fd5b908301906020820185811115610bfc57600080fd5b8251600160201b811182820188101715610c1557600080fd5b82525081516020918201929091019080838360005b83811015610c42578181015183820152602001610c2a565b50505050905090810190601f168015610c6f5780820380516001836020036101000a031916815260200191505b50604052505050905090565b6000610c86826130ae565b610cc15760405162461bcd60e51b815260040180806020018281038252602c8152602001806134ae602c913960400191505060405180910390fd5b506000908152600260205260409020546001600160a01b031690565b600081815260126020526040812060010154610d35576040805162461bcd60e51b8152602060048201526012602482015271546f6b656e206e6f7420666f722073616c6560701b604482015290519081900360640190fd5b60008281526012602052604090206002810154600160a01b900460ff16610d98576040805162461bcd60e51b8152602060048201526012602482015271151bdad95b881b9bdd08195cd8dc9bddd95960721b604482015290519081900360640190fd5b6002810154600160a81b900460ff1615610df2576040805162461bcd60e51b8152602060048201526016602482015275151bdad95b88185b1c9958591e48189bdc9c9bddd95960521b604482015290519081900360640190fd5b60028101546001600160a01b031615610e52576040805162461bcd60e51b815260206004820152601c60248201527f546f6b656e20616c726561647920676f74206120626f72726f77657200000000604482015290519081900360640190fd5b600281018054600160a81b336001600160a01b0319909216821760ff60a81b191617909155600f546005830154604080516323b872dd60e01b815260048101949094523060248501526044840191909152516001600160a01b03909116916323b872dd9160648083019260209291908290030181600087803b158015610ed757600080fd5b505af1158015610eeb573d6000803e3d6000fd5b505050506040513d6020811015610f0157600080fd5b505060115481546005830154600f5460038501546004808701546040805163660da5fb60e11b81526001600160a01b039788169381019390935260248301959095529285166044820152606481019190915260848101919091529051600093929092169163cc1b4bf69160a48082019260209290919082900301818787803b158015610f8c57600080fd5b505af1158015610fa0573d6000803e3d6000fd5b505050506040513d6020811015610fb657600080fd5b5051600085815260166020526040902055506001915050919050565b6000610fdd82611f2c565b9050806001600160a01b0316836001600160a01b031614156110305760405162461bcd60e51b815260040180806020018281038252602181526020018061353c6021913960400191505060405180910390fd5b806001600160a01b03166110426130cb565b6001600160a01b0316148061106357506110638161105e6130cb565b613080565b61109e5760405162461bcd60e51b81526004018080602001828103825260388152602001806134556038913960400191505060405180910390fd5b60008281526002602052604080822080546001600160a01b0319166001600160a01b0387811691821790925591518593918516917f8c5be1e5ebec7d5bd14f71427d1e84f3dd0314c0f7b2291e5b200ac8c7c3b92591a4505050565b61110a6111056130cb565b6129fe565b6111455760405162461bcd60e51b81526004018080602001828103825260408152602001806134fc6040913960400191505060405180910390fd5b61114e816130cf565b50565b630a85bd0160e11b949350505050565b60075490565b601054604080516331a9108f60e11b81526004810185905290516000926001600160a01b0380861693911691636352211e91602480820192602092909190829003018186803b1580156111b957600080fd5b505afa1580156111cd573d6000803e3d6000fd5b505050506040513d60208110156111e357600080fd5b50516001600160a01b0316149392505050565b6010546040805163c87b56dd60e01b81526004810184905290516060926001600160a01b03169163c87b56dd916024808301926000929190829003018186803b15801561124257600080fd5b505afa158015611256573d6000803e3d6000fd5b505050506040513d6000823e601f3d908101601f19168201604052602081101561127f57600080fd5b8101908080516040519392919084600160201b82111561129e57600080fd5b9083019060208201858111156112b357600080fd5b8251600160201b8111828201881017156112cc57600080fd5b82525081516020918201929091019080838360005b838110156112f95781810151838201526020016112e1565b50505050905090810190601f1680156113265780820380516001836020036101000a031916815260200191505b506040525050509050919050565b61133c61333e565b5060008181526012602090815260409182902082516101008101845281546001600160a01b03908116825260018301549382019390935260028201549283169381019390935260ff600160a01b8304811615156060850152600160a81b9092049091161580156080840152600382015460a0840152600482015460c084015260059091015460e08301526114015760405162461bcd60e51b81526004018080602001828103825260238152602001806133c56023913960400191505060405180910390fd5b8060600151156114425760405162461bcd60e51b81526004018080602001828103825260238152602001806134326023913960400191505060405180910390fd5b601054604080516323b872dd60e01b81526001600160a01b038781166004830152868116602483015260448201869052915191909216916323b872dd91606480830192600092919082900301818387803b15801561149f57600080fd5b505af11580156114b3573d6000803e3d6000fd5b50505050505b505050565b6114c96111056130cb565b6115045760405162461bcd60e51b81526004018080602001828103825260408152602001806134fc6040913960400191505060405180910390fd5b61114e81613117565b60608060136000846001600160a01b03166001600160a01b0316815260200190815260200160002080548060200260200160405190810160405280929190818152602001828054801561157f57602002820191906000526020600020905b81548152602001906001019080831161156b575b5093979650505050505050565b600081815260166020526040812054806115e2576040805162461bcd60e51b81526020600482015260126024820152714d757374206861766520612073747265616d60701b604482015290519081900360640190fd5b6115ea61333e565b5060008381526012602090815260409182902082516101008101845281546001600160a01b0390811680835260018401549483019490945260028301549081169482019490945260ff600160a01b8504811615156060830152600160a81b90940490931615156080840152600381015460a0840152600481015460c08401526005015460e083015233146116b6576040805162461bcd60e51b815260206004820152600e60248201526d26bab9ba103132903632b73232b960911b604482015290519081900360640190fd5b6116bf84613018565b601154815160408051631b2b776160e11b8152600481018690526001600160a01b03928316602482015290519190921691637a9b2c6c9185918491633656eec291604480820192602092909190829003018186803b15801561172057600080fd5b505afa158015611734573d6000803e3d6000fd5b505050506040513d602081101561174a57600080fd5b5051604080516001600160e01b031960e086901b168152600481019390935260248301919091525160448083019260209291908290030181600087803b15801561179357600080fd5b505af11580156117a7573d6000803e3d6000fd5b505050506040513d60208110156117bd57600080fd5b5051949350505050565b60006117d28361219a565b821061180f5760405162461bcd60e51b815260040180806020018281038252602b81526020018061339a602b913960400191505060405180910390fd5b6001600160a01b038316600090815260056020526040902080548390811061183357fe5b9060005260206000200154905092915050565b600f546001600160a01b031681565b6000611868600e8363ffffffff61315f16565b92915050565b600084815260126020526040812060010154156118d2576040805162461bcd60e51b815260206004820152601d60248201527f546f6b656e20616c726561647920706c6163656420666f722073616c65000000604482015290519081900360640190fd5b601054604080516331a9108f60e11b815260048101889052905133926001600160a01b031691636352211e916024808301926020929190829003018186803b15801561191d57600080fd5b505afa158015611931573d6000803e3d6000fd5b505050506040513d602081101561194757600080fd5b50516001600160a01b0316146119a4576040805162461bcd60e51b815260206004820152601b60248201527f43616c6c657220646f6573206e6f74206f776e20746865204e46540000000000604482015290519081900360640190fd5b604051806101000160405280336001600160a01b0316815260200186815260200160006001600160a01b03168152602001600115158152602001600015158152602001858152602001848152602001838152506012600087815260200190815260200160002060008201518160000160006101000a8154816001600160a01b0302191690836001600160a01b031602179055506020820151816001015560408201518160020160006101000a8154816001600160a01b0302191690836001600160a01b0316021790555060608201518160020160146101000a81548160ff02191690831515021790555060808201518160020160156101000a81548160ff02191690831515021790555060a0820151816003015560c0820151816004015560e08201518160050155905050601060009054906101000a90046001600160a01b03166001600160a01b03166342842e0e3330886040518463ffffffff1660e01b815260040180846001600160a01b03166001600160a01b03168152602001836001600160a01b03166001600160a01b031681526020018281526020019350505050600060405180830381600087803b158015611b5e57600080fd5b505af1158015611b72573d6000803e3d6000fd5b50505050611b7f8561221d565b611bd0576040805162461bcd60e51b815260206004820152601c60248201527f546f6b656e206e6f7420636f72726563746c7920657363726f77656400000000604482015290519081900360640190fd5b506014805460009081526015602090815260408083208890558354600190810190945533835260138252822080548085018255908352912001859055949350505050565b60008181526016602052604081205480611c6a576040805162461bcd60e51b81526020600482015260126024820152714d757374206861766520612073747265616d60701b604482015290519081900360640190fd5b611c7261333e565b5060008381526012602090815260409182902082516101008101845281546001600160a01b0390811680835260018401549483019490945260028301549081169482019490945260ff600160a01b8504811615156060830152600160a81b90940490931615156080840152600381015460a0840152600481015460c08401526005015460e08301523314611d3e576040805162461bcd60e51b815260206004820152600e60248201526d26bab9ba103132903632b73232b960911b604482015290519081900360640190fd5b60115460408051636db9241b60e01b81526004810185905290516001600160a01b0390921691636db9241b916024808201926020929091908290030181600087803b158015611d8c57600080fd5b505af1158015611da0573d6000803e3d6000fd5b505050506040513d6020811015611db657600080fd5b5050600f5460408083015181516370a0823160e01b815230600482015291516001600160a01b039093169263a9059cbb9284916370a0823191602480820192602092909190829003018186803b158015611e0f57600080fd5b505afa158015611e23573d6000803e3d6000fd5b505050506040513d6020811015611e3957600080fd5b5051604080516001600160e01b031960e086901b1681526001600160a01b03909316600484015260248301919091525160448083019260209291908290030181600087803b15801561179357600080fd5b6114b9838383604051806020016040528060008152506125e1565b611eb5611eb06130cb565b6131c6565b565b6000611ec1611161565b8210611efe5760405162461bcd60e51b815260040180806020018281038252602c81526020018061355d602c913960400191505060405180910390fd5b60078281548110611f0b57fe5b90600052602060002001549050919050565b6010546001600160a01b031681565b6000611f3661333e565b5060008281526012602090815260409182902082516101008101845281546001600160a01b03908116825260018301549382019390935260028201549283169381019390935260ff600160a01b8304811615156060850152600160a81b9092049091161580156080840152600382015460a0840152600482015460c084015260059091015460e083015261204557601054604080516331a9108f60e11b81526004810186905290516001600160a01b0390921691636352211e91602480820192602092909190829003018186803b15801561201057600080fd5b505afa158015612024573d6000803e3d6000fd5b505050506040513d602081101561203a57600080fd5b50519150610b419050565b503092915050565b600080600080600080600061206061333e565b505050600095865250506012602090815260409485902085516101008101875281546001600160a01b03908116808352600184015494830194909452600283015490811697820188905260ff600160a01b82048116151560608401819052600160a81b90920416151560808301819052600384015460a08401819052600485015460c0850181905260059095015460e0909401849052949991975095509293509091565b600b8054604080516020601f60026000196101006001881615020190951694909404938401819004810282018101909252828152606093909290918301828280156121905780601f1061216557610100808354040283529160200191612190565b820191906000526020600020905b81548152906001019060200180831161217357829003601f168201915b5050505050905090565b601054604080516370a0823160e01b81526001600160a01b038481166004830152915160009392909216916370a0823191602480820192602092909190829003018186803b1580156121eb57600080fd5b505afa1580156121ff573d6000803e3d6000fd5b505050506040513d602081101561221557600080fd5b505192915050565b60006118688230611167565b6122346111056130cb565b61226f5760405162461bcd60e51b81526004018080602001828103825260408152602001806134fc6040913960400191505060405180910390fd5b61114e8161320e565b60156020526000908152604090205481565b60145481565b600081815260166020526040812054806122e6576040805162461bcd60e51b81526020600482015260126024820152714d757374206861766520612073747265616d60701b604482015290519081900360640190fd5b6122ee61333e565b5060008381526012602090815260409182902082516101008101845281546001600160a01b03908116825260018301549382019390935260028201549283169381019390935260ff600160a01b8304811615156060850152600160a81b90920490911615156080830152600381015460a08301819052600482015460c084015260059091015460e08301524211612393578060a001518160c001510392505050610b41565b8060c001514211156123aa57600092505050610b41565b6011546040805163a82ccd4d60e01b81526004810185905290516001600160a01b039092169163a82ccd4d91602480820192602092909190829003018186803b1580156123f657600080fd5b505afa15801561240a573d6000803e3d6000fd5b505050506040513d602081101561242057600080fd5b505160c09091015103915050919050565b60009081526015602052604090205490565b601054604080516395d89b4160e01b815290516060926001600160a01b0316916395d89b41916004808301926000929190829003018186803b158015610b8b57600080fd5b6124906130cb565b6001600160a01b0316826001600160a01b031614156124f6576040805162461bcd60e51b815260206004820152601960248201527f4552433732313a20617070726f766520746f2063616c6c657200000000000000604482015290519081900360640190fd5b80600460006125036130cb565b6001600160a01b03908116825260208083019390935260409182016000908120918716808252919093529120805460ff1916921515929092179091556125476130cb565b60408051841515815290516001600160a01b0392909216917f17307eab39ab6107e8899845ad3d59bd9653f200f220920489ca2b5937696c319181900360200190a35050565b6012602052600090815260409020805460018201546002830154600384015460048501546005909501546001600160a01b0394851695939483169360ff600160a01b8504811694600160a81b900416929188565b6125e961333e565b5060008281526012602090815260409182902082516101008101845281546001600160a01b03908116825260018301549382019390935260028201549283169381019390935260ff600160a01b8304811615156060850152600160a81b9092049091161580156080840152600382015460a0840152600482015460c084015260059091015460e08301526126ae5760405162461bcd60e51b81526004018080602001828103825260238152602001806133c56023913960400191505060405180910390fd5b8060600151156126ef5760405162461bcd60e51b81526004018080602001828103825260238152602001806134326023913960400191505060405180910390fd5b601054604051635c46a7ef60e11b81526001600160a01b0387811660048301908152878216602484015260448301879052608060648401908152865160848501528651929094169363b88d4fde938a938a938a938a939192909160a40190602085019080838360005b83811015612770578181015183820152602001612758565b50505050905090810190601f16801561279d5780820380516001836020036101000a031916815260200191505b5095505050505050600060405180830381600087803b1580156127bf57600080fd5b505af11580156127d3573d6000803e3d6000fd5b505050505050505050565b600081815260126020526040812060010154612836576040805162461bcd60e51b8152602060048201526012602482015271546f6b656e206e6f7420666f722073616c6560701b604482015290519081900360640190fd5b60008281526012602052604090206002810154600160a01b900460ff16612899576040805162461bcd60e51b8152602060048201526012602482015271151bdad95b881b9bdd08195cd8dc9bddd95960721b604482015290519081900360640190fd5b6002810154600160a81b900460ff166128ee576040805162461bcd60e51b8152602060048201526012602482015271151bdad95b881b9bdd08189bdc9c9bddd95960721b604482015290519081900360640190fd5b60028101546001600160a01b0316331461294f576040805162461bcd60e51b815260206004820152601c60248201527f546f6b656e206e6f7420626f72726f7765642062792063616c6c657200000000604482015290519081900360640190fd5b600281018054600161ff0160a01b03191690556011546000848152601660209081526040808320548151636db9241b60e01b8152600481019190915290516001600160a01b0390941693636db9241b93602480840194938390030190829087803b1580156129bc57600080fd5b505af11580156129d0573d6000803e3d6000fd5b505050506040513d60208110156129e657600080fd5b50505060009182525060166020526040812055600190565b6000611868600d8363ffffffff61315f16565b600081815260126020526040812060010154612a69576040805162461bcd60e51b8152602060048201526012602482015271546f6b656e206e6f7420666f722073616c6560701b604482015290519081900360640190fd5b60008281526012602052604090206002810154600160a01b900460ff16612acc576040805162461bcd60e51b8152602060048201526012602482015271151bdad95b881b9bdd08195cd8dc9bddd95960721b604482015290519081900360640190fd5b6002810154600160a81b900460ff1615612b26576040805162461bcd60e51b8152602060048201526016602482015275151bdad95b88185b1c9958591e48189bdc9c9bddd95960521b604482015290519081900360640190fd5b60028101546001600160a01b0316612b85576040805162461bcd60e51b815260206004820152601c60248201527f546f6b656e20616c726561647920676f74206120626f72726f77657200000000604482015290519081900360640190fd5b805460008481526012602052604080822080546001600160a01b0319168155600181018390556002810180546001600160b01b031916905560038101839055600480820184905560059091018390556010548251632142170760e11b815230928101929092526001600160a01b0394851660248301819052604483018990529251929416926342842e0e9260648084019382900301818387803b158015612c2b57600080fd5b505af1158015612c3f573d6000803e3d6000fd5b50505050612c4d8482611167565b612c9e576040805162461bcd60e51b815260206004820152601f60248201527f546f6b656e206e6f742072657475726e6564207375636365737366756c6c7900604482015290519081900360640190fd5b5060019392505050565b60008181526016602052604081205480612cfe576040805162461bcd60e51b81526020600482015260126024820152714d757374206861766520612073747265616d60701b604482015290519081900360640190fd5b612d0661333e565b5060008381526012602090815260409182902082516101008101845281546001600160a01b0390811680835260018401548386015260028401548083168488015260ff600160a01b8204811615156060860152600160a81b9091041615156080840152600384015460a084015260048085015460c085015260059094015460e08401526011548651631b2b776160e11b81529485018890526024850191909152945191941692633656eec29260448082019391829003018186803b158015612dcd57600080fd5b505afa1580156117a7573d6000803e3d6000fd5b60136020528160005260406000208181548110612dfa57fe5b90600052602060002001600091509150505481565b60166020526000908152604090205481565b6060612e2b61333e565b5060008281526012602090815260409182902082516101008101845281546001600160a01b03908116825260018301549382019390935260028201549283169381019390935260ff600160a01b8304811615156060850152600160a81b9092049091161580156080840152600382015460a0840152600482015460c084015260059091015460e0830152612ff8576010546040805163c87b56dd60e01b81526004810186905290516001600160a01b039092169163c87b56dd91602480820192600092909190829003018186803b158015612f0557600080fd5b505afa158015612f19573d6000803e3d6000fd5b505050506040513d6000823e601f3d908101601f191682016040526020811015612f4257600080fd5b8101908080516040519392919084600160201b821115612f6157600080fd5b908301906020820185811115612f7657600080fd5b8251600160201b811182820188101715612f8f57600080fd5b82525081516020918201929091019080838360005b83811015612fbc578181015183820152602001612fa4565b50505050905090810190601f168015612fe95780820380516001836020036101000a031916815260200191505b50604052505050915050610b41565b6040518060800160405280604a81526020016133e8604a91399392505050565b60008181526012602052604090206001015461114e576040805162461bcd60e51b8152602060048201526012602482015271546f6b656e206e6f7420666f722073616c6560701b604482015290519081900360640190fd5b611eb561307b6130cb565b613117565b6001600160a01b03918216600090815260046020908152604080832093909416825291909152205460ff1690565b6000908152600160205260409020546001600160a01b0316151590565b3390565b6130e0600e8263ffffffff61325616565b6040516001600160a01b038216907fee1504a83b6d4a361f4c1dc78ab59bfa30d6a3b6612c403e86bb01ef2984295f90600090a250565b613128600e8263ffffffff6132d716565b6040516001600160a01b038216907f270d9b30cf5b0793bbfd54c9d5b94aeb49462b8148399000265144a8722da6b690600090a250565b60006001600160a01b0382166131a65760405162461bcd60e51b81526004018080602001828103825260228152602001806134da6022913960400191505060405180910390fd5b506001600160a01b03166000908152602091909152604090205460ff1690565b6131d7600d8263ffffffff6132d716565b6040516001600160a01b038216907f0a8eb35e5ca14b3d6f28e4abf2f128dbab231a58b56e89beb5d636115001e16590600090a250565b61321f600d8263ffffffff61325616565b6040516001600160a01b038216907f22380c05984257a1cb900161c713dd71d39e74820f1aea43bd3f1bdd2096129990600090a250565b613260828261315f565b156132b2576040805162461bcd60e51b815260206004820152601f60248201527f526f6c65733a206163636f756e7420616c72656164792068617320726f6c6500604482015290519081900360640190fd5b6001600160a01b0316600090815260209190915260409020805460ff19166001179055565b6132e1828261315f565b61331c5760405162461bcd60e51b815260040180806020018281038252602181526020018061348d6021913960400191505060405180910390fd5b6001600160a01b0316600090815260209190915260409020805460ff19169055565b60405180610100016040528060006001600160a01b031681526020016000815260200160006001600160a01b03168152602001600015158152602001600015158152602001600081526020016000815260200160008152509056fe455243373231456e756d657261626c653a206f776e657220696e646578206f7574206f6620626f756e647343616e6e6f74207472616e73666572206120626f72726f77656420636f6e747261637468747470733a2f2f697066732e696e667572612e696f2f697066732f516d59413366617a4b575873695258594444794878424b426938756445526a61527a6a7450524e4332444b6a335a43616e6e6f74207472616e73666572206120657363726f77656420636f6e74726163744552433732313a20617070726f76652063616c6c6572206973206e6f74206f776e6572206e6f7220617070726f76656420666f7220616c6c526f6c65733a206163636f756e7420646f6573206e6f74206861766520726f6c654552433732313a20617070726f76656420717565727920666f72206e6f6e6578697374656e7420746f6b656e526f6c65733a206163636f756e7420697320746865207a65726f206164647265737357686974656c69737441646d696e526f6c653a2063616c6c657220646f6573206e6f742068617665207468652057686974656c69737441646d696e20726f6c654552433732313a20617070726f76616c20746f2063757272656e74206f776e6572455243373231456e756d657261626c653a20676c6f62616c20696e646578206f7574206f6620626f756e6473a265627a7a7231582089599815c343487f55f6ef2fac527228997acdf9217ada027217b8b71b16f79e64736f6c634300050e0032526f6c65733a206163636f756e7420697320746865207a65726f206164647265737357686974656c69737441646d696e526f6c653a2063616c6c657220646f6573206e6f742068617665207468652057686974656c69737441646d696e20726f6c65",
  "source": "pragma solidity 0.5.14;\n\nimport \"@openzeppelin/contracts/access/roles/WhitelistedRole.sol\";\nimport \"@openzeppelin/contracts/token/ERC20/IERC20.sol\";\nimport \"@openzeppelin/contracts/token/ERC721/IERC721Full.sol\";\nimport \"@openzeppelin/contracts/token/ERC721/ERC721Full.sol\";\nimport \"./sablier/IERC1620.sol\";\n\ncontract LoanShark is ERC721Full, WhitelistedRole {\n\n    struct Loan {\n        // Config\n        address lender;\n        uint256 tokenId;\n        address borrower;\n\n        // state flags\n        bool isEscrowed;\n        bool isBorrowed;\n\n        uint256 start;\n        uint256 end;\n        uint256 depositInWei;\n    }\n\n    // What to stream the payment in\n    IERC20 public paymentToken;\n\n    // The original NFT contract\n    IERC721Full public tokenContract;\n\n    // Sablier stream for payments\n    IERC1620 stream;\n\n    mapping(uint256 => Loan) public tokensAvailableToLoan;\n\n    mapping(address => uint256[]) public lenderToTokenId;\n\n    // So we can enumerate them\n    uint256 public totalTokens = 0;\n    mapping(uint256 => uint256) public indexToTokenId;\n\n    mapping(uint256 => uint256) public tokenIdToStreamId;\n\n    constructor(\n        IERC721Full _tokenContract, // How to make this generic to not accept a token at construction\n        IERC20 _paymentToken, // DAI ... or even zkDAI ?\n        IERC1620 _stream\n    ) ERC721Full(\"LoanShark\", \"LSK\") public {\n        super.addWhitelisted(msg.sender);\n\n        paymentToken = _paymentToken;\n        tokenContract = _tokenContract;\n        stream = _stream;\n\n        // approve the stream to pull whatever they want from LoanShark\n        paymentToken.approve(address(stream), uint(- 1));\n    }\n\n    // TODO create a proxy method to allow call on original NFT by bytecode/method args - dynamic lookup?\n\n    function enableTokenForLending(uint256 _tokenId, uint256 _start, uint256 _end, uint256 _depositInWei) public returns (bool) {\n\n        // Validate input\n        //        require(_costPerMinute > 0, \"Cannot loan the token for free\");\n        require(tokensAvailableToLoan[_tokenId].tokenId == 0, \"Token already placed for sale\");\n\n        // Validate caller owns it\n        require(tokenContract.ownerOf(_tokenId) == msg.sender, \"Caller does not own the NFT\");\n\n        // Setup Loan\n        tokensAvailableToLoan[_tokenId] = Loan({\n            tokenId : _tokenId,\n            lender : msg.sender,\n            borrower : address(0x0),\n\n            isEscrowed : true,\n            isBorrowed : false,\n\n            start : _start,\n            end : _end,\n\n            depositInWei : _depositInWei\n            });\n\n        // Escrow NFT into the Loan Shark Contract\n        tokenContract.safeTransferFrom(msg.sender, address(this), _tokenId);\n        require(isTokenEscrowed(_tokenId), \"Token not correctly escrowed\");\n\n        // Setup simple enumeration\n        indexToTokenId[totalTokens] = _tokenId;\n        totalTokens = totalTokens + 1;\n\n        // setup simple lender mapping\n        lenderToTokenId[msg.sender].push(_tokenId);\n\n        return true;\n    }\n\n    /*\n     * Close any outstanding un-borrowed NFT loans\n     * Send the NFT back to the original lender\n     */\n    function cancelLoan(uint256 _tokenId) public returns (bool) {\n        require(tokensAvailableToLoan[_tokenId].tokenId != 0, \"Token not for sale\");\n\n        Loan storage loan = tokensAvailableToLoan[_tokenId];\n        require(loan.isEscrowed, \"Token not escrowed\");\n        require(!loan.isBorrowed, \"Token already borrowed\");\n        require(loan.borrower != address(0), \"Token already got a borrower\");\n\n        address originalLender = loan.lender;\n\n        delete tokensAvailableToLoan[_tokenId];\n\n        // Send the loan back to the original lender\n        tokenContract.safeTransferFrom(address(this), originalLender, _tokenId);\n        require(isTokenOwnedBy(_tokenId, originalLender), \"Token not returned successfully\");\n\n        return true;\n    }\n\n    function borrowToken(uint256 _tokenId) public returns (bool) {\n        require(tokensAvailableToLoan[_tokenId].tokenId != 0, \"Token not for sale\");\n\n        Loan storage loan = tokensAvailableToLoan[_tokenId];\n        require(loan.isEscrowed, \"Token not escrowed\");\n        require(!loan.isBorrowed, \"Token already borrowed\");\n        require(loan.borrower == address(0), \"Token already got a borrower\");\n\n        // sudo transfer this NFT to the new owner\n        loan.borrower = msg.sender;\n        loan.isBorrowed = true;\n\n        // deposit here in escrow to set up stream\n        paymentToken.transferFrom(msg.sender, address(this), loan.depositInWei);\n\n        // this will pull the escrowed amount into the stream\n        uint256 streamId = stream.createStream(loan.lender, loan.depositInWei, address(paymentToken), loan.start, loan.end);\n\n        tokenIdToStreamId[_tokenId] = streamId;\n        return true;\n    }\n\n    function returnBorrowedNft(uint256 _tokenId) public returns (bool) {\n        require(tokensAvailableToLoan[_tokenId].tokenId != 0, \"Token not for sale\");\n\n        Loan storage loan = tokensAvailableToLoan[_tokenId];\n        require(loan.isEscrowed, \"Token not escrowed\");\n        require(loan.isBorrowed, \"Token not borrowed\");\n        require(loan.borrower == msg.sender, \"Token not borrowed by caller\");\n\n        // sudo transfer this NFT back to the escrow\n        loan.borrower = address(0);\n        loan.isBorrowed = false;\n\n        // TODO fix this?\n         stream.cancelStream(tokenIdToStreamId[_tokenId]);\n\n        delete tokenIdToStreamId[_tokenId];\n\n        return true;\n    }\n\n    function clawBackNft(uint256 _tokenId) public {\n        require(tokensAvailableToLoan[_tokenId].tokenId != 0, \"Token not for sale\");\n\n        // only allow after loan has expired\n        // take back ownership from the borrower\n        // reset loan state\n        // penalise the borrower in some form?\n    }\n\n    /////////////////////\n    // Query utilities //\n    /////////////////////\n\n    function getLoanDetails(uint _tokenId) public view returns (\n        address lender,\n        address borrower,\n        bool isEscrowed,\n        bool isBorrowed,\n        uint256 start,\n        uint256 end,\n        uint256 depositInWei\n    ) {\n        Loan memory loan = tokensAvailableToLoan[_tokenId];\n        return (\n        loan.lender,\n        loan.borrower,\n        loan.isEscrowed,\n        loan.isBorrowed,\n        loan.start,\n        loan.end,\n        loan.depositInWei\n        );\n    }\n\n    function cancel(uint _tokenId) public returns (bool) {\n\n        uint256 streamId = tokenIdToStreamId[_tokenId];\n        require(streamId > 0, \"Must have a stream\");\n\n        Loan memory loan = tokensAvailableToLoan[_tokenId];\n        require(msg.sender == loan.lender, \"Must be lender\");\n\n        stream.cancelStream(streamId);\n//        safeTransferFrom(loan.borrower, loan.lender, _tokenId);\n\n        return paymentToken.transfer(loan.borrower, paymentToken.balanceOf(address(this)));\n    }\n\n\n    function getRemainingTimeLeftForLoan(uint _tokenId) public returns (uint256) {\n        uint256 streamId = tokenIdToStreamId[_tokenId];\n        require(streamId > 0, \"Must have a stream\");\n\n        Loan memory loan = tokensAvailableToLoan[_tokenId];\n\n        if (block.timestamp <= loan.start) return loan.end - loan.start;\n        if (block.timestamp > loan.end) return 0;\n\n        return loan.end - stream.deltaOf(streamId);\n    }\n\n    function getRemainingStreamBalance(uint _tokenId) public returns (uint256) {\n        uint256 streamId = tokenIdToStreamId[_tokenId];\n        require(streamId > 0, \"Must have a stream\");\n\n        Loan memory loan = tokensAvailableToLoan[_tokenId];\n\n        return stream.balanceOf(streamId, loan.lender);\n    }\n\n    function withdraw(uint _tokenId) public returns (bool) {\n        uint256 streamId = tokenIdToStreamId[_tokenId];\n        require(streamId > 0, \"Must have a stream\");\n\n        Loan memory loan = tokensAvailableToLoan[_tokenId];\n        require(msg.sender == loan.lender, \"Must be lender\");\n\n        clawBackNft(_tokenId);\n\n        return stream.withdrawFromStream(streamId, stream.balanceOf(streamId, loan.lender));\n    }\n\n    ////////////////////\n    // Internal utils //\n    ////////////////////\n\n    function getTokenIdForIndex(uint256 _index) public view returns (uint256) {\n        return indexToTokenId[_index];\n    }\n\n    function getTokensLenderIsBorrowing(address _lender) public view returns (uint256[] memory) {\n        uint256[] memory tokenIds = lenderToTokenId[_lender];\n        return tokenIds;\n    }\n\n    // taking ownership of the NFT via callback confirmation\n    function onERC721Received(address operator, address from, uint256 tokenId, bytes memory data) public returns (bytes4) {\n        return this.onERC721Received.selector;\n    }\n\n    function isTokenEscrowed(uint256 _tokenId) public view returns (bool) {\n        return isTokenOwnedBy(_tokenId, address(this));\n    }\n\n    function isTokenOwnedBy(uint256 _tokenId, address _owner) public view returns (bool) {\n        return IERC721Full(tokenContract).ownerOf(_tokenId) == _owner;\n    }\n\n    ////////////////////////////////////////\n    // Overridden IERC721Metadata methods //\n    ////////////////////////////////////////\n\n    function name() public view returns (string memory) {\n        return tokenContract.name();\n    }\n\n    function symbol() public view returns (string memory) {\n        return tokenContract.symbol();\n    }\n\n    function tokenURI(uint256 _tokenId) public view returns (string memory) {\n        Loan memory loan = tokensAvailableToLoan[_tokenId];\n        if (loan.isBorrowed) {\n            return tokenContract.tokenURI(_tokenId);\n        }\n        // Static IPFS data for a loan shark NFT\n        return \"https://ipfs.infura.io/ipfs/QmYA3fazKWXsiRXYDDyHxBKBi8udERjaRzjtPRNC2DKj3Z\";\n    }\n\n    function getPrincipleTokenUri(uint256 _tokenId) public view returns (string memory) {\n        return tokenContract.tokenURI(_tokenId);\n    }\n\n    ////////////////////////////////\n    // Overridden IERC721 methods //\n    ////////////////////////////////\n\n    // TODO proxy through to escrowed NFT\n    // TODO special case methods which need to be thought about\n    // TODO check expired stream as well for all proxy methods?\n\n    function balanceOf(address owner) public view returns (uint256) {\n        // TODO how to handle this proxy method\n        return tokenContract.balanceOf(owner);\n    }\n\n    function ownerOf(uint256 _tokenId) public view returns (address) {\n        Loan memory loan = tokensAvailableToLoan[_tokenId];\n        if (loan.isBorrowed) {\n            return tokenContract.ownerOf(_tokenId);\n        }\n        return address(this);\n    }\n\n    function safeTransferFrom(address from, address to, uint256 tokenId, bytes memory _data) public {\n        Loan memory loan = tokensAvailableToLoan[tokenId];\n        require(!loan.isBorrowed, \"Cannot transfer a borrowed contract\");\n        require(!loan.isEscrowed, \"Cannot transfer a escrowed contract\");\n\n        return tokenContract.safeTransferFrom(from, to, tokenId, _data);\n    }\n\n    function transferFrom(address from, address to, uint256 tokenId) public {\n        Loan memory loan = tokensAvailableToLoan[tokenId];\n        require(!loan.isBorrowed, \"Cannot transfer a borrowed contract\");\n        require(!loan.isEscrowed, \"Cannot transfer a escrowed contract\");\n\n        return tokenContract.transferFrom(from, to, tokenId);\n    }\n\n}\n",
  "sourcePath": "/Users/jamesmorgan/Dropbox/workspace-blockrocket/blockrocket/loan-shark/contracts/LoanShark.sol",
  "compiler": {
    "name": "solc",
    "version": "0.5.14+commit.01f1aaa4.Emscripten.clang"
  },
  "schemaVersion": "3.0.19",
  "updatedAt": "2020-02-29T20:30:43.407Z",
  "networkType": "ethereum",
  "devdoc": {
    "methods": {
      "approve(address,uint256)": {
        "details": "Approves another address to transfer the given token ID The zero address indicates there is no approved address. There can only be one approved address per token at a given time. Can only be called by the token owner or an approved operator.",
        "params": {
          "to": "address to be approved for the given token ID",
          "tokenId": "uint256 ID of the token to be approved"
        }
      },
      "baseURI()": {
        "details": "Returns the base URI set via {_setBaseURI}. This will be automatically added as a preffix in {tokenURI} to each token's URI, when they are non-empty.    * _Available since v2.5.0._"
      },
      "getApproved(uint256)": {
        "details": "Gets the approved address for a token ID, or zero if no address set Reverts if the token ID does not exist.",
        "params": {
          "tokenId": "uint256 ID of the token to query the approval of"
        },
        "return": "address currently approved for the given token ID"
      },
      "isApprovedForAll(address,address)": {
        "details": "Tells whether an operator is approved by a given owner.",
        "params": {
          "operator": "operator address which you want to query the approval of",
          "owner": "owner address which you want to query the approval of"
        },
        "return": "bool whether the given operator is approved by the given owner"
      },
      "safeTransferFrom(address,address,uint256)": {
        "details": "Safely transfers the ownership of a given token ID to another address If the target address is a contract, it must implement {IERC721Receiver-onERC721Received}, which is called upon a safe transfer, and return the magic value `bytes4(keccak256(\"onERC721Received(address,address,uint256,bytes)\"))`; otherwise, the transfer is reverted. Requires the msg.sender to be the owner, approved, or operator",
        "params": {
          "from": "current owner of the token",
          "to": "address to receive the ownership of the given token ID",
          "tokenId": "uint256 ID of the token to be transferred"
        }
      },
      "setApprovalForAll(address,bool)": {
        "details": "Sets or unsets the approval of a given operator An operator is allowed to transfer all tokens of the sender on their behalf.",
        "params": {
          "approved": "representing the status of the approval to be set",
          "to": "operator address to set the approval"
        }
      },
      "supportsInterface(bytes4)": {
        "details": "See {IERC165-supportsInterface}.     * Time complexity O(1), guaranteed to always use less than 30 000 gas."
      },
      "tokenByIndex(uint256)": {
        "details": "Gets the token ID at a given index of all the tokens in this contract Reverts if the index is greater or equal to the total number of tokens.",
        "params": {
          "index": "uint256 representing the index to be accessed of the tokens list"
        },
        "return": "uint256 token ID at the given index of the tokens list"
      },
      "tokenOfOwnerByIndex(address,uint256)": {
        "details": "Gets the token ID at a given index of the tokens list of the requested owner.",
        "params": {
          "index": "uint256 representing the index to be accessed of the requested tokens list",
          "owner": "address owning the tokens list to be accessed"
        },
        "return": "uint256 token ID at the given index of the tokens list owned by the requested address"
      },
      "totalSupply()": {
        "details": "Gets the total amount of tokens stored by the contract.",
        "return": "uint256 representing the total amount of tokens"
      }
    }
  },
  "userdoc": {
    "methods": {
      "balanceOf(address)": {
        "notice": "/////////////////////////////"
      },
      "getLoanDetails(uint256)": {
        "notice": "//////////////////"
      },
      "getTokenIdForIndex(uint256)": {
        "notice": "/////////////////"
      },
      "name()": {
        "notice": "/////////////////////////////////////"
      }
    }
  }
}