{
  "contractName": "Sablier",
  "abi": [
    {
      "inputs": [],
      "payable": false,
      "stateMutability": "nonpayable",
      "type": "constructor"
    },
    {
      "anonymous": false,
      "inputs": [
        {
          "indexed": true,
          "internalType": "uint256",
          "name": "streamId",
          "type": "uint256"
        },
        {
          "indexed": true,
          "internalType": "address",
          "name": "sender",
          "type": "address"
        },
        {
          "indexed": true,
          "internalType": "address",
          "name": "recipient",
          "type": "address"
        },
        {
          "indexed": false,
          "internalType": "uint256",
          "name": "senderBalance",
          "type": "uint256"
        },
        {
          "indexed": false,
          "internalType": "uint256",
          "name": "recipientBalance",
          "type": "uint256"
        }
      ],
      "name": "CancelStream",
      "type": "event"
    },
    {
      "anonymous": false,
      "inputs": [
        {
          "indexed": true,
          "internalType": "uint256",
          "name": "streamId",
          "type": "uint256"
        },
        {
          "indexed": true,
          "internalType": "address",
          "name": "sender",
          "type": "address"
        },
        {
          "indexed": true,
          "internalType": "address",
          "name": "recipient",
          "type": "address"
        },
        {
          "indexed": false,
          "internalType": "uint256",
          "name": "deposit",
          "type": "uint256"
        },
        {
          "indexed": false,
          "internalType": "address",
          "name": "tokenAddress",
          "type": "address"
        },
        {
          "indexed": false,
          "internalType": "uint256",
          "name": "startTime",
          "type": "uint256"
        },
        {
          "indexed": false,
          "internalType": "uint256",
          "name": "stopTime",
          "type": "uint256"
        }
      ],
      "name": "CreateStream",
      "type": "event"
    },
    {
      "anonymous": false,
      "inputs": [
        {
          "indexed": true,
          "internalType": "uint256",
          "name": "streamId",
          "type": "uint256"
        },
        {
          "indexed": true,
          "internalType": "address",
          "name": "recipient",
          "type": "address"
        },
        {
          "indexed": false,
          "internalType": "uint256",
          "name": "amount",
          "type": "uint256"
        }
      ],
      "name": "WithdrawFromStream",
      "type": "event"
    },
    {
      "constant": true,
      "inputs": [],
      "name": "fee",
      "outputs": [
        {
          "internalType": "uint256",
          "name": "mantissa",
          "type": "uint256"
        }
      ],
      "payable": false,
      "stateMutability": "view",
      "type": "function"
    },
    {
      "constant": true,
      "inputs": [],
      "name": "nextStreamId",
      "outputs": [
        {
          "internalType": "uint256",
          "name": "",
          "type": "uint256"
        }
      ],
      "payable": false,
      "stateMutability": "view",
      "type": "function"
    },
    {
      "constant": true,
      "inputs": [
        {
          "internalType": "uint256",
          "name": "streamId",
          "type": "uint256"
        }
      ],
      "name": "getStream",
      "outputs": [
        {
          "internalType": "address",
          "name": "sender",
          "type": "address"
        },
        {
          "internalType": "address",
          "name": "recipient",
          "type": "address"
        },
        {
          "internalType": "uint256",
          "name": "deposit",
          "type": "uint256"
        },
        {
          "internalType": "address",
          "name": "tokenAddress",
          "type": "address"
        },
        {
          "internalType": "uint256",
          "name": "startTime",
          "type": "uint256"
        },
        {
          "internalType": "uint256",
          "name": "stopTime",
          "type": "uint256"
        },
        {
          "internalType": "uint256",
          "name": "remainingBalance",
          "type": "uint256"
        },
        {
          "internalType": "uint256",
          "name": "ratePerSecond",
          "type": "uint256"
        }
      ],
      "payable": false,
      "stateMutability": "view",
      "type": "function"
    },
    {
      "constant": true,
      "inputs": [
        {
          "internalType": "uint256",
          "name": "streamId",
          "type": "uint256"
        }
      ],
      "name": "deltaOf",
      "outputs": [
        {
          "internalType": "uint256",
          "name": "delta",
          "type": "uint256"
        }
      ],
      "payable": false,
      "stateMutability": "view",
      "type": "function"
    },
    {
      "constant": true,
      "inputs": [
        {
          "internalType": "uint256",
          "name": "streamId",
          "type": "uint256"
        },
        {
          "internalType": "address",
          "name": "who",
          "type": "address"
        }
      ],
      "name": "balanceOf",
      "outputs": [
        {
          "internalType": "uint256",
          "name": "balance",
          "type": "uint256"
        }
      ],
      "payable": false,
      "stateMutability": "view",
      "type": "function"
    },
    {
      "constant": false,
      "inputs": [
        {
          "internalType": "address",
          "name": "recipient",
          "type": "address"
        },
        {
          "internalType": "uint256",
          "name": "deposit",
          "type": "uint256"
        },
        {
          "internalType": "address",
          "name": "tokenAddress",
          "type": "address"
        },
        {
          "internalType": "uint256",
          "name": "startTime",
          "type": "uint256"
        },
        {
          "internalType": "uint256",
          "name": "stopTime",
          "type": "uint256"
        }
      ],
      "name": "createStream",
      "outputs": [
        {
          "internalType": "uint256",
          "name": "",
          "type": "uint256"
        }
      ],
      "payable": false,
      "stateMutability": "nonpayable",
      "type": "function"
    },
    {
      "constant": false,
      "inputs": [
        {
          "internalType": "uint256",
          "name": "streamId",
          "type": "uint256"
        },
        {
          "internalType": "uint256",
          "name": "amount",
          "type": "uint256"
        }
      ],
      "name": "withdrawFromStream",
      "outputs": [
        {
          "internalType": "bool",
          "name": "",
          "type": "bool"
        }
      ],
      "payable": false,
      "stateMutability": "nonpayable",
      "type": "function"
    },
    {
      "constant": false,
      "inputs": [
        {
          "internalType": "uint256",
          "name": "streamId",
          "type": "uint256"
        }
      ],
      "name": "cancelStream",
      "outputs": [
        {
          "internalType": "bool",
          "name": "",
          "type": "bool"
        }
      ],
      "payable": false,
      "stateMutability": "nonpayable",
      "type": "function"
    }
  ],
  "bytecode": "0x608060405234801561001057600080fd5b506000805460ff191660019081179091556003556118d5806100336000396000f3fe608060405234801561001057600080fd5b50600436106100885760003560e01c8063894e9a0d1161005b578063894e9a0d14610127578063a82ccd4d14610197578063cc1b4bf6146101b4578063ddca3f43146101f457610088565b80631e99d5691461008d5780633656eec2146100a75780636db9241b146100d35780637a9b2c6c14610104575b600080fd5b6100956101fc565b60408051918252519081900360200190f35b610095600480360360408110156100bd57600080fd5b50803590602001356001600160a01b0316610202565b6100f0600480360360208110156100e957600080fd5b50356104e8565b604080519115158252519081900360200190f35b6100f06004803603604081101561011a57600080fd5b508035906020013561098f565b6101446004803603602081101561013d57600080fd5b5035610e14565b604080516001600160a01b03998a168152978916602089015287810196909652939096166060860152608085019190915260a084015260c083019390935260e08201929092529051908190036101000190f35b610095600480360360208110156101ad57600080fd5b5035610ee9565b610095600480360360a08110156101ca57600080fd5b506001600160a01b0381358116916020810135916040820135169060608101359060800135611025565b61009561165d565b60035481565b6000828152600460205260408120600701548390600160a01b900460ff16610269576040805162461bcd60e51b81526020600482015260156024820152741cdd1c99585b48191bd95cc81b9bdd08195e1a5cdd605a1b604482015290519081900360640190fd5b610271611719565b50600084815260046020818152604092839020835161012081018552815481526001820154928101929092526002810154938201939093526003830154606082015290820154608082015260058201546001600160a01b0390811660a08301526006830154811660c083015260079092015491821660e0820152600160a01b90910460ff161515610100820152610306611782565b600061031187610ee9565b9050610321818460200151611663565b602084018190528382600381111561033557fe5b600381111561034057fe5b905250600090508251600381111561035457fe5b146103905760405162461bcd60e51b81526004018080602001828103825260238152602001806118476023913960400191505060405180910390fd5b604083015183511115610435576103af836000015184604001516116a5565b60408401819052838260038111156103c357fe5b60038111156103ce57fe5b90525060009050825160038111156103e257fe5b146103e957fe5b6103fb826020015183604001516116a5565b602084018190528382600381111561040f57fe5b600381111561041a57fe5b905250600090508251600381111561042e57fe5b1461043557fe5b8260a001516001600160a01b0316866001600160a01b0316141561046157506020015192506104e19050565b8260c001516001600160a01b0316866001600160a01b031614156104d957610491836040015183602001516116a5565b60608401819052838260038111156104a557fe5b60038111156104b057fe5b90525060009050825160038111156104c457fe5b146104cb57fe5b506060015192506104e19050565b600094505050505b5092915050565b6000805460ff16610540576040805162461bcd60e51b815260206004820152601f60248201527f5265656e7472616e637947756172643a207265656e7472616e742063616c6c00604482015290519081900360640190fd5b6000805460ff19168155828152600460205260409020600701548290600160a01b900460ff166105af576040805162461bcd60e51b81526020600482015260156024820152741cdd1c99585b48191bd95cc81b9bdd08195e1a5cdd605a1b604482015290519081900360640190fd5b60008381526004602052604090206006015483906001600160a01b03163314806105f257506000818152600460205260409020600501546001600160a01b031633145b61062d5760405162461bcd60e51b815260040180806020018281038252603781526020018061186a6037913960400191505060405180910390fd5b610635611719565b506000848152600460208181526040808420815161012081018352815481526001820154938101939093526002810154918301919091526003810154606083015291820154608082015260058201546001600160a01b0390811660a08301526006830154811660c0830181905260079093015490811660e0830152600160a01b900460ff16151561010082015291906106cf908790610202565b905060006106e1878460a00151610202565b60008881526004602081905260408220828155600181018390556002810183905560038101839055908101919091556005810180546001600160a01b0319908116909155600682018054909116905560070180546001600160a81b031916905560e0840151909150811561083057806001600160a01b031663a9059cbb8560a00151846040518363ffffffff1660e01b815260040180836001600160a01b03166001600160a01b0316815260200182815260200192505050602060405180830381600087803b1580156107b357600080fd5b505af11580156107c7573d6000803e3d6000fd5b505050506040513d60208110156107dd57600080fd5b5051610830576040805162461bcd60e51b815260206004820181905260248201527f726563697069656e7420746f6b656e207472616e73666572206661696c757265604482015290519081900360640190fd5b821561091757806001600160a01b031663a9059cbb8560c00151856040518363ffffffff1660e01b815260040180836001600160a01b03166001600160a01b0316815260200182815260200192505050602060405180830381600087803b15801561089a57600080fd5b505af11580156108ae573d6000803e3d6000fd5b505050506040513d60208110156108c457600080fd5b5051610917576040805162461bcd60e51b815260206004820152601d60248201527f73656e64657220746f6b656e207472616e73666572206661696c757265000000604482015290519081900360640190fd5b8360a001516001600160a01b03168460c001516001600160a01b0316897fca3e6079b726e7728802a0537949e2d1c7762304fa641fb06eb56daf2ba8c6b98686604051808381526020018281526020019250505060405180910390a4600196505050505050506000805460ff19166001179055919050565b6000805460ff166109e7576040805162461bcd60e51b815260206004820152601f60248201527f5265656e7472616e637947756172643a207265656e7472616e742063616c6c00604482015290519081900360640190fd5b6000805460ff19168155838152600460205260409020600701548390600160a01b900460ff16610a56576040805162461bcd60e51b81526020600482015260156024820152741cdd1c99585b48191bd95cc81b9bdd08195e1a5cdd605a1b604482015290519081900360640190fd5b60008481526004602052604090206006015484906001600160a01b0316331480610a9957506000818152600460205260409020600501546001600160a01b031633145b610ad45760405162461bcd60e51b815260040180806020018281038252603781526020018061186a6037913960400191505060405180910390fd5b60008411610b1a576040805162461bcd60e51b815260206004820152600e60248201526d616d6f756e74206973207a65726f60901b604482015290519081900360640190fd5b610b22611719565b50600085815260046020818152604092839020835161012081018552815481526001820154928101929092526002810154938201939093526003830154606082015290820154608082015260058201546001600160a01b0390811660a08301526006830154811660c083015260079092015491821660e0820152600160a01b90910460ff161515610100820152610bb76117ab565b6000610bc7888460a00151610202565b905086811015610c085760405162461bcd60e51b81526004018080602001828103825260248152602001806117e06024913960400191505060405180910390fd5b610c168360400151886116a5565b60008a815260046020526040902060020181905583826003811115610c3757fe5b6003811115610c4257fe5b9052506000905082516003811115610c5657fe5b14610c5d57fe5b600088815260046020526040902060020154610cd45760008881526004602081905260408220828155600181018390556002810183905560038101839055908101919091556005810180546001600160a01b0319908116909155600682018054909116905560070180546001600160a81b03191690555b8260e001516001600160a01b031663a9059cbb8460a00151896040518363ffffffff1660e01b815260040180836001600160a01b03166001600160a01b0316815260200182815260200192505050602060405180830381600087803b158015610d3c57600080fd5b505af1158015610d50573d6000803e3d6000fd5b505050506040513d6020811015610d6657600080fd5b5051610db2576040805162461bcd60e51b8152602060048201526016602482015275746f6b656e207472616e73666572206661696c75726560501b604482015290519081900360640190fd5b8260a001516001600160a01b0316887f36c3ab437e6a424ed25dc4bfdeb62706aa06558660fab2dab229d2555adaf89c896040518082815260200191505060405180910390a36001955050505050506000805460ff1916600117905592915050565b600080600080600080600080886004600082815260200190815260200160002060070160149054906101000a900460ff16610e8e576040805162461bcd60e51b81526020600482015260156024820152741cdd1c99585b48191bd95cc81b9bdd08195e1a5cdd605a1b604482015290519081900360640190fd5b50505060009687525050600460208190526040909520600681015460058201548254600784015460038501549985015460028601546001909601546001600160a01b039586169c9486169b939a509490911697509095509350565b6000818152600460205260408120600701548290600160a01b900460ff16610f50576040805162461bcd60e51b81526020600482015260156024820152741cdd1c99585b48191bd95cc81b9bdd08195e1a5cdd605a1b604482015290519081900360640190fd5b610f58611719565b506000838152600460208181526040928390208351610120810185528154815260018201549281019290925260028101549382019390935260038301546060820181905291830154608082015260058301546001600160a01b0390811660a08301526006840154811660c083015260079093015492831660e0820152600160a01b90920460ff1615156101008301524211610ff757600092505061101f565b806080015142101561101057606001514203915061101f565b80606001518160800151039250505b50919050565b60006001600160a01b038616611082576040805162461bcd60e51b815260206004820152601a60248201527f73747265616d20746f20746865207a65726f2061646472657373000000000000604482015290519081900360640190fd5b6001600160a01b0386163014156110e0576040805162461bcd60e51b815260206004820152601d60248201527f73747265616d20746f2074686520636f6e747261637420697473656c66000000604482015290519081900360640190fd5b6001600160a01b038616331415611135576040805162461bcd60e51b815260206004820152601460248201527339ba3932b0b6903a37903a34329031b0b63632b960611b604482015290519081900360640190fd5b6000851161117c576040805162461bcd60e51b815260206004820152600f60248201526e6465706f736974206973207a65726f60881b604482015290519081900360640190fd5b428310156111bb5760405162461bcd60e51b81526004018080602001828103825260218152602001806118046021913960400191505060405180910390fd5b82821161120f576040805162461bcd60e51b815260206004820152601f60248201527f73746f702074696d65206265666f7265207468652073746172742074696d6500604482015290519081900360640190fd5b6112176117bd565b61122183856116a5565b602083018190528282600381111561123557fe5b600381111561124057fe5b905250600090508151600381111561125457fe5b1461125b57fe5b80602001518610156112b4576040805162461bcd60e51b815260206004820152601f60248201527f6465706f73697420736d616c6c6572207468616e2074696d652064656c746100604482015290519081900360640190fd5b806020015186816112c157fe5b06156112fe5760405162461bcd60e51b81526004018080602001828103825260228152602001806118256022913960400191505060405180910390fd5b61130c8682602001516116c8565b604083018190528282600381111561132057fe5b600381111561132b57fe5b905250600090508151600381111561133f57fe5b1461134657fe5b6000600354905060405180610120016040528088815260200183604001518152602001888152602001868152602001858152602001896001600160a01b03168152602001336001600160a01b03168152602001876001600160a01b031681526020016001151581525060046000838152602001908152602001600020600082015181600001556020820151816001015560408201518160020155606082015181600301556080820151816004015560a08201518160050160006101000a8154816001600160a01b0302191690836001600160a01b0316021790555060c08201518160060160006101000a8154816001600160a01b0302191690836001600160a01b0316021790555060e08201518160070160006101000a8154816001600160a01b0302191690836001600160a01b031602179055506101008201518160070160146101000a81548160ff0219169083151502179055509050506114ac60035460016116f3565b6003818155849083908111156114be57fe5b60038111156114c957fe5b90525060009050825160038111156114dd57fe5b1461152f576040805162461bcd60e51b815260206004820181905260248201527f6e6578742073747265616d2069642063616c63756c6174696f6e206572726f72604482015290519081900360640190fd5b604080516323b872dd60e01b81523360048201523060248201526044810189905290516001600160a01b038816916323b872dd9160648083019260209291908290030181600087803b15801561158457600080fd5b505af1158015611598573d6000803e3d6000fd5b505050506040513d60208110156115ae57600080fd5b50516115fa576040805162461bcd60e51b8152602060048201526016602482015275746f6b656e207472616e73666572206661696c75726560501b604482015290519081900360640190fd5b604080518881526001600160a01b038881166020830152818301889052606082018790529151918a1691339184917f7b01d409597969366dc268d7f957a990d1ca3d3449baf8fb45db67351aecfe789181900360800190a4979650505050505050565b60025481565b600080836116765750600090508061169e565b8383028385828161168357fe5b04146116975750600291506000905061169e565b6000925090505b9250929050565b6000808383116116bc57506000905081830361169e565b5060039050600061169e565b600080826116dc575060019050600061169e565b60008385816116e757fe5b04915091509250929050565b60008083830184811061170b5760009250905061169e565b50600291506000905061169e565b604051806101200160405280600081526020016000815260200160008152602001600081526020016000815260200160006001600160a01b0316815260200160006001600160a01b0316815260200160006001600160a01b031681526020016000151581525090565b604080516080810190915280600081526020016000815260200160008152602001600081525090565b60408051602081019091526000815290565b604080516060810190915280600081526020016000815260200160008152509056fe616d6f756e7420657863656564732074686520617661696c61626c652062616c616e636573746172742074696d65206265666f726520626c6f636b2e74696d657374616d706465706f736974206e6f74206d756c7469706c65206f662074696d652064656c7461726563697069656e742062616c616e63652063616c63756c6174696f6e206572726f7263616c6c6572206973206e6f74207468652073656e646572206f722074686520726563697069656e74206f66207468652073747265616da265627a7a723158209b4d59573b161bfb394b1960503a62d0d3a81bdc8b02f5c1758e178ccc2016c964736f6c634300050e0032",
  "source": "pragma solidity 0.5.14;\n\nimport \"@openzeppelin/contracts/lifecycle/Pausable.sol\";\nimport \"@openzeppelin/contracts/ownership/Ownable.sol\";\nimport \"@openzeppelin/contracts/token/ERC20/IERC20.sol\";\nimport \"@openzeppelin/contracts/utils/ReentrancyGuard.sol\";\n\nimport \"./compound/Exponential.sol\";\nimport \"./IERC1620.sol\";\nimport \"./Types.sol\";\n\n/**\n * @title Sablier's Money Streaming\n * @author Sablier\n */\ncontract Sablier is IERC1620, Exponential, ReentrancyGuard {\n    /*** Storage Properties ***/\n\n    /**\n     * @notice The amount of interest has been accrued per token address.\n     */\n    mapping(address => uint256) private earnings;\n\n    /**\n     * @notice The percentage fee charged by the contract on the accrued interest.\n     */\n    Exp public fee;\n\n    /**\n     * @notice Counter for new stream ids.\n     */\n    uint256 public nextStreamId;\n\n    /**\n     * @notice The stream objects identifiable by their unsigned integer ids.\n     */\n    mapping(uint256 => Types.Stream) private streams;\n\n    /*** Modifiers ***/\n\n    /**\n     * @dev Throws if the caller is not the sender of the recipient of the stream.\n     */\n    modifier onlySenderOrRecipient(uint256 streamId) {\n        require(\n            msg.sender == streams[streamId].sender || msg.sender == streams[streamId].recipient,\n            \"caller is not the sender or the recipient of the stream\"\n        );\n        _;\n    }\n\n    /**\n     * @dev Throws if the provided id does not point to a valid stream.\n     */\n    modifier streamExists(uint256 streamId) {\n        require(streams[streamId].isEntity, \"stream does not exist\");\n        _;\n    }\n\n    /*** Contract Logic Starts Here */\n\n    constructor() public {\n        nextStreamId = 1;\n    }\n\n    /*** View Functions ***/\n\n    /**\n     * @notice Returns the compounding stream with all its properties.\n     * @dev Throws if the id does not point to a valid stream.\n     * @param streamId The id of the stream to query.\n     * @return The stream object.\n     */\n    function getStream(uint256 streamId)\n    external\n    view\n    streamExists(streamId)\n    returns (\n        address sender,\n        address recipient,\n        uint256 deposit,\n        address tokenAddress,\n        uint256 startTime,\n        uint256 stopTime,\n        uint256 remainingBalance,\n        uint256 ratePerSecond\n    )\n    {\n        sender = streams[streamId].sender;\n        recipient = streams[streamId].recipient;\n        deposit = streams[streamId].deposit;\n        tokenAddress = streams[streamId].tokenAddress;\n        startTime = streams[streamId].startTime;\n        stopTime = streams[streamId].stopTime;\n        remainingBalance = streams[streamId].remainingBalance;\n        ratePerSecond = streams[streamId].ratePerSecond;\n    }\n\n    /**\n     * @notice Returns either the delta in seconds between `block.timestamp` and `startTime` or\n     *  between `stopTime` and `startTime, whichever is smaller. If `block.timestamp` is before\n     *  `startTime`, it returns 0.\n     * @dev Throws if the id does not point to a valid stream.\n     * @param streamId The id of the stream for which to query the delta.\n     * @return The time delta in seconds.\n     */\n    function deltaOf(uint256 streamId) public view streamExists(streamId) returns (uint256 delta) {\n        Types.Stream memory stream = streams[streamId];\n        if (block.timestamp <= stream.startTime) return 0;\n        if (block.timestamp < stream.stopTime) return block.timestamp - stream.startTime;\n        return stream.stopTime - stream.startTime;\n    }\n\n    struct BalanceOfLocalVars {\n        MathError mathErr;\n        uint256 recipientBalance;\n        uint256 withdrawalAmount;\n        uint256 senderBalance;\n    }\n\n    /**\n     * @notice Returns the available funds for the given stream id and address.\n     * @dev Throws if the id does not point to a valid stream.\n     * @param streamId The id of the stream for which to query the balance.\n     * @param who The address for which to query the balance.\n     * @return The total funds allocated to `who` as uint256.\n     */\n    function balanceOf(uint256 streamId, address who) public view streamExists(streamId) returns (uint256 balance) {\n        Types.Stream memory stream = streams[streamId];\n        BalanceOfLocalVars memory vars;\n\n        uint256 delta = deltaOf(streamId);\n        (vars.mathErr, vars.recipientBalance) = mulUInt(delta, stream.ratePerSecond);\n        require(vars.mathErr == MathError.NO_ERROR, \"recipient balance calculation error\");\n\n        /*\n         * If the stream `balance` does not equal `deposit`, it means there have been withdrawals.\n         * We have to subtract the total amount withdrawn from the amount of money that has been\n         * streamed until now.\n         */\n        if (stream.deposit > stream.remainingBalance) {\n            (vars.mathErr, vars.withdrawalAmount) = subUInt(stream.deposit, stream.remainingBalance);\n            assert(vars.mathErr == MathError.NO_ERROR);\n            (vars.mathErr, vars.recipientBalance) = subUInt(vars.recipientBalance, vars.withdrawalAmount);\n            /* `withdrawalAmount` cannot and should not be bigger than `recipientBalance`. */\n            assert(vars.mathErr == MathError.NO_ERROR);\n        }\n\n        if (who == stream.recipient) return vars.recipientBalance;\n        if (who == stream.sender) {\n            (vars.mathErr, vars.senderBalance) = subUInt(stream.remainingBalance, vars.recipientBalance);\n            /* `recipientBalance` cannot and should not be bigger than `remainingBalance`. */\n            assert(vars.mathErr == MathError.NO_ERROR);\n            return vars.senderBalance;\n        }\n        return 0;\n    }\n\n    /*** Public Effects & Interactions Functions ***/\n\n    struct CreateStreamLocalVars {\n        MathError mathErr;\n        uint256 duration;\n        uint256 ratePerSecond;\n    }\n\n    /**\n     * @notice Creates a new stream funded by `msg.sender` and paid towards `recipient`.\n     * @dev Throws if paused.\n     *  Throws if the recipient is the zero address, the contract itself or the caller.\n     *  Throws if the deposit is 0.\n     *  Throws if the start time is before `block.timestamp`.\n     *  Throws if the stop time is before the start time.\n     *  Throws if the duration calculation has a math error.\n     *  Throws if the deposit is smaller than the duration.\n     *  Throws if the deposit is not a multiple of the duration.\n     *  Throws if the rate calculation has a math error.\n     *  Throws if the next stream id calculation has a math error.\n     *  Throws if the contract is not allowed to transfer enough tokens.\n     *  Throws if there is a token transfer failure.\n     * @param recipient The address towards which the money is streamed.\n     * @param deposit The amount of money to be streamed.\n     * @param tokenAddress The ERC20 token to use as streaming currency.\n     * @param startTime The unix timestamp for when the stream starts.\n     * @param stopTime The unix timestamp for when the stream stops.\n     * @return The uint256 id of the newly created stream.\n     */\n    function createStream(address recipient, uint256 deposit, address tokenAddress, uint256 startTime, uint256 stopTime)\n    public\n    returns (uint256)\n    {\n        require(recipient != address(0x00), \"stream to the zero address\");\n        require(recipient != address(this), \"stream to the contract itself\");\n        require(recipient != msg.sender, \"stream to the caller\");\n        require(deposit > 0, \"deposit is zero\");\n        require(startTime >= block.timestamp, \"start time before block.timestamp\");\n        require(stopTime > startTime, \"stop time before the start time\");\n\n        CreateStreamLocalVars memory vars;\n        (vars.mathErr, vars.duration) = subUInt(stopTime, startTime);\n        /* `subUInt` can only return MathError.INTEGER_UNDERFLOW but we know `stopTime` is higher than `startTime`. */\n        assert(vars.mathErr == MathError.NO_ERROR);\n\n        /* Without this, the rate per second would be zero. */\n        require(deposit >= vars.duration, \"deposit smaller than time delta\");\n\n        /* This condition avoids dealing with remainders */\n        require(deposit % vars.duration == 0, \"deposit not multiple of time delta\");\n\n        (vars.mathErr, vars.ratePerSecond) = divUInt(deposit, vars.duration);\n        /* `divUInt` can only return MathError.DIVISION_BY_ZERO but we know `duration` is not zero. */\n        assert(vars.mathErr == MathError.NO_ERROR);\n\n        /* Create and store the stream object. */\n        uint256 streamId = nextStreamId;\n        streams[streamId] = Types.Stream({\n            remainingBalance: deposit,\n            deposit: deposit,\n            isEntity: true,\n            ratePerSecond: vars.ratePerSecond,\n            recipient: recipient,\n            sender: msg.sender,\n            startTime: startTime,\n            stopTime: stopTime,\n            tokenAddress: tokenAddress\n            });\n\n        /* Increment the next stream id. */\n        (vars.mathErr, nextStreamId) = addUInt(nextStreamId, uint256(1));\n        require(vars.mathErr == MathError.NO_ERROR, \"next stream id calculation error\");\n\n        require(IERC20(tokenAddress).transferFrom(msg.sender, address(this), deposit), \"token transfer failure\");\n        emit CreateStream(streamId, msg.sender, recipient, deposit, tokenAddress, startTime, stopTime);\n        return streamId;\n    }\n\n    struct WithdrawFromStreamLocalVars {\n        MathError mathErr;\n    }\n\n    /**\n     * @notice Withdraws from the contract to the recipient's account.\n     * @dev Throws if the id does not point to a valid stream.\n     *  Throws if the caller is not the sender or the recipient of the stream.\n     *  Throws if the amount exceeds the available balance.\n     *  Throws if there is a token transfer failure.\n     * @param streamId The id of the stream to withdraw tokens from.\n     * @param amount The amount of tokens to withdraw.\n     * @return bool true=success, otherwise false.\n     */\n    function withdrawFromStream(uint256 streamId, uint256 amount)\n    external\n    nonReentrant\n    streamExists(streamId)\n    onlySenderOrRecipient(streamId)\n    returns (bool)\n    {\n        require(amount > 0, \"amount is zero\");\n        Types.Stream memory stream = streams[streamId];\n        WithdrawFromStreamLocalVars memory vars;\n\n        uint256 balance = balanceOf(streamId, stream.recipient);\n        require(balance >= amount, \"amount exceeds the available balance\");\n\n        (vars.mathErr, streams[streamId].remainingBalance) = subUInt(stream.remainingBalance, amount);\n        /**\n         * `subUInt` can only return MathError.INTEGER_UNDERFLOW but we know that `remainingBalance` is at least\n         * as big as `amount`.\n         */\n        assert(vars.mathErr == MathError.NO_ERROR);\n\n        if (streams[streamId].remainingBalance == 0) delete streams[streamId];\n\n        require(IERC20(stream.tokenAddress).transfer(stream.recipient, amount), \"token transfer failure\");\n        emit WithdrawFromStream(streamId, stream.recipient, amount);\n\n        return true;\n    }\n\n    /**\n     * @notice Cancels the stream and transfers the tokens back on a pro rata basis.\n     * @dev Throws if the id does not point to a valid stream.\n     *  Throws if the caller is not the sender or the recipient of the stream.\n     *  Throws if there is a token transfer failure.\n     * @param streamId The id of the stream to cancel.\n     * @return bool true=success, otherwise false.\n     */\n    function cancelStream(uint256 streamId)\n    external\n    nonReentrant\n    streamExists(streamId)\n    onlySenderOrRecipient(streamId)\n    returns (bool)\n    {\n        Types.Stream memory stream = streams[streamId];\n        uint256 senderBalance = balanceOf(streamId, stream.sender);\n        uint256 recipientBalance = balanceOf(streamId, stream.recipient);\n\n        delete streams[streamId];\n\n        IERC20 token = IERC20(stream.tokenAddress);\n        if (recipientBalance > 0)\n            require(token.transfer(stream.recipient, recipientBalance), \"recipient token transfer failure\");\n        if (senderBalance > 0) require(token.transfer(stream.sender, senderBalance), \"sender token transfer failure\");\n\n        emit CancelStream(streamId, stream.sender, stream.recipient, senderBalance, recipientBalance);\n\n        return true;\n    }\n}",
  "sourcePath": "/Users/jamesmorgan/Dropbox/workspace-blockrocket/blockrocket/loan-shark/contracts/sablier/Sablier.sol",
  "compiler": {
    "name": "solc",
    "version": "0.5.14+commit.01f1aaa4.Emscripten.clang"
  },
  "schemaVersion": "3.0.19",
  "updatedAt": "2020-02-29T20:50:30.313Z",
  "networkType": "ethereum",
  "devdoc": {
    "author": "Sablier",
    "methods": {
      "balanceOf(uint256,address)": {
        "details": "Throws if the id does not point to a valid stream.",
        "params": {
          "streamId": "The id of the stream for which to query the balance.",
          "who": "The address for which to query the balance."
        },
        "return": "The total funds allocated to `who` as uint256."
      },
      "cancelStream(uint256)": {
        "details": "Throws if the id does not point to a valid stream. Throws if the caller is not the sender or the recipient of the stream. Throws if there is a token transfer failure.",
        "params": {
          "streamId": "The id of the stream to cancel."
        },
        "return": "bool true=success, otherwise false."
      },
      "createStream(address,uint256,address,uint256,uint256)": {
        "details": "Throws if paused. Throws if the recipient is the zero address, the contract itself or the caller. Throws if the deposit is 0. Throws if the start time is before `block.timestamp`. Throws if the stop time is before the start time. Throws if the duration calculation has a math error. Throws if the deposit is smaller than the duration. Throws if the deposit is not a multiple of the duration. Throws if the rate calculation has a math error. Throws if the next stream id calculation has a math error. Throws if the contract is not allowed to transfer enough tokens. Throws if there is a token transfer failure.",
        "params": {
          "deposit": "The amount of money to be streamed.",
          "recipient": "The address towards which the money is streamed.",
          "startTime": "The unix timestamp for when the stream starts.",
          "stopTime": "The unix timestamp for when the stream stops.",
          "tokenAddress": "The ERC20 token to use as streaming currency."
        },
        "return": "The uint256 id of the newly created stream."
      },
      "deltaOf(uint256)": {
        "details": "Throws if the id does not point to a valid stream.",
        "params": {
          "streamId": "The id of the stream for which to query the delta."
        },
        "return": "The time delta in seconds."
      },
      "getStream(uint256)": {
        "details": "Throws if the id does not point to a valid stream.",
        "params": {
          "streamId": "The id of the stream to query."
        },
        "return": "The stream object."
      },
      "withdrawFromStream(uint256,uint256)": {
        "details": "Throws if the id does not point to a valid stream. Throws if the caller is not the sender or the recipient of the stream. Throws if the amount exceeds the available balance. Throws if there is a token transfer failure.",
        "params": {
          "amount": "The amount of tokens to withdraw.",
          "streamId": "The id of the stream to withdraw tokens from."
        },
        "return": "bool true=success, otherwise false."
      }
    },
    "title": "Sablier's Money Streaming"
  },
  "userdoc": {
    "methods": {
      "balanceOf(uint256,address)": {
        "notice": "Returns the available funds for the given stream id and address."
      },
      "cancelStream(uint256)": {
        "notice": "Cancels the stream and transfers the tokens back on a pro rata basis."
      },
      "constructor": "* Contract Logic Starts Here ",
      "createStream(address,uint256,address,uint256,uint256)": {
        "notice": "Creates a new stream funded by `msg.sender` and paid towards `recipient`."
      },
      "deltaOf(uint256)": {
        "notice": "Returns either the delta in seconds between `block.timestamp` and `startTime` or between `stopTime` and `startTime, whichever is smaller. If `block.timestamp` is before `startTime`, it returns 0."
      },
      "getStream(uint256)": {
        "notice": "Returns the compounding stream with all its properties."
      },
      "withdrawFromStream(uint256,uint256)": {
        "notice": "Withdraws from the contract to the recipient's account."
      }
    }
  }
}